{
	"contract/VestingLiquidityHedgey.sol": {
		"VestingLiquidityHedgey": {
			"abi": [
				{
					"inputs": [
						{
							"internalType": "address",
							"name": "_receiverWallet",
							"type": "address"
						},
						{
							"internalType": "address",
							"name": "_poolAddress",
							"type": "address"
						},
						{
							"internalType": "address",
							"name": "_wrappedToken",
							"type": "address"
						}
					],
					"stateMutability": "nonpayable",
					"type": "constructor"
				},
				{
					"inputs": [
						{
							"internalType": "uint256",
							"name": "amount",
							"type": "uint256"
						}
					],
					"name": "approveContract",
					"outputs": [],
					"stateMutability": "nonpayable",
					"type": "function"
				},
				{
					"inputs": [
						{
							"internalType": "uint256",
							"name": "amount",
							"type": "uint256"
						}
					],
					"name": "depositAndTransfer",
					"outputs": [],
					"stateMutability": "nonpayable",
					"type": "function"
				},
				{
					"inputs": [],
					"name": "poolAddress",
					"outputs": [
						{
							"internalType": "address",
							"name": "",
							"type": "address"
						}
					],
					"stateMutability": "view",
					"type": "function"
				},
				{
					"inputs": [],
					"name": "receiverWallet",
					"outputs": [
						{
							"internalType": "address",
							"name": "",
							"type": "address"
						}
					],
					"stateMutability": "view",
					"type": "function"
				},
				{
					"inputs": [],
					"name": "wrappedToken",
					"outputs": [
						{
							"internalType": "contract IERC20",
							"name": "",
							"type": "address"
						}
					],
					"stateMutability": "view",
					"type": "function"
				}
			],
			"devdoc": {
				"kind": "dev",
				"methods": {},
				"version": 1
			},
			"evm": {
				"assembly": "    /* \"contract/VestingLiquidityHedgey.sol\":173:1834  contract VestingLiquidityHedgey {\r... */\n  mstore(0x40, 0x80)\n    /* \"contract/VestingLiquidityHedgey.sol\":316:769  constructor(address _receiverWallet, address _poolAddress, address _wrappedToken) {\r... */\n  callvalue\n  dup1\n  iszero\n  tag_1\n  jumpi\n  0x00\n  dup1\n  revert\ntag_1:\n  pop\n  mload(0x40)\n  sub(codesize, bytecodeSize)\n  dup1\n  bytecodeSize\n  dup4\n  codecopy\n  dup2\n  dup2\n  add\n  0x40\n  mstore\n  dup2\n  add\n  swap1\n  tag_2\n  swap2\n  swap1\n  tag_3\n  jump\t// in\ntag_2:\n    /* \"contract/VestingLiquidityHedgey.sol\":444:445  0 */\n  0x00\n    /* \"contract/VestingLiquidityHedgey.sol\":417:446  _receiverWallet != address(0) */\n  0xffffffffffffffffffffffffffffffffffffffff\n  and\n    /* \"contract/VestingLiquidityHedgey.sol\":417:432  _receiverWallet */\n  dup4\n    /* \"contract/VestingLiquidityHedgey.sol\":417:446  _receiverWallet != address(0) */\n  0xffffffffffffffffffffffffffffffffffffffff\n  and\n  eq\n  iszero\n    /* \"contract/VestingLiquidityHedgey.sol\":409:482  require(_receiverWallet != address(0), \"Invalid receiver wallet address\") */\n  tag_6\n  jumpi\n  mload(0x40)\n  0x08c379a000000000000000000000000000000000000000000000000000000000\n  dup2\n  mstore\n  0x04\n  add\n  tag_7\n  swap1\n  tag_8\n  jump\t// in\ntag_7:\n  mload(0x40)\n  dup1\n  swap2\n  sub\n  swap1\n  revert\ntag_6:\n    /* \"contract/VestingLiquidityHedgey.sol\":525:526  0 */\n  0x00\n    /* \"contract/VestingLiquidityHedgey.sol\":501:527  _poolAddress != address(0) */\n  0xffffffffffffffffffffffffffffffffffffffff\n  and\n    /* \"contract/VestingLiquidityHedgey.sol\":501:513  _poolAddress */\n  dup3\n    /* \"contract/VestingLiquidityHedgey.sol\":501:527  _poolAddress != address(0) */\n  0xffffffffffffffffffffffffffffffffffffffff\n  and\n  eq\n  iszero\n    /* \"contract/VestingLiquidityHedgey.sol\":493:552  require(_poolAddress != address(0), \"Invalid pool address\") */\n  tag_9\n  jumpi\n  mload(0x40)\n  0x08c379a000000000000000000000000000000000000000000000000000000000\n  dup2\n  mstore\n  0x04\n  add\n  tag_10\n  swap1\n  tag_11\n  jump\t// in\ntag_10:\n  mload(0x40)\n  dup1\n  swap2\n  sub\n  swap1\n  revert\ntag_9:\n    /* \"contract/VestingLiquidityHedgey.sol\":596:597  0 */\n  0x00\n    /* \"contract/VestingLiquidityHedgey.sol\":571:598  _wrappedToken != address(0) */\n  0xffffffffffffffffffffffffffffffffffffffff\n  and\n    /* \"contract/VestingLiquidityHedgey.sol\":571:584  _wrappedToken */\n  dup2\n    /* \"contract/VestingLiquidityHedgey.sol\":571:598  _wrappedToken != address(0) */\n  0xffffffffffffffffffffffffffffffffffffffff\n  and\n  eq\n  iszero\n    /* \"contract/VestingLiquidityHedgey.sol\":563:632  require(_wrappedToken != address(0), \"Invalid wrapped token address\") */\n  tag_12\n  jumpi\n  mload(0x40)\n  0x08c379a000000000000000000000000000000000000000000000000000000000\n  dup2\n  mstore\n  0x04\n  add\n  tag_13\n  swap1\n  tag_14\n  jump\t// in\ntag_13:\n  mload(0x40)\n  dup1\n  swap2\n  sub\n  swap1\n  revert\ntag_12:\n    /* \"contract/VestingLiquidityHedgey.sol\":662:677  _receiverWallet */\n  dup3\n    /* \"contract/VestingLiquidityHedgey.sol\":645:659  receiverWallet */\n  0x00\n  dup1\n    /* \"contract/VestingLiquidityHedgey.sol\":645:677  receiverWallet = _receiverWallet */\n  0x0100\n  exp\n  dup2\n  sload\n  dup2\n  0xffffffffffffffffffffffffffffffffffffffff\n  mul\n  not\n  and\n  swap1\n  dup4\n  0xffffffffffffffffffffffffffffffffffffffff\n  and\n  mul\n  or\n  swap1\n  sstore\n  pop\n    /* \"contract/VestingLiquidityHedgey.sol\":702:714  _poolAddress */\n  dup2\n    /* \"contract/VestingLiquidityHedgey.sol\":688:699  poolAddress */\n  0x01\n  0x00\n    /* \"contract/VestingLiquidityHedgey.sol\":688:714  poolAddress = _poolAddress */\n  0x0100\n  exp\n  dup2\n  sload\n  dup2\n  0xffffffffffffffffffffffffffffffffffffffff\n  mul\n  not\n  and\n  swap1\n  dup4\n  0xffffffffffffffffffffffffffffffffffffffff\n  and\n  mul\n  or\n  swap1\n  sstore\n  pop\n    /* \"contract/VestingLiquidityHedgey.sol\":747:760  _wrappedToken */\n  dup1\n    /* \"contract/VestingLiquidityHedgey.sol\":725:737  wrappedToken */\n  0x02\n  0x00\n    /* \"contract/VestingLiquidityHedgey.sol\":725:761  wrappedToken = IERC20(_wrappedToken) */\n  0x0100\n  exp\n  dup2\n  sload\n  dup2\n  0xffffffffffffffffffffffffffffffffffffffff\n  mul\n  not\n  and\n  swap1\n  dup4\n  0xffffffffffffffffffffffffffffffffffffffff\n  and\n  mul\n  or\n  swap1\n  sstore\n  pop\n    /* \"contract/VestingLiquidityHedgey.sol\":316:769  constructor(address _receiverWallet, address _poolAddress, address _wrappedToken) {\r... */\n  pop\n  pop\n  pop\n    /* \"contract/VestingLiquidityHedgey.sol\":173:1834  contract VestingLiquidityHedgey {\r... */\n  jump(tag_15)\n    /* \"#utility.yul\":7:150   */\ntag_17:\n  0x00\n    /* \"#utility.yul\":95:101   */\n  dup2\n    /* \"#utility.yul\":89:102   */\n  mload\n    /* \"#utility.yul\":80:102   */\n  swap1\n  pop\n    /* \"#utility.yul\":111:144   */\n  tag_19\n    /* \"#utility.yul\":138:143   */\n  dup2\n    /* \"#utility.yul\":111:144   */\n  tag_20\n  jump\t// in\ntag_19:\n    /* \"#utility.yul\":70:150   */\n  swap3\n  swap2\n  pop\n  pop\n  jump\t// out\n    /* \"#utility.yul\":156:752   */\ntag_3:\n  0x00\n  dup1\n  0x00\n    /* \"#utility.yul\":309:311   */\n  0x60\n    /* \"#utility.yul\":297:306   */\n  dup5\n    /* \"#utility.yul\":288:295   */\n  dup7\n    /* \"#utility.yul\":284:307   */\n  sub\n    /* \"#utility.yul\":280:312   */\n  slt\n    /* \"#utility.yul\":277:279   */\n  iszero\n  tag_22\n  jumpi\n    /* \"#utility.yul\":325:326   */\n  0x00\n    /* \"#utility.yul\":322:323   */\n  dup1\n    /* \"#utility.yul\":315:327   */\n  revert\n    /* \"#utility.yul\":277:279   */\ntag_22:\n    /* \"#utility.yul\":368:369   */\n  0x00\n    /* \"#utility.yul\":393:457   */\n  tag_23\n    /* \"#utility.yul\":449:456   */\n  dup7\n    /* \"#utility.yul\":440:446   */\n  dup3\n    /* \"#utility.yul\":429:438   */\n  dup8\n    /* \"#utility.yul\":425:447   */\n  add\n    /* \"#utility.yul\":393:457   */\n  tag_17\n  jump\t// in\ntag_23:\n    /* \"#utility.yul\":383:457   */\n  swap4\n  pop\n    /* \"#utility.yul\":339:467   */\n  pop\n    /* \"#utility.yul\":506:508   */\n  0x20\n    /* \"#utility.yul\":532:596   */\n  tag_24\n    /* \"#utility.yul\":588:595   */\n  dup7\n    /* \"#utility.yul\":579:585   */\n  dup3\n    /* \"#utility.yul\":568:577   */\n  dup8\n    /* \"#utility.yul\":564:586   */\n  add\n    /* \"#utility.yul\":532:596   */\n  tag_17\n  jump\t// in\ntag_24:\n    /* \"#utility.yul\":522:596   */\n  swap3\n  pop\n    /* \"#utility.yul\":477:606   */\n  pop\n    /* \"#utility.yul\":645:647   */\n  0x40\n    /* \"#utility.yul\":671:735   */\n  tag_25\n    /* \"#utility.yul\":727:734   */\n  dup7\n    /* \"#utility.yul\":718:724   */\n  dup3\n    /* \"#utility.yul\":707:716   */\n  dup8\n    /* \"#utility.yul\":703:725   */\n  add\n    /* \"#utility.yul\":671:735   */\n  tag_17\n  jump\t// in\ntag_25:\n    /* \"#utility.yul\":661:735   */\n  swap2\n  pop\n    /* \"#utility.yul\":616:745   */\n  pop\n    /* \"#utility.yul\":267:752   */\n  swap3\n  pop\n  swap3\n  pop\n  swap3\n  jump\t// out\n    /* \"#utility.yul\":758:1087   */\ntag_26:\n  0x00\n    /* \"#utility.yul\":921:988   */\n  tag_28\n    /* \"#utility.yul\":985:987   */\n  0x1f\n    /* \"#utility.yul\":980:983   */\n  dup4\n    /* \"#utility.yul\":921:988   */\n  tag_29\n  jump\t// in\ntag_28:\n    /* \"#utility.yul\":914:988   */\n  swap2\n  pop\n    /* \"#utility.yul\":1018:1051   */\n  0x496e76616c69642072656365697665722077616c6c6574206164647265737300\n    /* \"#utility.yul\":1014:1015   */\n  0x00\n    /* \"#utility.yul\":1009:1012   */\n  dup4\n    /* \"#utility.yul\":1005:1016   */\n  add\n    /* \"#utility.yul\":998:1052   */\n  mstore\n    /* \"#utility.yul\":1078:1080   */\n  0x20\n    /* \"#utility.yul\":1073:1076   */\n  dup3\n    /* \"#utility.yul\":1069:1081   */\n  add\n    /* \"#utility.yul\":1062:1081   */\n  swap1\n  pop\n    /* \"#utility.yul\":904:1087   */\n  swap2\n  swap1\n  pop\n  jump\t// out\n    /* \"#utility.yul\":1093:1420   */\ntag_30:\n  0x00\n    /* \"#utility.yul\":1256:1323   */\n  tag_32\n    /* \"#utility.yul\":1320:1322   */\n  0x1d\n    /* \"#utility.yul\":1315:1318   */\n  dup4\n    /* \"#utility.yul\":1256:1323   */\n  tag_29\n  jump\t// in\ntag_32:\n    /* \"#utility.yul\":1249:1323   */\n  swap2\n  pop\n    /* \"#utility.yul\":1353:1384   */\n  0x496e76616c6964207772617070656420746f6b656e2061646472657373000000\n    /* \"#utility.yul\":1349:1350   */\n  0x00\n    /* \"#utility.yul\":1344:1347   */\n  dup4\n    /* \"#utility.yul\":1340:1351   */\n  add\n    /* \"#utility.yul\":1333:1385   */\n  mstore\n    /* \"#utility.yul\":1411:1413   */\n  0x20\n    /* \"#utility.yul\":1406:1409   */\n  dup3\n    /* \"#utility.yul\":1402:1414   */\n  add\n    /* \"#utility.yul\":1395:1414   */\n  swap1\n  pop\n    /* \"#utility.yul\":1239:1420   */\n  swap2\n  swap1\n  pop\n  jump\t// out\n    /* \"#utility.yul\":1426:1744   */\ntag_33:\n  0x00\n    /* \"#utility.yul\":1589:1656   */\n  tag_35\n    /* \"#utility.yul\":1653:1655   */\n  0x14\n    /* \"#utility.yul\":1648:1651   */\n  dup4\n    /* \"#utility.yul\":1589:1656   */\n  tag_29\n  jump\t// in\ntag_35:\n    /* \"#utility.yul\":1582:1656   */\n  swap2\n  pop\n    /* \"#utility.yul\":1686:1708   */\n  0x496e76616c696420706f6f6c2061646472657373000000000000000000000000\n    /* \"#utility.yul\":1682:1683   */\n  0x00\n    /* \"#utility.yul\":1677:1680   */\n  dup4\n    /* \"#utility.yul\":1673:1684   */\n  add\n    /* \"#utility.yul\":1666:1709   */\n  mstore\n    /* \"#utility.yul\":1735:1737   */\n  0x20\n    /* \"#utility.yul\":1730:1733   */\n  dup3\n    /* \"#utility.yul\":1726:1738   */\n  add\n    /* \"#utility.yul\":1719:1738   */\n  swap1\n  pop\n    /* \"#utility.yul\":1572:1744   */\n  swap2\n  swap1\n  pop\n  jump\t// out\n    /* \"#utility.yul\":1750:2169   */\ntag_8:\n  0x00\n    /* \"#utility.yul\":1954:1956   */\n  0x20\n    /* \"#utility.yul\":1943:1952   */\n  dup3\n    /* \"#utility.yul\":1939:1957   */\n  add\n    /* \"#utility.yul\":1931:1957   */\n  swap1\n  pop\n    /* \"#utility.yul\":2003:2012   */\n  dup2\n    /* \"#utility.yul\":1997:2001   */\n  dup2\n    /* \"#utility.yul\":1993:2013   */\n  sub\n    /* \"#utility.yul\":1989:1990   */\n  0x00\n    /* \"#utility.yul\":1978:1987   */\n  dup4\n    /* \"#utility.yul\":1974:1991   */\n  add\n    /* \"#utility.yul\":1967:2014   */\n  mstore\n    /* \"#utility.yul\":2031:2162   */\n  tag_37\n    /* \"#utility.yul\":2157:2161   */\n  dup2\n    /* \"#utility.yul\":2031:2162   */\n  tag_26\n  jump\t// in\ntag_37:\n    /* \"#utility.yul\":2023:2162   */\n  swap1\n  pop\n    /* \"#utility.yul\":1921:2169   */\n  swap2\n  swap1\n  pop\n  jump\t// out\n    /* \"#utility.yul\":2175:2594   */\ntag_14:\n  0x00\n    /* \"#utility.yul\":2379:2381   */\n  0x20\n    /* \"#utility.yul\":2368:2377   */\n  dup3\n    /* \"#utility.yul\":2364:2382   */\n  add\n    /* \"#utility.yul\":2356:2382   */\n  swap1\n  pop\n    /* \"#utility.yul\":2428:2437   */\n  dup2\n    /* \"#utility.yul\":2422:2426   */\n  dup2\n    /* \"#utility.yul\":2418:2438   */\n  sub\n    /* \"#utility.yul\":2414:2415   */\n  0x00\n    /* \"#utility.yul\":2403:2412   */\n  dup4\n    /* \"#utility.yul\":2399:2416   */\n  add\n    /* \"#utility.yul\":2392:2439   */\n  mstore\n    /* \"#utility.yul\":2456:2587   */\n  tag_39\n    /* \"#utility.yul\":2582:2586   */\n  dup2\n    /* \"#utility.yul\":2456:2587   */\n  tag_30\n  jump\t// in\ntag_39:\n    /* \"#utility.yul\":2448:2587   */\n  swap1\n  pop\n    /* \"#utility.yul\":2346:2594   */\n  swap2\n  swap1\n  pop\n  jump\t// out\n    /* \"#utility.yul\":2600:3019   */\ntag_11:\n  0x00\n    /* \"#utility.yul\":2804:2806   */\n  0x20\n    /* \"#utility.yul\":2793:2802   */\n  dup3\n    /* \"#utility.yul\":2789:2807   */\n  add\n    /* \"#utility.yul\":2781:2807   */\n  swap1\n  pop\n    /* \"#utility.yul\":2853:2862   */\n  dup2\n    /* \"#utility.yul\":2847:2851   */\n  dup2\n    /* \"#utility.yul\":2843:2863   */\n  sub\n    /* \"#utility.yul\":2839:2840   */\n  0x00\n    /* \"#utility.yul\":2828:2837   */\n  dup4\n    /* \"#utility.yul\":2824:2841   */\n  add\n    /* \"#utility.yul\":2817:2864   */\n  mstore\n    /* \"#utility.yul\":2881:3012   */\n  tag_41\n    /* \"#utility.yul\":3007:3011   */\n  dup2\n    /* \"#utility.yul\":2881:3012   */\n  tag_33\n  jump\t// in\ntag_41:\n    /* \"#utility.yul\":2873:3012   */\n  swap1\n  pop\n    /* \"#utility.yul\":2771:3019   */\n  swap2\n  swap1\n  pop\n  jump\t// out\n    /* \"#utility.yul\":3025:3194   */\ntag_29:\n  0x00\n    /* \"#utility.yul\":3143:3149   */\n  dup3\n    /* \"#utility.yul\":3138:3141   */\n  dup3\n    /* \"#utility.yul\":3131:3150   */\n  mstore\n    /* \"#utility.yul\":3183:3187   */\n  0x20\n    /* \"#utility.yul\":3178:3181   */\n  dup3\n    /* \"#utility.yul\":3174:3188   */\n  add\n    /* \"#utility.yul\":3159:3188   */\n  swap1\n  pop\n    /* \"#utility.yul\":3121:3194   */\n  swap3\n  swap2\n  pop\n  pop\n  jump\t// out\n    /* \"#utility.yul\":3200:3296   */\ntag_43:\n  0x00\n    /* \"#utility.yul\":3266:3290   */\n  tag_45\n    /* \"#utility.yul\":3284:3289   */\n  dup3\n    /* \"#utility.yul\":3266:3290   */\n  tag_46\n  jump\t// in\ntag_45:\n    /* \"#utility.yul\":3255:3290   */\n  swap1\n  pop\n    /* \"#utility.yul\":3245:3296   */\n  swap2\n  swap1\n  pop\n  jump\t// out\n    /* \"#utility.yul\":3302:3428   */\ntag_46:\n  0x00\n    /* \"#utility.yul\":3379:3421   */\n  0xffffffffffffffffffffffffffffffffffffffff\n    /* \"#utility.yul\":3372:3377   */\n  dup3\n    /* \"#utility.yul\":3368:3422   */\n  and\n    /* \"#utility.yul\":3357:3422   */\n  swap1\n  pop\n    /* \"#utility.yul\":3347:3428   */\n  swap2\n  swap1\n  pop\n  jump\t// out\n    /* \"#utility.yul\":3434:3556   */\ntag_20:\n    /* \"#utility.yul\":3507:3531   */\n  tag_49\n    /* \"#utility.yul\":3525:3530   */\n  dup2\n    /* \"#utility.yul\":3507:3531   */\n  tag_43\n  jump\t// in\ntag_49:\n    /* \"#utility.yul\":3500:3505   */\n  dup2\n    /* \"#utility.yul\":3497:3532   */\n  eq\n    /* \"#utility.yul\":3487:3489   */\n  tag_50\n  jumpi\n    /* \"#utility.yul\":3546:3547   */\n  0x00\n    /* \"#utility.yul\":3543:3544   */\n  dup1\n    /* \"#utility.yul\":3536:3548   */\n  revert\n    /* \"#utility.yul\":3487:3489   */\ntag_50:\n    /* \"#utility.yul\":3477:3556   */\n  pop\n  jump\t// out\n    /* \"contract/VestingLiquidityHedgey.sol\":173:1834  contract VestingLiquidityHedgey {\r... */\ntag_15:\n  dataSize(sub_0)\n  dup1\n  dataOffset(sub_0)\n  0x00\n  codecopy\n  0x00\n  return\nstop\n\nsub_0: assembly {\n        /* \"contract/VestingLiquidityHedgey.sol\":173:1834  contract VestingLiquidityHedgey {\r... */\n      mstore(0x40, 0x80)\n      callvalue\n      dup1\n      iszero\n      tag_1\n      jumpi\n      0x00\n      dup1\n      revert\n    tag_1:\n      pop\n      jumpi(tag_2, lt(calldatasize, 0x04))\n      shr(0xe0, calldataload(0x00))\n      dup1\n      0x1755ff21\n      eq\n      tag_3\n      jumpi\n      dup1\n      0x62c35c01\n      eq\n      tag_4\n      jumpi\n      dup1\n      0x677342ab\n      eq\n      tag_5\n      jumpi\n      dup1\n      0x996c6cc3\n      eq\n      tag_6\n      jumpi\n      dup1\n      0xc4da9247\n      eq\n      tag_7\n      jumpi\n    tag_2:\n      0x00\n      dup1\n      revert\n        /* \"contract/VestingLiquidityHedgey.sol\":248:274  address public poolAddress */\n    tag_3:\n      tag_8\n      tag_9\n      jump\t// in\n    tag_8:\n      mload(0x40)\n      tag_10\n      swap2\n      swap1\n      tag_11\n      jump\t// in\n    tag_10:\n      mload(0x40)\n      dup1\n      swap2\n      sub\n      swap1\n      return\n        /* \"contract/VestingLiquidityHedgey.sol\":1645:1831  function approveContract(uint256 amount) external {\r... */\n    tag_4:\n      tag_12\n      0x04\n      dup1\n      calldatasize\n      sub\n      dup2\n      add\n      swap1\n      tag_13\n      swap2\n      swap1\n      tag_14\n      jump\t// in\n    tag_13:\n      tag_15\n      jump\t// in\n    tag_12:\n      stop\n        /* \"contract/VestingLiquidityHedgey.sol\":212:241  address public receiverWallet */\n    tag_5:\n      tag_16\n      tag_17\n      jump\t// in\n    tag_16:\n      mload(0x40)\n      tag_18\n      swap2\n      swap1\n      tag_11\n      jump\t// in\n    tag_18:\n      mload(0x40)\n      dup1\n      swap2\n      sub\n      swap1\n      return\n        /* \"contract/VestingLiquidityHedgey.sol\":281:307  IERC20 public wrappedToken */\n    tag_6:\n      tag_19\n      tag_20\n      jump\t// in\n    tag_19:\n      mload(0x40)\n      tag_21\n      swap2\n      swap1\n      tag_22\n      jump\t// in\n    tag_21:\n      mload(0x40)\n      dup1\n      swap2\n      sub\n      swap1\n      return\n        /* \"contract/VestingLiquidityHedgey.sol\":845:1564  function depositAndTransfer(uint256 amount) external {\r... */\n    tag_7:\n      tag_23\n      0x04\n      dup1\n      calldatasize\n      sub\n      dup2\n      add\n      swap1\n      tag_24\n      swap2\n      swap1\n      tag_14\n      jump\t// in\n    tag_24:\n      tag_25\n      jump\t// in\n    tag_23:\n      stop\n        /* \"contract/VestingLiquidityHedgey.sol\":248:274  address public poolAddress */\n    tag_9:\n      0x01\n      0x00\n      swap1\n      sload\n      swap1\n      0x0100\n      exp\n      swap1\n      div\n      0xffffffffffffffffffffffffffffffffffffffff\n      and\n      dup2\n      jump\t// out\n        /* \"contract/VestingLiquidityHedgey.sol\":1645:1831  function approveContract(uint256 amount) external {\r... */\n    tag_15:\n        /* \"contract/VestingLiquidityHedgey.sol\":1780:1792  wrappedToken */\n      0x02\n      0x00\n      swap1\n      sload\n      swap1\n      0x0100\n      exp\n      swap1\n      div\n      0xffffffffffffffffffffffffffffffffffffffff\n      and\n        /* \"contract/VestingLiquidityHedgey.sol\":1780:1800  wrappedToken.approve */\n      0xffffffffffffffffffffffffffffffffffffffff\n      and\n      0x095ea7b3\n        /* \"contract/VestingLiquidityHedgey.sol\":1809:1813  this */\n      address\n        /* \"contract/VestingLiquidityHedgey.sol\":1816:1822  amount */\n      dup4\n        /* \"contract/VestingLiquidityHedgey.sol\":1780:1823  wrappedToken.approve(address(this), amount) */\n      mload(0x40)\n      dup4\n      0xffffffff\n      and\n      0xe0\n      shl\n      dup2\n      mstore\n      0x04\n      add\n      tag_27\n      swap3\n      swap2\n      swap1\n      tag_28\n      jump\t// in\n    tag_27:\n      0x20\n      mload(0x40)\n      dup1\n      dup4\n      sub\n      dup2\n      0x00\n      dup8\n      dup1\n      extcodesize\n      iszero\n      dup1\n      iszero\n      tag_29\n      jumpi\n      0x00\n      dup1\n      revert\n    tag_29:\n      pop\n      gas\n      call\n      iszero\n      dup1\n      iszero\n      tag_31\n      jumpi\n      returndatasize\n      0x00\n      dup1\n      returndatacopy\n      revert(0x00, returndatasize)\n    tag_31:\n      pop\n      pop\n      pop\n      pop\n      mload(0x40)\n      returndatasize\n      not(0x1f)\n      0x1f\n      dup3\n      add\n      and\n      dup3\n      add\n      dup1\n      0x40\n      mstore\n      pop\n      dup2\n      add\n      swap1\n      tag_32\n      swap2\n      swap1\n      tag_33\n      jump\t// in\n    tag_32:\n      pop\n        /* \"contract/VestingLiquidityHedgey.sol\":1645:1831  function approveContract(uint256 amount) external {\r... */\n      pop\n      jump\t// out\n        /* \"contract/VestingLiquidityHedgey.sol\":212:241  address public receiverWallet */\n    tag_17:\n      0x00\n      dup1\n      sload\n      swap1\n      0x0100\n      exp\n      swap1\n      div\n      0xffffffffffffffffffffffffffffffffffffffff\n      and\n      dup2\n      jump\t// out\n        /* \"contract/VestingLiquidityHedgey.sol\":281:307  IERC20 public wrappedToken */\n    tag_20:\n      0x02\n      0x00\n      swap1\n      sload\n      swap1\n      0x0100\n      exp\n      swap1\n      div\n      0xffffffffffffffffffffffffffffffffffffffff\n      and\n      dup2\n      jump\t// out\n        /* \"contract/VestingLiquidityHedgey.sol\":845:1564  function depositAndTransfer(uint256 amount) external {\r... */\n    tag_25:\n        /* \"contract/VestingLiquidityHedgey.sol\":926:927  0 */\n      0x00\n        /* \"contract/VestingLiquidityHedgey.sol\":917:923  amount */\n      dup2\n        /* \"contract/VestingLiquidityHedgey.sol\":917:927  amount > 0 */\n      gt\n        /* \"contract/VestingLiquidityHedgey.sol\":909:969  require(amount > 0, \"Deposit amount must be greater than 0\") */\n      tag_35\n      jumpi\n      mload(0x40)\n      0x08c379a000000000000000000000000000000000000000000000000000000000\n      dup2\n      mstore\n      0x04\n      add\n      tag_36\n      swap1\n      tag_37\n      jump\t// in\n    tag_36:\n      mload(0x40)\n      dup1\n      swap2\n      sub\n      swap1\n      revert\n    tag_35:\n        /* \"contract/VestingLiquidityHedgey.sol\":1130:1136  amount */\n      dup1\n        /* \"contract/VestingLiquidityHedgey.sol\":1077:1089  wrappedToken */\n      0x02\n      0x00\n      swap1\n      sload\n      swap1\n      0x0100\n      exp\n      swap1\n      div\n      0xffffffffffffffffffffffffffffffffffffffff\n      and\n        /* \"contract/VestingLiquidityHedgey.sol\":1077:1099  wrappedToken.allowance */\n      0xffffffffffffffffffffffffffffffffffffffff\n      and\n      0xdd62ed3e\n        /* \"contract/VestingLiquidityHedgey.sol\":1100:1110  msg.sender */\n      caller\n        /* \"contract/VestingLiquidityHedgey.sol\":1120:1124  this */\n      address\n        /* \"contract/VestingLiquidityHedgey.sol\":1077:1126  wrappedToken.allowance(msg.sender, address(this)) */\n      mload(0x40)\n      dup4\n      0xffffffff\n      and\n      0xe0\n      shl\n      dup2\n      mstore\n      0x04\n      add\n      tag_38\n      swap3\n      swap2\n      swap1\n      tag_39\n      jump\t// in\n    tag_38:\n      0x20\n      mload(0x40)\n      dup1\n      dup4\n      sub\n      dup2\n      dup7\n      dup1\n      extcodesize\n      iszero\n      dup1\n      iszero\n      tag_40\n      jumpi\n      0x00\n      dup1\n      revert\n    tag_40:\n      pop\n      gas\n      staticcall\n      iszero\n      dup1\n      iszero\n      tag_42\n      jumpi\n      returndatasize\n      0x00\n      dup1\n      returndatacopy\n      revert(0x00, returndatasize)\n    tag_42:\n      pop\n      pop\n      pop\n      pop\n      mload(0x40)\n      returndatasize\n      not(0x1f)\n      0x1f\n      dup3\n      add\n      and\n      dup3\n      add\n      dup1\n      0x40\n      mstore\n      pop\n      dup2\n      add\n      swap1\n      tag_43\n      swap2\n      swap1\n      tag_44\n      jump\t// in\n    tag_43:\n        /* \"contract/VestingLiquidityHedgey.sol\":1077:1136  wrappedToken.allowance(msg.sender, address(this)) >= amount */\n      lt\n      iszero\n        /* \"contract/VestingLiquidityHedgey.sol\":1069:1161  require(wrappedToken.allowance(msg.sender, address(this)) >= amount, \"Not enough allowance\") */\n      tag_45\n      jumpi\n      mload(0x40)\n      0x08c379a000000000000000000000000000000000000000000000000000000000\n      dup2\n      mstore\n      0x04\n      add\n      tag_46\n      swap1\n      tag_47\n      jump\t// in\n    tag_46:\n      mload(0x40)\n      dup1\n      swap2\n      sub\n      swap1\n      revert\n    tag_45:\n        /* \"contract/VestingLiquidityHedgey.sol\":1239:1251  wrappedToken */\n      0x02\n      0x00\n      swap1\n      sload\n      swap1\n      0x0100\n      exp\n      swap1\n      div\n      0xffffffffffffffffffffffffffffffffffffffff\n      and\n        /* \"contract/VestingLiquidityHedgey.sol\":1239:1264  wrappedToken.transferFrom */\n      0xffffffffffffffffffffffffffffffffffffffff\n      and\n      0x23b872dd\n        /* \"contract/VestingLiquidityHedgey.sol\":1265:1275  msg.sender */\n      caller\n        /* \"contract/VestingLiquidityHedgey.sol\":1285:1289  this */\n      address\n        /* \"contract/VestingLiquidityHedgey.sol\":1292:1298  amount */\n      dup5\n        /* \"contract/VestingLiquidityHedgey.sol\":1239:1299  wrappedToken.transferFrom(msg.sender, address(this), amount) */\n      mload(0x40)\n      dup5\n      0xffffffff\n      and\n      0xe0\n      shl\n      dup2\n      mstore\n      0x04\n      add\n      tag_48\n      swap4\n      swap3\n      swap2\n      swap1\n      tag_49\n      jump\t// in\n    tag_48:\n      0x20\n      mload(0x40)\n      dup1\n      dup4\n      sub\n      dup2\n      0x00\n      dup8\n      dup1\n      extcodesize\n      iszero\n      dup1\n      iszero\n      tag_50\n      jumpi\n      0x00\n      dup1\n      revert\n    tag_50:\n      pop\n      gas\n      call\n      iszero\n      dup1\n      iszero\n      tag_52\n      jumpi\n      returndatasize\n      0x00\n      dup1\n      returndatacopy\n      revert(0x00, returndatasize)\n    tag_52:\n      pop\n      pop\n      pop\n      pop\n      mload(0x40)\n      returndatasize\n      not(0x1f)\n      0x1f\n      dup3\n      add\n      and\n      dup3\n      add\n      dup1\n      0x40\n      mstore\n      pop\n      dup2\n      add\n      swap1\n      tag_53\n      swap2\n      swap1\n      tag_33\n      jump\t// in\n    tag_53:\n        /* \"contract/VestingLiquidityHedgey.sol\":1231:1319  require(wrappedToken.transferFrom(msg.sender, address(this), amount), \"Transfer failed\") */\n      tag_54\n      jumpi\n      mload(0x40)\n      0x08c379a000000000000000000000000000000000000000000000000000000000\n      dup2\n      mstore\n      0x04\n      add\n      tag_55\n      swap1\n      tag_56\n      jump\t// in\n    tag_55:\n      mload(0x40)\n      dup1\n      swap2\n      sub\n      swap1\n      revert\n    tag_54:\n        /* \"contract/VestingLiquidityHedgey.sol\":1407:1419  wrappedToken */\n      0x02\n      0x00\n      swap1\n      sload\n      swap1\n      0x0100\n      exp\n      swap1\n      div\n      0xffffffffffffffffffffffffffffffffffffffff\n      and\n        /* \"contract/VestingLiquidityHedgey.sol\":1407:1428  wrappedToken.transfer */\n      0xffffffffffffffffffffffffffffffffffffffff\n      and\n      0xa9059cbb\n        /* \"contract/VestingLiquidityHedgey.sol\":1429:1440  poolAddress */\n      0x01\n      0x00\n      swap1\n      sload\n      swap1\n      0x0100\n      exp\n      swap1\n      div\n      0xffffffffffffffffffffffffffffffffffffffff\n      and\n        /* \"contract/VestingLiquidityHedgey.sol\":1442:1448  amount */\n      dup4\n        /* \"contract/VestingLiquidityHedgey.sol\":1407:1449  wrappedToken.transfer(poolAddress, amount) */\n      mload(0x40)\n      dup4\n      0xffffffff\n      and\n      0xe0\n      shl\n      dup2\n      mstore\n      0x04\n      add\n      tag_57\n      swap3\n      swap2\n      swap1\n      tag_28\n      jump\t// in\n    tag_57:\n      0x20\n      mload(0x40)\n      dup1\n      dup4\n      sub\n      dup2\n      0x00\n      dup8\n      dup1\n      extcodesize\n      iszero\n      dup1\n      iszero\n      tag_58\n      jumpi\n      0x00\n      dup1\n      revert\n    tag_58:\n      pop\n      gas\n      call\n      iszero\n      dup1\n      iszero\n      tag_60\n      jumpi\n      returndatasize\n      0x00\n      dup1\n      returndatacopy\n      revert(0x00, returndatasize)\n    tag_60:\n      pop\n      pop\n      pop\n      pop\n      mload(0x40)\n      returndatasize\n      not(0x1f)\n      0x1f\n      dup3\n      add\n      and\n      dup3\n      add\n      dup1\n      0x40\n      mstore\n      pop\n      dup2\n      add\n      swap1\n      tag_61\n      swap2\n      swap1\n      tag_33\n      jump\t// in\n    tag_61:\n        /* \"contract/VestingLiquidityHedgey.sol\":1399:1477  require(wrappedToken.transfer(poolAddress, amount), \"Transfer to pool failed\") */\n      tag_62\n      jumpi\n      mload(0x40)\n      0x08c379a000000000000000000000000000000000000000000000000000000000\n      dup2\n      mstore\n      0x04\n      add\n      tag_63\n      swap1\n      tag_64\n      jump\t// in\n    tag_63:\n      mload(0x40)\n      dup1\n      swap2\n      sub\n      swap1\n      revert\n    tag_62:\n        /* \"contract/VestingLiquidityHedgey.sol\":845:1564  function depositAndTransfer(uint256 amount) external {\r... */\n      pop\n      jump\t// out\n        /* \"#utility.yul\":7:144   */\n    tag_66:\n      0x00\n        /* \"#utility.yul\":92:98   */\n      dup2\n        /* \"#utility.yul\":86:99   */\n      mload\n        /* \"#utility.yul\":77:99   */\n      swap1\n      pop\n        /* \"#utility.yul\":108:138   */\n      tag_68\n        /* \"#utility.yul\":132:137   */\n      dup2\n        /* \"#utility.yul\":108:138   */\n      tag_69\n      jump\t// in\n    tag_68:\n        /* \"#utility.yul\":67:144   */\n      swap3\n      swap2\n      pop\n      pop\n      jump\t// out\n        /* \"#utility.yul\":150:289   */\n    tag_70:\n      0x00\n        /* \"#utility.yul\":234:240   */\n      dup2\n        /* \"#utility.yul\":221:241   */\n      calldataload\n        /* \"#utility.yul\":212:241   */\n      swap1\n      pop\n        /* \"#utility.yul\":250:283   */\n      tag_72\n        /* \"#utility.yul\":277:282   */\n      dup2\n        /* \"#utility.yul\":250:283   */\n      tag_73\n      jump\t// in\n    tag_72:\n        /* \"#utility.yul\":202:289   */\n      swap3\n      swap2\n      pop\n      pop\n      jump\t// out\n        /* \"#utility.yul\":295:438   */\n    tag_74:\n      0x00\n        /* \"#utility.yul\":383:389   */\n      dup2\n        /* \"#utility.yul\":377:390   */\n      mload\n        /* \"#utility.yul\":368:390   */\n      swap1\n      pop\n        /* \"#utility.yul\":399:432   */\n      tag_76\n        /* \"#utility.yul\":426:431   */\n      dup2\n        /* \"#utility.yul\":399:432   */\n      tag_73\n      jump\t// in\n    tag_76:\n        /* \"#utility.yul\":358:438   */\n      swap3\n      swap2\n      pop\n      pop\n      jump\t// out\n        /* \"#utility.yul\":444:722   */\n    tag_33:\n      0x00\n        /* \"#utility.yul\":560:562   */\n      0x20\n        /* \"#utility.yul\":548:557   */\n      dup3\n        /* \"#utility.yul\":539:546   */\n      dup5\n        /* \"#utility.yul\":535:558   */\n      sub\n        /* \"#utility.yul\":531:563   */\n      slt\n        /* \"#utility.yul\":528:530   */\n      iszero\n      tag_78\n      jumpi\n        /* \"#utility.yul\":576:577   */\n      0x00\n        /* \"#utility.yul\":573:574   */\n      dup1\n        /* \"#utility.yul\":566:578   */\n      revert\n        /* \"#utility.yul\":528:530   */\n    tag_78:\n        /* \"#utility.yul\":619:620   */\n      0x00\n        /* \"#utility.yul\":644:705   */\n      tag_79\n        /* \"#utility.yul\":697:704   */\n      dup5\n        /* \"#utility.yul\":688:694   */\n      dup3\n        /* \"#utility.yul\":677:686   */\n      dup6\n        /* \"#utility.yul\":673:695   */\n      add\n        /* \"#utility.yul\":644:705   */\n      tag_66\n      jump\t// in\n    tag_79:\n        /* \"#utility.yul\":634:705   */\n      swap2\n      pop\n        /* \"#utility.yul\":590:715   */\n      pop\n        /* \"#utility.yul\":518:722   */\n      swap3\n      swap2\n      pop\n      pop\n      jump\t// out\n        /* \"#utility.yul\":728:990   */\n    tag_14:\n      0x00\n        /* \"#utility.yul\":836:838   */\n      0x20\n        /* \"#utility.yul\":824:833   */\n      dup3\n        /* \"#utility.yul\":815:822   */\n      dup5\n        /* \"#utility.yul\":811:834   */\n      sub\n        /* \"#utility.yul\":807:839   */\n      slt\n        /* \"#utility.yul\":804:806   */\n      iszero\n      tag_81\n      jumpi\n        /* \"#utility.yul\":852:853   */\n      0x00\n        /* \"#utility.yul\":849:850   */\n      dup1\n        /* \"#utility.yul\":842:854   */\n      revert\n        /* \"#utility.yul\":804:806   */\n    tag_81:\n        /* \"#utility.yul\":895:896   */\n      0x00\n        /* \"#utility.yul\":920:973   */\n      tag_82\n        /* \"#utility.yul\":965:972   */\n      dup5\n        /* \"#utility.yul\":956:962   */\n      dup3\n        /* \"#utility.yul\":945:954   */\n      dup6\n        /* \"#utility.yul\":941:963   */\n      add\n        /* \"#utility.yul\":920:973   */\n      tag_70\n      jump\t// in\n    tag_82:\n        /* \"#utility.yul\":910:973   */\n      swap2\n      pop\n        /* \"#utility.yul\":866:983   */\n      pop\n        /* \"#utility.yul\":794:990   */\n      swap3\n      swap2\n      pop\n      pop\n      jump\t// out\n        /* \"#utility.yul\":996:1280   */\n    tag_44:\n      0x00\n        /* \"#utility.yul\":1115:1117   */\n      0x20\n        /* \"#utility.yul\":1103:1112   */\n      dup3\n        /* \"#utility.yul\":1094:1101   */\n      dup5\n        /* \"#utility.yul\":1090:1113   */\n      sub\n        /* \"#utility.yul\":1086:1118   */\n      slt\n        /* \"#utility.yul\":1083:1085   */\n      iszero\n      tag_84\n      jumpi\n        /* \"#utility.yul\":1131:1132   */\n      0x00\n        /* \"#utility.yul\":1128:1129   */\n      dup1\n        /* \"#utility.yul\":1121:1133   */\n      revert\n        /* \"#utility.yul\":1083:1085   */\n    tag_84:\n        /* \"#utility.yul\":1174:1175   */\n      0x00\n        /* \"#utility.yul\":1199:1263   */\n      tag_85\n        /* \"#utility.yul\":1255:1262   */\n      dup5\n        /* \"#utility.yul\":1246:1252   */\n      dup3\n        /* \"#utility.yul\":1235:1244   */\n      dup6\n        /* \"#utility.yul\":1231:1253   */\n      add\n        /* \"#utility.yul\":1199:1263   */\n      tag_74\n      jump\t// in\n    tag_85:\n        /* \"#utility.yul\":1189:1263   */\n      swap2\n      pop\n        /* \"#utility.yul\":1145:1273   */\n      pop\n        /* \"#utility.yul\":1073:1280   */\n      swap3\n      swap2\n      pop\n      pop\n      jump\t// out\n        /* \"#utility.yul\":1286:1404   */\n    tag_86:\n        /* \"#utility.yul\":1373:1397   */\n      tag_88\n        /* \"#utility.yul\":1391:1396   */\n      dup2\n        /* \"#utility.yul\":1373:1397   */\n      tag_89\n      jump\t// in\n    tag_88:\n        /* \"#utility.yul\":1368:1371   */\n      dup3\n        /* \"#utility.yul\":1361:1398   */\n      mstore\n        /* \"#utility.yul\":1351:1404   */\n      pop\n      pop\n      jump\t// out\n        /* \"#utility.yul\":1410:1569   */\n    tag_90:\n        /* \"#utility.yul\":1511:1562   */\n      tag_92\n        /* \"#utility.yul\":1556:1561   */\n      dup2\n        /* \"#utility.yul\":1511:1562   */\n      tag_93\n      jump\t// in\n    tag_92:\n        /* \"#utility.yul\":1506:1509   */\n      dup3\n        /* \"#utility.yul\":1499:1563   */\n      mstore\n        /* \"#utility.yul\":1489:1569   */\n      pop\n      pop\n      jump\t// out\n        /* \"#utility.yul\":1575:1944   */\n    tag_94:\n      0x00\n        /* \"#utility.yul\":1738:1805   */\n      tag_96\n        /* \"#utility.yul\":1802:1804   */\n      0x25\n        /* \"#utility.yul\":1797:1800   */\n      dup4\n        /* \"#utility.yul\":1738:1805   */\n      tag_97\n      jump\t// in\n    tag_96:\n        /* \"#utility.yul\":1731:1805   */\n      swap2\n      pop\n        /* \"#utility.yul\":1835:1869   */\n      0x4465706f73697420616d6f756e74206d75737420626520677265617465722074\n        /* \"#utility.yul\":1831:1832   */\n      0x00\n        /* \"#utility.yul\":1826:1829   */\n      dup4\n        /* \"#utility.yul\":1822:1833   */\n      add\n        /* \"#utility.yul\":1815:1870   */\n      mstore\n        /* \"#utility.yul\":1901:1908   */\n      0x68616e2030000000000000000000000000000000000000000000000000000000\n        /* \"#utility.yul\":1896:1898   */\n      0x20\n        /* \"#utility.yul\":1891:1894   */\n      dup4\n        /* \"#utility.yul\":1887:1899   */\n      add\n        /* \"#utility.yul\":1880:1909   */\n      mstore\n        /* \"#utility.yul\":1935:1937   */\n      0x40\n        /* \"#utility.yul\":1930:1933   */\n      dup3\n        /* \"#utility.yul\":1926:1938   */\n      add\n        /* \"#utility.yul\":1919:1938   */\n      swap1\n      pop\n        /* \"#utility.yul\":1721:1944   */\n      swap2\n      swap1\n      pop\n      jump\t// out\n        /* \"#utility.yul\":1950:2263   */\n    tag_98:\n      0x00\n        /* \"#utility.yul\":2113:2180   */\n      tag_100\n        /* \"#utility.yul\":2177:2179   */\n      0x0f\n        /* \"#utility.yul\":2172:2175   */\n      dup4\n        /* \"#utility.yul\":2113:2180   */\n      tag_97\n      jump\t// in\n    tag_100:\n        /* \"#utility.yul\":2106:2180   */\n      swap2\n      pop\n        /* \"#utility.yul\":2210:2227   */\n      0x5472616e73666572206661696c65640000000000000000000000000000000000\n        /* \"#utility.yul\":2206:2207   */\n      0x00\n        /* \"#utility.yul\":2201:2204   */\n      dup4\n        /* \"#utility.yul\":2197:2208   */\n      add\n        /* \"#utility.yul\":2190:2228   */\n      mstore\n        /* \"#utility.yul\":2254:2256   */\n      0x20\n        /* \"#utility.yul\":2249:2252   */\n      dup3\n        /* \"#utility.yul\":2245:2257   */\n      add\n        /* \"#utility.yul\":2238:2257   */\n      swap1\n      pop\n        /* \"#utility.yul\":2096:2263   */\n      swap2\n      swap1\n      pop\n      jump\t// out\n        /* \"#utility.yul\":2269:2587   */\n    tag_101:\n      0x00\n        /* \"#utility.yul\":2432:2499   */\n      tag_103\n        /* \"#utility.yul\":2496:2498   */\n      0x14\n        /* \"#utility.yul\":2491:2494   */\n      dup4\n        /* \"#utility.yul\":2432:2499   */\n      tag_97\n      jump\t// in\n    tag_103:\n        /* \"#utility.yul\":2425:2499   */\n      swap2\n      pop\n        /* \"#utility.yul\":2529:2551   */\n      0x4e6f7420656e6f75676820616c6c6f77616e6365000000000000000000000000\n        /* \"#utility.yul\":2525:2526   */\n      0x00\n        /* \"#utility.yul\":2520:2523   */\n      dup4\n        /* \"#utility.yul\":2516:2527   */\n      add\n        /* \"#utility.yul\":2509:2552   */\n      mstore\n        /* \"#utility.yul\":2578:2580   */\n      0x20\n        /* \"#utility.yul\":2573:2576   */\n      dup3\n        /* \"#utility.yul\":2569:2581   */\n      add\n        /* \"#utility.yul\":2562:2581   */\n      swap1\n      pop\n        /* \"#utility.yul\":2415:2587   */\n      swap2\n      swap1\n      pop\n      jump\t// out\n        /* \"#utility.yul\":2593:2914   */\n    tag_104:\n      0x00\n        /* \"#utility.yul\":2756:2823   */\n      tag_106\n        /* \"#utility.yul\":2820:2822   */\n      0x17\n        /* \"#utility.yul\":2815:2818   */\n      dup4\n        /* \"#utility.yul\":2756:2823   */\n      tag_97\n      jump\t// in\n    tag_106:\n        /* \"#utility.yul\":2749:2823   */\n      swap2\n      pop\n        /* \"#utility.yul\":2853:2878   */\n      0x5472616e7366657220746f20706f6f6c206661696c6564000000000000000000\n        /* \"#utility.yul\":2849:2850   */\n      0x00\n        /* \"#utility.yul\":2844:2847   */\n      dup4\n        /* \"#utility.yul\":2840:2851   */\n      add\n        /* \"#utility.yul\":2833:2879   */\n      mstore\n        /* \"#utility.yul\":2905:2907   */\n      0x20\n        /* \"#utility.yul\":2900:2903   */\n      dup3\n        /* \"#utility.yul\":2896:2908   */\n      add\n        /* \"#utility.yul\":2889:2908   */\n      swap1\n      pop\n        /* \"#utility.yul\":2739:2914   */\n      swap2\n      swap1\n      pop\n      jump\t// out\n        /* \"#utility.yul\":2920:3038   */\n    tag_107:\n        /* \"#utility.yul\":3007:3031   */\n      tag_109\n        /* \"#utility.yul\":3025:3030   */\n      dup2\n        /* \"#utility.yul\":3007:3031   */\n      tag_110\n      jump\t// in\n    tag_109:\n        /* \"#utility.yul\":3002:3005   */\n      dup3\n        /* \"#utility.yul\":2995:3032   */\n      mstore\n        /* \"#utility.yul\":2985:3038   */\n      pop\n      pop\n      jump\t// out\n        /* \"#utility.yul\":3044:3266   */\n    tag_11:\n      0x00\n        /* \"#utility.yul\":3175:3177   */\n      0x20\n        /* \"#utility.yul\":3164:3173   */\n      dup3\n        /* \"#utility.yul\":3160:3178   */\n      add\n        /* \"#utility.yul\":3152:3178   */\n      swap1\n      pop\n        /* \"#utility.yul\":3188:3259   */\n      tag_112\n        /* \"#utility.yul\":3256:3257   */\n      0x00\n        /* \"#utility.yul\":3245:3254   */\n      dup4\n        /* \"#utility.yul\":3241:3258   */\n      add\n        /* \"#utility.yul\":3232:3238   */\n      dup5\n        /* \"#utility.yul\":3188:3259   */\n      tag_86\n      jump\t// in\n    tag_112:\n        /* \"#utility.yul\":3142:3266   */\n      swap3\n      swap2\n      pop\n      pop\n      jump\t// out\n        /* \"#utility.yul\":3272:3604   */\n    tag_39:\n      0x00\n        /* \"#utility.yul\":3431:3433   */\n      0x40\n        /* \"#utility.yul\":3420:3429   */\n      dup3\n        /* \"#utility.yul\":3416:3434   */\n      add\n        /* \"#utility.yul\":3408:3434   */\n      swap1\n      pop\n        /* \"#utility.yul\":3444:3515   */\n      tag_114\n        /* \"#utility.yul\":3512:3513   */\n      0x00\n        /* \"#utility.yul\":3501:3510   */\n      dup4\n        /* \"#utility.yul\":3497:3514   */\n      add\n        /* \"#utility.yul\":3488:3494   */\n      dup6\n        /* \"#utility.yul\":3444:3515   */\n      tag_86\n      jump\t// in\n    tag_114:\n        /* \"#utility.yul\":3525:3597   */\n      tag_115\n        /* \"#utility.yul\":3593:3595   */\n      0x20\n        /* \"#utility.yul\":3582:3591   */\n      dup4\n        /* \"#utility.yul\":3578:3596   */\n      add\n        /* \"#utility.yul\":3569:3575   */\n      dup5\n        /* \"#utility.yul\":3525:3597   */\n      tag_86\n      jump\t// in\n    tag_115:\n        /* \"#utility.yul\":3398:3604   */\n      swap4\n      swap3\n      pop\n      pop\n      pop\n      jump\t// out\n        /* \"#utility.yul\":3610:4052   */\n    tag_49:\n      0x00\n        /* \"#utility.yul\":3797:3799   */\n      0x60\n        /* \"#utility.yul\":3786:3795   */\n      dup3\n        /* \"#utility.yul\":3782:3800   */\n      add\n        /* \"#utility.yul\":3774:3800   */\n      swap1\n      pop\n        /* \"#utility.yul\":3810:3881   */\n      tag_117\n        /* \"#utility.yul\":3878:3879   */\n      0x00\n        /* \"#utility.yul\":3867:3876   */\n      dup4\n        /* \"#utility.yul\":3863:3880   */\n      add\n        /* \"#utility.yul\":3854:3860   */\n      dup7\n        /* \"#utility.yul\":3810:3881   */\n      tag_86\n      jump\t// in\n    tag_117:\n        /* \"#utility.yul\":3891:3963   */\n      tag_118\n        /* \"#utility.yul\":3959:3961   */\n      0x20\n        /* \"#utility.yul\":3948:3957   */\n      dup4\n        /* \"#utility.yul\":3944:3962   */\n      add\n        /* \"#utility.yul\":3935:3941   */\n      dup6\n        /* \"#utility.yul\":3891:3963   */\n      tag_86\n      jump\t// in\n    tag_118:\n        /* \"#utility.yul\":3973:4045   */\n      tag_119\n        /* \"#utility.yul\":4041:4043   */\n      0x40\n        /* \"#utility.yul\":4030:4039   */\n      dup4\n        /* \"#utility.yul\":4026:4044   */\n      add\n        /* \"#utility.yul\":4017:4023   */\n      dup5\n        /* \"#utility.yul\":3973:4045   */\n      tag_107\n      jump\t// in\n    tag_119:\n        /* \"#utility.yul\":3764:4052   */\n      swap5\n      swap4\n      pop\n      pop\n      pop\n      pop\n      jump\t// out\n        /* \"#utility.yul\":4058:4390   */\n    tag_28:\n      0x00\n        /* \"#utility.yul\":4217:4219   */\n      0x40\n        /* \"#utility.yul\":4206:4215   */\n      dup3\n        /* \"#utility.yul\":4202:4220   */\n      add\n        /* \"#utility.yul\":4194:4220   */\n      swap1\n      pop\n        /* \"#utility.yul\":4230:4301   */\n      tag_121\n        /* \"#utility.yul\":4298:4299   */\n      0x00\n        /* \"#utility.yul\":4287:4296   */\n      dup4\n        /* \"#utility.yul\":4283:4300   */\n      add\n        /* \"#utility.yul\":4274:4280   */\n      dup6\n        /* \"#utility.yul\":4230:4301   */\n      tag_86\n      jump\t// in\n    tag_121:\n        /* \"#utility.yul\":4311:4383   */\n      tag_122\n        /* \"#utility.yul\":4379:4381   */\n      0x20\n        /* \"#utility.yul\":4368:4377   */\n      dup4\n        /* \"#utility.yul\":4364:4382   */\n      add\n        /* \"#utility.yul\":4355:4361   */\n      dup5\n        /* \"#utility.yul\":4311:4383   */\n      tag_107\n      jump\t// in\n    tag_122:\n        /* \"#utility.yul\":4184:4390   */\n      swap4\n      swap3\n      pop\n      pop\n      pop\n      jump\t// out\n        /* \"#utility.yul\":4396:4646   */\n    tag_22:\n      0x00\n        /* \"#utility.yul\":4541:4543   */\n      0x20\n        /* \"#utility.yul\":4530:4539   */\n      dup3\n        /* \"#utility.yul\":4526:4544   */\n      add\n        /* \"#utility.yul\":4518:4544   */\n      swap1\n      pop\n        /* \"#utility.yul\":4554:4639   */\n      tag_124\n        /* \"#utility.yul\":4636:4637   */\n      0x00\n        /* \"#utility.yul\":4625:4634   */\n      dup4\n        /* \"#utility.yul\":4621:4638   */\n      add\n        /* \"#utility.yul\":4612:4618   */\n      dup5\n        /* \"#utility.yul\":4554:4639   */\n      tag_90\n      jump\t// in\n    tag_124:\n        /* \"#utility.yul\":4508:4646   */\n      swap3\n      swap2\n      pop\n      pop\n      jump\t// out\n        /* \"#utility.yul\":4652:5071   */\n    tag_37:\n      0x00\n        /* \"#utility.yul\":4856:4858   */\n      0x20\n        /* \"#utility.yul\":4845:4854   */\n      dup3\n        /* \"#utility.yul\":4841:4859   */\n      add\n        /* \"#utility.yul\":4833:4859   */\n      swap1\n      pop\n        /* \"#utility.yul\":4905:4914   */\n      dup2\n        /* \"#utility.yul\":4899:4903   */\n      dup2\n        /* \"#utility.yul\":4895:4915   */\n      sub\n        /* \"#utility.yul\":4891:4892   */\n      0x00\n        /* \"#utility.yul\":4880:4889   */\n      dup4\n        /* \"#utility.yul\":4876:4893   */\n      add\n        /* \"#utility.yul\":4869:4916   */\n      mstore\n        /* \"#utility.yul\":4933:5064   */\n      tag_126\n        /* \"#utility.yul\":5059:5063   */\n      dup2\n        /* \"#utility.yul\":4933:5064   */\n      tag_94\n      jump\t// in\n    tag_126:\n        /* \"#utility.yul\":4925:5064   */\n      swap1\n      pop\n        /* \"#utility.yul\":4823:5071   */\n      swap2\n      swap1\n      pop\n      jump\t// out\n        /* \"#utility.yul\":5077:5496   */\n    tag_56:\n      0x00\n        /* \"#utility.yul\":5281:5283   */\n      0x20\n        /* \"#utility.yul\":5270:5279   */\n      dup3\n        /* \"#utility.yul\":5266:5284   */\n      add\n        /* \"#utility.yul\":5258:5284   */\n      swap1\n      pop\n        /* \"#utility.yul\":5330:5339   */\n      dup2\n        /* \"#utility.yul\":5324:5328   */\n      dup2\n        /* \"#utility.yul\":5320:5340   */\n      sub\n        /* \"#utility.yul\":5316:5317   */\n      0x00\n        /* \"#utility.yul\":5305:5314   */\n      dup4\n        /* \"#utility.yul\":5301:5318   */\n      add\n        /* \"#utility.yul\":5294:5341   */\n      mstore\n        /* \"#utility.yul\":5358:5489   */\n      tag_128\n        /* \"#utility.yul\":5484:5488   */\n      dup2\n        /* \"#utility.yul\":5358:5489   */\n      tag_98\n      jump\t// in\n    tag_128:\n        /* \"#utility.yul\":5350:5489   */\n      swap1\n      pop\n        /* \"#utility.yul\":5248:5496   */\n      swap2\n      swap1\n      pop\n      jump\t// out\n        /* \"#utility.yul\":5502:5921   */\n    tag_47:\n      0x00\n        /* \"#utility.yul\":5706:5708   */\n      0x20\n        /* \"#utility.yul\":5695:5704   */\n      dup3\n        /* \"#utility.yul\":5691:5709   */\n      add\n        /* \"#utility.yul\":5683:5709   */\n      swap1\n      pop\n        /* \"#utility.yul\":5755:5764   */\n      dup2\n        /* \"#utility.yul\":5749:5753   */\n      dup2\n        /* \"#utility.yul\":5745:5765   */\n      sub\n        /* \"#utility.yul\":5741:5742   */\n      0x00\n        /* \"#utility.yul\":5730:5739   */\n      dup4\n        /* \"#utility.yul\":5726:5743   */\n      add\n        /* \"#utility.yul\":5719:5766   */\n      mstore\n        /* \"#utility.yul\":5783:5914   */\n      tag_130\n        /* \"#utility.yul\":5909:5913   */\n      dup2\n        /* \"#utility.yul\":5783:5914   */\n      tag_101\n      jump\t// in\n    tag_130:\n        /* \"#utility.yul\":5775:5914   */\n      swap1\n      pop\n        /* \"#utility.yul\":5673:5921   */\n      swap2\n      swap1\n      pop\n      jump\t// out\n        /* \"#utility.yul\":5927:6346   */\n    tag_64:\n      0x00\n        /* \"#utility.yul\":6131:6133   */\n      0x20\n        /* \"#utility.yul\":6120:6129   */\n      dup3\n        /* \"#utility.yul\":6116:6134   */\n      add\n        /* \"#utility.yul\":6108:6134   */\n      swap1\n      pop\n        /* \"#utility.yul\":6180:6189   */\n      dup2\n        /* \"#utility.yul\":6174:6178   */\n      dup2\n        /* \"#utility.yul\":6170:6190   */\n      sub\n        /* \"#utility.yul\":6166:6167   */\n      0x00\n        /* \"#utility.yul\":6155:6164   */\n      dup4\n        /* \"#utility.yul\":6151:6168   */\n      add\n        /* \"#utility.yul\":6144:6191   */\n      mstore\n        /* \"#utility.yul\":6208:6339   */\n      tag_132\n        /* \"#utility.yul\":6334:6338   */\n      dup2\n        /* \"#utility.yul\":6208:6339   */\n      tag_104\n      jump\t// in\n    tag_132:\n        /* \"#utility.yul\":6200:6339   */\n      swap1\n      pop\n        /* \"#utility.yul\":6098:6346   */\n      swap2\n      swap1\n      pop\n      jump\t// out\n        /* \"#utility.yul\":6352:6521   */\n    tag_97:\n      0x00\n        /* \"#utility.yul\":6470:6476   */\n      dup3\n        /* \"#utility.yul\":6465:6468   */\n      dup3\n        /* \"#utility.yul\":6458:6477   */\n      mstore\n        /* \"#utility.yul\":6510:6514   */\n      0x20\n        /* \"#utility.yul\":6505:6508   */\n      dup3\n        /* \"#utility.yul\":6501:6515   */\n      add\n        /* \"#utility.yul\":6486:6515   */\n      swap1\n      pop\n        /* \"#utility.yul\":6448:6521   */\n      swap3\n      swap2\n      pop\n      pop\n      jump\t// out\n        /* \"#utility.yul\":6527:6623   */\n    tag_89:\n      0x00\n        /* \"#utility.yul\":6593:6617   */\n      tag_135\n        /* \"#utility.yul\":6611:6616   */\n      dup3\n        /* \"#utility.yul\":6593:6617   */\n      tag_136\n      jump\t// in\n    tag_135:\n        /* \"#utility.yul\":6582:6617   */\n      swap1\n      pop\n        /* \"#utility.yul\":6572:6623   */\n      swap2\n      swap1\n      pop\n      jump\t// out\n        /* \"#utility.yul\":6629:6719   */\n    tag_137:\n      0x00\n        /* \"#utility.yul\":6706:6711   */\n      dup2\n        /* \"#utility.yul\":6699:6712   */\n      iszero\n        /* \"#utility.yul\":6692:6713   */\n      iszero\n        /* \"#utility.yul\":6681:6713   */\n      swap1\n      pop\n        /* \"#utility.yul\":6671:6719   */\n      swap2\n      swap1\n      pop\n      jump\t// out\n        /* \"#utility.yul\":6725:6851   */\n    tag_136:\n      0x00\n        /* \"#utility.yul\":6802:6844   */\n      0xffffffffffffffffffffffffffffffffffffffff\n        /* \"#utility.yul\":6795:6800   */\n      dup3\n        /* \"#utility.yul\":6791:6845   */\n      and\n        /* \"#utility.yul\":6780:6845   */\n      swap1\n      pop\n        /* \"#utility.yul\":6770:6851   */\n      swap2\n      swap1\n      pop\n      jump\t// out\n        /* \"#utility.yul\":6857:6934   */\n    tag_110:\n      0x00\n        /* \"#utility.yul\":6923:6928   */\n      dup2\n        /* \"#utility.yul\":6912:6928   */\n      swap1\n      pop\n        /* \"#utility.yul\":6902:6934   */\n      swap2\n      swap1\n      pop\n      jump\t// out\n        /* \"#utility.yul\":6940:7094   */\n    tag_93:\n      0x00\n        /* \"#utility.yul\":7037:7088   */\n      tag_142\n        /* \"#utility.yul\":7082:7087   */\n      dup3\n        /* \"#utility.yul\":7037:7088   */\n      tag_143\n      jump\t// in\n    tag_142:\n        /* \"#utility.yul\":7024:7088   */\n      swap1\n      pop\n        /* \"#utility.yul\":7014:7094   */\n      swap2\n      swap1\n      pop\n      jump\t// out\n        /* \"#utility.yul\":7100:7227   */\n    tag_143:\n      0x00\n        /* \"#utility.yul\":7197:7221   */\n      tag_145\n        /* \"#utility.yul\":7215:7220   */\n      dup3\n        /* \"#utility.yul\":7197:7221   */\n      tag_136\n      jump\t// in\n    tag_145:\n        /* \"#utility.yul\":7184:7221   */\n      swap1\n      pop\n        /* \"#utility.yul\":7174:7227   */\n      swap2\n      swap1\n      pop\n      jump\t// out\n        /* \"#utility.yul\":7233:7349   */\n    tag_69:\n        /* \"#utility.yul\":7303:7324   */\n      tag_147\n        /* \"#utility.yul\":7318:7323   */\n      dup2\n        /* \"#utility.yul\":7303:7324   */\n      tag_137\n      jump\t// in\n    tag_147:\n        /* \"#utility.yul\":7296:7301   */\n      dup2\n        /* \"#utility.yul\":7293:7325   */\n      eq\n        /* \"#utility.yul\":7283:7285   */\n      tag_148\n      jumpi\n        /* \"#utility.yul\":7339:7340   */\n      0x00\n        /* \"#utility.yul\":7336:7337   */\n      dup1\n        /* \"#utility.yul\":7329:7341   */\n      revert\n        /* \"#utility.yul\":7283:7285   */\n    tag_148:\n        /* \"#utility.yul\":7273:7349   */\n      pop\n      jump\t// out\n        /* \"#utility.yul\":7355:7477   */\n    tag_73:\n        /* \"#utility.yul\":7428:7452   */\n      tag_150\n        /* \"#utility.yul\":7446:7451   */\n      dup2\n        /* \"#utility.yul\":7428:7452   */\n      tag_110\n      jump\t// in\n    tag_150:\n        /* \"#utility.yul\":7421:7426   */\n      dup2\n        /* \"#utility.yul\":7418:7453   */\n      eq\n        /* \"#utility.yul\":7408:7410   */\n      tag_151\n      jumpi\n        /* \"#utility.yul\":7467:7468   */\n      0x00\n        /* \"#utility.yul\":7464:7465   */\n      dup1\n        /* \"#utility.yul\":7457:7469   */\n      revert\n        /* \"#utility.yul\":7408:7410   */\n    tag_151:\n        /* \"#utility.yul\":7398:7477   */\n      pop\n      jump\t// out\n\n    auxdata: 0xa2646970667358221220538082ab58cc8c0ea19e20946bcc4f6fa5bd77727b7b26c904e2ef1535df7b2764736f6c63430008000033\n}\n",
				"bytecode": {
					"linkReferences": {},
					"object": "60806040523480156200001157600080fd5b5060405162000dd638038062000dd6833981810160405281019062000037919062000272565b600073ffffffffffffffffffffffffffffffffffffffff168373ffffffffffffffffffffffffffffffffffffffff161415620000aa576040517f08c379a0000000000000000000000000000000000000000000000000000000008152600401620000a1906200038e565b60405180910390fd5b600073ffffffffffffffffffffffffffffffffffffffff168273ffffffffffffffffffffffffffffffffffffffff1614156200011d576040517f08c379a00000000000000000000000000000000000000000000000000000000081526004016200011490620003d2565b60405180910390fd5b600073ffffffffffffffffffffffffffffffffffffffff168173ffffffffffffffffffffffffffffffffffffffff16141562000190576040517f08c379a00000000000000000000000000000000000000000000000000000000081526004016200018790620003b0565b60405180910390fd5b826000806101000a81548173ffffffffffffffffffffffffffffffffffffffff021916908373ffffffffffffffffffffffffffffffffffffffff16021790555081600160006101000a81548173ffffffffffffffffffffffffffffffffffffffff021916908373ffffffffffffffffffffffffffffffffffffffff16021790555080600260006101000a81548173ffffffffffffffffffffffffffffffffffffffff021916908373ffffffffffffffffffffffffffffffffffffffff16021790555050505062000453565b6000815190506200026c8162000439565b92915050565b6000806000606084860312156200028857600080fd5b600062000298868287016200025b565b9350506020620002ab868287016200025b565b9250506040620002be868287016200025b565b9150509250925092565b6000620002d7601f83620003f4565b91507f496e76616c69642072656365697665722077616c6c65742061646472657373006000830152602082019050919050565b600062000319601d83620003f4565b91507f496e76616c6964207772617070656420746f6b656e20616464726573730000006000830152602082019050919050565b60006200035b601483620003f4565b91507f496e76616c696420706f6f6c20616464726573730000000000000000000000006000830152602082019050919050565b60006020820190508181036000830152620003a981620002c8565b9050919050565b60006020820190508181036000830152620003cb816200030a565b9050919050565b60006020820190508181036000830152620003ed816200034c565b9050919050565b600082825260208201905092915050565b6000620004128262000419565b9050919050565b600073ffffffffffffffffffffffffffffffffffffffff82169050919050565b620004448162000405565b81146200045057600080fd5b50565b61097380620004636000396000f3fe608060405234801561001057600080fd5b50600436106100575760003560e01c80631755ff211461005c57806362c35c011461007a578063677342ab14610096578063996c6cc3146100b4578063c4da9247146100d2575b600080fd5b6100646100ee565b6040516100719190610753565b60405180910390f35b610094600480360381019061008f91906105ae565b610114565b005b61009e6101c7565b6040516100ab9190610753565b60405180910390f35b6100bc6101eb565b6040516100c991906107f7565b60405180910390f35b6100ec60048036038101906100e791906105ae565b610211565b005b600160009054906101000a900473ffffffffffffffffffffffffffffffffffffffff1681565b600260009054906101000a900473ffffffffffffffffffffffffffffffffffffffff1673ffffffffffffffffffffffffffffffffffffffff1663095ea7b330836040518363ffffffff1660e01b81526004016101719291906107ce565b602060405180830381600087803b15801561018b57600080fd5b505af115801561019f573d6000803e3d6000fd5b505050506040513d601f19601f820116820180604052508101906101c39190610585565b5050565b60008054906101000a900473ffffffffffffffffffffffffffffffffffffffff1681565b600260009054906101000a900473ffffffffffffffffffffffffffffffffffffffff1681565b60008111610254576040517f08c379a000000000000000000000000000000000000000000000000000000000815260040161024b90610812565b60405180910390fd5b80600260009054906101000a900473ffffffffffffffffffffffffffffffffffffffff1673ffffffffffffffffffffffffffffffffffffffff1663dd62ed3e33306040518363ffffffff1660e01b81526004016102b292919061076e565b60206040518083038186803b1580156102ca57600080fd5b505afa1580156102de573d6000803e3d6000fd5b505050506040513d601f19601f8201168201806040525081019061030291906105d7565b1015610343576040517f08c379a000000000000000000000000000000000000000000000000000000000815260040161033a90610852565b60405180910390fd5b600260009054906101000a900473ffffffffffffffffffffffffffffffffffffffff1673ffffffffffffffffffffffffffffffffffffffff166323b872dd3330846040518463ffffffff1660e01b81526004016103a293929190610797565b602060405180830381600087803b1580156103bc57600080fd5b505af11580156103d0573d6000803e3d6000fd5b505050506040513d601f19601f820116820180604052508101906103f49190610585565b610433576040517f08c379a000000000000000000000000000000000000000000000000000000000815260040161042a90610832565b60405180910390fd5b600260009054906101000a900473ffffffffffffffffffffffffffffffffffffffff1673ffffffffffffffffffffffffffffffffffffffff1663a9059cbb600160009054906101000a900473ffffffffffffffffffffffffffffffffffffffff16836040518363ffffffff1660e01b81526004016104b29291906107ce565b602060405180830381600087803b1580156104cc57600080fd5b505af11580156104e0573d6000803e3d6000fd5b505050506040513d601f19601f820116820180604052508101906105049190610585565b610543576040517f08c379a000000000000000000000000000000000000000000000000000000000815260040161053a90610872565b60405180910390fd5b50565b6000815190506105558161090f565b92915050565b60008135905061056a81610926565b92915050565b60008151905061057f81610926565b92915050565b60006020828403121561059757600080fd5b60006105a584828501610546565b91505092915050565b6000602082840312156105c057600080fd5b60006105ce8482850161055b565b91505092915050565b6000602082840312156105e957600080fd5b60006105f784828501610570565b91505092915050565b610609816108a3565b82525050565b610618816108eb565b82525050565b600061062b602583610892565b91507f4465706f73697420616d6f756e74206d7573742062652067726561746572207460008301527f68616e20300000000000000000000000000000000000000000000000000000006020830152604082019050919050565b6000610691600f83610892565b91507f5472616e73666572206661696c656400000000000000000000000000000000006000830152602082019050919050565b60006106d1601483610892565b91507f4e6f7420656e6f75676820616c6c6f77616e63650000000000000000000000006000830152602082019050919050565b6000610711601783610892565b91507f5472616e7366657220746f20706f6f6c206661696c65640000000000000000006000830152602082019050919050565b61074d816108e1565b82525050565b60006020820190506107686000830184610600565b92915050565b60006040820190506107836000830185610600565b6107906020830184610600565b9392505050565b60006060820190506107ac6000830186610600565b6107b96020830185610600565b6107c66040830184610744565b949350505050565b60006040820190506107e36000830185610600565b6107f06020830184610744565b9392505050565b600060208201905061080c600083018461060f565b92915050565b6000602082019050818103600083015261082b8161061e565b9050919050565b6000602082019050818103600083015261084b81610684565b9050919050565b6000602082019050818103600083015261086b816106c4565b9050919050565b6000602082019050818103600083015261088b81610704565b9050919050565b600082825260208201905092915050565b60006108ae826108c1565b9050919050565b60008115159050919050565b600073ffffffffffffffffffffffffffffffffffffffff82169050919050565b6000819050919050565b60006108f6826108fd565b9050919050565b6000610908826108c1565b9050919050565b610918816108b5565b811461092357600080fd5b50565b61092f816108e1565b811461093a57600080fd5b5056fea2646970667358221220538082ab58cc8c0ea19e20946bcc4f6fa5bd77727b7b26c904e2ef1535df7b2764736f6c63430008000033",
					"opcodes": "PUSH1 0x80 PUSH1 0x40 MSTORE CALLVALUE DUP1 ISZERO PUSH3 0x11 JUMPI PUSH1 0x0 DUP1 REVERT JUMPDEST POP PUSH1 0x40 MLOAD PUSH3 0xDD6 CODESIZE SUB DUP1 PUSH3 0xDD6 DUP4 CODECOPY DUP2 DUP2 ADD PUSH1 0x40 MSTORE DUP2 ADD SWAP1 PUSH3 0x37 SWAP2 SWAP1 PUSH3 0x272 JUMP JUMPDEST PUSH1 0x0 PUSH20 0xFFFFFFFFFFFFFFFFFFFFFFFFFFFFFFFFFFFFFFFF AND DUP4 PUSH20 0xFFFFFFFFFFFFFFFFFFFFFFFFFFFFFFFFFFFFFFFF AND EQ ISZERO PUSH3 0xAA JUMPI PUSH1 0x40 MLOAD PUSH32 0x8C379A000000000000000000000000000000000000000000000000000000000 DUP2 MSTORE PUSH1 0x4 ADD PUSH3 0xA1 SWAP1 PUSH3 0x38E JUMP JUMPDEST PUSH1 0x40 MLOAD DUP1 SWAP2 SUB SWAP1 REVERT JUMPDEST PUSH1 0x0 PUSH20 0xFFFFFFFFFFFFFFFFFFFFFFFFFFFFFFFFFFFFFFFF AND DUP3 PUSH20 0xFFFFFFFFFFFFFFFFFFFFFFFFFFFFFFFFFFFFFFFF AND EQ ISZERO PUSH3 0x11D JUMPI PUSH1 0x40 MLOAD PUSH32 0x8C379A000000000000000000000000000000000000000000000000000000000 DUP2 MSTORE PUSH1 0x4 ADD PUSH3 0x114 SWAP1 PUSH3 0x3D2 JUMP JUMPDEST PUSH1 0x40 MLOAD DUP1 SWAP2 SUB SWAP1 REVERT JUMPDEST PUSH1 0x0 PUSH20 0xFFFFFFFFFFFFFFFFFFFFFFFFFFFFFFFFFFFFFFFF AND DUP2 PUSH20 0xFFFFFFFFFFFFFFFFFFFFFFFFFFFFFFFFFFFFFFFF AND EQ ISZERO PUSH3 0x190 JUMPI PUSH1 0x40 MLOAD PUSH32 0x8C379A000000000000000000000000000000000000000000000000000000000 DUP2 MSTORE PUSH1 0x4 ADD PUSH3 0x187 SWAP1 PUSH3 0x3B0 JUMP JUMPDEST PUSH1 0x40 MLOAD DUP1 SWAP2 SUB SWAP1 REVERT JUMPDEST DUP3 PUSH1 0x0 DUP1 PUSH2 0x100 EXP DUP2 SLOAD DUP2 PUSH20 0xFFFFFFFFFFFFFFFFFFFFFFFFFFFFFFFFFFFFFFFF MUL NOT AND SWAP1 DUP4 PUSH20 0xFFFFFFFFFFFFFFFFFFFFFFFFFFFFFFFFFFFFFFFF AND MUL OR SWAP1 SSTORE POP DUP2 PUSH1 0x1 PUSH1 0x0 PUSH2 0x100 EXP DUP2 SLOAD DUP2 PUSH20 0xFFFFFFFFFFFFFFFFFFFFFFFFFFFFFFFFFFFFFFFF MUL NOT AND SWAP1 DUP4 PUSH20 0xFFFFFFFFFFFFFFFFFFFFFFFFFFFFFFFFFFFFFFFF AND MUL OR SWAP1 SSTORE POP DUP1 PUSH1 0x2 PUSH1 0x0 PUSH2 0x100 EXP DUP2 SLOAD DUP2 PUSH20 0xFFFFFFFFFFFFFFFFFFFFFFFFFFFFFFFFFFFFFFFF MUL NOT AND SWAP1 DUP4 PUSH20 0xFFFFFFFFFFFFFFFFFFFFFFFFFFFFFFFFFFFFFFFF AND MUL OR SWAP1 SSTORE POP POP POP POP PUSH3 0x453 JUMP JUMPDEST PUSH1 0x0 DUP2 MLOAD SWAP1 POP PUSH3 0x26C DUP2 PUSH3 0x439 JUMP JUMPDEST SWAP3 SWAP2 POP POP JUMP JUMPDEST PUSH1 0x0 DUP1 PUSH1 0x0 PUSH1 0x60 DUP5 DUP7 SUB SLT ISZERO PUSH3 0x288 JUMPI PUSH1 0x0 DUP1 REVERT JUMPDEST PUSH1 0x0 PUSH3 0x298 DUP7 DUP3 DUP8 ADD PUSH3 0x25B JUMP JUMPDEST SWAP4 POP POP PUSH1 0x20 PUSH3 0x2AB DUP7 DUP3 DUP8 ADD PUSH3 0x25B JUMP JUMPDEST SWAP3 POP POP PUSH1 0x40 PUSH3 0x2BE DUP7 DUP3 DUP8 ADD PUSH3 0x25B JUMP JUMPDEST SWAP2 POP POP SWAP3 POP SWAP3 POP SWAP3 JUMP JUMPDEST PUSH1 0x0 PUSH3 0x2D7 PUSH1 0x1F DUP4 PUSH3 0x3F4 JUMP JUMPDEST SWAP2 POP PUSH32 0x496E76616C69642072656365697665722077616C6C6574206164647265737300 PUSH1 0x0 DUP4 ADD MSTORE PUSH1 0x20 DUP3 ADD SWAP1 POP SWAP2 SWAP1 POP JUMP JUMPDEST PUSH1 0x0 PUSH3 0x319 PUSH1 0x1D DUP4 PUSH3 0x3F4 JUMP JUMPDEST SWAP2 POP PUSH32 0x496E76616C6964207772617070656420746F6B656E2061646472657373000000 PUSH1 0x0 DUP4 ADD MSTORE PUSH1 0x20 DUP3 ADD SWAP1 POP SWAP2 SWAP1 POP JUMP JUMPDEST PUSH1 0x0 PUSH3 0x35B PUSH1 0x14 DUP4 PUSH3 0x3F4 JUMP JUMPDEST SWAP2 POP PUSH32 0x496E76616C696420706F6F6C2061646472657373000000000000000000000000 PUSH1 0x0 DUP4 ADD MSTORE PUSH1 0x20 DUP3 ADD SWAP1 POP SWAP2 SWAP1 POP JUMP JUMPDEST PUSH1 0x0 PUSH1 0x20 DUP3 ADD SWAP1 POP DUP2 DUP2 SUB PUSH1 0x0 DUP4 ADD MSTORE PUSH3 0x3A9 DUP2 PUSH3 0x2C8 JUMP JUMPDEST SWAP1 POP SWAP2 SWAP1 POP JUMP JUMPDEST PUSH1 0x0 PUSH1 0x20 DUP3 ADD SWAP1 POP DUP2 DUP2 SUB PUSH1 0x0 DUP4 ADD MSTORE PUSH3 0x3CB DUP2 PUSH3 0x30A JUMP JUMPDEST SWAP1 POP SWAP2 SWAP1 POP JUMP JUMPDEST PUSH1 0x0 PUSH1 0x20 DUP3 ADD SWAP1 POP DUP2 DUP2 SUB PUSH1 0x0 DUP4 ADD MSTORE PUSH3 0x3ED DUP2 PUSH3 0x34C JUMP JUMPDEST SWAP1 POP SWAP2 SWAP1 POP JUMP JUMPDEST PUSH1 0x0 DUP3 DUP3 MSTORE PUSH1 0x20 DUP3 ADD SWAP1 POP SWAP3 SWAP2 POP POP JUMP JUMPDEST PUSH1 0x0 PUSH3 0x412 DUP3 PUSH3 0x419 JUMP JUMPDEST SWAP1 POP SWAP2 SWAP1 POP JUMP JUMPDEST PUSH1 0x0 PUSH20 0xFFFFFFFFFFFFFFFFFFFFFFFFFFFFFFFFFFFFFFFF DUP3 AND SWAP1 POP SWAP2 SWAP1 POP JUMP JUMPDEST PUSH3 0x444 DUP2 PUSH3 0x405 JUMP JUMPDEST DUP2 EQ PUSH3 0x450 JUMPI PUSH1 0x0 DUP1 REVERT JUMPDEST POP JUMP JUMPDEST PUSH2 0x973 DUP1 PUSH3 0x463 PUSH1 0x0 CODECOPY PUSH1 0x0 RETURN INVALID PUSH1 0x80 PUSH1 0x40 MSTORE CALLVALUE DUP1 ISZERO PUSH2 0x10 JUMPI PUSH1 0x0 DUP1 REVERT JUMPDEST POP PUSH1 0x4 CALLDATASIZE LT PUSH2 0x57 JUMPI PUSH1 0x0 CALLDATALOAD PUSH1 0xE0 SHR DUP1 PUSH4 0x1755FF21 EQ PUSH2 0x5C JUMPI DUP1 PUSH4 0x62C35C01 EQ PUSH2 0x7A JUMPI DUP1 PUSH4 0x677342AB EQ PUSH2 0x96 JUMPI DUP1 PUSH4 0x996C6CC3 EQ PUSH2 0xB4 JUMPI DUP1 PUSH4 0xC4DA9247 EQ PUSH2 0xD2 JUMPI JUMPDEST PUSH1 0x0 DUP1 REVERT JUMPDEST PUSH2 0x64 PUSH2 0xEE JUMP JUMPDEST PUSH1 0x40 MLOAD PUSH2 0x71 SWAP2 SWAP1 PUSH2 0x753 JUMP JUMPDEST PUSH1 0x40 MLOAD DUP1 SWAP2 SUB SWAP1 RETURN JUMPDEST PUSH2 0x94 PUSH1 0x4 DUP1 CALLDATASIZE SUB DUP2 ADD SWAP1 PUSH2 0x8F SWAP2 SWAP1 PUSH2 0x5AE JUMP JUMPDEST PUSH2 0x114 JUMP JUMPDEST STOP JUMPDEST PUSH2 0x9E PUSH2 0x1C7 JUMP JUMPDEST PUSH1 0x40 MLOAD PUSH2 0xAB SWAP2 SWAP1 PUSH2 0x753 JUMP JUMPDEST PUSH1 0x40 MLOAD DUP1 SWAP2 SUB SWAP1 RETURN JUMPDEST PUSH2 0xBC PUSH2 0x1EB JUMP JUMPDEST PUSH1 0x40 MLOAD PUSH2 0xC9 SWAP2 SWAP1 PUSH2 0x7F7 JUMP JUMPDEST PUSH1 0x40 MLOAD DUP1 SWAP2 SUB SWAP1 RETURN JUMPDEST PUSH2 0xEC PUSH1 0x4 DUP1 CALLDATASIZE SUB DUP2 ADD SWAP1 PUSH2 0xE7 SWAP2 SWAP1 PUSH2 0x5AE JUMP JUMPDEST PUSH2 0x211 JUMP JUMPDEST STOP JUMPDEST PUSH1 0x1 PUSH1 0x0 SWAP1 SLOAD SWAP1 PUSH2 0x100 EXP SWAP1 DIV PUSH20 0xFFFFFFFFFFFFFFFFFFFFFFFFFFFFFFFFFFFFFFFF AND DUP2 JUMP JUMPDEST PUSH1 0x2 PUSH1 0x0 SWAP1 SLOAD SWAP1 PUSH2 0x100 EXP SWAP1 DIV PUSH20 0xFFFFFFFFFFFFFFFFFFFFFFFFFFFFFFFFFFFFFFFF AND PUSH20 0xFFFFFFFFFFFFFFFFFFFFFFFFFFFFFFFFFFFFFFFF AND PUSH4 0x95EA7B3 ADDRESS DUP4 PUSH1 0x40 MLOAD DUP4 PUSH4 0xFFFFFFFF AND PUSH1 0xE0 SHL DUP2 MSTORE PUSH1 0x4 ADD PUSH2 0x171 SWAP3 SWAP2 SWAP1 PUSH2 0x7CE JUMP JUMPDEST PUSH1 0x20 PUSH1 0x40 MLOAD DUP1 DUP4 SUB DUP2 PUSH1 0x0 DUP8 DUP1 EXTCODESIZE ISZERO DUP1 ISZERO PUSH2 0x18B JUMPI PUSH1 0x0 DUP1 REVERT JUMPDEST POP GAS CALL ISZERO DUP1 ISZERO PUSH2 0x19F JUMPI RETURNDATASIZE PUSH1 0x0 DUP1 RETURNDATACOPY RETURNDATASIZE PUSH1 0x0 REVERT JUMPDEST POP POP POP POP PUSH1 0x40 MLOAD RETURNDATASIZE PUSH1 0x1F NOT PUSH1 0x1F DUP3 ADD AND DUP3 ADD DUP1 PUSH1 0x40 MSTORE POP DUP2 ADD SWAP1 PUSH2 0x1C3 SWAP2 SWAP1 PUSH2 0x585 JUMP JUMPDEST POP POP JUMP JUMPDEST PUSH1 0x0 DUP1 SLOAD SWAP1 PUSH2 0x100 EXP SWAP1 DIV PUSH20 0xFFFFFFFFFFFFFFFFFFFFFFFFFFFFFFFFFFFFFFFF AND DUP2 JUMP JUMPDEST PUSH1 0x2 PUSH1 0x0 SWAP1 SLOAD SWAP1 PUSH2 0x100 EXP SWAP1 DIV PUSH20 0xFFFFFFFFFFFFFFFFFFFFFFFFFFFFFFFFFFFFFFFF AND DUP2 JUMP JUMPDEST PUSH1 0x0 DUP2 GT PUSH2 0x254 JUMPI PUSH1 0x40 MLOAD PUSH32 0x8C379A000000000000000000000000000000000000000000000000000000000 DUP2 MSTORE PUSH1 0x4 ADD PUSH2 0x24B SWAP1 PUSH2 0x812 JUMP JUMPDEST PUSH1 0x40 MLOAD DUP1 SWAP2 SUB SWAP1 REVERT JUMPDEST DUP1 PUSH1 0x2 PUSH1 0x0 SWAP1 SLOAD SWAP1 PUSH2 0x100 EXP SWAP1 DIV PUSH20 0xFFFFFFFFFFFFFFFFFFFFFFFFFFFFFFFFFFFFFFFF AND PUSH20 0xFFFFFFFFFFFFFFFFFFFFFFFFFFFFFFFFFFFFFFFF AND PUSH4 0xDD62ED3E CALLER ADDRESS PUSH1 0x40 MLOAD DUP4 PUSH4 0xFFFFFFFF AND PUSH1 0xE0 SHL DUP2 MSTORE PUSH1 0x4 ADD PUSH2 0x2B2 SWAP3 SWAP2 SWAP1 PUSH2 0x76E JUMP JUMPDEST PUSH1 0x20 PUSH1 0x40 MLOAD DUP1 DUP4 SUB DUP2 DUP7 DUP1 EXTCODESIZE ISZERO DUP1 ISZERO PUSH2 0x2CA JUMPI PUSH1 0x0 DUP1 REVERT JUMPDEST POP GAS STATICCALL ISZERO DUP1 ISZERO PUSH2 0x2DE JUMPI RETURNDATASIZE PUSH1 0x0 DUP1 RETURNDATACOPY RETURNDATASIZE PUSH1 0x0 REVERT JUMPDEST POP POP POP POP PUSH1 0x40 MLOAD RETURNDATASIZE PUSH1 0x1F NOT PUSH1 0x1F DUP3 ADD AND DUP3 ADD DUP1 PUSH1 0x40 MSTORE POP DUP2 ADD SWAP1 PUSH2 0x302 SWAP2 SWAP1 PUSH2 0x5D7 JUMP JUMPDEST LT ISZERO PUSH2 0x343 JUMPI PUSH1 0x40 MLOAD PUSH32 0x8C379A000000000000000000000000000000000000000000000000000000000 DUP2 MSTORE PUSH1 0x4 ADD PUSH2 0x33A SWAP1 PUSH2 0x852 JUMP JUMPDEST PUSH1 0x40 MLOAD DUP1 SWAP2 SUB SWAP1 REVERT JUMPDEST PUSH1 0x2 PUSH1 0x0 SWAP1 SLOAD SWAP1 PUSH2 0x100 EXP SWAP1 DIV PUSH20 0xFFFFFFFFFFFFFFFFFFFFFFFFFFFFFFFFFFFFFFFF AND PUSH20 0xFFFFFFFFFFFFFFFFFFFFFFFFFFFFFFFFFFFFFFFF AND PUSH4 0x23B872DD CALLER ADDRESS DUP5 PUSH1 0x40 MLOAD DUP5 PUSH4 0xFFFFFFFF AND PUSH1 0xE0 SHL DUP2 MSTORE PUSH1 0x4 ADD PUSH2 0x3A2 SWAP4 SWAP3 SWAP2 SWAP1 PUSH2 0x797 JUMP JUMPDEST PUSH1 0x20 PUSH1 0x40 MLOAD DUP1 DUP4 SUB DUP2 PUSH1 0x0 DUP8 DUP1 EXTCODESIZE ISZERO DUP1 ISZERO PUSH2 0x3BC JUMPI PUSH1 0x0 DUP1 REVERT JUMPDEST POP GAS CALL ISZERO DUP1 ISZERO PUSH2 0x3D0 JUMPI RETURNDATASIZE PUSH1 0x0 DUP1 RETURNDATACOPY RETURNDATASIZE PUSH1 0x0 REVERT JUMPDEST POP POP POP POP PUSH1 0x40 MLOAD RETURNDATASIZE PUSH1 0x1F NOT PUSH1 0x1F DUP3 ADD AND DUP3 ADD DUP1 PUSH1 0x40 MSTORE POP DUP2 ADD SWAP1 PUSH2 0x3F4 SWAP2 SWAP1 PUSH2 0x585 JUMP JUMPDEST PUSH2 0x433 JUMPI PUSH1 0x40 MLOAD PUSH32 0x8C379A000000000000000000000000000000000000000000000000000000000 DUP2 MSTORE PUSH1 0x4 ADD PUSH2 0x42A SWAP1 PUSH2 0x832 JUMP JUMPDEST PUSH1 0x40 MLOAD DUP1 SWAP2 SUB SWAP1 REVERT JUMPDEST PUSH1 0x2 PUSH1 0x0 SWAP1 SLOAD SWAP1 PUSH2 0x100 EXP SWAP1 DIV PUSH20 0xFFFFFFFFFFFFFFFFFFFFFFFFFFFFFFFFFFFFFFFF AND PUSH20 0xFFFFFFFFFFFFFFFFFFFFFFFFFFFFFFFFFFFFFFFF AND PUSH4 0xA9059CBB PUSH1 0x1 PUSH1 0x0 SWAP1 SLOAD SWAP1 PUSH2 0x100 EXP SWAP1 DIV PUSH20 0xFFFFFFFFFFFFFFFFFFFFFFFFFFFFFFFFFFFFFFFF AND DUP4 PUSH1 0x40 MLOAD DUP4 PUSH4 0xFFFFFFFF AND PUSH1 0xE0 SHL DUP2 MSTORE PUSH1 0x4 ADD PUSH2 0x4B2 SWAP3 SWAP2 SWAP1 PUSH2 0x7CE JUMP JUMPDEST PUSH1 0x20 PUSH1 0x40 MLOAD DUP1 DUP4 SUB DUP2 PUSH1 0x0 DUP8 DUP1 EXTCODESIZE ISZERO DUP1 ISZERO PUSH2 0x4CC JUMPI PUSH1 0x0 DUP1 REVERT JUMPDEST POP GAS CALL ISZERO DUP1 ISZERO PUSH2 0x4E0 JUMPI RETURNDATASIZE PUSH1 0x0 DUP1 RETURNDATACOPY RETURNDATASIZE PUSH1 0x0 REVERT JUMPDEST POP POP POP POP PUSH1 0x40 MLOAD RETURNDATASIZE PUSH1 0x1F NOT PUSH1 0x1F DUP3 ADD AND DUP3 ADD DUP1 PUSH1 0x40 MSTORE POP DUP2 ADD SWAP1 PUSH2 0x504 SWAP2 SWAP1 PUSH2 0x585 JUMP JUMPDEST PUSH2 0x543 JUMPI PUSH1 0x40 MLOAD PUSH32 0x8C379A000000000000000000000000000000000000000000000000000000000 DUP2 MSTORE PUSH1 0x4 ADD PUSH2 0x53A SWAP1 PUSH2 0x872 JUMP JUMPDEST PUSH1 0x40 MLOAD DUP1 SWAP2 SUB SWAP1 REVERT JUMPDEST POP JUMP JUMPDEST PUSH1 0x0 DUP2 MLOAD SWAP1 POP PUSH2 0x555 DUP2 PUSH2 0x90F JUMP JUMPDEST SWAP3 SWAP2 POP POP JUMP JUMPDEST PUSH1 0x0 DUP2 CALLDATALOAD SWAP1 POP PUSH2 0x56A DUP2 PUSH2 0x926 JUMP JUMPDEST SWAP3 SWAP2 POP POP JUMP JUMPDEST PUSH1 0x0 DUP2 MLOAD SWAP1 POP PUSH2 0x57F DUP2 PUSH2 0x926 JUMP JUMPDEST SWAP3 SWAP2 POP POP JUMP JUMPDEST PUSH1 0x0 PUSH1 0x20 DUP3 DUP5 SUB SLT ISZERO PUSH2 0x597 JUMPI PUSH1 0x0 DUP1 REVERT JUMPDEST PUSH1 0x0 PUSH2 0x5A5 DUP5 DUP3 DUP6 ADD PUSH2 0x546 JUMP JUMPDEST SWAP2 POP POP SWAP3 SWAP2 POP POP JUMP JUMPDEST PUSH1 0x0 PUSH1 0x20 DUP3 DUP5 SUB SLT ISZERO PUSH2 0x5C0 JUMPI PUSH1 0x0 DUP1 REVERT JUMPDEST PUSH1 0x0 PUSH2 0x5CE DUP5 DUP3 DUP6 ADD PUSH2 0x55B JUMP JUMPDEST SWAP2 POP POP SWAP3 SWAP2 POP POP JUMP JUMPDEST PUSH1 0x0 PUSH1 0x20 DUP3 DUP5 SUB SLT ISZERO PUSH2 0x5E9 JUMPI PUSH1 0x0 DUP1 REVERT JUMPDEST PUSH1 0x0 PUSH2 0x5F7 DUP5 DUP3 DUP6 ADD PUSH2 0x570 JUMP JUMPDEST SWAP2 POP POP SWAP3 SWAP2 POP POP JUMP JUMPDEST PUSH2 0x609 DUP2 PUSH2 0x8A3 JUMP JUMPDEST DUP3 MSTORE POP POP JUMP JUMPDEST PUSH2 0x618 DUP2 PUSH2 0x8EB JUMP JUMPDEST DUP3 MSTORE POP POP JUMP JUMPDEST PUSH1 0x0 PUSH2 0x62B PUSH1 0x25 DUP4 PUSH2 0x892 JUMP JUMPDEST SWAP2 POP PUSH32 0x4465706F73697420616D6F756E74206D75737420626520677265617465722074 PUSH1 0x0 DUP4 ADD MSTORE PUSH32 0x68616E2030000000000000000000000000000000000000000000000000000000 PUSH1 0x20 DUP4 ADD MSTORE PUSH1 0x40 DUP3 ADD SWAP1 POP SWAP2 SWAP1 POP JUMP JUMPDEST PUSH1 0x0 PUSH2 0x691 PUSH1 0xF DUP4 PUSH2 0x892 JUMP JUMPDEST SWAP2 POP PUSH32 0x5472616E73666572206661696C65640000000000000000000000000000000000 PUSH1 0x0 DUP4 ADD MSTORE PUSH1 0x20 DUP3 ADD SWAP1 POP SWAP2 SWAP1 POP JUMP JUMPDEST PUSH1 0x0 PUSH2 0x6D1 PUSH1 0x14 DUP4 PUSH2 0x892 JUMP JUMPDEST SWAP2 POP PUSH32 0x4E6F7420656E6F75676820616C6C6F77616E6365000000000000000000000000 PUSH1 0x0 DUP4 ADD MSTORE PUSH1 0x20 DUP3 ADD SWAP1 POP SWAP2 SWAP1 POP JUMP JUMPDEST PUSH1 0x0 PUSH2 0x711 PUSH1 0x17 DUP4 PUSH2 0x892 JUMP JUMPDEST SWAP2 POP PUSH32 0x5472616E7366657220746F20706F6F6C206661696C6564000000000000000000 PUSH1 0x0 DUP4 ADD MSTORE PUSH1 0x20 DUP3 ADD SWAP1 POP SWAP2 SWAP1 POP JUMP JUMPDEST PUSH2 0x74D DUP2 PUSH2 0x8E1 JUMP JUMPDEST DUP3 MSTORE POP POP JUMP JUMPDEST PUSH1 0x0 PUSH1 0x20 DUP3 ADD SWAP1 POP PUSH2 0x768 PUSH1 0x0 DUP4 ADD DUP5 PUSH2 0x600 JUMP JUMPDEST SWAP3 SWAP2 POP POP JUMP JUMPDEST PUSH1 0x0 PUSH1 0x40 DUP3 ADD SWAP1 POP PUSH2 0x783 PUSH1 0x0 DUP4 ADD DUP6 PUSH2 0x600 JUMP JUMPDEST PUSH2 0x790 PUSH1 0x20 DUP4 ADD DUP5 PUSH2 0x600 JUMP JUMPDEST SWAP4 SWAP3 POP POP POP JUMP JUMPDEST PUSH1 0x0 PUSH1 0x60 DUP3 ADD SWAP1 POP PUSH2 0x7AC PUSH1 0x0 DUP4 ADD DUP7 PUSH2 0x600 JUMP JUMPDEST PUSH2 0x7B9 PUSH1 0x20 DUP4 ADD DUP6 PUSH2 0x600 JUMP JUMPDEST PUSH2 0x7C6 PUSH1 0x40 DUP4 ADD DUP5 PUSH2 0x744 JUMP JUMPDEST SWAP5 SWAP4 POP POP POP POP JUMP JUMPDEST PUSH1 0x0 PUSH1 0x40 DUP3 ADD SWAP1 POP PUSH2 0x7E3 PUSH1 0x0 DUP4 ADD DUP6 PUSH2 0x600 JUMP JUMPDEST PUSH2 0x7F0 PUSH1 0x20 DUP4 ADD DUP5 PUSH2 0x744 JUMP JUMPDEST SWAP4 SWAP3 POP POP POP JUMP JUMPDEST PUSH1 0x0 PUSH1 0x20 DUP3 ADD SWAP1 POP PUSH2 0x80C PUSH1 0x0 DUP4 ADD DUP5 PUSH2 0x60F JUMP JUMPDEST SWAP3 SWAP2 POP POP JUMP JUMPDEST PUSH1 0x0 PUSH1 0x20 DUP3 ADD SWAP1 POP DUP2 DUP2 SUB PUSH1 0x0 DUP4 ADD MSTORE PUSH2 0x82B DUP2 PUSH2 0x61E JUMP JUMPDEST SWAP1 POP SWAP2 SWAP1 POP JUMP JUMPDEST PUSH1 0x0 PUSH1 0x20 DUP3 ADD SWAP1 POP DUP2 DUP2 SUB PUSH1 0x0 DUP4 ADD MSTORE PUSH2 0x84B DUP2 PUSH2 0x684 JUMP JUMPDEST SWAP1 POP SWAP2 SWAP1 POP JUMP JUMPDEST PUSH1 0x0 PUSH1 0x20 DUP3 ADD SWAP1 POP DUP2 DUP2 SUB PUSH1 0x0 DUP4 ADD MSTORE PUSH2 0x86B DUP2 PUSH2 0x6C4 JUMP JUMPDEST SWAP1 POP SWAP2 SWAP1 POP JUMP JUMPDEST PUSH1 0x0 PUSH1 0x20 DUP3 ADD SWAP1 POP DUP2 DUP2 SUB PUSH1 0x0 DUP4 ADD MSTORE PUSH2 0x88B DUP2 PUSH2 0x704 JUMP JUMPDEST SWAP1 POP SWAP2 SWAP1 POP JUMP JUMPDEST PUSH1 0x0 DUP3 DUP3 MSTORE PUSH1 0x20 DUP3 ADD SWAP1 POP SWAP3 SWAP2 POP POP JUMP JUMPDEST PUSH1 0x0 PUSH2 0x8AE DUP3 PUSH2 0x8C1 JUMP JUMPDEST SWAP1 POP SWAP2 SWAP1 POP JUMP JUMPDEST PUSH1 0x0 DUP2 ISZERO ISZERO SWAP1 POP SWAP2 SWAP1 POP JUMP JUMPDEST PUSH1 0x0 PUSH20 0xFFFFFFFFFFFFFFFFFFFFFFFFFFFFFFFFFFFFFFFF DUP3 AND SWAP1 POP SWAP2 SWAP1 POP JUMP JUMPDEST PUSH1 0x0 DUP2 SWAP1 POP SWAP2 SWAP1 POP JUMP JUMPDEST PUSH1 0x0 PUSH2 0x8F6 DUP3 PUSH2 0x8FD JUMP JUMPDEST SWAP1 POP SWAP2 SWAP1 POP JUMP JUMPDEST PUSH1 0x0 PUSH2 0x908 DUP3 PUSH2 0x8C1 JUMP JUMPDEST SWAP1 POP SWAP2 SWAP1 POP JUMP JUMPDEST PUSH2 0x918 DUP2 PUSH2 0x8B5 JUMP JUMPDEST DUP2 EQ PUSH2 0x923 JUMPI PUSH1 0x0 DUP1 REVERT JUMPDEST POP JUMP JUMPDEST PUSH2 0x92F DUP2 PUSH2 0x8E1 JUMP JUMPDEST DUP2 EQ PUSH2 0x93A JUMPI PUSH1 0x0 DUP1 REVERT JUMPDEST POP JUMP INVALID LOG2 PUSH5 0x6970667358 0x22 SLT KECCAK256 MSTORE8 DUP1 DUP3 0xAB PC 0xCC DUP13 0xE LOG1 SWAP15 KECCAK256 SWAP5 PUSH12 0xCC4F6FA5BD77727B7B26C904 0xE2 0xEF ISZERO CALLDATALOAD 0xDF PUSH28 0x2764736F6C6343000800003300000000000000000000000000000000 "
				},
				"gasEstimates": {
					"creation": {
						"codeDepositCost": "483800",
						"executionCost": "infinite",
						"totalCost": "infinite"
					},
					"external": {
						"approveContract(uint256)": "infinite",
						"depositAndTransfer(uint256)": "infinite",
						"poolAddress()": "1192",
						"receiverWallet()": "1233",
						"wrappedToken()": "1301"
					}
				},
				"methodIdentifiers": {
					"approveContract(uint256)": "62c35c01",
					"depositAndTransfer(uint256)": "c4da9247",
					"poolAddress()": "1755ff21",
					"receiverWallet()": "677342ab",
					"wrappedToken()": "996c6cc3"
				}
			},
			"storageLayout": {
				"storage": [
					{
						"astId": 4,
						"contract": "contract/VestingLiquidityHedgey.sol:VestingLiquidityHedgey",
						"label": "receiverWallet",
						"offset": 0,
						"slot": "0",
						"type": "t_address"
					},
					{
						"astId": 6,
						"contract": "contract/VestingLiquidityHedgey.sol:VestingLiquidityHedgey",
						"label": "poolAddress",
						"offset": 0,
						"slot": "1",
						"type": "t_address"
					},
					{
						"astId": 9,
						"contract": "contract/VestingLiquidityHedgey.sol:VestingLiquidityHedgey",
						"label": "wrappedToken",
						"offset": 0,
						"slot": "2",
						"type": "t_contract(IERC20)209"
					}
				],
				"types": {
					"t_address": {
						"encoding": "inplace",
						"label": "address",
						"numberOfBytes": "20"
					},
					"t_contract(IERC20)209": {
						"encoding": "inplace",
						"label": "contract IERC20",
						"numberOfBytes": "20"
					}
				}
			},
			"userdoc": {
				"kind": "user",
				"methods": {},
				"version": 1
			}
		}
	}
}