{
	"contract/VestingLiquidityHedgey.sol": {
		"LiquidityPoolInteractor": {
			"abi": [
				{
					"inputs": [
						{
							"internalType": "address",
							"name": "_liquidityPoolAddress",
							"type": "address"
						},
						{
							"internalType": "address",
							"name": "_wrappedToken",
							"type": "address"
						},
						{
							"internalType": "uint256",
							"name": "_maxAllowance",
							"type": "uint256"
						}
					],
					"stateMutability": "nonpayable",
					"type": "constructor"
				},
				{
					"anonymous": false,
					"inputs": [
						{
							"indexed": true,
							"internalType": "address",
							"name": "sender",
							"type": "address"
						},
						{
							"indexed": false,
							"internalType": "uint256",
							"name": "amount",
							"type": "uint256"
						}
					],
					"name": "ContractApproved",
					"type": "event"
				},
				{
					"anonymous": false,
					"inputs": [
						{
							"indexed": false,
							"internalType": "uint256",
							"name": "newMaxAllowance",
							"type": "uint256"
						}
					],
					"name": "MaxAllowanceChanged",
					"type": "event"
				},
				{
					"anonymous": false,
					"inputs": [
						{
							"indexed": true,
							"internalType": "address",
							"name": "previousOwner",
							"type": "address"
						},
						{
							"indexed": true,
							"internalType": "address",
							"name": "newOwner",
							"type": "address"
						}
					],
					"name": "OwnershipTransferred",
					"type": "event"
				},
				{
					"anonymous": false,
					"inputs": [
						{
							"indexed": false,
							"internalType": "address",
							"name": "account",
							"type": "address"
						}
					],
					"name": "Paused",
					"type": "event"
				},
				{
					"anonymous": false,
					"inputs": [
						{
							"indexed": true,
							"internalType": "address",
							"name": "from",
							"type": "address"
						},
						{
							"indexed": false,
							"internalType": "uint256",
							"name": "amount",
							"type": "uint256"
						}
					],
					"name": "TokensDeposited",
					"type": "event"
				},
				{
					"anonymous": false,
					"inputs": [
						{
							"indexed": true,
							"internalType": "address",
							"name": "to",
							"type": "address"
						},
						{
							"indexed": false,
							"internalType": "uint256",
							"name": "amount",
							"type": "uint256"
						}
					],
					"name": "TokensWithdrawn",
					"type": "event"
				},
				{
					"anonymous": false,
					"inputs": [
						{
							"indexed": false,
							"internalType": "address",
							"name": "account",
							"type": "address"
						}
					],
					"name": "Unpaused",
					"type": "event"
				},
				{
					"inputs": [
						{
							"internalType": "uint256",
							"name": "amount",
							"type": "uint256"
						}
					],
					"name": "approveContract",
					"outputs": [],
					"stateMutability": "nonpayable",
					"type": "function"
				},
				{
					"inputs": [],
					"name": "automatedWithdrawalToPool",
					"outputs": [],
					"stateMutability": "nonpayable",
					"type": "function"
				},
				{
					"inputs": [],
					"name": "blockCounter",
					"outputs": [
						{
							"internalType": "uint256",
							"name": "",
							"type": "uint256"
						}
					],
					"stateMutability": "view",
					"type": "function"
				},
				{
					"inputs": [
						{
							"internalType": "uint256",
							"name": "amount",
							"type": "uint256"
						}
					],
					"name": "depositAndTransfer",
					"outputs": [],
					"stateMutability": "nonpayable",
					"type": "function"
				},
				{
					"inputs": [],
					"name": "liquidityPoolAddress",
					"outputs": [
						{
							"internalType": "address",
							"name": "",
							"type": "address"
						}
					],
					"stateMutability": "view",
					"type": "function"
				},
				{
					"inputs": [],
					"name": "maxAllowance",
					"outputs": [
						{
							"internalType": "uint256",
							"name": "",
							"type": "uint256"
						}
					],
					"stateMutability": "view",
					"type": "function"
				},
				{
					"inputs": [],
					"name": "owner",
					"outputs": [
						{
							"internalType": "address",
							"name": "",
							"type": "address"
						}
					],
					"stateMutability": "view",
					"type": "function"
				},
				{
					"inputs": [],
					"name": "pause",
					"outputs": [],
					"stateMutability": "nonpayable",
					"type": "function"
				},
				{
					"inputs": [],
					"name": "paused",
					"outputs": [
						{
							"internalType": "bool",
							"name": "",
							"type": "bool"
						}
					],
					"stateMutability": "view",
					"type": "function"
				},
				{
					"inputs": [],
					"name": "renounceOwnership",
					"outputs": [],
					"stateMutability": "nonpayable",
					"type": "function"
				},
				{
					"inputs": [
						{
							"internalType": "uint256",
							"name": "newMaxAllowance",
							"type": "uint256"
						}
					],
					"name": "setMaxAllowance",
					"outputs": [],
					"stateMutability": "nonpayable",
					"type": "function"
				},
				{
					"inputs": [],
					"name": "transferInterval",
					"outputs": [
						{
							"internalType": "uint256",
							"name": "",
							"type": "uint256"
						}
					],
					"stateMutability": "view",
					"type": "function"
				},
				{
					"inputs": [
						{
							"internalType": "address",
							"name": "newOwner",
							"type": "address"
						}
					],
					"name": "transferOwnership",
					"outputs": [],
					"stateMutability": "nonpayable",
					"type": "function"
				},
				{
					"inputs": [],
					"name": "unpause",
					"outputs": [],
					"stateMutability": "nonpayable",
					"type": "function"
				},
				{
					"inputs": [
						{
							"internalType": "address",
							"name": "to",
							"type": "address"
						},
						{
							"internalType": "uint256",
							"name": "amount",
							"type": "uint256"
						}
					],
					"name": "withdrawal",
					"outputs": [],
					"stateMutability": "nonpayable",
					"type": "function"
				},
				{
					"inputs": [],
					"name": "wrappedToken",
					"outputs": [
						{
							"internalType": "contract IERC20",
							"name": "",
							"type": "address"
						}
					],
					"stateMutability": "view",
					"type": "function"
				}
			],
			"devdoc": {
				"kind": "dev",
				"methods": {
					"owner()": {
						"details": "Returns the address of the current owner."
					},
					"paused()": {
						"details": "Returns true if the contract is paused, and false otherwise."
					},
					"renounceOwnership()": {
						"details": "Leaves the contract without owner. It will not be possible to call `onlyOwner` functions. Can only be called by the current owner. NOTE: Renouncing ownership will leave the contract without an owner, thereby disabling any functionality that is only available to the owner."
					},
					"transferOwnership(address)": {
						"details": "Transfers ownership of the contract to a new account (`newOwner`). Can only be called by the current owner."
					}
				},
				"version": 1
			},
			"evm": {
				"assembly": "    /* \"contract/VestingLiquidityHedgey.sol\":507:4632  contract LiquidityPoolInteractor is Ownable, ReentrancyGuard, Pausable {\r... */\n  mstore(0x40, 0x80)\n    /* \"contract/VestingLiquidityHedgey.sol\":730:733  200 */\n  0xc8\n    /* \"contract/VestingLiquidityHedgey.sol\":696:733  uint256 public transferInterval = 200 */\n  0x05\n  sstore\n    /* \"contract/VestingLiquidityHedgey.sol\":1034:1524  constructor(address _liquidityPoolAddress, address _wrappedToken, uint256 _maxAllowance) {\r... */\n  callvalue\n  dup1\n  iszero\n  tag_1\n  jumpi\n  0x00\n  dup1\n  revert\ntag_1:\n  pop\n  mload(0x40)\n  sub(codesize, bytecodeSize)\n  dup1\n  bytecodeSize\n  dup4\n  codecopy\n  dup2\n  add\n  0x40\n  dup2\n  swap1\n  mstore\n  tag_2\n  swap2\n  tag_3\n  jump\t// in\ntag_2:\n    /* \"https://github.com/OpenZeppelin/openzeppelin-contracts/blob/v4.9.3/contracts/access/Ownable.sol\":936:968  _transferOwnership(_msgSender()) */\n  tag_9\n    /* \"https://github.com/OpenZeppelin/openzeppelin-contracts/blob/v4.9.3/contracts/access/Ownable.sol\":955:967  _msgSender() */\n  tag_10\n    /* \"https://github.com/OpenZeppelin/openzeppelin-contracts/blob/v4.9.3/contracts/access/Ownable.sol\":955:965  _msgSender */\n  tag_11\n    /* \"https://github.com/OpenZeppelin/openzeppelin-contracts/blob/v4.9.3/contracts/access/Ownable.sol\":955:967  _msgSender() */\n  jump\t// in\ntag_10:\n    /* \"https://github.com/OpenZeppelin/openzeppelin-contracts/blob/v4.9.3/contracts/access/Ownable.sol\":936:954  _transferOwnership */\n  tag_12\n    /* \"https://github.com/OpenZeppelin/openzeppelin-contracts/blob/v4.9.3/contracts/access/Ownable.sol\":936:968  _transferOwnership(_msgSender()) */\n  jump\t// in\ntag_9:\n    /* \"https://github.com/OpenZeppelin/openzeppelin-contracts/blob/v4.9.3/contracts/security/ReentrancyGuard.sol\":1716:1717  1 */\n  0x01\n    /* \"https://github.com/OpenZeppelin/openzeppelin-contracts/blob/v4.9.3/contracts/security/ReentrancyGuard.sol\":1821:1843  _status = _NOT_ENTERED */\n  dup1\n  sstore\n    /* \"https://github.com/OpenZeppelin/openzeppelin-contracts/blob/v4.9.3/contracts/security/Pausable.sol\":996:1003  _paused */\n  0x02\n    /* \"https://github.com/OpenZeppelin/openzeppelin-contracts/blob/v4.9.3/contracts/security/Pausable.sol\":996:1011  _paused = false */\n  dup1\n  sload\n  not(0xff)\n  and\n  swap1\n  sstore\n  sub(shl(0xa0, 0x01), 0x01)\n    /* \"contract/VestingLiquidityHedgey.sol\":1142:1177  _liquidityPoolAddress != address(0) */\n  dup4\n  and\n    /* \"contract/VestingLiquidityHedgey.sol\":1134:1212  require(_liquidityPoolAddress != address(0), \"Invalid Liquidity Pool address\") */\n  tag_16\n  jumpi\n  mload(0x40)\n  shl(0xe5, 0x461bcd)\n  dup2\n  mstore\n  0x04\n  add\n  tag_17\n  swap1\n  tag_18\n  jump\t// in\ntag_17:\n  mload(0x40)\n  dup1\n  swap2\n  sub\n  swap1\n  revert\ntag_16:\n  sub(shl(0xa0, 0x01), 0x01)\n    /* \"contract/VestingLiquidityHedgey.sol\":1231:1258  _wrappedToken != address(0) */\n  dup3\n  and\n    /* \"contract/VestingLiquidityHedgey.sol\":1223:1292  require(_wrappedToken != address(0), \"Invalid wrapped token address\") */\n  tag_19\n  jumpi\n  mload(0x40)\n  shl(0xe5, 0x461bcd)\n  dup2\n  mstore\n  0x04\n  add\n  tag_17\n  swap1\n  tag_21\n  jump\t// in\ntag_19:\n    /* \"contract/VestingLiquidityHedgey.sol\":1305:1325  liquidityPoolAddress */\n  0x02\n    /* \"contract/VestingLiquidityHedgey.sol\":1305:1349  liquidityPoolAddress = _liquidityPoolAddress */\n  dup1\n  sload\n  not(sub(shl(0xa8, 0x01), 0x0100))\n  and\n  0x0100\n  sub(shl(0xa0, 0x01), 0x01)\n  swap6\n  dup7\n  and\n  mul\n  or\n  swap1\n  sstore\n    /* \"contract/VestingLiquidityHedgey.sol\":1360:1372  wrappedToken */\n  0x03\n    /* \"contract/VestingLiquidityHedgey.sol\":1360:1396  wrappedToken = IERC20(_wrappedToken) */\n  dup1\n  sload\n  not(sub(shl(0xa0, 0x01), 0x01))\n  and\n  swap3\n  swap1\n  swap4\n  and\n  swap2\n  swap1\n  swap2\n  or\n  swap1\n  swap2\n  sstore\n    /* \"contract/VestingLiquidityHedgey.sol\":1407:1419  maxAllowance */\n  0x06\n    /* \"contract/VestingLiquidityHedgey.sol\":1407:1435  maxAllowance = _maxAllowance */\n  sstore\n    /* \"contract/VestingLiquidityHedgey.sol\":1504:1516  block.number */\n  number\n    /* \"contract/VestingLiquidityHedgey.sol\":1489:1501  blockCounter */\n  0x04\n    /* \"contract/VestingLiquidityHedgey.sol\":1489:1516  blockCounter = block.number */\n  sstore\n    /* \"contract/VestingLiquidityHedgey.sol\":507:4632  contract LiquidityPoolInteractor is Ownable, ReentrancyGuard, Pausable {\r... */\n  jump(tag_25)\n    /* \"https://github.com/OpenZeppelin/openzeppelin-contracts/blob/v4.9.3/contracts/utils/Context.sol\":640:736  function _msgSender() internal view virtual returns (address) {... */\ntag_11:\n    /* \"https://github.com/OpenZeppelin/openzeppelin-contracts/blob/v4.9.3/contracts/utils/Context.sol\":719:729  msg.sender */\n  caller\n    /* \"https://github.com/OpenZeppelin/openzeppelin-contracts/blob/v4.9.3/contracts/utils/Context.sol\":640:736  function _msgSender() internal view virtual returns (address) {... */\n  swap1\n  jump\t// out\n    /* \"https://github.com/OpenZeppelin/openzeppelin-contracts/blob/v4.9.3/contracts/access/Ownable.sol\":2426:2613  function _transferOwnership(address newOwner) internal virtual {... */\ntag_12:\n    /* \"https://github.com/OpenZeppelin/openzeppelin-contracts/blob/v4.9.3/contracts/access/Ownable.sol\":2499:2515  address oldOwner */\n  0x00\n    /* \"https://github.com/OpenZeppelin/openzeppelin-contracts/blob/v4.9.3/contracts/access/Ownable.sol\":2518:2524  _owner */\n  dup1\n  sload\n  sub(shl(0xa0, 0x01), 0x01)\n    /* \"https://github.com/OpenZeppelin/openzeppelin-contracts/blob/v4.9.3/contracts/access/Ownable.sol\":2534:2551  _owner = newOwner */\n  dup4\n  dup2\n  and\n  not(sub(shl(0xa0, 0x01), 0x01))\n  dup4\n  and\n  dup2\n  or\n  dup5\n  sstore\n    /* \"https://github.com/OpenZeppelin/openzeppelin-contracts/blob/v4.9.3/contracts/access/Ownable.sol\":2566:2606  OwnershipTransferred(oldOwner, newOwner) */\n  mload(0x40)\n    /* \"https://github.com/OpenZeppelin/openzeppelin-contracts/blob/v4.9.3/contracts/access/Ownable.sol\":2518:2524  _owner */\n  swap2\n  swap1\n  swap3\n  and\n  swap3\n  dup4\n  swap2\n    /* \"https://github.com/OpenZeppelin/openzeppelin-contracts/blob/v4.9.3/contracts/access/Ownable.sol\":2566:2606  OwnershipTransferred(oldOwner, newOwner) */\n  0x8be0079c531659141344cd1fd0a4f28419497f9722a3daafe3b4186f6b6457e0\n  swap2\n    /* \"https://github.com/OpenZeppelin/openzeppelin-contracts/blob/v4.9.3/contracts/access/Ownable.sol\":2499:2515  address oldOwner */\n  swap1\n    /* \"https://github.com/OpenZeppelin/openzeppelin-contracts/blob/v4.9.3/contracts/access/Ownable.sol\":2566:2606  OwnershipTransferred(oldOwner, newOwner) */\n  log3\n    /* \"https://github.com/OpenZeppelin/openzeppelin-contracts/blob/v4.9.3/contracts/access/Ownable.sol\":2426:2613  function _transferOwnership(address newOwner) internal virtual {... */\n  pop\n  pop\n  jump\t// out\n    /* \"#utility.yul\":14:193   */\ntag_26:\n    /* \"#utility.yul\":95:108   */\n  dup1\n  mload\n  sub(shl(0xa0, 0x01), 0x01)\n    /* \"#utility.yul\":137:168   */\n  dup2\n  and\n    /* \"#utility.yul\":127:169   */\n  dup2\n  eq\n    /* \"#utility.yul\":117:119   */\n  tag_28\n  jumpi\n    /* \"#utility.yul\":183:184   */\n  0x00\n    /* \"#utility.yul\":180:181   */\n  dup1\n    /* \"#utility.yul\":173:185   */\n  revert\n    /* \"#utility.yul\":117:119   */\ntag_28:\n    /* \"#utility.yul\":76:193   */\n  swap2\n  swap1\n  pop\n  jump\t// out\n    /* \"#utility.yul\":198:566   */\ntag_3:\n  0x00\n  dup1\n  0x00\n    /* \"#utility.yul\":355:357   */\n  0x60\n    /* \"#utility.yul\":343:352   */\n  dup5\n    /* \"#utility.yul\":334:341   */\n  dup7\n    /* \"#utility.yul\":330:353   */\n  sub\n    /* \"#utility.yul\":326:358   */\n  slt\n    /* \"#utility.yul\":323:325   */\n  iszero\n  tag_30\n  jumpi\n    /* \"#utility.yul\":376:382   */\n  dup3\n    /* \"#utility.yul\":368:374   */\n  dup4\n    /* \"#utility.yul\":361:383   */\n  revert\n    /* \"#utility.yul\":323:325   */\ntag_30:\n    /* \"#utility.yul\":404:446   */\n  tag_31\n    /* \"#utility.yul\":436:445   */\n  dup5\n    /* \"#utility.yul\":404:446   */\n  tag_26\n  jump\t// in\ntag_31:\n    /* \"#utility.yul\":394:446   */\n  swap3\n  pop\n    /* \"#utility.yul\":465:516   */\n  tag_32\n    /* \"#utility.yul\":512:514   */\n  0x20\n    /* \"#utility.yul\":501:510   */\n  dup6\n    /* \"#utility.yul\":497:515   */\n  add\n    /* \"#utility.yul\":465:516   */\n  tag_26\n  jump\t// in\ntag_32:\n    /* \"#utility.yul\":455:516   */\n  swap2\n  pop\n    /* \"#utility.yul\":556:558   */\n  0x40\n    /* \"#utility.yul\":545:554   */\n  dup5\n    /* \"#utility.yul\":541:559   */\n  add\n    /* \"#utility.yul\":535:560   */\n  mload\n    /* \"#utility.yul\":525:560   */\n  swap1\n  pop\n    /* \"#utility.yul\":313:566   */\n  swap3\n  pop\n  swap3\n  pop\n  swap3\n  jump\t// out\n    /* \"#utility.yul\":571:924   */\ntag_21:\n    /* \"#utility.yul\":773:775   */\n  0x20\n    /* \"#utility.yul\":755:776   */\n  dup1\n  dup3\n  mstore\n    /* \"#utility.yul\":812:814   */\n  0x1d\n    /* \"#utility.yul\":792:810   */\n  swap1\n  dup3\n  add\n    /* \"#utility.yul\":785:815   */\n  mstore\n    /* \"#utility.yul\":851:882   */\n  0x496e76616c6964207772617070656420746f6b656e2061646472657373000000\n    /* \"#utility.yul\":846:848   */\n  0x40\n    /* \"#utility.yul\":831:849   */\n  dup3\n  add\n    /* \"#utility.yul\":824:883   */\n  mstore\n    /* \"#utility.yul\":915:917   */\n  0x60\n    /* \"#utility.yul\":900:918   */\n  add\n  swap1\n    /* \"#utility.yul\":745:924   */\n  jump\t// out\n    /* \"#utility.yul\":929:1283   */\ntag_18:\n    /* \"#utility.yul\":1131:1133   */\n  0x20\n    /* \"#utility.yul\":1113:1134   */\n  dup1\n  dup3\n  mstore\n    /* \"#utility.yul\":1170:1172   */\n  0x1e\n    /* \"#utility.yul\":1150:1168   */\n  swap1\n  dup3\n  add\n    /* \"#utility.yul\":1143:1173   */\n  mstore\n    /* \"#utility.yul\":1209:1241   */\n  0x496e76616c6964204c697175696469747920506f6f6c20616464726573730000\n    /* \"#utility.yul\":1204:1206   */\n  0x40\n    /* \"#utility.yul\":1189:1207   */\n  dup3\n  add\n    /* \"#utility.yul\":1182:1242   */\n  mstore\n    /* \"#utility.yul\":1274:1276   */\n  0x60\n    /* \"#utility.yul\":1259:1277   */\n  add\n  swap1\n    /* \"#utility.yul\":1103:1283   */\n  jump\t// out\ntag_25:\n    /* \"contract/VestingLiquidityHedgey.sol\":507:4632  contract LiquidityPoolInteractor is Ownable, ReentrancyGuard, Pausable {\r... */\n  dataSize(sub_0)\n  dup1\n  dataOffset(sub_0)\n  0x00\n  codecopy\n  0x00\n  return\nstop\n\nsub_0: assembly {\n        /* \"contract/VestingLiquidityHedgey.sol\":507:4632  contract LiquidityPoolInteractor is Ownable, ReentrancyGuard, Pausable {\r... */\n      mstore(0x40, 0x80)\n      callvalue\n      dup1\n      iszero\n      tag_1\n      jumpi\n      0x00\n      dup1\n      revert\n    tag_1:\n      pop\n      jumpi(tag_2, lt(calldatasize, 0x04))\n      shr(0xe0, calldataload(0x00))\n      dup1\n      0x8456cb59\n      gt\n      tag_19\n      jumpi\n      dup1\n      0xc4da9247\n      gt\n      tag_20\n      jumpi\n      dup1\n      0xc4da9247\n      eq\n      tag_15\n      jumpi\n      dup1\n      0xd25b17b6\n      eq\n      tag_16\n      jumpi\n      dup1\n      0xdee3b50f\n      eq\n      tag_17\n      jumpi\n      dup1\n      0xf2fde38b\n      eq\n      tag_18\n      jumpi\n      jump(tag_2)\n    tag_20:\n      dup1\n      0x8456cb59\n      eq\n      tag_11\n      jumpi\n      dup1\n      0x8da5cb5b\n      eq\n      tag_12\n      jumpi\n      dup1\n      0x996c6cc3\n      eq\n      tag_13\n      jumpi\n      dup1\n      0xbb413c8d\n      eq\n      tag_14\n      jumpi\n      jump(tag_2)\n    tag_19:\n      dup1\n      0x5c975abb\n      gt\n      tag_21\n      jumpi\n      dup1\n      0x5c975abb\n      eq\n      tag_7\n      jumpi\n      dup1\n      0x62c35c01\n      eq\n      tag_8\n      jumpi\n      dup1\n      0x64f00f01\n      eq\n      tag_9\n      jumpi\n      dup1\n      0x715018a6\n      eq\n      tag_10\n      jumpi\n      jump(tag_2)\n    tag_21:\n      dup1\n      0x3f4ba83a\n      eq\n      tag_3\n      jumpi\n      dup1\n      0x4abb3fac\n      eq\n      tag_4\n      jumpi\n      dup1\n      0x56d96a99\n      eq\n      tag_5\n      jumpi\n      dup1\n      0x5a6b26ba\n      eq\n      tag_6\n      jumpi\n    tag_2:\n      0x00\n      dup1\n      revert\n        /* \"contract/VestingLiquidityHedgey.sol\":3543:3610  function unpause() external onlyOwner {\r... */\n    tag_3:\n      tag_22\n      tag_23\n      jump\t// in\n    tag_22:\n      stop\n        /* \"contract/VestingLiquidityHedgey.sol\":696:733  uint256 public transferInterval = 200 */\n    tag_4:\n      tag_24\n      tag_25\n      jump\t// in\n    tag_24:\n      mload(0x40)\n      tag_26\n      swap2\n      swap1\n      tag_27\n      jump\t// in\n    tag_26:\n      mload(0x40)\n      dup1\n      swap2\n      sub\n      swap1\n      return\n        /* \"contract/VestingLiquidityHedgey.sol\":4459:4629  function setMaxAllowance(uint256 newMaxAllowance) external onlyOwner {\r... */\n    tag_5:\n      tag_22\n      tag_29\n      calldatasize\n      0x04\n      tag_30\n      jump\t// in\n    tag_29:\n      tag_31\n      jump\t// in\n        /* \"contract/VestingLiquidityHedgey.sol\":2735:3258  function withdrawal(address to, uint256 amount) external onlyOwner nonReentrant whenNotPaused {\r... */\n    tag_6:\n      tag_22\n      tag_33\n      calldatasize\n      0x04\n      tag_34\n      jump\t// in\n    tag_33:\n      tag_35\n      jump\t// in\n        /* \"https://github.com/OpenZeppelin/openzeppelin-contracts/blob/v4.9.3/contracts/security/Pausable.sol\":1615:1699  function paused() public view virtual returns (bool) {... */\n    tag_7:\n      tag_36\n      tag_37\n      jump\t// in\n    tag_36:\n      mload(0x40)\n      tag_26\n      swap2\n      swap1\n      tag_39\n      jump\t// in\n        /* \"contract/VestingLiquidityHedgey.sol\":2392:2727  function approveContract(uint256 amount) external onlyOwner whenNotPaused {\r... */\n    tag_8:\n      tag_22\n      tag_41\n      calldatasize\n      0x04\n      tag_30\n      jump\t// in\n    tag_41:\n      tag_42\n      jump\t// in\n        /* \"contract/VestingLiquidityHedgey.sol\":740:767  uint256 public maxAllowance */\n    tag_9:\n      tag_24\n      tag_44\n      jump\t// in\n        /* \"https://github.com/OpenZeppelin/openzeppelin-contracts/blob/v4.9.3/contracts/access/Ownable.sol\":1824:1925  function renounceOwnership() public virtual onlyOwner {... */\n    tag_10:\n      tag_22\n      tag_47\n      jump\t// in\n        /* \"contract/VestingLiquidityHedgey.sol\":3472:3535  function pause() external onlyOwner {\r... */\n    tag_11:\n      tag_22\n      tag_49\n      jump\t// in\n        /* \"https://github.com/OpenZeppelin/openzeppelin-contracts/blob/v4.9.3/contracts/access/Ownable.sol\":1201:1286  function owner() public view virtual returns (address) {... */\n    tag_12:\n      tag_50\n      tag_51\n      jump\t// in\n    tag_50:\n      mload(0x40)\n      tag_26\n      swap2\n      swap1\n      tag_53\n      jump\t// in\n        /* \"contract/VestingLiquidityHedgey.sol\":627:653  IERC20 public wrappedToken */\n    tag_13:\n      tag_50\n      tag_55\n      jump\t// in\n        /* \"contract/VestingLiquidityHedgey.sol\":662:689  uint256 public blockCounter */\n    tag_14:\n      tag_24\n      tag_59\n      jump\t// in\n        /* \"contract/VestingLiquidityHedgey.sol\":1532:2384  function depositAndTransfer(uint256 amount) external whenNotPaused {\r... */\n    tag_15:\n      tag_22\n      tag_62\n      calldatasize\n      0x04\n      tag_30\n      jump\t// in\n    tag_62:\n      tag_63\n      jump\t// in\n        /* \"contract/VestingLiquidityHedgey.sol\":585:620  address public liquidityPoolAddress */\n    tag_16:\n      tag_50\n      tag_65\n      jump\t// in\n        /* \"contract/VestingLiquidityHedgey.sol\":3618:3987  function automatedWithdrawalToPool() external whenNotPaused {\r... */\n    tag_17:\n      tag_22\n      tag_68\n      jump\t// in\n        /* \"contract/VestingLiquidityHedgey.sol\":3266:3464  function transferOwnership(address newOwner) public override onlyOwner {\r... */\n    tag_18:\n      tag_22\n      tag_70\n      calldatasize\n      0x04\n      tag_71\n      jump\t// in\n    tag_70:\n      tag_72\n      jump\t// in\n        /* \"contract/VestingLiquidityHedgey.sol\":3543:3610  function unpause() external onlyOwner {\r... */\n    tag_23:\n        /* \"https://github.com/OpenZeppelin/openzeppelin-contracts/blob/v4.9.3/contracts/access/Ownable.sol\":1094:1107  _checkOwner() */\n      tag_74\n        /* \"https://github.com/OpenZeppelin/openzeppelin-contracts/blob/v4.9.3/contracts/access/Ownable.sol\":1094:1105  _checkOwner */\n      tag_75\n        /* \"https://github.com/OpenZeppelin/openzeppelin-contracts/blob/v4.9.3/contracts/access/Ownable.sol\":1094:1107  _checkOwner() */\n      jump\t// in\n    tag_74:\n        /* \"contract/VestingLiquidityHedgey.sol\":3592:3602  _unpause() */\n      tag_77\n        /* \"contract/VestingLiquidityHedgey.sol\":3592:3600  _unpause */\n      tag_78\n        /* \"contract/VestingLiquidityHedgey.sol\":3592:3602  _unpause() */\n      jump\t// in\n    tag_77:\n        /* \"contract/VestingLiquidityHedgey.sol\":3543:3610  function unpause() external onlyOwner {\r... */\n      jump\t// out\n        /* \"contract/VestingLiquidityHedgey.sol\":696:733  uint256 public transferInterval = 200 */\n    tag_25:\n      sload(0x05)\n      dup2\n      jump\t// out\n        /* \"contract/VestingLiquidityHedgey.sol\":4459:4629  function setMaxAllowance(uint256 newMaxAllowance) external onlyOwner {\r... */\n    tag_31:\n        /* \"https://github.com/OpenZeppelin/openzeppelin-contracts/blob/v4.9.3/contracts/access/Ownable.sol\":1094:1107  _checkOwner() */\n      tag_80\n        /* \"https://github.com/OpenZeppelin/openzeppelin-contracts/blob/v4.9.3/contracts/access/Ownable.sol\":1094:1105  _checkOwner */\n      tag_75\n        /* \"https://github.com/OpenZeppelin/openzeppelin-contracts/blob/v4.9.3/contracts/access/Ownable.sol\":1094:1107  _checkOwner() */\n      jump\t// in\n    tag_80:\n        /* \"contract/VestingLiquidityHedgey.sol\":4539:4551  maxAllowance */\n      0x06\n        /* \"contract/VestingLiquidityHedgey.sol\":4539:4569  maxAllowance = newMaxAllowance */\n      dup2\n      swap1\n      sstore\n        /* \"contract/VestingLiquidityHedgey.sol\":4585:4621  MaxAllowanceChanged(newMaxAllowance) */\n      mload(0x40)\n      0x3a25092a4d85e75d6b227fd7cc0f982fb0fbbe013db22c0f7c75112e523a4df1\n      swap1\n      tag_82\n      swap1\n        /* \"contract/VestingLiquidityHedgey.sol\":4554:4569  newMaxAllowance */\n      dup4\n      swap1\n        /* \"contract/VestingLiquidityHedgey.sol\":4585:4621  MaxAllowanceChanged(newMaxAllowance) */\n      tag_27\n      jump\t// in\n    tag_82:\n      mload(0x40)\n      dup1\n      swap2\n      sub\n      swap1\n      log1\n        /* \"contract/VestingLiquidityHedgey.sol\":4459:4629  function setMaxAllowance(uint256 newMaxAllowance) external onlyOwner {\r... */\n      pop\n      jump\t// out\n        /* \"contract/VestingLiquidityHedgey.sol\":2735:3258  function withdrawal(address to, uint256 amount) external onlyOwner nonReentrant whenNotPaused {\r... */\n    tag_35:\n        /* \"https://github.com/OpenZeppelin/openzeppelin-contracts/blob/v4.9.3/contracts/access/Ownable.sol\":1094:1107  _checkOwner() */\n      tag_84\n        /* \"https://github.com/OpenZeppelin/openzeppelin-contracts/blob/v4.9.3/contracts/access/Ownable.sol\":1094:1105  _checkOwner */\n      tag_75\n        /* \"https://github.com/OpenZeppelin/openzeppelin-contracts/blob/v4.9.3/contracts/access/Ownable.sol\":1094:1107  _checkOwner() */\n      jump\t// in\n    tag_84:\n        /* \"https://github.com/OpenZeppelin/openzeppelin-contracts/blob/v4.9.3/contracts/security/ReentrancyGuard.sol\":2261:2282  _nonReentrantBefore() */\n      tag_86\n        /* \"https://github.com/OpenZeppelin/openzeppelin-contracts/blob/v4.9.3/contracts/security/ReentrancyGuard.sol\":2261:2280  _nonReentrantBefore */\n      tag_87\n        /* \"https://github.com/OpenZeppelin/openzeppelin-contracts/blob/v4.9.3/contracts/security/ReentrancyGuard.sol\":2261:2282  _nonReentrantBefore() */\n      jump\t// in\n    tag_86:\n        /* \"https://github.com/OpenZeppelin/openzeppelin-contracts/blob/v4.9.3/contracts/security/Pausable.sol\":1239:1258  _requireNotPaused() */\n      tag_89\n        /* \"https://github.com/OpenZeppelin/openzeppelin-contracts/blob/v4.9.3/contracts/security/Pausable.sol\":1239:1256  _requireNotPaused */\n      tag_90\n        /* \"https://github.com/OpenZeppelin/openzeppelin-contracts/blob/v4.9.3/contracts/security/Pausable.sol\":1239:1258  _requireNotPaused() */\n      jump\t// in\n    tag_89:\n      sub(shl(0xa0, 0x01), 0x01)\n        /* \"contract/VestingLiquidityHedgey.sol\":2848:2864  to != address(0) */\n      dup3\n      and\n        /* \"contract/VestingLiquidityHedgey.sol\":2840:2895  require(to != address(0), \"Invalid withdrawal address\") */\n      tag_92\n      jumpi\n      mload(0x40)\n      shl(0xe5, 0x461bcd)\n      dup2\n      mstore\n      0x04\n      add\n      tag_93\n      swap1\n      tag_94\n      jump\t// in\n    tag_93:\n      mload(0x40)\n      dup1\n      swap2\n      sub\n      swap1\n      revert\n    tag_92:\n        /* \"contract/VestingLiquidityHedgey.sol\":2923:2924  0 */\n      0x00\n        /* \"contract/VestingLiquidityHedgey.sol\":2914:2920  amount */\n      dup2\n        /* \"contract/VestingLiquidityHedgey.sol\":2914:2924  amount > 0 */\n      gt\n        /* \"contract/VestingLiquidityHedgey.sol\":2906:2969  require(amount > 0, \"Withdrawal amount must be greater than 0\") */\n      tag_95\n      jumpi\n      mload(0x40)\n      shl(0xe5, 0x461bcd)\n      dup2\n      mstore\n      0x04\n      add\n      tag_93\n      swap1\n      tag_97\n      jump\t// in\n    tag_95:\n        /* \"contract/VestingLiquidityHedgey.sol\":2988:3000  wrappedToken */\n      sload(0x03)\n        /* \"contract/VestingLiquidityHedgey.sol\":2988:3025  wrappedToken.balanceOf(address(this)) */\n      mload(0x40)\n      shl(0xe0, 0x70a08231)\n      dup2\n      mstore\n        /* \"contract/VestingLiquidityHedgey.sol\":3029:3035  amount */\n      dup3\n      swap2\n      sub(shl(0xa0, 0x01), 0x01)\n        /* \"contract/VestingLiquidityHedgey.sol\":2988:3000  wrappedToken */\n      and\n      swap1\n        /* \"contract/VestingLiquidityHedgey.sol\":2988:3010  wrappedToken.balanceOf */\n      0x70a08231\n      swap1\n        /* \"contract/VestingLiquidityHedgey.sol\":2988:3025  wrappedToken.balanceOf(address(this)) */\n      tag_98\n      swap1\n        /* \"contract/VestingLiquidityHedgey.sol\":3019:3023  this */\n      address\n      swap1\n        /* \"contract/VestingLiquidityHedgey.sol\":2988:3025  wrappedToken.balanceOf(address(this)) */\n      0x04\n      add\n      tag_53\n      jump\t// in\n    tag_98:\n      0x20\n      mload(0x40)\n      dup1\n      dup4\n      sub\n      dup2\n      dup7\n      dup1\n      extcodesize\n      iszero\n      dup1\n      iszero\n      tag_99\n      jumpi\n      0x00\n      dup1\n      revert\n    tag_99:\n      pop\n      gas\n      staticcall\n      iszero\n      dup1\n      iszero\n      tag_101\n      jumpi\n      returndatasize\n      0x00\n      dup1\n      returndatacopy\n      revert(0x00, returndatasize)\n    tag_101:\n      pop\n      pop\n      pop\n      pop\n      mload(0x40)\n      returndatasize\n      not(0x1f)\n      0x1f\n      dup3\n      add\n      and\n      dup3\n      add\n      dup1\n      0x40\n      mstore\n      pop\n      dup2\n      add\n      swap1\n      tag_102\n      swap2\n      swap1\n      tag_103\n      jump\t// in\n    tag_102:\n        /* \"contract/VestingLiquidityHedgey.sol\":2988:3035  wrappedToken.balanceOf(address(this)) >= amount */\n      lt\n      iszero\n        /* \"contract/VestingLiquidityHedgey.sol\":2980:3060  require(wrappedToken.balanceOf(address(this)) >= amount, \"Insufficient balance\") */\n      tag_104\n      jumpi\n      mload(0x40)\n      shl(0xe5, 0x461bcd)\n      dup2\n      mstore\n      0x04\n      add\n      tag_93\n      swap1\n      tag_106\n      jump\t// in\n    tag_104:\n        /* \"contract/VestingLiquidityHedgey.sol\":3152:3164  wrappedToken */\n      sload(0x03)\n        /* \"contract/VestingLiquidityHedgey.sol\":3152:3185  wrappedToken.transfer(to, amount) */\n      mload(0x40)\n      shl(0xe0, 0xa9059cbb)\n      dup2\n      mstore\n      sub(shl(0xa0, 0x01), 0x01)\n        /* \"contract/VestingLiquidityHedgey.sol\":3152:3164  wrappedToken */\n      swap1\n      swap2\n      and\n      swap1\n        /* \"contract/VestingLiquidityHedgey.sol\":3152:3173  wrappedToken.transfer */\n      0xa9059cbb\n      swap1\n        /* \"contract/VestingLiquidityHedgey.sol\":3152:3185  wrappedToken.transfer(to, amount) */\n      tag_107\n      swap1\n        /* \"contract/VestingLiquidityHedgey.sol\":3174:3176  to */\n      dup6\n      swap1\n        /* \"contract/VestingLiquidityHedgey.sol\":3178:3184  amount */\n      dup6\n      swap1\n        /* \"contract/VestingLiquidityHedgey.sol\":3152:3185  wrappedToken.transfer(to, amount) */\n      0x04\n      add\n      tag_108\n      jump\t// in\n    tag_107:\n      0x20\n      mload(0x40)\n      dup1\n      dup4\n      sub\n      dup2\n      0x00\n      dup8\n      dup1\n      extcodesize\n      iszero\n      dup1\n      iszero\n      tag_109\n      jumpi\n      0x00\n      dup1\n      revert\n    tag_109:\n      pop\n      gas\n      call\n      iszero\n      dup1\n      iszero\n      tag_111\n      jumpi\n      returndatasize\n      0x00\n      dup1\n      returndatacopy\n      revert(0x00, returndatasize)\n    tag_111:\n      pop\n      pop\n      pop\n      pop\n      mload(0x40)\n      returndatasize\n      not(0x1f)\n      0x1f\n      dup3\n      add\n      and\n      dup3\n      add\n      dup1\n      0x40\n      mstore\n      pop\n      dup2\n      add\n      swap1\n      tag_112\n      swap2\n      swap1\n      tag_113\n      jump\t// in\n    tag_112:\n        /* \"contract/VestingLiquidityHedgey.sol\":3144:3205  require(wrappedToken.transfer(to, amount), \"Transfer failed\") */\n      tag_114\n      jumpi\n      mload(0x40)\n      shl(0xe5, 0x461bcd)\n      dup2\n      mstore\n      0x04\n      add\n      tag_93\n      swap1\n      tag_116\n      jump\t// in\n    tag_114:\n        /* \"contract/VestingLiquidityHedgey.sol\":3239:3241  to */\n      dup2\n      sub(shl(0xa0, 0x01), 0x01)\n        /* \"contract/VestingLiquidityHedgey.sol\":3223:3250  TokensWithdrawn(to, amount) */\n      and\n      0x6352c5382c4a4578e712449ca65e83cdb392d045dfcf1cad9615189db2da244b\n        /* \"contract/VestingLiquidityHedgey.sol\":3243:3249  amount */\n      dup3\n        /* \"contract/VestingLiquidityHedgey.sol\":3223:3250  TokensWithdrawn(to, amount) */\n      mload(0x40)\n      tag_117\n      swap2\n      swap1\n      tag_27\n      jump\t// in\n    tag_117:\n      mload(0x40)\n      dup1\n      swap2\n      sub\n      swap1\n      log2\n        /* \"https://github.com/OpenZeppelin/openzeppelin-contracts/blob/v4.9.3/contracts/security/ReentrancyGuard.sol\":2303:2323  _nonReentrantAfter() */\n      tag_118\n        /* \"https://github.com/OpenZeppelin/openzeppelin-contracts/blob/v4.9.3/contracts/security/ReentrancyGuard.sol\":2303:2321  _nonReentrantAfter */\n      tag_119\n        /* \"https://github.com/OpenZeppelin/openzeppelin-contracts/blob/v4.9.3/contracts/security/ReentrancyGuard.sol\":2303:2323  _nonReentrantAfter() */\n      jump\t// in\n    tag_118:\n        /* \"contract/VestingLiquidityHedgey.sol\":2735:3258  function withdrawal(address to, uint256 amount) external onlyOwner nonReentrant whenNotPaused {\r... */\n      pop\n      pop\n      jump\t// out\n        /* \"https://github.com/OpenZeppelin/openzeppelin-contracts/blob/v4.9.3/contracts/security/Pausable.sol\":1615:1699  function paused() public view virtual returns (bool) {... */\n    tag_37:\n        /* \"https://github.com/OpenZeppelin/openzeppelin-contracts/blob/v4.9.3/contracts/security/Pausable.sol\":1685:1692  _paused */\n      and(0xff, sload(0x02))\n        /* \"https://github.com/OpenZeppelin/openzeppelin-contracts/blob/v4.9.3/contracts/security/Pausable.sol\":1615:1699  function paused() public view virtual returns (bool) {... */\n      swap1\n      jump\t// out\n        /* \"contract/VestingLiquidityHedgey.sol\":2392:2727  function approveContract(uint256 amount) external onlyOwner whenNotPaused {\r... */\n    tag_42:\n        /* \"https://github.com/OpenZeppelin/openzeppelin-contracts/blob/v4.9.3/contracts/access/Ownable.sol\":1094:1107  _checkOwner() */\n      tag_122\n        /* \"https://github.com/OpenZeppelin/openzeppelin-contracts/blob/v4.9.3/contracts/access/Ownable.sol\":1094:1105  _checkOwner */\n      tag_75\n        /* \"https://github.com/OpenZeppelin/openzeppelin-contracts/blob/v4.9.3/contracts/access/Ownable.sol\":1094:1107  _checkOwner() */\n      jump\t// in\n    tag_122:\n        /* \"https://github.com/OpenZeppelin/openzeppelin-contracts/blob/v4.9.3/contracts/security/Pausable.sol\":1239:1258  _requireNotPaused() */\n      tag_124\n        /* \"https://github.com/OpenZeppelin/openzeppelin-contracts/blob/v4.9.3/contracts/security/Pausable.sol\":1239:1256  _requireNotPaused */\n      tag_90\n        /* \"https://github.com/OpenZeppelin/openzeppelin-contracts/blob/v4.9.3/contracts/security/Pausable.sol\":1239:1258  _requireNotPaused() */\n      jump\t// in\n    tag_124:\n        /* \"contract/VestingLiquidityHedgey.sol\":2569:2581  maxAllowance */\n      sload(0x06)\n        /* \"contract/VestingLiquidityHedgey.sol\":2559:2565  amount */\n      dup2\n        /* \"contract/VestingLiquidityHedgey.sol\":2559:2581  amount <= maxAllowance */\n      gt\n      iszero\n        /* \"contract/VestingLiquidityHedgey.sol\":2551:2611  require(amount <= maxAllowance, \"Exceeds maximum allowance\") */\n      tag_126\n      jumpi\n      mload(0x40)\n      shl(0xe5, 0x461bcd)\n      dup2\n      mstore\n      0x04\n      add\n      tag_93\n      swap1\n      tag_128\n      jump\t// in\n    tag_126:\n        /* \"contract/VestingLiquidityHedgey.sol\":2622:2634  wrappedToken */\n      sload(0x03)\n        /* \"contract/VestingLiquidityHedgey.sol\":2622:2665  wrappedToken.approve(address(this), amount) */\n      mload(0x40)\n      shl(0xe0, 0x095ea7b3)\n      dup2\n      mstore\n      sub(shl(0xa0, 0x01), 0x01)\n        /* \"contract/VestingLiquidityHedgey.sol\":2622:2634  wrappedToken */\n      swap1\n      swap2\n      and\n      swap1\n        /* \"contract/VestingLiquidityHedgey.sol\":2622:2642  wrappedToken.approve */\n      0x095ea7b3\n      swap1\n        /* \"contract/VestingLiquidityHedgey.sol\":2622:2665  wrappedToken.approve(address(this), amount) */\n      tag_129\n      swap1\n        /* \"contract/VestingLiquidityHedgey.sol\":2651:2655  this */\n      address\n      swap1\n        /* \"contract/VestingLiquidityHedgey.sol\":2658:2664  amount */\n      dup6\n      swap1\n        /* \"contract/VestingLiquidityHedgey.sol\":2622:2665  wrappedToken.approve(address(this), amount) */\n      0x04\n      add\n      tag_108\n      jump\t// in\n    tag_129:\n      0x20\n      mload(0x40)\n      dup1\n      dup4\n      sub\n      dup2\n      0x00\n      dup8\n      dup1\n      extcodesize\n      iszero\n      dup1\n      iszero\n      tag_130\n      jumpi\n      0x00\n      dup1\n      revert\n    tag_130:\n      pop\n      gas\n      call\n      iszero\n      dup1\n      iszero\n      tag_132\n      jumpi\n      returndatasize\n      0x00\n      dup1\n      returndatacopy\n      revert(0x00, returndatasize)\n    tag_132:\n      pop\n      pop\n      pop\n      pop\n      mload(0x40)\n      returndatasize\n      not(0x1f)\n      0x1f\n      dup3\n      add\n      and\n      dup3\n      add\n      dup1\n      0x40\n      mstore\n      pop\n      dup2\n      add\n      swap1\n      tag_133\n      swap2\n      swap1\n      tag_113\n      jump\t// in\n    tag_133:\n      pop\n        /* \"contract/VestingLiquidityHedgey.sol\":2700:2710  msg.sender */\n      caller\n      sub(shl(0xa0, 0x01), 0x01)\n        /* \"contract/VestingLiquidityHedgey.sol\":2683:2719  ContractApproved(msg.sender, amount) */\n      and\n      0x5f327dfbc26b4773c8990edbc20356f43975e2a38466359fad3bd2b77dee2433\n        /* \"contract/VestingLiquidityHedgey.sol\":2712:2718  amount */\n      dup3\n        /* \"contract/VestingLiquidityHedgey.sol\":2683:2719  ContractApproved(msg.sender, amount) */\n      mload(0x40)\n      tag_134\n      swap2\n      swap1\n      tag_27\n      jump\t// in\n    tag_134:\n      mload(0x40)\n      dup1\n      swap2\n      sub\n      swap1\n      log2\n        /* \"contract/VestingLiquidityHedgey.sol\":2392:2727  function approveContract(uint256 amount) external onlyOwner whenNotPaused {\r... */\n      pop\n      jump\t// out\n        /* \"contract/VestingLiquidityHedgey.sol\":740:767  uint256 public maxAllowance */\n    tag_44:\n      sload(0x06)\n      dup2\n      jump\t// out\n        /* \"https://github.com/OpenZeppelin/openzeppelin-contracts/blob/v4.9.3/contracts/access/Ownable.sol\":1824:1925  function renounceOwnership() public virtual onlyOwner {... */\n    tag_47:\n        /* \"https://github.com/OpenZeppelin/openzeppelin-contracts/blob/v4.9.3/contracts/access/Ownable.sol\":1094:1107  _checkOwner() */\n      tag_136\n        /* \"https://github.com/OpenZeppelin/openzeppelin-contracts/blob/v4.9.3/contracts/access/Ownable.sol\":1094:1105  _checkOwner */\n      tag_75\n        /* \"https://github.com/OpenZeppelin/openzeppelin-contracts/blob/v4.9.3/contracts/access/Ownable.sol\":1094:1107  _checkOwner() */\n      jump\t// in\n    tag_136:\n        /* \"https://github.com/OpenZeppelin/openzeppelin-contracts/blob/v4.9.3/contracts/access/Ownable.sol\":1888:1918  _transferOwnership(address(0)) */\n      tag_77\n        /* \"https://github.com/OpenZeppelin/openzeppelin-contracts/blob/v4.9.3/contracts/access/Ownable.sol\":1915:1916  0 */\n      0x00\n        /* \"https://github.com/OpenZeppelin/openzeppelin-contracts/blob/v4.9.3/contracts/access/Ownable.sol\":1888:1906  _transferOwnership */\n      tag_139\n        /* \"https://github.com/OpenZeppelin/openzeppelin-contracts/blob/v4.9.3/contracts/access/Ownable.sol\":1888:1918  _transferOwnership(address(0)) */\n      jump\t// in\n        /* \"contract/VestingLiquidityHedgey.sol\":3472:3535  function pause() external onlyOwner {\r... */\n    tag_49:\n        /* \"https://github.com/OpenZeppelin/openzeppelin-contracts/blob/v4.9.3/contracts/access/Ownable.sol\":1094:1107  _checkOwner() */\n      tag_141\n        /* \"https://github.com/OpenZeppelin/openzeppelin-contracts/blob/v4.9.3/contracts/access/Ownable.sol\":1094:1105  _checkOwner */\n      tag_75\n        /* \"https://github.com/OpenZeppelin/openzeppelin-contracts/blob/v4.9.3/contracts/access/Ownable.sol\":1094:1107  _checkOwner() */\n      jump\t// in\n    tag_141:\n        /* \"contract/VestingLiquidityHedgey.sol\":3519:3527  _pause() */\n      tag_77\n        /* \"contract/VestingLiquidityHedgey.sol\":3519:3525  _pause */\n      tag_144\n        /* \"contract/VestingLiquidityHedgey.sol\":3519:3527  _pause() */\n      jump\t// in\n        /* \"https://github.com/OpenZeppelin/openzeppelin-contracts/blob/v4.9.3/contracts/access/Ownable.sol\":1201:1286  function owner() public view virtual returns (address) {... */\n    tag_51:\n        /* \"https://github.com/OpenZeppelin/openzeppelin-contracts/blob/v4.9.3/contracts/access/Ownable.sol\":1247:1254  address */\n      0x00\n        /* \"https://github.com/OpenZeppelin/openzeppelin-contracts/blob/v4.9.3/contracts/access/Ownable.sol\":1273:1279  _owner */\n      sload\n      sub(shl(0xa0, 0x01), 0x01)\n      and\n        /* \"https://github.com/OpenZeppelin/openzeppelin-contracts/blob/v4.9.3/contracts/access/Ownable.sol\":1201:1286  function owner() public view virtual returns (address) {... */\n      swap1\n      jump\t// out\n        /* \"contract/VestingLiquidityHedgey.sol\":627:653  IERC20 public wrappedToken */\n    tag_55:\n      and(sub(shl(0xa0, 0x01), 0x01), sload(0x03))\n      dup2\n      jump\t// out\n        /* \"contract/VestingLiquidityHedgey.sol\":662:689  uint256 public blockCounter */\n    tag_59:\n      sload(0x04)\n      dup2\n      jump\t// out\n        /* \"contract/VestingLiquidityHedgey.sol\":1532:2384  function depositAndTransfer(uint256 amount) external whenNotPaused {\r... */\n    tag_63:\n        /* \"https://github.com/OpenZeppelin/openzeppelin-contracts/blob/v4.9.3/contracts/security/Pausable.sol\":1239:1258  _requireNotPaused() */\n      tag_147\n        /* \"https://github.com/OpenZeppelin/openzeppelin-contracts/blob/v4.9.3/contracts/security/Pausable.sol\":1239:1256  _requireNotPaused */\n      tag_90\n        /* \"https://github.com/OpenZeppelin/openzeppelin-contracts/blob/v4.9.3/contracts/security/Pausable.sol\":1239:1258  _requireNotPaused() */\n      jump\t// in\n    tag_147:\n        /* \"contract/VestingLiquidityHedgey.sol\":1627:1628  0 */\n      0x00\n        /* \"contract/VestingLiquidityHedgey.sol\":1618:1624  amount */\n      dup2\n        /* \"contract/VestingLiquidityHedgey.sol\":1618:1628  amount > 0 */\n      gt\n        /* \"contract/VestingLiquidityHedgey.sol\":1610:1670  require(amount > 0, \"Deposit amount must be greater than 0\") */\n      tag_149\n      jumpi\n      mload(0x40)\n      shl(0xe5, 0x461bcd)\n      dup2\n      mstore\n      0x04\n      add\n      tag_93\n      swap1\n      tag_151\n      jump\t// in\n    tag_149:\n        /* \"contract/VestingLiquidityHedgey.sol\":1778:1790  wrappedToken */\n      sload(0x03)\n        /* \"contract/VestingLiquidityHedgey.sol\":1778:1827  wrappedToken.allowance(msg.sender, address(this)) */\n      mload(0x40)\n      shl(0xe1, 0x6eb1769f)\n      dup2\n      mstore\n        /* \"contract/VestingLiquidityHedgey.sol\":1831:1837  amount */\n      dup3\n      swap2\n      sub(shl(0xa0, 0x01), 0x01)\n        /* \"contract/VestingLiquidityHedgey.sol\":1778:1790  wrappedToken */\n      and\n      swap1\n        /* \"contract/VestingLiquidityHedgey.sol\":1778:1800  wrappedToken.allowance */\n      0xdd62ed3e\n      swap1\n        /* \"contract/VestingLiquidityHedgey.sol\":1778:1827  wrappedToken.allowance(msg.sender, address(this)) */\n      tag_152\n      swap1\n        /* \"contract/VestingLiquidityHedgey.sol\":1801:1811  msg.sender */\n      caller\n      swap1\n        /* \"contract/VestingLiquidityHedgey.sol\":1821:1825  this */\n      address\n      swap1\n        /* \"contract/VestingLiquidityHedgey.sol\":1778:1827  wrappedToken.allowance(msg.sender, address(this)) */\n      0x04\n      add\n      tag_153\n      jump\t// in\n    tag_152:\n      0x20\n      mload(0x40)\n      dup1\n      dup4\n      sub\n      dup2\n      dup7\n      dup1\n      extcodesize\n      iszero\n      dup1\n      iszero\n      tag_154\n      jumpi\n      0x00\n      dup1\n      revert\n    tag_154:\n      pop\n      gas\n      staticcall\n      iszero\n      dup1\n      iszero\n      tag_156\n      jumpi\n      returndatasize\n      0x00\n      dup1\n      returndatacopy\n      revert(0x00, returndatasize)\n    tag_156:\n      pop\n      pop\n      pop\n      pop\n      mload(0x40)\n      returndatasize\n      not(0x1f)\n      0x1f\n      dup3\n      add\n      and\n      dup3\n      add\n      dup1\n      0x40\n      mstore\n      pop\n      dup2\n      add\n      swap1\n      tag_157\n      swap2\n      swap1\n      tag_103\n      jump\t// in\n    tag_157:\n        /* \"contract/VestingLiquidityHedgey.sol\":1778:1837  wrappedToken.allowance(msg.sender, address(this)) >= amount */\n      lt\n      iszero\n        /* \"contract/VestingLiquidityHedgey.sol\":1770:1862  require(wrappedToken.allowance(msg.sender, address(this)) >= amount, \"Not enough allowance\") */\n      tag_158\n      jumpi\n      mload(0x40)\n      shl(0xe5, 0x461bcd)\n      dup2\n      mstore\n      0x04\n      add\n      tag_93\n      swap1\n      tag_160\n      jump\t// in\n    tag_158:\n        /* \"contract/VestingLiquidityHedgey.sol\":1940:1952  wrappedToken */\n      sload(0x03)\n        /* \"contract/VestingLiquidityHedgey.sol\":1940:2000  wrappedToken.transferFrom(msg.sender, address(this), amount) */\n      mload(0x40)\n      shl(0xe0, 0x23b872dd)\n      dup2\n      mstore\n      sub(shl(0xa0, 0x01), 0x01)\n        /* \"contract/VestingLiquidityHedgey.sol\":1940:1952  wrappedToken */\n      swap1\n      swap2\n      and\n      swap1\n        /* \"contract/VestingLiquidityHedgey.sol\":1940:1965  wrappedToken.transferFrom */\n      0x23b872dd\n      swap1\n        /* \"contract/VestingLiquidityHedgey.sol\":1940:2000  wrappedToken.transferFrom(msg.sender, address(this), amount) */\n      tag_161\n      swap1\n        /* \"contract/VestingLiquidityHedgey.sol\":1966:1976  msg.sender */\n      caller\n      swap1\n        /* \"contract/VestingLiquidityHedgey.sol\":1986:1990  this */\n      address\n      swap1\n        /* \"contract/VestingLiquidityHedgey.sol\":1993:1999  amount */\n      dup7\n      swap1\n        /* \"contract/VestingLiquidityHedgey.sol\":1940:2000  wrappedToken.transferFrom(msg.sender, address(this), amount) */\n      0x04\n      add\n      tag_162\n      jump\t// in\n    tag_161:\n      0x20\n      mload(0x40)\n      dup1\n      dup4\n      sub\n      dup2\n      0x00\n      dup8\n      dup1\n      extcodesize\n      iszero\n      dup1\n      iszero\n      tag_163\n      jumpi\n      0x00\n      dup1\n      revert\n    tag_163:\n      pop\n      gas\n      call\n      iszero\n      dup1\n      iszero\n      tag_165\n      jumpi\n      returndatasize\n      0x00\n      dup1\n      returndatacopy\n      revert(0x00, returndatasize)\n    tag_165:\n      pop\n      pop\n      pop\n      pop\n      mload(0x40)\n      returndatasize\n      not(0x1f)\n      0x1f\n      dup3\n      add\n      and\n      dup3\n      add\n      dup1\n      0x40\n      mstore\n      pop\n      dup2\n      add\n      swap1\n      tag_166\n      swap2\n      swap1\n      tag_113\n      jump\t// in\n    tag_166:\n        /* \"contract/VestingLiquidityHedgey.sol\":1932:2020  require(wrappedToken.transferFrom(msg.sender, address(this), amount), \"Transfer failed\") */\n      tag_167\n      jumpi\n      mload(0x40)\n      shl(0xe5, 0x461bcd)\n      dup2\n      mstore\n      0x04\n      add\n      tag_93\n      swap1\n      tag_116\n      jump\t// in\n    tag_167:\n        /* \"contract/VestingLiquidityHedgey.sol\":2165:2181  transferInterval */\n      sload(0x05)\n        /* \"contract/VestingLiquidityHedgey.sol\":2149:2161  blockCounter */\n      sload(0x04)\n        /* \"contract/VestingLiquidityHedgey.sol\":2134:2161  block.number - blockCounter */\n      tag_169\n      swap1\n        /* \"contract/VestingLiquidityHedgey.sol\":2134:2146  block.number */\n      number\n        /* \"contract/VestingLiquidityHedgey.sol\":2134:2161  block.number - blockCounter */\n      tag_170\n      jump\t// in\n    tag_169:\n        /* \"contract/VestingLiquidityHedgey.sol\":2134:2181  block.number - blockCounter >= transferInterval */\n      lt\n        /* \"contract/VestingLiquidityHedgey.sol\":2130:2324  if (block.number - blockCounter >= transferInterval) {\r... */\n      tag_171\n      jumpi\n        /* \"contract/VestingLiquidityHedgey.sol\":2198:2230  executeTransferToLiquidityPool() */\n      tag_172\n        /* \"contract/VestingLiquidityHedgey.sol\":2198:2228  executeTransferToLiquidityPool */\n      tag_173\n        /* \"contract/VestingLiquidityHedgey.sol\":2198:2230  executeTransferToLiquidityPool() */\n      jump\t// in\n    tag_172:\n        /* \"contract/VestingLiquidityHedgey.sol\":2300:2312  block.number */\n      number\n        /* \"contract/VestingLiquidityHedgey.sol\":2285:2297  blockCounter */\n      0x04\n        /* \"contract/VestingLiquidityHedgey.sol\":2285:2312  blockCounter = block.number */\n      sstore\n        /* \"contract/VestingLiquidityHedgey.sol\":2130:2324  if (block.number - blockCounter >= transferInterval) {\r... */\n    tag_171:\n        /* \"contract/VestingLiquidityHedgey.sol\":2357:2367  msg.sender */\n      caller\n      sub(shl(0xa0, 0x01), 0x01)\n        /* \"contract/VestingLiquidityHedgey.sol\":2341:2376  TokensDeposited(msg.sender, amount) */\n      and\n      0x59062170a285eb80e8c6b8ced60428442a51910635005233fc4ce084a475845e\n        /* \"contract/VestingLiquidityHedgey.sol\":2369:2375  amount */\n      dup3\n        /* \"contract/VestingLiquidityHedgey.sol\":2341:2376  TokensDeposited(msg.sender, amount) */\n      mload(0x40)\n      tag_134\n      swap2\n      swap1\n      tag_27\n      jump\t// in\n        /* \"contract/VestingLiquidityHedgey.sol\":585:620  address public liquidityPoolAddress */\n    tag_65:\n      sload(0x02)\n      0x0100\n      swap1\n      div\n      sub(shl(0xa0, 0x01), 0x01)\n      and\n      dup2\n      jump\t// out\n        /* \"contract/VestingLiquidityHedgey.sol\":3618:3987  function automatedWithdrawalToPool() external whenNotPaused {\r... */\n    tag_68:\n        /* \"https://github.com/OpenZeppelin/openzeppelin-contracts/blob/v4.9.3/contracts/security/Pausable.sol\":1239:1258  _requireNotPaused() */\n      tag_176\n        /* \"https://github.com/OpenZeppelin/openzeppelin-contracts/blob/v4.9.3/contracts/security/Pausable.sol\":1239:1256  _requireNotPaused */\n      tag_90\n        /* \"https://github.com/OpenZeppelin/openzeppelin-contracts/blob/v4.9.3/contracts/security/Pausable.sol\":1239:1258  _requireNotPaused() */\n      jump\t// in\n    tag_176:\n        /* \"contract/VestingLiquidityHedgey.sol\":3821:3837  transferInterval */\n      sload(0x05)\n        /* \"contract/VestingLiquidityHedgey.sol\":3805:3817  blockCounter */\n      sload(0x04)\n        /* \"contract/VestingLiquidityHedgey.sol\":3790:3817  block.number - blockCounter */\n      tag_178\n      swap1\n        /* \"contract/VestingLiquidityHedgey.sol\":3790:3802  block.number */\n      number\n        /* \"contract/VestingLiquidityHedgey.sol\":3790:3817  block.number - blockCounter */\n      tag_170\n      jump\t// in\n    tag_178:\n        /* \"contract/VestingLiquidityHedgey.sol\":3790:3837  block.number - blockCounter >= transferInterval */\n      lt\n        /* \"contract/VestingLiquidityHedgey.sol\":3786:3980  if (block.number - blockCounter >= transferInterval) {\r... */\n      tag_77\n      jumpi\n        /* \"contract/VestingLiquidityHedgey.sol\":3854:3886  executeTransferToLiquidityPool() */\n      tag_180\n        /* \"contract/VestingLiquidityHedgey.sol\":3854:3884  executeTransferToLiquidityPool */\n      tag_173\n        /* \"contract/VestingLiquidityHedgey.sol\":3854:3886  executeTransferToLiquidityPool() */\n      jump\t// in\n    tag_180:\n        /* \"contract/VestingLiquidityHedgey.sol\":3956:3968  block.number */\n      number\n        /* \"contract/VestingLiquidityHedgey.sol\":3941:3953  blockCounter */\n      0x04\n        /* \"contract/VestingLiquidityHedgey.sol\":3941:3968  blockCounter = block.number */\n      sstore\n        /* \"contract/VestingLiquidityHedgey.sol\":3618:3987  function automatedWithdrawalToPool() external whenNotPaused {\r... */\n      jump\t// out\n        /* \"contract/VestingLiquidityHedgey.sol\":3266:3464  function transferOwnership(address newOwner) public override onlyOwner {\r... */\n    tag_72:\n        /* \"https://github.com/OpenZeppelin/openzeppelin-contracts/blob/v4.9.3/contracts/access/Ownable.sol\":1094:1107  _checkOwner() */\n      tag_182\n        /* \"https://github.com/OpenZeppelin/openzeppelin-contracts/blob/v4.9.3/contracts/access/Ownable.sol\":1094:1105  _checkOwner */\n      tag_75\n        /* \"https://github.com/OpenZeppelin/openzeppelin-contracts/blob/v4.9.3/contracts/access/Ownable.sol\":1094:1107  _checkOwner() */\n      jump\t// in\n    tag_182:\n      sub(shl(0xa0, 0x01), 0x01)\n        /* \"contract/VestingLiquidityHedgey.sol\":3356:3378  newOwner != address(0) */\n      dup2\n      and\n        /* \"contract/VestingLiquidityHedgey.sol\":3348:3412  require(newOwner != address(0), \"New owner is the zero address\") */\n      tag_184\n      jumpi\n      mload(0x40)\n      shl(0xe5, 0x461bcd)\n      dup2\n      mstore\n      0x04\n      add\n      tag_93\n      swap1\n      tag_186\n      jump\t// in\n    tag_184:\n        /* \"contract/VestingLiquidityHedgey.sol\":3423:3456  super.transferOwnership(newOwner) */\n      tag_187\n        /* \"contract/VestingLiquidityHedgey.sol\":3447:3455  newOwner */\n      dup2\n        /* \"contract/VestingLiquidityHedgey.sol\":3423:3446  super.transferOwnership */\n      tag_188\n        /* \"contract/VestingLiquidityHedgey.sol\":3423:3456  super.transferOwnership(newOwner) */\n      jump\t// in\n    tag_187:\n        /* \"contract/VestingLiquidityHedgey.sol\":3266:3464  function transferOwnership(address newOwner) public override onlyOwner {\r... */\n      pop\n      jump\t// out\n        /* \"https://github.com/OpenZeppelin/openzeppelin-contracts/blob/v4.9.3/contracts/access/Ownable.sol\":1359:1489  function _checkOwner() internal view virtual {... */\n    tag_75:\n        /* \"https://github.com/OpenZeppelin/openzeppelin-contracts/blob/v4.9.3/contracts/access/Ownable.sol\":1433:1445  _msgSender() */\n      tag_190\n        /* \"https://github.com/OpenZeppelin/openzeppelin-contracts/blob/v4.9.3/contracts/access/Ownable.sol\":1433:1443  _msgSender */\n      tag_191\n        /* \"https://github.com/OpenZeppelin/openzeppelin-contracts/blob/v4.9.3/contracts/access/Ownable.sol\":1433:1445  _msgSender() */\n      jump\t// in\n    tag_190:\n      sub(shl(0xa0, 0x01), 0x01)\n        /* \"https://github.com/OpenZeppelin/openzeppelin-contracts/blob/v4.9.3/contracts/access/Ownable.sol\":1422:1445  owner() == _msgSender() */\n      and\n        /* \"https://github.com/OpenZeppelin/openzeppelin-contracts/blob/v4.9.3/contracts/access/Ownable.sol\":1422:1429  owner() */\n      tag_192\n        /* \"https://github.com/OpenZeppelin/openzeppelin-contracts/blob/v4.9.3/contracts/access/Ownable.sol\":1422:1427  owner */\n      tag_51\n        /* \"https://github.com/OpenZeppelin/openzeppelin-contracts/blob/v4.9.3/contracts/access/Ownable.sol\":1422:1429  owner() */\n      jump\t// in\n    tag_192:\n      sub(shl(0xa0, 0x01), 0x01)\n        /* \"https://github.com/OpenZeppelin/openzeppelin-contracts/blob/v4.9.3/contracts/access/Ownable.sol\":1422:1445  owner() == _msgSender() */\n      and\n      eq\n        /* \"https://github.com/OpenZeppelin/openzeppelin-contracts/blob/v4.9.3/contracts/access/Ownable.sol\":1414:1482  require(owner() == _msgSender(), \"Ownable: caller is not the owner\") */\n      tag_77\n      jumpi\n      mload(0x40)\n      shl(0xe5, 0x461bcd)\n      dup2\n      mstore\n      0x04\n      add\n      tag_93\n      swap1\n      tag_195\n      jump\t// in\n        /* \"https://github.com/OpenZeppelin/openzeppelin-contracts/blob/v4.9.3/contracts/security/Pausable.sol\":2433:2550  function _unpause() internal virtual whenPaused {... */\n    tag_78:\n        /* \"https://github.com/OpenZeppelin/openzeppelin-contracts/blob/v4.9.3/contracts/security/Pausable.sol\":1486:1502  _requirePaused() */\n      tag_197\n        /* \"https://github.com/OpenZeppelin/openzeppelin-contracts/blob/v4.9.3/contracts/security/Pausable.sol\":1486:1500  _requirePaused */\n      tag_198\n        /* \"https://github.com/OpenZeppelin/openzeppelin-contracts/blob/v4.9.3/contracts/security/Pausable.sol\":1486:1502  _requirePaused() */\n      jump\t// in\n    tag_197:\n        /* \"https://github.com/OpenZeppelin/openzeppelin-contracts/blob/v4.9.3/contracts/security/Pausable.sol\":2491:2498  _paused */\n      0x02\n        /* \"https://github.com/OpenZeppelin/openzeppelin-contracts/blob/v4.9.3/contracts/security/Pausable.sol\":2491:2506  _paused = false */\n      dup1\n      sload\n      not(0xff)\n      and\n      swap1\n      sstore\n        /* \"https://github.com/OpenZeppelin/openzeppelin-contracts/blob/v4.9.3/contracts/security/Pausable.sol\":2521:2543  Unpaused(_msgSender()) */\n      0x5db9ee0a495bf2e6ff9c91a7834c1ba4fdd244a5e8aa4e537bd38aeae4b073aa\n        /* \"https://github.com/OpenZeppelin/openzeppelin-contracts/blob/v4.9.3/contracts/security/Pausable.sol\":2530:2542  _msgSender() */\n      tag_200\n        /* \"https://github.com/OpenZeppelin/openzeppelin-contracts/blob/v4.9.3/contracts/security/Pausable.sol\":2530:2540  _msgSender */\n      tag_191\n        /* \"https://github.com/OpenZeppelin/openzeppelin-contracts/blob/v4.9.3/contracts/security/Pausable.sol\":2530:2542  _msgSender() */\n      jump\t// in\n    tag_200:\n        /* \"https://github.com/OpenZeppelin/openzeppelin-contracts/blob/v4.9.3/contracts/security/Pausable.sol\":2521:2543  Unpaused(_msgSender()) */\n      mload(0x40)\n      tag_201\n      swap2\n      swap1\n      tag_53\n      jump\t// in\n    tag_201:\n      mload(0x40)\n      dup1\n      swap2\n      sub\n      swap1\n      log1\n        /* \"https://github.com/OpenZeppelin/openzeppelin-contracts/blob/v4.9.3/contracts/security/Pausable.sol\":2433:2550  function _unpause() internal virtual whenPaused {... */\n      jump\t// out\n        /* \"https://github.com/OpenZeppelin/openzeppelin-contracts/blob/v4.9.3/contracts/security/ReentrancyGuard.sol\":2336:2623  function _nonReentrantBefore() private {... */\n    tag_87:\n        /* \"https://github.com/OpenZeppelin/openzeppelin-contracts/blob/v4.9.3/contracts/security/ReentrancyGuard.sol\":1759:1760  2 */\n      0x02\n        /* \"https://github.com/OpenZeppelin/openzeppelin-contracts/blob/v4.9.3/contracts/security/ReentrancyGuard.sol\":2468:2475  _status */\n      sload(0x01)\n        /* \"https://github.com/OpenZeppelin/openzeppelin-contracts/blob/v4.9.3/contracts/security/ReentrancyGuard.sol\":2468:2487  _status != _ENTERED */\n      eq\n      iszero\n        /* \"https://github.com/OpenZeppelin/openzeppelin-contracts/blob/v4.9.3/contracts/security/ReentrancyGuard.sol\":2460:2523  require(_status != _ENTERED, \"ReentrancyGuard: reentrant call\") */\n      tag_203\n      jumpi\n      mload(0x40)\n      shl(0xe5, 0x461bcd)\n      dup2\n      mstore\n      0x04\n      add\n      tag_93\n      swap1\n      tag_205\n      jump\t// in\n    tag_203:\n        /* \"https://github.com/OpenZeppelin/openzeppelin-contracts/blob/v4.9.3/contracts/security/ReentrancyGuard.sol\":1759:1760  2 */\n      0x02\n        /* \"https://github.com/OpenZeppelin/openzeppelin-contracts/blob/v4.9.3/contracts/security/ReentrancyGuard.sol\":2598:2605  _status */\n      0x01\n        /* \"https://github.com/OpenZeppelin/openzeppelin-contracts/blob/v4.9.3/contracts/security/ReentrancyGuard.sol\":2598:2616  _status = _ENTERED */\n      sstore\n        /* \"https://github.com/OpenZeppelin/openzeppelin-contracts/blob/v4.9.3/contracts/security/ReentrancyGuard.sol\":2336:2623  function _nonReentrantBefore() private {... */\n      jump\t// out\n        /* \"https://github.com/OpenZeppelin/openzeppelin-contracts/blob/v4.9.3/contracts/security/Pausable.sol\":1767:1873  function _requireNotPaused() internal view virtual {... */\n    tag_90:\n        /* \"https://github.com/OpenZeppelin/openzeppelin-contracts/blob/v4.9.3/contracts/security/Pausable.sol\":1837:1845  paused() */\n      tag_207\n        /* \"https://github.com/OpenZeppelin/openzeppelin-contracts/blob/v4.9.3/contracts/security/Pausable.sol\":1837:1843  paused */\n      tag_37\n        /* \"https://github.com/OpenZeppelin/openzeppelin-contracts/blob/v4.9.3/contracts/security/Pausable.sol\":1837:1845  paused() */\n      jump\t// in\n    tag_207:\n        /* \"https://github.com/OpenZeppelin/openzeppelin-contracts/blob/v4.9.3/contracts/security/Pausable.sol\":1836:1845  !paused() */\n      iszero\n        /* \"https://github.com/OpenZeppelin/openzeppelin-contracts/blob/v4.9.3/contracts/security/Pausable.sol\":1828:1866  require(!paused(), \"Pausable: paused\") */\n      tag_77\n      jumpi\n      mload(0x40)\n      shl(0xe5, 0x461bcd)\n      dup2\n      mstore\n      0x04\n      add\n      tag_93\n      swap1\n      tag_210\n      jump\t// in\n        /* \"https://github.com/OpenZeppelin/openzeppelin-contracts/blob/v4.9.3/contracts/security/ReentrancyGuard.sol\":2629:2838  function _nonReentrantAfter() private {... */\n    tag_119:\n        /* \"https://github.com/OpenZeppelin/openzeppelin-contracts/blob/v4.9.3/contracts/security/ReentrancyGuard.sol\":1716:1717  1 */\n      0x01\n        /* \"https://github.com/OpenZeppelin/openzeppelin-contracts/blob/v4.9.3/contracts/security/ReentrancyGuard.sol\":2809:2831  _status = _NOT_ENTERED */\n      dup1\n      sstore\n        /* \"https://github.com/OpenZeppelin/openzeppelin-contracts/blob/v4.9.3/contracts/security/ReentrancyGuard.sol\":2629:2838  function _nonReentrantAfter() private {... */\n      jump\t// out\n        /* \"https://github.com/OpenZeppelin/openzeppelin-contracts/blob/v4.9.3/contracts/access/Ownable.sol\":2426:2613  function _transferOwnership(address newOwner) internal virtual {... */\n    tag_139:\n        /* \"https://github.com/OpenZeppelin/openzeppelin-contracts/blob/v4.9.3/contracts/access/Ownable.sol\":2499:2515  address oldOwner */\n      0x00\n        /* \"https://github.com/OpenZeppelin/openzeppelin-contracts/blob/v4.9.3/contracts/access/Ownable.sol\":2518:2524  _owner */\n      dup1\n      sload\n      sub(shl(0xa0, 0x01), 0x01)\n        /* \"https://github.com/OpenZeppelin/openzeppelin-contracts/blob/v4.9.3/contracts/access/Ownable.sol\":2534:2551  _owner = newOwner */\n      dup4\n      dup2\n      and\n      not(sub(shl(0xa0, 0x01), 0x01))\n      dup4\n      and\n      dup2\n      or\n      dup5\n      sstore\n        /* \"https://github.com/OpenZeppelin/openzeppelin-contracts/blob/v4.9.3/contracts/access/Ownable.sol\":2566:2606  OwnershipTransferred(oldOwner, newOwner) */\n      mload(0x40)\n        /* \"https://github.com/OpenZeppelin/openzeppelin-contracts/blob/v4.9.3/contracts/access/Ownable.sol\":2518:2524  _owner */\n      swap2\n      swap1\n      swap3\n      and\n      swap3\n      dup4\n      swap2\n        /* \"https://github.com/OpenZeppelin/openzeppelin-contracts/blob/v4.9.3/contracts/access/Ownable.sol\":2566:2606  OwnershipTransferred(oldOwner, newOwner) */\n      0x8be0079c531659141344cd1fd0a4f28419497f9722a3daafe3b4186f6b6457e0\n      swap2\n        /* \"https://github.com/OpenZeppelin/openzeppelin-contracts/blob/v4.9.3/contracts/access/Ownable.sol\":2499:2515  address oldOwner */\n      swap1\n        /* \"https://github.com/OpenZeppelin/openzeppelin-contracts/blob/v4.9.3/contracts/access/Ownable.sol\":2566:2606  OwnershipTransferred(oldOwner, newOwner) */\n      log3\n        /* \"https://github.com/OpenZeppelin/openzeppelin-contracts/blob/v4.9.3/contracts/access/Ownable.sol\":2426:2613  function _transferOwnership(address newOwner) internal virtual {... */\n      pop\n      pop\n      jump\t// out\n        /* \"https://github.com/OpenZeppelin/openzeppelin-contracts/blob/v4.9.3/contracts/security/Pausable.sol\":2186:2301  function _pause() internal virtual whenNotPaused {... */\n    tag_144:\n        /* \"https://github.com/OpenZeppelin/openzeppelin-contracts/blob/v4.9.3/contracts/security/Pausable.sol\":1239:1258  _requireNotPaused() */\n      tag_214\n        /* \"https://github.com/OpenZeppelin/openzeppelin-contracts/blob/v4.9.3/contracts/security/Pausable.sol\":1239:1256  _requireNotPaused */\n      tag_90\n        /* \"https://github.com/OpenZeppelin/openzeppelin-contracts/blob/v4.9.3/contracts/security/Pausable.sol\":1239:1258  _requireNotPaused() */\n      jump\t// in\n    tag_214:\n        /* \"https://github.com/OpenZeppelin/openzeppelin-contracts/blob/v4.9.3/contracts/security/Pausable.sol\":2245:2252  _paused */\n      0x02\n        /* \"https://github.com/OpenZeppelin/openzeppelin-contracts/blob/v4.9.3/contracts/security/Pausable.sol\":2245:2259  _paused = true */\n      dup1\n      sload\n      not(0xff)\n      and\n        /* \"https://github.com/OpenZeppelin/openzeppelin-contracts/blob/v4.9.3/contracts/security/Pausable.sol\":2255:2259  true */\n      0x01\n        /* \"https://github.com/OpenZeppelin/openzeppelin-contracts/blob/v4.9.3/contracts/security/Pausable.sol\":2245:2259  _paused = true */\n      or\n      swap1\n      sstore\n        /* \"https://github.com/OpenZeppelin/openzeppelin-contracts/blob/v4.9.3/contracts/security/Pausable.sol\":2274:2294  Paused(_msgSender()) */\n      0x62e78cea01bee320cd4e420270b5ea74000d11b0c9f74754ebdbfc544b05a258\n        /* \"https://github.com/OpenZeppelin/openzeppelin-contracts/blob/v4.9.3/contracts/security/Pausable.sol\":2281:2293  _msgSender() */\n      tag_200\n        /* \"https://github.com/OpenZeppelin/openzeppelin-contracts/blob/v4.9.3/contracts/security/Pausable.sol\":2281:2291  _msgSender */\n      tag_191\n        /* \"https://github.com/OpenZeppelin/openzeppelin-contracts/blob/v4.9.3/contracts/security/Pausable.sol\":2281:2293  _msgSender() */\n      jump\t// in\n        /* \"contract/VestingLiquidityHedgey.sol\":4067:4451  function executeTransferToLiquidityPool() internal {\r... */\n    tag_173:\n        /* \"contract/VestingLiquidityHedgey.sol\":4238:4250  wrappedToken */\n      sload(0x03)\n        /* \"contract/VestingLiquidityHedgey.sol\":4238:4275  wrappedToken.balanceOf(address(this)) */\n      mload(0x40)\n      shl(0xe0, 0x70a08231)\n      dup2\n      mstore\n        /* \"contract/VestingLiquidityHedgey.sol\":4212:4235  uint256 contractBalance */\n      0x00\n      swap2\n      sub(shl(0xa0, 0x01), 0x01)\n        /* \"contract/VestingLiquidityHedgey.sol\":4238:4250  wrappedToken */\n      and\n      swap1\n        /* \"contract/VestingLiquidityHedgey.sol\":4238:4260  wrappedToken.balanceOf */\n      0x70a08231\n      swap1\n        /* \"contract/VestingLiquidityHedgey.sol\":4238:4275  wrappedToken.balanceOf(address(this)) */\n      tag_219\n      swap1\n        /* \"contract/VestingLiquidityHedgey.sol\":4269:4273  this */\n      address\n      swap1\n        /* \"contract/VestingLiquidityHedgey.sol\":4238:4275  wrappedToken.balanceOf(address(this)) */\n      0x04\n      add\n      tag_53\n      jump\t// in\n    tag_219:\n      0x20\n      mload(0x40)\n      dup1\n      dup4\n      sub\n      dup2\n      dup7\n      dup1\n      extcodesize\n      iszero\n      dup1\n      iszero\n      tag_220\n      jumpi\n      0x00\n      dup1\n      revert\n    tag_220:\n      pop\n      gas\n      staticcall\n      iszero\n      dup1\n      iszero\n      tag_222\n      jumpi\n      returndatasize\n      0x00\n      dup1\n      returndatacopy\n      revert(0x00, returndatasize)\n    tag_222:\n      pop\n      pop\n      pop\n      pop\n      mload(0x40)\n      returndatasize\n      not(0x1f)\n      0x1f\n      dup3\n      add\n      and\n      dup3\n      add\n      dup1\n      0x40\n      mstore\n      pop\n      dup2\n      add\n      swap1\n      tag_223\n      swap2\n      swap1\n      tag_103\n      jump\t// in\n    tag_223:\n        /* \"contract/VestingLiquidityHedgey.sol\":4212:4275  uint256 contractBalance = wrappedToken.balanceOf(address(this)) */\n      swap1\n      pop\n        /* \"contract/VestingLiquidityHedgey.sol\":4290:4309  contractBalance > 0 */\n      dup1\n      iszero\n        /* \"contract/VestingLiquidityHedgey.sol\":4286:4444  if (contractBalance > 0) {\r... */\n      tag_187\n      jumpi\n        /* \"contract/VestingLiquidityHedgey.sol\":4334:4346  wrappedToken */\n      sload(0x03)\n        /* \"contract/VestingLiquidityHedgey.sol\":4356:4376  liquidityPoolAddress */\n      sload(0x02)\n        /* \"contract/VestingLiquidityHedgey.sol\":4334:4394  wrappedToken.transfer(liquidityPoolAddress, contractBalance) */\n      mload(0x40)\n      shl(0xe0, 0xa9059cbb)\n      dup2\n      mstore\n      sub(shl(0xa0, 0x01), 0x01)\n        /* \"contract/VestingLiquidityHedgey.sol\":4334:4346  wrappedToken */\n      swap3\n      dup4\n      and\n      swap3\n        /* \"contract/VestingLiquidityHedgey.sol\":4334:4355  wrappedToken.transfer */\n      0xa9059cbb\n      swap3\n        /* \"contract/VestingLiquidityHedgey.sol\":4334:4394  wrappedToken.transfer(liquidityPoolAddress, contractBalance) */\n      tag_225\n      swap3\n        /* \"contract/VestingLiquidityHedgey.sol\":4334:4346  wrappedToken */\n      0x0100\n        /* \"contract/VestingLiquidityHedgey.sol\":4356:4376  liquidityPoolAddress */\n      swap1\n      swap2\n      div\n      swap1\n      swap2\n      and\n      swap1\n        /* \"contract/VestingLiquidityHedgey.sol\":4378:4393  contractBalance */\n      dup6\n      swap1\n        /* \"contract/VestingLiquidityHedgey.sol\":4334:4394  wrappedToken.transfer(liquidityPoolAddress, contractBalance) */\n      0x04\n      add\n      tag_108\n      jump\t// in\n    tag_225:\n      0x20\n      mload(0x40)\n      dup1\n      dup4\n      sub\n      dup2\n      0x00\n      dup8\n      dup1\n      extcodesize\n      iszero\n      dup1\n      iszero\n      tag_226\n      jumpi\n      0x00\n      dup1\n      revert\n    tag_226:\n      pop\n      gas\n      call\n      iszero\n      dup1\n      iszero\n      tag_228\n      jumpi\n      returndatasize\n      0x00\n      dup1\n      returndatacopy\n      revert(0x00, returndatasize)\n    tag_228:\n      pop\n      pop\n      pop\n      pop\n      mload(0x40)\n      returndatasize\n      not(0x1f)\n      0x1f\n      dup3\n      add\n      and\n      dup3\n      add\n      dup1\n      0x40\n      mstore\n      pop\n      dup2\n      add\n      swap1\n      tag_229\n      swap2\n      swap1\n      tag_113\n      jump\t// in\n    tag_229:\n        /* \"contract/VestingLiquidityHedgey.sol\":4326:4432  require(wrappedToken.transfer(liquidityPoolAddress, contractBalance), \"Transfer to Liquidity Pool failed\") */\n      tag_187\n      jumpi\n      mload(0x40)\n      shl(0xe5, 0x461bcd)\n      dup2\n      mstore\n      0x04\n      add\n      tag_93\n      swap1\n      tag_232\n      jump\t// in\n        /* \"https://github.com/OpenZeppelin/openzeppelin-contracts/blob/v4.9.3/contracts/access/Ownable.sol\":2074:2272  function transferOwnership(address newOwner) public virtual onlyOwner {... */\n    tag_188:\n        /* \"https://github.com/OpenZeppelin/openzeppelin-contracts/blob/v4.9.3/contracts/access/Ownable.sol\":1094:1107  _checkOwner() */\n      tag_234\n        /* \"https://github.com/OpenZeppelin/openzeppelin-contracts/blob/v4.9.3/contracts/access/Ownable.sol\":1094:1105  _checkOwner */\n      tag_75\n        /* \"https://github.com/OpenZeppelin/openzeppelin-contracts/blob/v4.9.3/contracts/access/Ownable.sol\":1094:1107  _checkOwner() */\n      jump\t// in\n    tag_234:\n      sub(shl(0xa0, 0x01), 0x01)\n        /* \"https://github.com/OpenZeppelin/openzeppelin-contracts/blob/v4.9.3/contracts/access/Ownable.sol\":2162:2184  newOwner != address(0) */\n      dup2\n      and\n        /* \"https://github.com/OpenZeppelin/openzeppelin-contracts/blob/v4.9.3/contracts/access/Ownable.sol\":2154:2227  require(newOwner != address(0), \"Ownable: new owner is the zero address\") */\n      tag_236\n      jumpi\n      mload(0x40)\n      shl(0xe5, 0x461bcd)\n      dup2\n      mstore\n      0x04\n      add\n      tag_93\n      swap1\n      tag_238\n      jump\t// in\n    tag_236:\n        /* \"https://github.com/OpenZeppelin/openzeppelin-contracts/blob/v4.9.3/contracts/access/Ownable.sol\":2237:2265  _transferOwnership(newOwner) */\n      tag_187\n        /* \"https://github.com/OpenZeppelin/openzeppelin-contracts/blob/v4.9.3/contracts/access/Ownable.sol\":2256:2264  newOwner */\n      dup2\n        /* \"https://github.com/OpenZeppelin/openzeppelin-contracts/blob/v4.9.3/contracts/access/Ownable.sol\":2237:2255  _transferOwnership */\n      tag_139\n        /* \"https://github.com/OpenZeppelin/openzeppelin-contracts/blob/v4.9.3/contracts/access/Ownable.sol\":2237:2265  _transferOwnership(newOwner) */\n      jump\t// in\n        /* \"https://github.com/OpenZeppelin/openzeppelin-contracts/blob/v4.9.3/contracts/utils/Context.sol\":640:736  function _msgSender() internal view virtual returns (address) {... */\n    tag_191:\n        /* \"https://github.com/OpenZeppelin/openzeppelin-contracts/blob/v4.9.3/contracts/utils/Context.sol\":719:729  msg.sender */\n      caller\n        /* \"https://github.com/OpenZeppelin/openzeppelin-contracts/blob/v4.9.3/contracts/utils/Context.sol\":640:736  function _msgSender() internal view virtual returns (address) {... */\n      swap1\n      jump\t// out\n        /* \"https://github.com/OpenZeppelin/openzeppelin-contracts/blob/v4.9.3/contracts/security/Pausable.sol\":1945:2051  function _requirePaused() internal view virtual {... */\n    tag_198:\n        /* \"https://github.com/OpenZeppelin/openzeppelin-contracts/blob/v4.9.3/contracts/security/Pausable.sol\":2011:2019  paused() */\n      tag_242\n        /* \"https://github.com/OpenZeppelin/openzeppelin-contracts/blob/v4.9.3/contracts/security/Pausable.sol\":2011:2017  paused */\n      tag_37\n        /* \"https://github.com/OpenZeppelin/openzeppelin-contracts/blob/v4.9.3/contracts/security/Pausable.sol\":2011:2019  paused() */\n      jump\t// in\n    tag_242:\n        /* \"https://github.com/OpenZeppelin/openzeppelin-contracts/blob/v4.9.3/contracts/security/Pausable.sol\":2003:2044  require(paused(), \"Pausable: not paused\") */\n      tag_77\n      jumpi\n      mload(0x40)\n      shl(0xe5, 0x461bcd)\n      dup2\n      mstore\n      0x04\n      add\n      tag_93\n      swap1\n      tag_245\n      jump\t// in\n        /* \"#utility.yul\":14:189   */\n    tag_247:\n        /* \"#utility.yul\":84:104   */\n      dup1\n      calldataload\n      sub(shl(0xa0, 0x01), 0x01)\n        /* \"#utility.yul\":133:164   */\n      dup2\n      and\n        /* \"#utility.yul\":123:165   */\n      dup2\n      eq\n        /* \"#utility.yul\":113:115   */\n      tag_249\n      jumpi\n        /* \"#utility.yul\":179:180   */\n      0x00\n        /* \"#utility.yul\":176:177   */\n      dup1\n        /* \"#utility.yul\":169:181   */\n      revert\n        /* \"#utility.yul\":113:115   */\n    tag_249:\n        /* \"#utility.yul\":65:189   */\n      swap2\n      swap1\n      pop\n      jump\t// out\n        /* \"#utility.yul\":194:392   */\n    tag_71:\n      0x00\n        /* \"#utility.yul\":306:308   */\n      0x20\n        /* \"#utility.yul\":294:303   */\n      dup3\n        /* \"#utility.yul\":285:292   */\n      dup5\n        /* \"#utility.yul\":281:304   */\n      sub\n        /* \"#utility.yul\":277:309   */\n      slt\n        /* \"#utility.yul\":274:276   */\n      iszero\n      tag_251\n      jumpi\n        /* \"#utility.yul\":327:333   */\n      dup1\n        /* \"#utility.yul\":319:325   */\n      dup2\n        /* \"#utility.yul\":312:334   */\n      revert\n        /* \"#utility.yul\":274:276   */\n    tag_251:\n        /* \"#utility.yul\":355:386   */\n      tag_252\n        /* \"#utility.yul\":376:385   */\n      dup3\n        /* \"#utility.yul\":355:386   */\n      tag_247\n      jump\t// in\n    tag_252:\n        /* \"#utility.yul\":345:386   */\n      swap4\n        /* \"#utility.yul\":264:392   */\n      swap3\n      pop\n      pop\n      pop\n      jump\t// out\n        /* \"#utility.yul\":397:663   */\n    tag_34:\n      0x00\n      dup1\n        /* \"#utility.yul\":526:528   */\n      0x40\n        /* \"#utility.yul\":514:523   */\n      dup4\n        /* \"#utility.yul\":505:512   */\n      dup6\n        /* \"#utility.yul\":501:524   */\n      sub\n        /* \"#utility.yul\":497:529   */\n      slt\n        /* \"#utility.yul\":494:496   */\n      iszero\n      tag_254\n      jumpi\n        /* \"#utility.yul\":547:553   */\n      dup1\n        /* \"#utility.yul\":539:545   */\n      dup2\n        /* \"#utility.yul\":532:554   */\n      revert\n        /* \"#utility.yul\":494:496   */\n    tag_254:\n        /* \"#utility.yul\":575:606   */\n      tag_255\n        /* \"#utility.yul\":596:605   */\n      dup4\n        /* \"#utility.yul\":575:606   */\n      tag_247\n      jump\t// in\n    tag_255:\n        /* \"#utility.yul\":565:606   */\n      swap5\n        /* \"#utility.yul\":653:655   */\n      0x20\n        /* \"#utility.yul\":638:656   */\n      swap4\n      swap1\n      swap4\n      add\n        /* \"#utility.yul\":625:657   */\n      calldataload\n      swap4\n      pop\n      pop\n      pop\n        /* \"#utility.yul\":484:663   */\n      jump\t// out\n        /* \"#utility.yul\":668:965   */\n    tag_113:\n      0x00\n        /* \"#utility.yul\":788:790   */\n      0x20\n        /* \"#utility.yul\":776:785   */\n      dup3\n        /* \"#utility.yul\":767:774   */\n      dup5\n        /* \"#utility.yul\":763:786   */\n      sub\n        /* \"#utility.yul\":759:791   */\n      slt\n        /* \"#utility.yul\":756:758   */\n      iszero\n      tag_257\n      jumpi\n        /* \"#utility.yul\":809:815   */\n      dup1\n        /* \"#utility.yul\":801:807   */\n      dup2\n        /* \"#utility.yul\":794:816   */\n      revert\n        /* \"#utility.yul\":756:758   */\n    tag_257:\n        /* \"#utility.yul\":846:855   */\n      dup2\n        /* \"#utility.yul\":840:856   */\n      mload\n        /* \"#utility.yul\":899:904   */\n      dup1\n        /* \"#utility.yul\":892:905   */\n      iszero\n        /* \"#utility.yul\":885:906   */\n      iszero\n        /* \"#utility.yul\":878:883   */\n      dup2\n        /* \"#utility.yul\":875:907   */\n      eq\n        /* \"#utility.yul\":865:867   */\n      tag_252\n      jumpi\n        /* \"#utility.yul\":926:932   */\n      dup2\n        /* \"#utility.yul\":918:924   */\n      dup3\n        /* \"#utility.yul\":911:933   */\n      revert\n        /* \"#utility.yul\":970:1160   */\n    tag_30:\n      0x00\n        /* \"#utility.yul\":1082:1084   */\n      0x20\n        /* \"#utility.yul\":1070:1079   */\n      dup3\n        /* \"#utility.yul\":1061:1068   */\n      dup5\n        /* \"#utility.yul\":1057:1080   */\n      sub\n        /* \"#utility.yul\":1053:1085   */\n      slt\n        /* \"#utility.yul\":1050:1052   */\n      iszero\n      tag_260\n      jumpi\n        /* \"#utility.yul\":1103:1109   */\n      dup1\n        /* \"#utility.yul\":1095:1101   */\n      dup2\n        /* \"#utility.yul\":1088:1110   */\n      revert\n        /* \"#utility.yul\":1050:1052   */\n    tag_260:\n      pop\n        /* \"#utility.yul\":1131:1154   */\n      calldataload\n      swap2\n        /* \"#utility.yul\":1040:1160   */\n      swap1\n      pop\n      jump\t// out\n        /* \"#utility.yul\":1165:1359   */\n    tag_103:\n      0x00\n        /* \"#utility.yul\":1288:1290   */\n      0x20\n        /* \"#utility.yul\":1276:1285   */\n      dup3\n        /* \"#utility.yul\":1267:1274   */\n      dup5\n        /* \"#utility.yul\":1263:1286   */\n      sub\n        /* \"#utility.yul\":1259:1291   */\n      slt\n        /* \"#utility.yul\":1256:1258   */\n      iszero\n      tag_262\n      jumpi\n        /* \"#utility.yul\":1309:1315   */\n      dup1\n        /* \"#utility.yul\":1301:1307   */\n      dup2\n        /* \"#utility.yul\":1294:1316   */\n      revert\n        /* \"#utility.yul\":1256:1258   */\n    tag_262:\n      pop\n        /* \"#utility.yul\":1337:1353   */\n      mload\n      swap2\n        /* \"#utility.yul\":1246:1359   */\n      swap1\n      pop\n      jump\t// out\n        /* \"#utility.yul\":1364:1567   */\n    tag_53:\n      sub(shl(0xa0, 0x01), 0x01)\n        /* \"#utility.yul\":1528:1560   */\n      swap2\n      swap1\n      swap2\n      and\n        /* \"#utility.yul\":1510:1561   */\n      dup2\n      mstore\n        /* \"#utility.yul\":1498:1500   */\n      0x20\n        /* \"#utility.yul\":1483:1501   */\n      add\n      swap1\n        /* \"#utility.yul\":1465:1567   */\n      jump\t// out\n        /* \"#utility.yul\":1572:1876   */\n    tag_153:\n      sub(shl(0xa0, 0x01), 0x01)\n        /* \"#utility.yul\":1802:1817   */\n      swap3\n      dup4\n      and\n        /* \"#utility.yul\":1784:1818   */\n      dup2\n      mstore\n        /* \"#utility.yul\":1854:1869   */\n      swap2\n      and\n        /* \"#utility.yul\":1849:1851   */\n      0x20\n        /* \"#utility.yul\":1834:1852   */\n      dup3\n      add\n        /* \"#utility.yul\":1827:1870   */\n      mstore\n        /* \"#utility.yul\":1734:1736   */\n      0x40\n        /* \"#utility.yul\":1719:1737   */\n      add\n      swap1\n        /* \"#utility.yul\":1701:1876   */\n      jump\t// out\n        /* \"#utility.yul\":1881:2256   */\n    tag_162:\n      sub(shl(0xa0, 0x01), 0x01)\n        /* \"#utility.yul\":2139:2154   */\n      swap4\n      dup5\n      and\n        /* \"#utility.yul\":2121:2155   */\n      dup2\n      mstore\n        /* \"#utility.yul\":2191:2206   */\n      swap2\n      swap1\n      swap3\n      and\n        /* \"#utility.yul\":2186:2188   */\n      0x20\n        /* \"#utility.yul\":2171:2189   */\n      dup3\n      add\n        /* \"#utility.yul\":2164:2207   */\n      mstore\n        /* \"#utility.yul\":2238:2240   */\n      0x40\n        /* \"#utility.yul\":2223:2241   */\n      dup2\n      add\n        /* \"#utility.yul\":2216:2250   */\n      swap2\n      swap1\n      swap2\n      mstore\n        /* \"#utility.yul\":2071:2073   */\n      0x60\n        /* \"#utility.yul\":2056:2074   */\n      add\n      swap1\n        /* \"#utility.yul\":2038:2256   */\n      jump\t// out\n        /* \"#utility.yul\":2261:2535   */\n    tag_108:\n      sub(shl(0xa0, 0x01), 0x01)\n        /* \"#utility.yul\":2453:2485   */\n      swap3\n      swap1\n      swap3\n      and\n        /* \"#utility.yul\":2435:2486   */\n      dup3\n      mstore\n        /* \"#utility.yul\":2517:2519   */\n      0x20\n        /* \"#utility.yul\":2502:2520   */\n      dup3\n      add\n        /* \"#utility.yul\":2495:2529   */\n      mstore\n        /* \"#utility.yul\":2423:2425   */\n      0x40\n        /* \"#utility.yul\":2408:2426   */\n      add\n      swap1\n        /* \"#utility.yul\":2390:2535   */\n      jump\t// out\n        /* \"#utility.yul\":2540:2727   */\n    tag_39:\n        /* \"#utility.yul\":2705:2719   */\n      swap1\n      iszero\n        /* \"#utility.yul\":2698:2720   */\n      iszero\n        /* \"#utility.yul\":2680:2721   */\n      dup2\n      mstore\n        /* \"#utility.yul\":2668:2670   */\n      0x20\n        /* \"#utility.yul\":2653:2671   */\n      add\n      swap1\n        /* \"#utility.yul\":2635:2727   */\n      jump\t// out\n        /* \"#utility.yul\":2954:3298   */\n    tag_245:\n        /* \"#utility.yul\":3156:3158   */\n      0x20\n        /* \"#utility.yul\":3138:3159   */\n      dup1\n      dup3\n      mstore\n        /* \"#utility.yul\":3195:3197   */\n      0x14\n        /* \"#utility.yul\":3175:3193   */\n      swap1\n      dup3\n      add\n        /* \"#utility.yul\":3168:3198   */\n      mstore\n      shl(0x62, 0x14185d5cd8589b194e881b9bdd081c185d5cd959)\n        /* \"#utility.yul\":3229:3231   */\n      0x40\n        /* \"#utility.yul\":3214:3232   */\n      dup3\n      add\n        /* \"#utility.yul\":3207:3257   */\n      mstore\n        /* \"#utility.yul\":3289:3291   */\n      0x60\n        /* \"#utility.yul\":3274:3292   */\n      add\n      swap1\n        /* \"#utility.yul\":3128:3298   */\n      jump\t// out\n        /* \"#utility.yul\":3303:3704   */\n    tag_151:\n        /* \"#utility.yul\":3505:3507   */\n      0x20\n        /* \"#utility.yul\":3487:3508   */\n      dup1\n      dup3\n      mstore\n        /* \"#utility.yul\":3544:3546   */\n      0x25\n        /* \"#utility.yul\":3524:3542   */\n      swap1\n      dup3\n      add\n        /* \"#utility.yul\":3517:3547   */\n      mstore\n        /* \"#utility.yul\":3583:3617   */\n      0x4465706f73697420616d6f756e74206d75737420626520677265617465722074\n        /* \"#utility.yul\":3578:3580   */\n      0x40\n        /* \"#utility.yul\":3563:3581   */\n      dup3\n      add\n        /* \"#utility.yul\":3556:3618   */\n      mstore\n      shl(0xdc, 0x068616e203)\n        /* \"#utility.yul\":3649:3651   */\n      0x60\n        /* \"#utility.yul\":3634:3652   */\n      dup3\n      add\n        /* \"#utility.yul\":3627:3662   */\n      mstore\n        /* \"#utility.yul\":3694:3697   */\n      0x80\n        /* \"#utility.yul\":3679:3698   */\n      add\n      swap1\n        /* \"#utility.yul\":3477:3704   */\n      jump\t// out\n        /* \"#utility.yul\":3709:4111   */\n    tag_238:\n        /* \"#utility.yul\":3911:3913   */\n      0x20\n        /* \"#utility.yul\":3893:3914   */\n      dup1\n      dup3\n      mstore\n        /* \"#utility.yul\":3950:3952   */\n      0x26\n        /* \"#utility.yul\":3930:3948   */\n      swap1\n      dup3\n      add\n        /* \"#utility.yul\":3923:3953   */\n      mstore\n        /* \"#utility.yul\":3989:4023   */\n      0x4f776e61626c653a206e6577206f776e657220697320746865207a65726f2061\n        /* \"#utility.yul\":3984:3986   */\n      0x40\n        /* \"#utility.yul\":3969:3987   */\n      dup3\n      add\n        /* \"#utility.yul\":3962:4024   */\n      mstore\n      shl(0xd0, 0x646472657373)\n        /* \"#utility.yul\":4055:4057   */\n      0x60\n        /* \"#utility.yul\":4040:4058   */\n      dup3\n      add\n        /* \"#utility.yul\":4033:4069   */\n      mstore\n        /* \"#utility.yul\":4101:4104   */\n      0x80\n        /* \"#utility.yul\":4086:4105   */\n      add\n      swap1\n        /* \"#utility.yul\":3883:4111   */\n      jump\t// out\n        /* \"#utility.yul\":4116:4455   */\n    tag_116:\n        /* \"#utility.yul\":4318:4320   */\n      0x20\n        /* \"#utility.yul\":4300:4321   */\n      dup1\n      dup3\n      mstore\n        /* \"#utility.yul\":4357:4359   */\n      0x0f\n        /* \"#utility.yul\":4337:4355   */\n      swap1\n      dup3\n      add\n        /* \"#utility.yul\":4330:4360   */\n      mstore\n      shl(0x8a, 0x151c985b9cd9995c8819985a5b1959)\n        /* \"#utility.yul\":4391:4393   */\n      0x40\n        /* \"#utility.yul\":4376:4394   */\n      dup3\n      add\n        /* \"#utility.yul\":4369:4414   */\n      mstore\n        /* \"#utility.yul\":4446:4448   */\n      0x60\n        /* \"#utility.yul\":4431:4449   */\n      add\n      swap1\n        /* \"#utility.yul\":4290:4455   */\n      jump\t// out\n        /* \"#utility.yul\":4460:4804   */\n    tag_106:\n        /* \"#utility.yul\":4662:4664   */\n      0x20\n        /* \"#utility.yul\":4644:4665   */\n      dup1\n      dup3\n      mstore\n        /* \"#utility.yul\":4701:4703   */\n      0x14\n        /* \"#utility.yul\":4681:4699   */\n      swap1\n      dup3\n      add\n        /* \"#utility.yul\":4674:4704   */\n      mstore\n      shl(0x60, 0x496e73756666696369656e742062616c616e6365)\n        /* \"#utility.yul\":4735:4737   */\n      0x40\n        /* \"#utility.yul\":4720:4738   */\n      dup3\n      add\n        /* \"#utility.yul\":4713:4763   */\n      mstore\n        /* \"#utility.yul\":4795:4797   */\n      0x60\n        /* \"#utility.yul\":4780:4798   */\n      add\n      swap1\n        /* \"#utility.yul\":4634:4804   */\n      jump\t// out\n        /* \"#utility.yul\":4809:5149   */\n    tag_210:\n        /* \"#utility.yul\":5011:5013   */\n      0x20\n        /* \"#utility.yul\":4993:5014   */\n      dup1\n      dup3\n      mstore\n        /* \"#utility.yul\":5050:5052   */\n      0x10\n        /* \"#utility.yul\":5030:5048   */\n      swap1\n      dup3\n      add\n        /* \"#utility.yul\":5023:5053   */\n      mstore\n      shl(0x82, 0x14185d5cd8589b194e881c185d5cd959)\n        /* \"#utility.yul\":5084:5086   */\n      0x40\n        /* \"#utility.yul\":5069:5087   */\n      dup3\n      add\n        /* \"#utility.yul\":5062:5108   */\n      mstore\n        /* \"#utility.yul\":5140:5142   */\n      0x60\n        /* \"#utility.yul\":5125:5143   */\n      add\n      swap1\n        /* \"#utility.yul\":4983:5149   */\n      jump\t// out\n        /* \"#utility.yul\":5154:5510   */\n    tag_195:\n        /* \"#utility.yul\":5356:5358   */\n      0x20\n        /* \"#utility.yul\":5338:5359   */\n      dup1\n      dup3\n      mstore\n        /* \"#utility.yul\":5375:5393   */\n      dup2\n      dup2\n      add\n        /* \"#utility.yul\":5368:5398   */\n      mstore\n        /* \"#utility.yul\":5434:5468   */\n      0x4f776e61626c653a2063616c6c6572206973206e6f7420746865206f776e6572\n        /* \"#utility.yul\":5429:5431   */\n      0x40\n        /* \"#utility.yul\":5414:5432   */\n      dup3\n      add\n        /* \"#utility.yul\":5407:5469   */\n      mstore\n        /* \"#utility.yul\":5501:5503   */\n      0x60\n        /* \"#utility.yul\":5486:5504   */\n      add\n      swap1\n        /* \"#utility.yul\":5328:5510   */\n      jump\t// out\n        /* \"#utility.yul\":5515:5868   */\n    tag_186:\n        /* \"#utility.yul\":5717:5719   */\n      0x20\n        /* \"#utility.yul\":5699:5720   */\n      dup1\n      dup3\n      mstore\n        /* \"#utility.yul\":5756:5758   */\n      0x1d\n        /* \"#utility.yul\":5736:5754   */\n      swap1\n      dup3\n      add\n        /* \"#utility.yul\":5729:5759   */\n      mstore\n        /* \"#utility.yul\":5795:5826   */\n      0x4e6577206f776e657220697320746865207a65726f2061646472657373000000\n        /* \"#utility.yul\":5790:5792   */\n      0x40\n        /* \"#utility.yul\":5775:5793   */\n      dup3\n      add\n        /* \"#utility.yul\":5768:5827   */\n      mstore\n        /* \"#utility.yul\":5859:5861   */\n      0x60\n        /* \"#utility.yul\":5844:5862   */\n      add\n      swap1\n        /* \"#utility.yul\":5689:5868   */\n      jump\t// out\n        /* \"#utility.yul\":5873:6277   */\n    tag_97:\n        /* \"#utility.yul\":6075:6077   */\n      0x20\n        /* \"#utility.yul\":6057:6078   */\n      dup1\n      dup3\n      mstore\n        /* \"#utility.yul\":6114:6116   */\n      0x28\n        /* \"#utility.yul\":6094:6112   */\n      swap1\n      dup3\n      add\n        /* \"#utility.yul\":6087:6117   */\n      mstore\n        /* \"#utility.yul\":6153:6187   */\n      0x5769746864726177616c20616d6f756e74206d75737420626520677265617465\n        /* \"#utility.yul\":6148:6150   */\n      0x40\n        /* \"#utility.yul\":6133:6151   */\n      dup3\n      add\n        /* \"#utility.yul\":6126:6188   */\n      mstore\n      shl(0xc4, 0x072207468616e203)\n        /* \"#utility.yul\":6219:6221   */\n      0x60\n        /* \"#utility.yul\":6204:6222   */\n      dup3\n      add\n        /* \"#utility.yul\":6197:6235   */\n      mstore\n        /* \"#utility.yul\":6267:6270   */\n      0x80\n        /* \"#utility.yul\":6252:6271   */\n      add\n      swap1\n        /* \"#utility.yul\":6047:6277   */\n      jump\t// out\n        /* \"#utility.yul\":6282:6626   */\n    tag_160:\n        /* \"#utility.yul\":6484:6486   */\n      0x20\n        /* \"#utility.yul\":6466:6487   */\n      dup1\n      dup3\n      mstore\n        /* \"#utility.yul\":6523:6525   */\n      0x14\n        /* \"#utility.yul\":6503:6521   */\n      swap1\n      dup3\n      add\n        /* \"#utility.yul\":6496:6526   */\n      mstore\n      shl(0x60, 0x4e6f7420656e6f75676820616c6c6f77616e6365)\n        /* \"#utility.yul\":6557:6559   */\n      0x40\n        /* \"#utility.yul\":6542:6560   */\n      dup3\n      add\n        /* \"#utility.yul\":6535:6585   */\n      mstore\n        /* \"#utility.yul\":6617:6619   */\n      0x60\n        /* \"#utility.yul\":6602:6620   */\n      add\n      swap1\n        /* \"#utility.yul\":6456:6626   */\n      jump\t// out\n        /* \"#utility.yul\":6631:6980   */\n    tag_128:\n        /* \"#utility.yul\":6833:6835   */\n      0x20\n        /* \"#utility.yul\":6815:6836   */\n      dup1\n      dup3\n      mstore\n        /* \"#utility.yul\":6872:6874   */\n      0x19\n        /* \"#utility.yul\":6852:6870   */\n      swap1\n      dup3\n      add\n        /* \"#utility.yul\":6845:6875   */\n      mstore\n        /* \"#utility.yul\":6911:6938   */\n      0x45786365656473206d6178696d756d20616c6c6f77616e636500000000000000\n        /* \"#utility.yul\":6906:6908   */\n      0x40\n        /* \"#utility.yul\":6891:6909   */\n      dup3\n      add\n        /* \"#utility.yul\":6884:6939   */\n      mstore\n        /* \"#utility.yul\":6971:6973   */\n      0x60\n        /* \"#utility.yul\":6956:6974   */\n      add\n      swap1\n        /* \"#utility.yul\":6805:6980   */\n      jump\t// out\n        /* \"#utility.yul\":6985:7335   */\n    tag_94:\n        /* \"#utility.yul\":7187:7189   */\n      0x20\n        /* \"#utility.yul\":7169:7190   */\n      dup1\n      dup3\n      mstore\n        /* \"#utility.yul\":7226:7228   */\n      0x1a\n        /* \"#utility.yul\":7206:7224   */\n      swap1\n      dup3\n      add\n        /* \"#utility.yul\":7199:7229   */\n      mstore\n        /* \"#utility.yul\":7265:7293   */\n      0x496e76616c6964207769746864726177616c2061646472657373000000000000\n        /* \"#utility.yul\":7260:7262   */\n      0x40\n        /* \"#utility.yul\":7245:7263   */\n      dup3\n      add\n        /* \"#utility.yul\":7238:7294   */\n      mstore\n        /* \"#utility.yul\":7326:7328   */\n      0x60\n        /* \"#utility.yul\":7311:7329   */\n      add\n      swap1\n        /* \"#utility.yul\":7159:7335   */\n      jump\t// out\n        /* \"#utility.yul\":7340:7737   */\n    tag_232:\n        /* \"#utility.yul\":7542:7544   */\n      0x20\n        /* \"#utility.yul\":7524:7545   */\n      dup1\n      dup3\n      mstore\n        /* \"#utility.yul\":7581:7583   */\n      0x21\n        /* \"#utility.yul\":7561:7579   */\n      swap1\n      dup3\n      add\n        /* \"#utility.yul\":7554:7584   */\n      mstore\n        /* \"#utility.yul\":7620:7654   */\n      0x5472616e7366657220746f204c697175696469747920506f6f6c206661696c65\n        /* \"#utility.yul\":7615:7617   */\n      0x40\n        /* \"#utility.yul\":7600:7618   */\n      dup3\n      add\n        /* \"#utility.yul\":7593:7655   */\n      mstore\n      shl(0xfa, 0x19)\n        /* \"#utility.yul\":7686:7688   */\n      0x60\n        /* \"#utility.yul\":7671:7689   */\n      dup3\n      add\n        /* \"#utility.yul\":7664:7695   */\n      mstore\n        /* \"#utility.yul\":7727:7730   */\n      0x80\n        /* \"#utility.yul\":7712:7731   */\n      add\n      swap1\n        /* \"#utility.yul\":7514:7737   */\n      jump\t// out\n        /* \"#utility.yul\":7742:8097   */\n    tag_205:\n        /* \"#utility.yul\":7944:7946   */\n      0x20\n        /* \"#utility.yul\":7926:7947   */\n      dup1\n      dup3\n      mstore\n        /* \"#utility.yul\":7983:7985   */\n      0x1f\n        /* \"#utility.yul\":7963:7981   */\n      swap1\n      dup3\n      add\n        /* \"#utility.yul\":7956:7986   */\n      mstore\n        /* \"#utility.yul\":8022:8055   */\n      0x5265656e7472616e637947756172643a207265656e7472616e742063616c6c00\n        /* \"#utility.yul\":8017:8019   */\n      0x40\n        /* \"#utility.yul\":8002:8020   */\n      dup3\n      add\n        /* \"#utility.yul\":7995:8056   */\n      mstore\n        /* \"#utility.yul\":8088:8090   */\n      0x60\n        /* \"#utility.yul\":8073:8091   */\n      add\n      swap1\n        /* \"#utility.yul\":7916:8097   */\n      jump\t// out\n        /* \"#utility.yul\":8102:8279   */\n    tag_27:\n        /* \"#utility.yul\":8248:8273   */\n      swap1\n      dup2\n      mstore\n        /* \"#utility.yul\":8236:8238   */\n      0x20\n        /* \"#utility.yul\":8221:8239   */\n      add\n      swap1\n        /* \"#utility.yul\":8203:8279   */\n      jump\t// out\n        /* \"#utility.yul\":8284:8512   */\n    tag_170:\n      0x00\n        /* \"#utility.yul\":8352:8353   */\n      dup3\n        /* \"#utility.yul\":8349:8350   */\n      dup3\n        /* \"#utility.yul\":8346:8354   */\n      lt\n        /* \"#utility.yul\":8343:8345   */\n      iszero\n      tag_285\n      jumpi\n      shl(0xe0, 0x4e487b71)\n        /* \"#utility.yul\":8377:8411   */\n      dup2\n      mstore\n        /* \"#utility.yul\":8434:8438   */\n      0x11\n        /* \"#utility.yul\":8431:8432   */\n      0x04\n        /* \"#utility.yul\":8424:8439   */\n      mstore\n        /* \"#utility.yul\":8465:8469   */\n      0x24\n        /* \"#utility.yul\":8384:8388   */\n      dup2\n        /* \"#utility.yul\":8452:8470   */\n      revert\n        /* \"#utility.yul\":8343:8345   */\n    tag_285:\n      pop\n        /* \"#utility.yul\":8497:8506   */\n      sub\n      swap1\n        /* \"#utility.yul\":8333:8512   */\n      jump\t// out\n\n    auxdata: 0xa26469706673582212207de8824fec26c490d5bf2ed44e48d4c1efc8ac8e46f9f727d5caa16d3db68d9964736f6c63430008000033\n}\n",
				"bytecode": {
					"linkReferences": {},
					"object": "608060405260c86005553480156200001657600080fd5b50604051620011913803806200119183398101604081905262000039916200016e565b6200004d62000047620000fd565b62000101565b600180556002805460ff191690556001600160a01b0383166200008d5760405162461bcd60e51b81526004016200008490620001e5565b60405180910390fd5b6001600160a01b038216620000b65760405162461bcd60e51b81526004016200008490620001ae565b60028054610100600160a81b0319166101006001600160a01b0395861602179055600380546001600160a01b0319169290931691909117909155600655436004556200021c565b3390565b600080546001600160a01b038381166001600160a01b0319831681178455604051919092169283917f8be0079c531659141344cd1fd0a4f28419497f9722a3daafe3b4186f6b6457e09190a35050565b80516001600160a01b03811681146200016957600080fd5b919050565b60008060006060848603121562000183578283fd5b6200018e8462000151565b92506200019e6020850162000151565b9150604084015190509250925092565b6020808252601d908201527f496e76616c6964207772617070656420746f6b656e2061646472657373000000604082015260600190565b6020808252601e908201527f496e76616c6964204c697175696469747920506f6f6c20616464726573730000604082015260600190565b610f65806200022c6000396000f3fe608060405234801561001057600080fd5b50600436106101005760003560e01c80638456cb5911610097578063c4da924711610066578063c4da9247146101b8578063d25b17b6146101cb578063dee3b50f146101d3578063f2fde38b146101db57610100565b80638456cb591461018b5780638da5cb5b14610193578063996c6cc3146101a8578063bb413c8d146101b057610100565b80635c975abb116100d35780635c975abb1461015357806362c35c011461016857806364f00f011461017b578063715018a61461018357610100565b80633f4ba83a146101055780634abb3fac1461010f57806356d96a991461012d5780635a6b26ba14610140575b600080fd5b61010d6101ee565b005b610117610200565b6040516101249190610f03565b60405180910390f35b61010d61013b366004610b5b565b610206565b61010d61014e366004610b12565b61024e565b61015b610440565b6040516101249190610bf6565b61010d610176366004610b5b565b610449565b610117610544565b61010d61054a565b61010d61055c565b61019b61056c565b6040516101249190610b8b565b61019b61057b565b61011761058a565b61010d6101c6366004610b5b565b610590565b61019b610755565b61010d610769565b61010d6101e9366004610af1565b610794565b6101f66107ce565b6101fe61080d565b565b60055481565b61020e6107ce565b60068190556040517f3a25092a4d85e75d6b227fd7cc0f982fb0fbbe013db22c0f7c75112e523a4df190610243908390610f03565b60405180910390a150565b6102566107ce565b61025e61085f565b610266610889565b6001600160a01b0382166102955760405162461bcd60e51b815260040161028c90610e54565b60405180910390fd5b600081116102b55760405162461bcd60e51b815260040161028c90610da7565b6003546040516370a0823160e01b815282916001600160a01b0316906370a08231906102e5903090600401610b8b565b60206040518083038186803b1580156102fd57600080fd5b505afa158015610311573d6000803e3d6000fd5b505050506040513d601f19601f820116820180604052508101906103359190610b73565b10156103535760405162461bcd60e51b815260040161028c90610ce3565b60035460405163a9059cbb60e01b81526001600160a01b039091169063a9059cbb906103859085908590600401610bdd565b602060405180830381600087803b15801561039f57600080fd5b505af11580156103b3573d6000803e3d6000fd5b505050506040513d601f19601f820116820180604052508101906103d79190610b3b565b6103f35760405162461bcd60e51b815260040161028c90610cba565b816001600160a01b03167f6352c5382c4a4578e712449ca65e83cdb392d045dfcf1cad9615189db2da244b8260405161042c9190610f03565b60405180910390a261043c6108ae565b5050565b60025460ff1690565b6104516107ce565b610459610889565b60065481111561047b5760405162461bcd60e51b815260040161028c90610e1d565b60035460405163095ea7b360e01b81526001600160a01b039091169063095ea7b3906104ad9030908590600401610bdd565b602060405180830381600087803b1580156104c757600080fd5b505af11580156104db573d6000803e3d6000fd5b505050506040513d601f19601f820116820180604052508101906104ff9190610b3b565b50336001600160a01b03167f5f327dfbc26b4773c8990edbc20356f43975e2a38466359fad3bd2b77dee2433826040516105399190610f03565b60405180910390a250565b60065481565b6105526107ce565b6101fe60006108b4565b6105646107ce565b6101fe610904565b6000546001600160a01b031690565b6003546001600160a01b031681565b60045481565b610598610889565b600081116105b85760405162461bcd60e51b815260040161028c90610c2f565b600354604051636eb1769f60e11b815282916001600160a01b03169063dd62ed3e906105ea9033903090600401610b9f565b60206040518083038186803b15801561060257600080fd5b505afa158015610616573d6000803e3d6000fd5b505050506040513d601f19601f8201168201806040525081019061063a9190610b73565b10156106585760405162461bcd60e51b815260040161028c90610def565b6003546040516323b872dd60e01b81526001600160a01b03909116906323b872dd9061068c90339030908690600401610bb9565b602060405180830381600087803b1580156106a657600080fd5b505af11580156106ba573d6000803e3d6000fd5b505050506040513d601f19601f820116820180604052508101906106de9190610b3b565b6106fa5760405162461bcd60e51b815260040161028c90610cba565b60055460045461070a9043610f0c565b1061071c57610717610942565b436004555b336001600160a01b03167f59062170a285eb80e8c6b8ced60428442a51910635005233fc4ce084a475845e826040516105399190610f03565b60025461010090046001600160a01b031681565b610771610889565b6005546004546107819043610f0c565b106101fe5761078e610942565b43600455565b61079c6107ce565b6001600160a01b0381166107c25760405162461bcd60e51b815260040161028c90610d70565b6107cb81610a76565b50565b6107d6610aad565b6001600160a01b03166107e761056c565b6001600160a01b0316146101fe5760405162461bcd60e51b815260040161028c90610d3b565b610815610ab1565b6002805460ff191690557f5db9ee0a495bf2e6ff9c91a7834c1ba4fdd244a5e8aa4e537bd38aeae4b073aa610848610aad565b6040516108559190610b8b565b60405180910390a1565b600260015414156108825760405162461bcd60e51b815260040161028c90610ecc565b6002600155565b610891610440565b156101fe5760405162461bcd60e51b815260040161028c90610d11565b60018055565b600080546001600160a01b038381166001600160a01b0319831681178455604051919092169283917f8be0079c531659141344cd1fd0a4f28419497f9722a3daafe3b4186f6b6457e09190a35050565b61090c610889565b6002805460ff191660011790557f62e78cea01bee320cd4e420270b5ea74000d11b0c9f74754ebdbfc544b05a258610848610aad565b6003546040516370a0823160e01b81526000916001600160a01b0316906370a0823190610973903090600401610b8b565b60206040518083038186803b15801561098b57600080fd5b505afa15801561099f573d6000803e3d6000fd5b505050506040513d601f19601f820116820180604052508101906109c39190610b73565b905080156107cb5760035460025460405163a9059cbb60e01b81526001600160a01b039283169263a9059cbb92610a0892610100909104909116908590600401610bdd565b602060405180830381600087803b158015610a2257600080fd5b505af1158015610a36573d6000803e3d6000fd5b505050506040513d601f19601f82011682018060405250810190610a5a9190610b3b565b6107cb5760405162461bcd60e51b815260040161028c90610e8b565b610a7e6107ce565b6001600160a01b038116610aa45760405162461bcd60e51b815260040161028c90610c74565b6107cb816108b4565b3390565b610ab9610440565b6101fe5760405162461bcd60e51b815260040161028c90610c01565b80356001600160a01b0381168114610aec57600080fd5b919050565b600060208284031215610b02578081fd5b610b0b82610ad5565b9392505050565b60008060408385031215610b24578081fd5b610b2d83610ad5565b946020939093013593505050565b600060208284031215610b4c578081fd5b81518015158114610b0b578182fd5b600060208284031215610b6c578081fd5b5035919050565b600060208284031215610b84578081fd5b5051919050565b6001600160a01b0391909116815260200190565b6001600160a01b0392831681529116602082015260400190565b6001600160a01b039384168152919092166020820152604081019190915260600190565b6001600160a01b03929092168252602082015260400190565b901515815260200190565b60208082526014908201527314185d5cd8589b194e881b9bdd081c185d5cd95960621b604082015260600190565b60208082526025908201527f4465706f73697420616d6f756e74206d75737420626520677265617465722074604082015264068616e20360dc1b606082015260800190565b60208082526026908201527f4f776e61626c653a206e6577206f776e657220697320746865207a65726f206160408201526564647265737360d01b606082015260800190565b6020808252600f908201526e151c985b9cd9995c8819985a5b1959608a1b604082015260600190565b602080825260149082015273496e73756666696369656e742062616c616e636560601b604082015260600190565b60208082526010908201526f14185d5cd8589b194e881c185d5cd95960821b604082015260600190565b6020808252818101527f4f776e61626c653a2063616c6c6572206973206e6f7420746865206f776e6572604082015260600190565b6020808252601d908201527f4e6577206f776e657220697320746865207a65726f2061646472657373000000604082015260600190565b60208082526028908201527f5769746864726177616c20616d6f756e74206d75737420626520677265617465604082015267072207468616e20360c41b606082015260800190565b6020808252601490820152734e6f7420656e6f75676820616c6c6f77616e636560601b604082015260600190565b60208082526019908201527f45786365656473206d6178696d756d20616c6c6f77616e636500000000000000604082015260600190565b6020808252601a908201527f496e76616c6964207769746864726177616c2061646472657373000000000000604082015260600190565b60208082526021908201527f5472616e7366657220746f204c697175696469747920506f6f6c206661696c656040820152601960fa1b606082015260800190565b6020808252601f908201527f5265656e7472616e637947756172643a207265656e7472616e742063616c6c00604082015260600190565b90815260200190565b600082821015610f2a57634e487b7160e01b81526011600452602481fd5b50039056fea26469706673582212207de8824fec26c490d5bf2ed44e48d4c1efc8ac8e46f9f727d5caa16d3db68d9964736f6c63430008000033",
					"opcodes": "PUSH1 0x80 PUSH1 0x40 MSTORE PUSH1 0xC8 PUSH1 0x5 SSTORE CALLVALUE DUP1 ISZERO PUSH3 0x16 JUMPI PUSH1 0x0 DUP1 REVERT JUMPDEST POP PUSH1 0x40 MLOAD PUSH3 0x1191 CODESIZE SUB DUP1 PUSH3 0x1191 DUP4 CODECOPY DUP2 ADD PUSH1 0x40 DUP2 SWAP1 MSTORE PUSH3 0x39 SWAP2 PUSH3 0x16E JUMP JUMPDEST PUSH3 0x4D PUSH3 0x47 PUSH3 0xFD JUMP JUMPDEST PUSH3 0x101 JUMP JUMPDEST PUSH1 0x1 DUP1 SSTORE PUSH1 0x2 DUP1 SLOAD PUSH1 0xFF NOT AND SWAP1 SSTORE PUSH1 0x1 PUSH1 0x1 PUSH1 0xA0 SHL SUB DUP4 AND PUSH3 0x8D JUMPI PUSH1 0x40 MLOAD PUSH3 0x461BCD PUSH1 0xE5 SHL DUP2 MSTORE PUSH1 0x4 ADD PUSH3 0x84 SWAP1 PUSH3 0x1E5 JUMP JUMPDEST PUSH1 0x40 MLOAD DUP1 SWAP2 SUB SWAP1 REVERT JUMPDEST PUSH1 0x1 PUSH1 0x1 PUSH1 0xA0 SHL SUB DUP3 AND PUSH3 0xB6 JUMPI PUSH1 0x40 MLOAD PUSH3 0x461BCD PUSH1 0xE5 SHL DUP2 MSTORE PUSH1 0x4 ADD PUSH3 0x84 SWAP1 PUSH3 0x1AE JUMP JUMPDEST PUSH1 0x2 DUP1 SLOAD PUSH2 0x100 PUSH1 0x1 PUSH1 0xA8 SHL SUB NOT AND PUSH2 0x100 PUSH1 0x1 PUSH1 0x1 PUSH1 0xA0 SHL SUB SWAP6 DUP7 AND MUL OR SWAP1 SSTORE PUSH1 0x3 DUP1 SLOAD PUSH1 0x1 PUSH1 0x1 PUSH1 0xA0 SHL SUB NOT AND SWAP3 SWAP1 SWAP4 AND SWAP2 SWAP1 SWAP2 OR SWAP1 SWAP2 SSTORE PUSH1 0x6 SSTORE NUMBER PUSH1 0x4 SSTORE PUSH3 0x21C JUMP JUMPDEST CALLER SWAP1 JUMP JUMPDEST PUSH1 0x0 DUP1 SLOAD PUSH1 0x1 PUSH1 0x1 PUSH1 0xA0 SHL SUB DUP4 DUP2 AND PUSH1 0x1 PUSH1 0x1 PUSH1 0xA0 SHL SUB NOT DUP4 AND DUP2 OR DUP5 SSTORE PUSH1 0x40 MLOAD SWAP2 SWAP1 SWAP3 AND SWAP3 DUP4 SWAP2 PUSH32 0x8BE0079C531659141344CD1FD0A4F28419497F9722A3DAAFE3B4186F6B6457E0 SWAP2 SWAP1 LOG3 POP POP JUMP JUMPDEST DUP1 MLOAD PUSH1 0x1 PUSH1 0x1 PUSH1 0xA0 SHL SUB DUP2 AND DUP2 EQ PUSH3 0x169 JUMPI PUSH1 0x0 DUP1 REVERT JUMPDEST SWAP2 SWAP1 POP JUMP JUMPDEST PUSH1 0x0 DUP1 PUSH1 0x0 PUSH1 0x60 DUP5 DUP7 SUB SLT ISZERO PUSH3 0x183 JUMPI DUP3 DUP4 REVERT JUMPDEST PUSH3 0x18E DUP5 PUSH3 0x151 JUMP JUMPDEST SWAP3 POP PUSH3 0x19E PUSH1 0x20 DUP6 ADD PUSH3 0x151 JUMP JUMPDEST SWAP2 POP PUSH1 0x40 DUP5 ADD MLOAD SWAP1 POP SWAP3 POP SWAP3 POP SWAP3 JUMP JUMPDEST PUSH1 0x20 DUP1 DUP3 MSTORE PUSH1 0x1D SWAP1 DUP3 ADD MSTORE PUSH32 0x496E76616C6964207772617070656420746F6B656E2061646472657373000000 PUSH1 0x40 DUP3 ADD MSTORE PUSH1 0x60 ADD SWAP1 JUMP JUMPDEST PUSH1 0x20 DUP1 DUP3 MSTORE PUSH1 0x1E SWAP1 DUP3 ADD MSTORE PUSH32 0x496E76616C6964204C697175696469747920506F6F6C20616464726573730000 PUSH1 0x40 DUP3 ADD MSTORE PUSH1 0x60 ADD SWAP1 JUMP JUMPDEST PUSH2 0xF65 DUP1 PUSH3 0x22C PUSH1 0x0 CODECOPY PUSH1 0x0 RETURN INVALID PUSH1 0x80 PUSH1 0x40 MSTORE CALLVALUE DUP1 ISZERO PUSH2 0x10 JUMPI PUSH1 0x0 DUP1 REVERT JUMPDEST POP PUSH1 0x4 CALLDATASIZE LT PUSH2 0x100 JUMPI PUSH1 0x0 CALLDATALOAD PUSH1 0xE0 SHR DUP1 PUSH4 0x8456CB59 GT PUSH2 0x97 JUMPI DUP1 PUSH4 0xC4DA9247 GT PUSH2 0x66 JUMPI DUP1 PUSH4 0xC4DA9247 EQ PUSH2 0x1B8 JUMPI DUP1 PUSH4 0xD25B17B6 EQ PUSH2 0x1CB JUMPI DUP1 PUSH4 0xDEE3B50F EQ PUSH2 0x1D3 JUMPI DUP1 PUSH4 0xF2FDE38B EQ PUSH2 0x1DB JUMPI PUSH2 0x100 JUMP JUMPDEST DUP1 PUSH4 0x8456CB59 EQ PUSH2 0x18B JUMPI DUP1 PUSH4 0x8DA5CB5B EQ PUSH2 0x193 JUMPI DUP1 PUSH4 0x996C6CC3 EQ PUSH2 0x1A8 JUMPI DUP1 PUSH4 0xBB413C8D EQ PUSH2 0x1B0 JUMPI PUSH2 0x100 JUMP JUMPDEST DUP1 PUSH4 0x5C975ABB GT PUSH2 0xD3 JUMPI DUP1 PUSH4 0x5C975ABB EQ PUSH2 0x153 JUMPI DUP1 PUSH4 0x62C35C01 EQ PUSH2 0x168 JUMPI DUP1 PUSH4 0x64F00F01 EQ PUSH2 0x17B JUMPI DUP1 PUSH4 0x715018A6 EQ PUSH2 0x183 JUMPI PUSH2 0x100 JUMP JUMPDEST DUP1 PUSH4 0x3F4BA83A EQ PUSH2 0x105 JUMPI DUP1 PUSH4 0x4ABB3FAC EQ PUSH2 0x10F JUMPI DUP1 PUSH4 0x56D96A99 EQ PUSH2 0x12D JUMPI DUP1 PUSH4 0x5A6B26BA EQ PUSH2 0x140 JUMPI JUMPDEST PUSH1 0x0 DUP1 REVERT JUMPDEST PUSH2 0x10D PUSH2 0x1EE JUMP JUMPDEST STOP JUMPDEST PUSH2 0x117 PUSH2 0x200 JUMP JUMPDEST PUSH1 0x40 MLOAD PUSH2 0x124 SWAP2 SWAP1 PUSH2 0xF03 JUMP JUMPDEST PUSH1 0x40 MLOAD DUP1 SWAP2 SUB SWAP1 RETURN JUMPDEST PUSH2 0x10D PUSH2 0x13B CALLDATASIZE PUSH1 0x4 PUSH2 0xB5B JUMP JUMPDEST PUSH2 0x206 JUMP JUMPDEST PUSH2 0x10D PUSH2 0x14E CALLDATASIZE PUSH1 0x4 PUSH2 0xB12 JUMP JUMPDEST PUSH2 0x24E JUMP JUMPDEST PUSH2 0x15B PUSH2 0x440 JUMP JUMPDEST PUSH1 0x40 MLOAD PUSH2 0x124 SWAP2 SWAP1 PUSH2 0xBF6 JUMP JUMPDEST PUSH2 0x10D PUSH2 0x176 CALLDATASIZE PUSH1 0x4 PUSH2 0xB5B JUMP JUMPDEST PUSH2 0x449 JUMP JUMPDEST PUSH2 0x117 PUSH2 0x544 JUMP JUMPDEST PUSH2 0x10D PUSH2 0x54A JUMP JUMPDEST PUSH2 0x10D PUSH2 0x55C JUMP JUMPDEST PUSH2 0x19B PUSH2 0x56C JUMP JUMPDEST PUSH1 0x40 MLOAD PUSH2 0x124 SWAP2 SWAP1 PUSH2 0xB8B JUMP JUMPDEST PUSH2 0x19B PUSH2 0x57B JUMP JUMPDEST PUSH2 0x117 PUSH2 0x58A JUMP JUMPDEST PUSH2 0x10D PUSH2 0x1C6 CALLDATASIZE PUSH1 0x4 PUSH2 0xB5B JUMP JUMPDEST PUSH2 0x590 JUMP JUMPDEST PUSH2 0x19B PUSH2 0x755 JUMP JUMPDEST PUSH2 0x10D PUSH2 0x769 JUMP JUMPDEST PUSH2 0x10D PUSH2 0x1E9 CALLDATASIZE PUSH1 0x4 PUSH2 0xAF1 JUMP JUMPDEST PUSH2 0x794 JUMP JUMPDEST PUSH2 0x1F6 PUSH2 0x7CE JUMP JUMPDEST PUSH2 0x1FE PUSH2 0x80D JUMP JUMPDEST JUMP JUMPDEST PUSH1 0x5 SLOAD DUP2 JUMP JUMPDEST PUSH2 0x20E PUSH2 0x7CE JUMP JUMPDEST PUSH1 0x6 DUP2 SWAP1 SSTORE PUSH1 0x40 MLOAD PUSH32 0x3A25092A4D85E75D6B227FD7CC0F982FB0FBBE013DB22C0F7C75112E523A4DF1 SWAP1 PUSH2 0x243 SWAP1 DUP4 SWAP1 PUSH2 0xF03 JUMP JUMPDEST PUSH1 0x40 MLOAD DUP1 SWAP2 SUB SWAP1 LOG1 POP JUMP JUMPDEST PUSH2 0x256 PUSH2 0x7CE JUMP JUMPDEST PUSH2 0x25E PUSH2 0x85F JUMP JUMPDEST PUSH2 0x266 PUSH2 0x889 JUMP JUMPDEST PUSH1 0x1 PUSH1 0x1 PUSH1 0xA0 SHL SUB DUP3 AND PUSH2 0x295 JUMPI PUSH1 0x40 MLOAD PUSH3 0x461BCD PUSH1 0xE5 SHL DUP2 MSTORE PUSH1 0x4 ADD PUSH2 0x28C SWAP1 PUSH2 0xE54 JUMP JUMPDEST PUSH1 0x40 MLOAD DUP1 SWAP2 SUB SWAP1 REVERT JUMPDEST PUSH1 0x0 DUP2 GT PUSH2 0x2B5 JUMPI PUSH1 0x40 MLOAD PUSH3 0x461BCD PUSH1 0xE5 SHL DUP2 MSTORE PUSH1 0x4 ADD PUSH2 0x28C SWAP1 PUSH2 0xDA7 JUMP JUMPDEST PUSH1 0x3 SLOAD PUSH1 0x40 MLOAD PUSH4 0x70A08231 PUSH1 0xE0 SHL DUP2 MSTORE DUP3 SWAP2 PUSH1 0x1 PUSH1 0x1 PUSH1 0xA0 SHL SUB AND SWAP1 PUSH4 0x70A08231 SWAP1 PUSH2 0x2E5 SWAP1 ADDRESS SWAP1 PUSH1 0x4 ADD PUSH2 0xB8B JUMP JUMPDEST PUSH1 0x20 PUSH1 0x40 MLOAD DUP1 DUP4 SUB DUP2 DUP7 DUP1 EXTCODESIZE ISZERO DUP1 ISZERO PUSH2 0x2FD JUMPI PUSH1 0x0 DUP1 REVERT JUMPDEST POP GAS STATICCALL ISZERO DUP1 ISZERO PUSH2 0x311 JUMPI RETURNDATASIZE PUSH1 0x0 DUP1 RETURNDATACOPY RETURNDATASIZE PUSH1 0x0 REVERT JUMPDEST POP POP POP POP PUSH1 0x40 MLOAD RETURNDATASIZE PUSH1 0x1F NOT PUSH1 0x1F DUP3 ADD AND DUP3 ADD DUP1 PUSH1 0x40 MSTORE POP DUP2 ADD SWAP1 PUSH2 0x335 SWAP2 SWAP1 PUSH2 0xB73 JUMP JUMPDEST LT ISZERO PUSH2 0x353 JUMPI PUSH1 0x40 MLOAD PUSH3 0x461BCD PUSH1 0xE5 SHL DUP2 MSTORE PUSH1 0x4 ADD PUSH2 0x28C SWAP1 PUSH2 0xCE3 JUMP JUMPDEST PUSH1 0x3 SLOAD PUSH1 0x40 MLOAD PUSH4 0xA9059CBB PUSH1 0xE0 SHL DUP2 MSTORE PUSH1 0x1 PUSH1 0x1 PUSH1 0xA0 SHL SUB SWAP1 SWAP2 AND SWAP1 PUSH4 0xA9059CBB SWAP1 PUSH2 0x385 SWAP1 DUP6 SWAP1 DUP6 SWAP1 PUSH1 0x4 ADD PUSH2 0xBDD JUMP JUMPDEST PUSH1 0x20 PUSH1 0x40 MLOAD DUP1 DUP4 SUB DUP2 PUSH1 0x0 DUP8 DUP1 EXTCODESIZE ISZERO DUP1 ISZERO PUSH2 0x39F JUMPI PUSH1 0x0 DUP1 REVERT JUMPDEST POP GAS CALL ISZERO DUP1 ISZERO PUSH2 0x3B3 JUMPI RETURNDATASIZE PUSH1 0x0 DUP1 RETURNDATACOPY RETURNDATASIZE PUSH1 0x0 REVERT JUMPDEST POP POP POP POP PUSH1 0x40 MLOAD RETURNDATASIZE PUSH1 0x1F NOT PUSH1 0x1F DUP3 ADD AND DUP3 ADD DUP1 PUSH1 0x40 MSTORE POP DUP2 ADD SWAP1 PUSH2 0x3D7 SWAP2 SWAP1 PUSH2 0xB3B JUMP JUMPDEST PUSH2 0x3F3 JUMPI PUSH1 0x40 MLOAD PUSH3 0x461BCD PUSH1 0xE5 SHL DUP2 MSTORE PUSH1 0x4 ADD PUSH2 0x28C SWAP1 PUSH2 0xCBA JUMP JUMPDEST DUP2 PUSH1 0x1 PUSH1 0x1 PUSH1 0xA0 SHL SUB AND PUSH32 0x6352C5382C4A4578E712449CA65E83CDB392D045DFCF1CAD9615189DB2DA244B DUP3 PUSH1 0x40 MLOAD PUSH2 0x42C SWAP2 SWAP1 PUSH2 0xF03 JUMP JUMPDEST PUSH1 0x40 MLOAD DUP1 SWAP2 SUB SWAP1 LOG2 PUSH2 0x43C PUSH2 0x8AE JUMP JUMPDEST POP POP JUMP JUMPDEST PUSH1 0x2 SLOAD PUSH1 0xFF AND SWAP1 JUMP JUMPDEST PUSH2 0x451 PUSH2 0x7CE JUMP JUMPDEST PUSH2 0x459 PUSH2 0x889 JUMP JUMPDEST PUSH1 0x6 SLOAD DUP2 GT ISZERO PUSH2 0x47B JUMPI PUSH1 0x40 MLOAD PUSH3 0x461BCD PUSH1 0xE5 SHL DUP2 MSTORE PUSH1 0x4 ADD PUSH2 0x28C SWAP1 PUSH2 0xE1D JUMP JUMPDEST PUSH1 0x3 SLOAD PUSH1 0x40 MLOAD PUSH4 0x95EA7B3 PUSH1 0xE0 SHL DUP2 MSTORE PUSH1 0x1 PUSH1 0x1 PUSH1 0xA0 SHL SUB SWAP1 SWAP2 AND SWAP1 PUSH4 0x95EA7B3 SWAP1 PUSH2 0x4AD SWAP1 ADDRESS SWAP1 DUP6 SWAP1 PUSH1 0x4 ADD PUSH2 0xBDD JUMP JUMPDEST PUSH1 0x20 PUSH1 0x40 MLOAD DUP1 DUP4 SUB DUP2 PUSH1 0x0 DUP8 DUP1 EXTCODESIZE ISZERO DUP1 ISZERO PUSH2 0x4C7 JUMPI PUSH1 0x0 DUP1 REVERT JUMPDEST POP GAS CALL ISZERO DUP1 ISZERO PUSH2 0x4DB JUMPI RETURNDATASIZE PUSH1 0x0 DUP1 RETURNDATACOPY RETURNDATASIZE PUSH1 0x0 REVERT JUMPDEST POP POP POP POP PUSH1 0x40 MLOAD RETURNDATASIZE PUSH1 0x1F NOT PUSH1 0x1F DUP3 ADD AND DUP3 ADD DUP1 PUSH1 0x40 MSTORE POP DUP2 ADD SWAP1 PUSH2 0x4FF SWAP2 SWAP1 PUSH2 0xB3B JUMP JUMPDEST POP CALLER PUSH1 0x1 PUSH1 0x1 PUSH1 0xA0 SHL SUB AND PUSH32 0x5F327DFBC26B4773C8990EDBC20356F43975E2A38466359FAD3BD2B77DEE2433 DUP3 PUSH1 0x40 MLOAD PUSH2 0x539 SWAP2 SWAP1 PUSH2 0xF03 JUMP JUMPDEST PUSH1 0x40 MLOAD DUP1 SWAP2 SUB SWAP1 LOG2 POP JUMP JUMPDEST PUSH1 0x6 SLOAD DUP2 JUMP JUMPDEST PUSH2 0x552 PUSH2 0x7CE JUMP JUMPDEST PUSH2 0x1FE PUSH1 0x0 PUSH2 0x8B4 JUMP JUMPDEST PUSH2 0x564 PUSH2 0x7CE JUMP JUMPDEST PUSH2 0x1FE PUSH2 0x904 JUMP JUMPDEST PUSH1 0x0 SLOAD PUSH1 0x1 PUSH1 0x1 PUSH1 0xA0 SHL SUB AND SWAP1 JUMP JUMPDEST PUSH1 0x3 SLOAD PUSH1 0x1 PUSH1 0x1 PUSH1 0xA0 SHL SUB AND DUP2 JUMP JUMPDEST PUSH1 0x4 SLOAD DUP2 JUMP JUMPDEST PUSH2 0x598 PUSH2 0x889 JUMP JUMPDEST PUSH1 0x0 DUP2 GT PUSH2 0x5B8 JUMPI PUSH1 0x40 MLOAD PUSH3 0x461BCD PUSH1 0xE5 SHL DUP2 MSTORE PUSH1 0x4 ADD PUSH2 0x28C SWAP1 PUSH2 0xC2F JUMP JUMPDEST PUSH1 0x3 SLOAD PUSH1 0x40 MLOAD PUSH4 0x6EB1769F PUSH1 0xE1 SHL DUP2 MSTORE DUP3 SWAP2 PUSH1 0x1 PUSH1 0x1 PUSH1 0xA0 SHL SUB AND SWAP1 PUSH4 0xDD62ED3E SWAP1 PUSH2 0x5EA SWAP1 CALLER SWAP1 ADDRESS SWAP1 PUSH1 0x4 ADD PUSH2 0xB9F JUMP JUMPDEST PUSH1 0x20 PUSH1 0x40 MLOAD DUP1 DUP4 SUB DUP2 DUP7 DUP1 EXTCODESIZE ISZERO DUP1 ISZERO PUSH2 0x602 JUMPI PUSH1 0x0 DUP1 REVERT JUMPDEST POP GAS STATICCALL ISZERO DUP1 ISZERO PUSH2 0x616 JUMPI RETURNDATASIZE PUSH1 0x0 DUP1 RETURNDATACOPY RETURNDATASIZE PUSH1 0x0 REVERT JUMPDEST POP POP POP POP PUSH1 0x40 MLOAD RETURNDATASIZE PUSH1 0x1F NOT PUSH1 0x1F DUP3 ADD AND DUP3 ADD DUP1 PUSH1 0x40 MSTORE POP DUP2 ADD SWAP1 PUSH2 0x63A SWAP2 SWAP1 PUSH2 0xB73 JUMP JUMPDEST LT ISZERO PUSH2 0x658 JUMPI PUSH1 0x40 MLOAD PUSH3 0x461BCD PUSH1 0xE5 SHL DUP2 MSTORE PUSH1 0x4 ADD PUSH2 0x28C SWAP1 PUSH2 0xDEF JUMP JUMPDEST PUSH1 0x3 SLOAD PUSH1 0x40 MLOAD PUSH4 0x23B872DD PUSH1 0xE0 SHL DUP2 MSTORE PUSH1 0x1 PUSH1 0x1 PUSH1 0xA0 SHL SUB SWAP1 SWAP2 AND SWAP1 PUSH4 0x23B872DD SWAP1 PUSH2 0x68C SWAP1 CALLER SWAP1 ADDRESS SWAP1 DUP7 SWAP1 PUSH1 0x4 ADD PUSH2 0xBB9 JUMP JUMPDEST PUSH1 0x20 PUSH1 0x40 MLOAD DUP1 DUP4 SUB DUP2 PUSH1 0x0 DUP8 DUP1 EXTCODESIZE ISZERO DUP1 ISZERO PUSH2 0x6A6 JUMPI PUSH1 0x0 DUP1 REVERT JUMPDEST POP GAS CALL ISZERO DUP1 ISZERO PUSH2 0x6BA JUMPI RETURNDATASIZE PUSH1 0x0 DUP1 RETURNDATACOPY RETURNDATASIZE PUSH1 0x0 REVERT JUMPDEST POP POP POP POP PUSH1 0x40 MLOAD RETURNDATASIZE PUSH1 0x1F NOT PUSH1 0x1F DUP3 ADD AND DUP3 ADD DUP1 PUSH1 0x40 MSTORE POP DUP2 ADD SWAP1 PUSH2 0x6DE SWAP2 SWAP1 PUSH2 0xB3B JUMP JUMPDEST PUSH2 0x6FA JUMPI PUSH1 0x40 MLOAD PUSH3 0x461BCD PUSH1 0xE5 SHL DUP2 MSTORE PUSH1 0x4 ADD PUSH2 0x28C SWAP1 PUSH2 0xCBA JUMP JUMPDEST PUSH1 0x5 SLOAD PUSH1 0x4 SLOAD PUSH2 0x70A SWAP1 NUMBER PUSH2 0xF0C JUMP JUMPDEST LT PUSH2 0x71C JUMPI PUSH2 0x717 PUSH2 0x942 JUMP JUMPDEST NUMBER PUSH1 0x4 SSTORE JUMPDEST CALLER PUSH1 0x1 PUSH1 0x1 PUSH1 0xA0 SHL SUB AND PUSH32 0x59062170A285EB80E8C6B8CED60428442A51910635005233FC4CE084A475845E DUP3 PUSH1 0x40 MLOAD PUSH2 0x539 SWAP2 SWAP1 PUSH2 0xF03 JUMP JUMPDEST PUSH1 0x2 SLOAD PUSH2 0x100 SWAP1 DIV PUSH1 0x1 PUSH1 0x1 PUSH1 0xA0 SHL SUB AND DUP2 JUMP JUMPDEST PUSH2 0x771 PUSH2 0x889 JUMP JUMPDEST PUSH1 0x5 SLOAD PUSH1 0x4 SLOAD PUSH2 0x781 SWAP1 NUMBER PUSH2 0xF0C JUMP JUMPDEST LT PUSH2 0x1FE JUMPI PUSH2 0x78E PUSH2 0x942 JUMP JUMPDEST NUMBER PUSH1 0x4 SSTORE JUMP JUMPDEST PUSH2 0x79C PUSH2 0x7CE JUMP JUMPDEST PUSH1 0x1 PUSH1 0x1 PUSH1 0xA0 SHL SUB DUP2 AND PUSH2 0x7C2 JUMPI PUSH1 0x40 MLOAD PUSH3 0x461BCD PUSH1 0xE5 SHL DUP2 MSTORE PUSH1 0x4 ADD PUSH2 0x28C SWAP1 PUSH2 0xD70 JUMP JUMPDEST PUSH2 0x7CB DUP2 PUSH2 0xA76 JUMP JUMPDEST POP JUMP JUMPDEST PUSH2 0x7D6 PUSH2 0xAAD JUMP JUMPDEST PUSH1 0x1 PUSH1 0x1 PUSH1 0xA0 SHL SUB AND PUSH2 0x7E7 PUSH2 0x56C JUMP JUMPDEST PUSH1 0x1 PUSH1 0x1 PUSH1 0xA0 SHL SUB AND EQ PUSH2 0x1FE JUMPI PUSH1 0x40 MLOAD PUSH3 0x461BCD PUSH1 0xE5 SHL DUP2 MSTORE PUSH1 0x4 ADD PUSH2 0x28C SWAP1 PUSH2 0xD3B JUMP JUMPDEST PUSH2 0x815 PUSH2 0xAB1 JUMP JUMPDEST PUSH1 0x2 DUP1 SLOAD PUSH1 0xFF NOT AND SWAP1 SSTORE PUSH32 0x5DB9EE0A495BF2E6FF9C91A7834C1BA4FDD244A5E8AA4E537BD38AEAE4B073AA PUSH2 0x848 PUSH2 0xAAD JUMP JUMPDEST PUSH1 0x40 MLOAD PUSH2 0x855 SWAP2 SWAP1 PUSH2 0xB8B JUMP JUMPDEST PUSH1 0x40 MLOAD DUP1 SWAP2 SUB SWAP1 LOG1 JUMP JUMPDEST PUSH1 0x2 PUSH1 0x1 SLOAD EQ ISZERO PUSH2 0x882 JUMPI PUSH1 0x40 MLOAD PUSH3 0x461BCD PUSH1 0xE5 SHL DUP2 MSTORE PUSH1 0x4 ADD PUSH2 0x28C SWAP1 PUSH2 0xECC JUMP JUMPDEST PUSH1 0x2 PUSH1 0x1 SSTORE JUMP JUMPDEST PUSH2 0x891 PUSH2 0x440 JUMP JUMPDEST ISZERO PUSH2 0x1FE JUMPI PUSH1 0x40 MLOAD PUSH3 0x461BCD PUSH1 0xE5 SHL DUP2 MSTORE PUSH1 0x4 ADD PUSH2 0x28C SWAP1 PUSH2 0xD11 JUMP JUMPDEST PUSH1 0x1 DUP1 SSTORE JUMP JUMPDEST PUSH1 0x0 DUP1 SLOAD PUSH1 0x1 PUSH1 0x1 PUSH1 0xA0 SHL SUB DUP4 DUP2 AND PUSH1 0x1 PUSH1 0x1 PUSH1 0xA0 SHL SUB NOT DUP4 AND DUP2 OR DUP5 SSTORE PUSH1 0x40 MLOAD SWAP2 SWAP1 SWAP3 AND SWAP3 DUP4 SWAP2 PUSH32 0x8BE0079C531659141344CD1FD0A4F28419497F9722A3DAAFE3B4186F6B6457E0 SWAP2 SWAP1 LOG3 POP POP JUMP JUMPDEST PUSH2 0x90C PUSH2 0x889 JUMP JUMPDEST PUSH1 0x2 DUP1 SLOAD PUSH1 0xFF NOT AND PUSH1 0x1 OR SWAP1 SSTORE PUSH32 0x62E78CEA01BEE320CD4E420270B5EA74000D11B0C9F74754EBDBFC544B05A258 PUSH2 0x848 PUSH2 0xAAD JUMP JUMPDEST PUSH1 0x3 SLOAD PUSH1 0x40 MLOAD PUSH4 0x70A08231 PUSH1 0xE0 SHL DUP2 MSTORE PUSH1 0x0 SWAP2 PUSH1 0x1 PUSH1 0x1 PUSH1 0xA0 SHL SUB AND SWAP1 PUSH4 0x70A08231 SWAP1 PUSH2 0x973 SWAP1 ADDRESS SWAP1 PUSH1 0x4 ADD PUSH2 0xB8B JUMP JUMPDEST PUSH1 0x20 PUSH1 0x40 MLOAD DUP1 DUP4 SUB DUP2 DUP7 DUP1 EXTCODESIZE ISZERO DUP1 ISZERO PUSH2 0x98B JUMPI PUSH1 0x0 DUP1 REVERT JUMPDEST POP GAS STATICCALL ISZERO DUP1 ISZERO PUSH2 0x99F JUMPI RETURNDATASIZE PUSH1 0x0 DUP1 RETURNDATACOPY RETURNDATASIZE PUSH1 0x0 REVERT JUMPDEST POP POP POP POP PUSH1 0x40 MLOAD RETURNDATASIZE PUSH1 0x1F NOT PUSH1 0x1F DUP3 ADD AND DUP3 ADD DUP1 PUSH1 0x40 MSTORE POP DUP2 ADD SWAP1 PUSH2 0x9C3 SWAP2 SWAP1 PUSH2 0xB73 JUMP JUMPDEST SWAP1 POP DUP1 ISZERO PUSH2 0x7CB JUMPI PUSH1 0x3 SLOAD PUSH1 0x2 SLOAD PUSH1 0x40 MLOAD PUSH4 0xA9059CBB PUSH1 0xE0 SHL DUP2 MSTORE PUSH1 0x1 PUSH1 0x1 PUSH1 0xA0 SHL SUB SWAP3 DUP4 AND SWAP3 PUSH4 0xA9059CBB SWAP3 PUSH2 0xA08 SWAP3 PUSH2 0x100 SWAP1 SWAP2 DIV SWAP1 SWAP2 AND SWAP1 DUP6 SWAP1 PUSH1 0x4 ADD PUSH2 0xBDD JUMP JUMPDEST PUSH1 0x20 PUSH1 0x40 MLOAD DUP1 DUP4 SUB DUP2 PUSH1 0x0 DUP8 DUP1 EXTCODESIZE ISZERO DUP1 ISZERO PUSH2 0xA22 JUMPI PUSH1 0x0 DUP1 REVERT JUMPDEST POP GAS CALL ISZERO DUP1 ISZERO PUSH2 0xA36 JUMPI RETURNDATASIZE PUSH1 0x0 DUP1 RETURNDATACOPY RETURNDATASIZE PUSH1 0x0 REVERT JUMPDEST POP POP POP POP PUSH1 0x40 MLOAD RETURNDATASIZE PUSH1 0x1F NOT PUSH1 0x1F DUP3 ADD AND DUP3 ADD DUP1 PUSH1 0x40 MSTORE POP DUP2 ADD SWAP1 PUSH2 0xA5A SWAP2 SWAP1 PUSH2 0xB3B JUMP JUMPDEST PUSH2 0x7CB JUMPI PUSH1 0x40 MLOAD PUSH3 0x461BCD PUSH1 0xE5 SHL DUP2 MSTORE PUSH1 0x4 ADD PUSH2 0x28C SWAP1 PUSH2 0xE8B JUMP JUMPDEST PUSH2 0xA7E PUSH2 0x7CE JUMP JUMPDEST PUSH1 0x1 PUSH1 0x1 PUSH1 0xA0 SHL SUB DUP2 AND PUSH2 0xAA4 JUMPI PUSH1 0x40 MLOAD PUSH3 0x461BCD PUSH1 0xE5 SHL DUP2 MSTORE PUSH1 0x4 ADD PUSH2 0x28C SWAP1 PUSH2 0xC74 JUMP JUMPDEST PUSH2 0x7CB DUP2 PUSH2 0x8B4 JUMP JUMPDEST CALLER SWAP1 JUMP JUMPDEST PUSH2 0xAB9 PUSH2 0x440 JUMP JUMPDEST PUSH2 0x1FE JUMPI PUSH1 0x40 MLOAD PUSH3 0x461BCD PUSH1 0xE5 SHL DUP2 MSTORE PUSH1 0x4 ADD PUSH2 0x28C SWAP1 PUSH2 0xC01 JUMP JUMPDEST DUP1 CALLDATALOAD PUSH1 0x1 PUSH1 0x1 PUSH1 0xA0 SHL SUB DUP2 AND DUP2 EQ PUSH2 0xAEC JUMPI PUSH1 0x0 DUP1 REVERT JUMPDEST SWAP2 SWAP1 POP JUMP JUMPDEST PUSH1 0x0 PUSH1 0x20 DUP3 DUP5 SUB SLT ISZERO PUSH2 0xB02 JUMPI DUP1 DUP2 REVERT JUMPDEST PUSH2 0xB0B DUP3 PUSH2 0xAD5 JUMP JUMPDEST SWAP4 SWAP3 POP POP POP JUMP JUMPDEST PUSH1 0x0 DUP1 PUSH1 0x40 DUP4 DUP6 SUB SLT ISZERO PUSH2 0xB24 JUMPI DUP1 DUP2 REVERT JUMPDEST PUSH2 0xB2D DUP4 PUSH2 0xAD5 JUMP JUMPDEST SWAP5 PUSH1 0x20 SWAP4 SWAP1 SWAP4 ADD CALLDATALOAD SWAP4 POP POP POP JUMP JUMPDEST PUSH1 0x0 PUSH1 0x20 DUP3 DUP5 SUB SLT ISZERO PUSH2 0xB4C JUMPI DUP1 DUP2 REVERT JUMPDEST DUP2 MLOAD DUP1 ISZERO ISZERO DUP2 EQ PUSH2 0xB0B JUMPI DUP2 DUP3 REVERT JUMPDEST PUSH1 0x0 PUSH1 0x20 DUP3 DUP5 SUB SLT ISZERO PUSH2 0xB6C JUMPI DUP1 DUP2 REVERT JUMPDEST POP CALLDATALOAD SWAP2 SWAP1 POP JUMP JUMPDEST PUSH1 0x0 PUSH1 0x20 DUP3 DUP5 SUB SLT ISZERO PUSH2 0xB84 JUMPI DUP1 DUP2 REVERT JUMPDEST POP MLOAD SWAP2 SWAP1 POP JUMP JUMPDEST PUSH1 0x1 PUSH1 0x1 PUSH1 0xA0 SHL SUB SWAP2 SWAP1 SWAP2 AND DUP2 MSTORE PUSH1 0x20 ADD SWAP1 JUMP JUMPDEST PUSH1 0x1 PUSH1 0x1 PUSH1 0xA0 SHL SUB SWAP3 DUP4 AND DUP2 MSTORE SWAP2 AND PUSH1 0x20 DUP3 ADD MSTORE PUSH1 0x40 ADD SWAP1 JUMP JUMPDEST PUSH1 0x1 PUSH1 0x1 PUSH1 0xA0 SHL SUB SWAP4 DUP5 AND DUP2 MSTORE SWAP2 SWAP1 SWAP3 AND PUSH1 0x20 DUP3 ADD MSTORE PUSH1 0x40 DUP2 ADD SWAP2 SWAP1 SWAP2 MSTORE PUSH1 0x60 ADD SWAP1 JUMP JUMPDEST PUSH1 0x1 PUSH1 0x1 PUSH1 0xA0 SHL SUB SWAP3 SWAP1 SWAP3 AND DUP3 MSTORE PUSH1 0x20 DUP3 ADD MSTORE PUSH1 0x40 ADD SWAP1 JUMP JUMPDEST SWAP1 ISZERO ISZERO DUP2 MSTORE PUSH1 0x20 ADD SWAP1 JUMP JUMPDEST PUSH1 0x20 DUP1 DUP3 MSTORE PUSH1 0x14 SWAP1 DUP3 ADD MSTORE PUSH20 0x14185D5CD8589B194E881B9BDD081C185D5CD959 PUSH1 0x62 SHL PUSH1 0x40 DUP3 ADD MSTORE PUSH1 0x60 ADD SWAP1 JUMP JUMPDEST PUSH1 0x20 DUP1 DUP3 MSTORE PUSH1 0x25 SWAP1 DUP3 ADD MSTORE PUSH32 0x4465706F73697420616D6F756E74206D75737420626520677265617465722074 PUSH1 0x40 DUP3 ADD MSTORE PUSH5 0x68616E203 PUSH1 0xDC SHL PUSH1 0x60 DUP3 ADD MSTORE PUSH1 0x80 ADD SWAP1 JUMP JUMPDEST PUSH1 0x20 DUP1 DUP3 MSTORE PUSH1 0x26 SWAP1 DUP3 ADD MSTORE PUSH32 0x4F776E61626C653A206E6577206F776E657220697320746865207A65726F2061 PUSH1 0x40 DUP3 ADD MSTORE PUSH6 0x646472657373 PUSH1 0xD0 SHL PUSH1 0x60 DUP3 ADD MSTORE PUSH1 0x80 ADD SWAP1 JUMP JUMPDEST PUSH1 0x20 DUP1 DUP3 MSTORE PUSH1 0xF SWAP1 DUP3 ADD MSTORE PUSH15 0x151C985B9CD9995C8819985A5B1959 PUSH1 0x8A SHL PUSH1 0x40 DUP3 ADD MSTORE PUSH1 0x60 ADD SWAP1 JUMP JUMPDEST PUSH1 0x20 DUP1 DUP3 MSTORE PUSH1 0x14 SWAP1 DUP3 ADD MSTORE PUSH20 0x496E73756666696369656E742062616C616E6365 PUSH1 0x60 SHL PUSH1 0x40 DUP3 ADD MSTORE PUSH1 0x60 ADD SWAP1 JUMP JUMPDEST PUSH1 0x20 DUP1 DUP3 MSTORE PUSH1 0x10 SWAP1 DUP3 ADD MSTORE PUSH16 0x14185D5CD8589B194E881C185D5CD959 PUSH1 0x82 SHL PUSH1 0x40 DUP3 ADD MSTORE PUSH1 0x60 ADD SWAP1 JUMP JUMPDEST PUSH1 0x20 DUP1 DUP3 MSTORE DUP2 DUP2 ADD MSTORE PUSH32 0x4F776E61626C653A2063616C6C6572206973206E6F7420746865206F776E6572 PUSH1 0x40 DUP3 ADD MSTORE PUSH1 0x60 ADD SWAP1 JUMP JUMPDEST PUSH1 0x20 DUP1 DUP3 MSTORE PUSH1 0x1D SWAP1 DUP3 ADD MSTORE PUSH32 0x4E6577206F776E657220697320746865207A65726F2061646472657373000000 PUSH1 0x40 DUP3 ADD MSTORE PUSH1 0x60 ADD SWAP1 JUMP JUMPDEST PUSH1 0x20 DUP1 DUP3 MSTORE PUSH1 0x28 SWAP1 DUP3 ADD MSTORE PUSH32 0x5769746864726177616C20616D6F756E74206D75737420626520677265617465 PUSH1 0x40 DUP3 ADD MSTORE PUSH8 0x72207468616E203 PUSH1 0xC4 SHL PUSH1 0x60 DUP3 ADD MSTORE PUSH1 0x80 ADD SWAP1 JUMP JUMPDEST PUSH1 0x20 DUP1 DUP3 MSTORE PUSH1 0x14 SWAP1 DUP3 ADD MSTORE PUSH20 0x4E6F7420656E6F75676820616C6C6F77616E6365 PUSH1 0x60 SHL PUSH1 0x40 DUP3 ADD MSTORE PUSH1 0x60 ADD SWAP1 JUMP JUMPDEST PUSH1 0x20 DUP1 DUP3 MSTORE PUSH1 0x19 SWAP1 DUP3 ADD MSTORE PUSH32 0x45786365656473206D6178696D756D20616C6C6F77616E636500000000000000 PUSH1 0x40 DUP3 ADD MSTORE PUSH1 0x60 ADD SWAP1 JUMP JUMPDEST PUSH1 0x20 DUP1 DUP3 MSTORE PUSH1 0x1A SWAP1 DUP3 ADD MSTORE PUSH32 0x496E76616C6964207769746864726177616C2061646472657373000000000000 PUSH1 0x40 DUP3 ADD MSTORE PUSH1 0x60 ADD SWAP1 JUMP JUMPDEST PUSH1 0x20 DUP1 DUP3 MSTORE PUSH1 0x21 SWAP1 DUP3 ADD MSTORE PUSH32 0x5472616E7366657220746F204C697175696469747920506F6F6C206661696C65 PUSH1 0x40 DUP3 ADD MSTORE PUSH1 0x19 PUSH1 0xFA SHL PUSH1 0x60 DUP3 ADD MSTORE PUSH1 0x80 ADD SWAP1 JUMP JUMPDEST PUSH1 0x20 DUP1 DUP3 MSTORE PUSH1 0x1F SWAP1 DUP3 ADD MSTORE PUSH32 0x5265656E7472616E637947756172643A207265656E7472616E742063616C6C00 PUSH1 0x40 DUP3 ADD MSTORE PUSH1 0x60 ADD SWAP1 JUMP JUMPDEST SWAP1 DUP2 MSTORE PUSH1 0x20 ADD SWAP1 JUMP JUMPDEST PUSH1 0x0 DUP3 DUP3 LT ISZERO PUSH2 0xF2A JUMPI PUSH4 0x4E487B71 PUSH1 0xE0 SHL DUP2 MSTORE PUSH1 0x11 PUSH1 0x4 MSTORE PUSH1 0x24 DUP2 REVERT JUMPDEST POP SUB SWAP1 JUMP INVALID LOG2 PUSH5 0x6970667358 0x22 SLT KECCAK256 PUSH30 0xE8824FEC26C490D5BF2ED44E48D4C1EFC8AC8E46F9F727D5CAA16D3DB68D SWAP10 PUSH5 0x736F6C6343 STOP ADDMOD STOP STOP CALLER "
				},
				"gasEstimates": {
					"creation": {
						"codeDepositCost": "788200",
						"executionCost": "infinite",
						"totalCost": "infinite"
					},
					"external": {
						"approveContract(uint256)": "infinite",
						"automatedWithdrawalToPool()": "infinite",
						"blockCounter()": "1117",
						"depositAndTransfer(uint256)": "infinite",
						"liquidityPoolAddress()": "1125",
						"maxAllowance()": "1095",
						"owner()": "1115",
						"pause()": "infinite",
						"paused()": "1063",
						"renounceOwnership()": "infinite",
						"setMaxAllowance(uint256)": "22347",
						"transferInterval()": "1074",
						"transferOwnership(address)": "infinite",
						"unpause()": "infinite",
						"withdrawal(address,uint256)": "infinite",
						"wrappedToken()": "1137"
					},
					"internal": {
						"executeTransferToLiquidityPool()": "infinite"
					}
				},
				"methodIdentifiers": {
					"approveContract(uint256)": "62c35c01",
					"automatedWithdrawalToPool()": "dee3b50f",
					"blockCounter()": "bb413c8d",
					"depositAndTransfer(uint256)": "c4da9247",
					"liquidityPoolAddress()": "d25b17b6",
					"maxAllowance()": "64f00f01",
					"owner()": "8da5cb5b",
					"pause()": "8456cb59",
					"paused()": "5c975abb",
					"renounceOwnership()": "715018a6",
					"setMaxAllowance(uint256)": "56d96a99",
					"transferInterval()": "4abb3fac",
					"transferOwnership(address)": "f2fde38b",
					"unpause()": "3f4ba83a",
					"withdrawal(address,uint256)": "5a6b26ba",
					"wrappedToken()": "996c6cc3"
				}
			},
			"storageLayout": {
				"storage": [
					{
						"astId": 369,
						"contract": "contract/VestingLiquidityHedgey.sol:LiquidityPoolInteractor",
						"label": "_owner",
						"offset": 0,
						"slot": "0",
						"type": "t_address"
					},
					{
						"astId": 593,
						"contract": "contract/VestingLiquidityHedgey.sol:LiquidityPoolInteractor",
						"label": "_status",
						"offset": 0,
						"slot": "1",
						"type": "t_uint256"
					},
					{
						"astId": 492,
						"contract": "contract/VestingLiquidityHedgey.sol:LiquidityPoolInteractor",
						"label": "_paused",
						"offset": 0,
						"slot": "2",
						"type": "t_bool"
					},
					{
						"astId": 13,
						"contract": "contract/VestingLiquidityHedgey.sol:LiquidityPoolInteractor",
						"label": "liquidityPoolAddress",
						"offset": 1,
						"slot": "2",
						"type": "t_address"
					},
					{
						"astId": 16,
						"contract": "contract/VestingLiquidityHedgey.sol:LiquidityPoolInteractor",
						"label": "wrappedToken",
						"offset": 0,
						"slot": "3",
						"type": "t_contract(IERC20)725"
					},
					{
						"astId": 18,
						"contract": "contract/VestingLiquidityHedgey.sol:LiquidityPoolInteractor",
						"label": "blockCounter",
						"offset": 0,
						"slot": "4",
						"type": "t_uint256"
					},
					{
						"astId": 21,
						"contract": "contract/VestingLiquidityHedgey.sol:LiquidityPoolInteractor",
						"label": "transferInterval",
						"offset": 0,
						"slot": "5",
						"type": "t_uint256"
					},
					{
						"astId": 23,
						"contract": "contract/VestingLiquidityHedgey.sol:LiquidityPoolInteractor",
						"label": "maxAllowance",
						"offset": 0,
						"slot": "6",
						"type": "t_uint256"
					}
				],
				"types": {
					"t_address": {
						"encoding": "inplace",
						"label": "address",
						"numberOfBytes": "20"
					},
					"t_bool": {
						"encoding": "inplace",
						"label": "bool",
						"numberOfBytes": "1"
					},
					"t_contract(IERC20)725": {
						"encoding": "inplace",
						"label": "contract IERC20",
						"numberOfBytes": "20"
					},
					"t_uint256": {
						"encoding": "inplace",
						"label": "uint256",
						"numberOfBytes": "32"
					}
				}
			},
			"userdoc": {
				"kind": "user",
				"methods": {},
				"version": 1
			}
		}
	}
}