{
	"contract/VestingLiquidityHedgey_flattened.sol": {
		"VestingLiquidityHedgey": {
			"abi": [
				{
					"inputs": [
						{
							"internalType": "address",
							"name": "_poolAddress",
							"type": "address"
						},
						{
							"internalType": "address",
							"name": "_wETH",
							"type": "address"
						}
					],
					"stateMutability": "nonpayable",
					"type": "constructor"
				},
				{
					"anonymous": false,
					"inputs": [
						{
							"indexed": true,
							"internalType": "address",
							"name": "sender",
							"type": "address"
						},
						{
							"indexed": false,
							"internalType": "uint256",
							"name": "amount",
							"type": "uint256"
						}
					],
					"name": "ContractApproved",
					"type": "event"
				},
				{
					"anonymous": false,
					"inputs": [
						{
							"indexed": true,
							"internalType": "address",
							"name": "previousOwner",
							"type": "address"
						},
						{
							"indexed": true,
							"internalType": "address",
							"name": "newOwner",
							"type": "address"
						}
					],
					"name": "OwnershipTransferred",
					"type": "event"
				},
				{
					"anonymous": false,
					"inputs": [
						{
							"indexed": true,
							"internalType": "address",
							"name": "from",
							"type": "address"
						},
						{
							"indexed": false,
							"internalType": "uint256",
							"name": "amount",
							"type": "uint256"
						}
					],
					"name": "TokensDeposited",
					"type": "event"
				},
				{
					"anonymous": false,
					"inputs": [
						{
							"indexed": true,
							"internalType": "address",
							"name": "to",
							"type": "address"
						},
						{
							"indexed": false,
							"internalType": "uint256",
							"name": "amount",
							"type": "uint256"
						}
					],
					"name": "TokensWithdrawn",
					"type": "event"
				},
				{
					"inputs": [
						{
							"internalType": "uint256",
							"name": "amount",
							"type": "uint256"
						}
					],
					"name": "approveContract",
					"outputs": [],
					"stateMutability": "nonpayable",
					"type": "function"
				},
				{
					"inputs": [],
					"name": "blockCounter",
					"outputs": [
						{
							"internalType": "uint256",
							"name": "",
							"type": "uint256"
						}
					],
					"stateMutability": "view",
					"type": "function"
				},
				{
					"inputs": [
						{
							"internalType": "uint256",
							"name": "amount",
							"type": "uint256"
						}
					],
					"name": "depositAndTransfer",
					"outputs": [],
					"stateMutability": "nonpayable",
					"type": "function"
				},
				{
					"inputs": [],
					"name": "owner",
					"outputs": [
						{
							"internalType": "address",
							"name": "",
							"type": "address"
						}
					],
					"stateMutability": "view",
					"type": "function"
				},
				{
					"inputs": [],
					"name": "poolAddress",
					"outputs": [
						{
							"internalType": "address",
							"name": "",
							"type": "address"
						}
					],
					"stateMutability": "view",
					"type": "function"
				},
				{
					"inputs": [],
					"name": "renounceOwnership",
					"outputs": [],
					"stateMutability": "nonpayable",
					"type": "function"
				},
				{
					"inputs": [],
					"name": "transferInterval",
					"outputs": [
						{
							"internalType": "uint256",
							"name": "",
							"type": "uint256"
						}
					],
					"stateMutability": "view",
					"type": "function"
				},
				{
					"inputs": [
						{
							"internalType": "address",
							"name": "newOwner",
							"type": "address"
						}
					],
					"name": "transferOwnership",
					"outputs": [],
					"stateMutability": "nonpayable",
					"type": "function"
				},
				{
					"inputs": [
						{
							"internalType": "address",
							"name": "to",
							"type": "address"
						},
						{
							"internalType": "uint256",
							"name": "amount",
							"type": "uint256"
						}
					],
					"name": "withdrawal",
					"outputs": [],
					"stateMutability": "nonpayable",
					"type": "function"
				},
				{
					"inputs": [],
					"name": "wrappedToken",
					"outputs": [
						{
							"internalType": "contract IERC20",
							"name": "",
							"type": "address"
						}
					],
					"stateMutability": "view",
					"type": "function"
				}
			],
			"devdoc": {
				"kind": "dev",
				"methods": {
					"owner()": {
						"details": "Returns the address of the current owner."
					},
					"renounceOwnership()": {
						"details": "Leaves the contract without owner. It will not be possible to call `onlyOwner` functions. Can only be called by the current owner. NOTE: Renouncing ownership will leave the contract without an owner, thereby disabling any functionality that is only available to the owner."
					},
					"transferOwnership(address)": {
						"details": "Transfers ownership of the contract to a new account (`newOwner`). Can only be called by the current owner."
					}
				},
				"version": 1
			},
			"evm": {
				"assembly": "    /* \"contract/VestingLiquidityHedgey_flattened.sol\":9686:12904  contract VestingLiquidityHedgey is Ownable, ReentrancyGuard {... */\n  mstore(0x40, 0x80)\n    /* \"contract/VestingLiquidityHedgey_flattened.sol\":9888:9891  100 */\n  0x64\n    /* \"contract/VestingLiquidityHedgey_flattened.sol\":9854:9891  uint256 public transferInterval = 100 */\n  0x05\n  sstore\n    /* \"contract/VestingLiquidityHedgey_flattened.sol\":10095:10452  constructor(address _poolAddress, address _wETH) {... */\n  callvalue\n  dup1\n  iszero\n  tag_1\n  jumpi\n  0x00\n  dup1\n  revert\ntag_1:\n  pop\n  mload(0x40)\n  sub(codesize, bytecodeSize)\n  dup1\n  bytecodeSize\n  dup4\n  codecopy\n  dup2\n  dup2\n  add\n  0x40\n  mstore\n  dup2\n  add\n  swap1\n  tag_2\n  swap2\n  swap1\n  tag_3\n  jump\t// in\ntag_2:\n    /* \"contract/VestingLiquidityHedgey_flattened.sol\":5113:5145  _transferOwnership(_msgSender()) */\n  tag_8\n    /* \"contract/VestingLiquidityHedgey_flattened.sol\":5132:5144  _msgSender() */\n  tag_9\n    /* \"contract/VestingLiquidityHedgey_flattened.sol\":5132:5142  _msgSender */\n  shl(0x20, tag_10)\n    /* \"contract/VestingLiquidityHedgey_flattened.sol\":5132:5144  _msgSender() */\n  0x20\n  shr\n  jump\t// in\ntag_9:\n    /* \"contract/VestingLiquidityHedgey_flattened.sol\":5113:5131  _transferOwnership */\n  shl(0x20, tag_11)\n    /* \"contract/VestingLiquidityHedgey_flattened.sol\":5113:5145  _transferOwnership(_msgSender()) */\n  0x20\n  shr\n  jump\t// in\ntag_8:\n    /* \"contract/VestingLiquidityHedgey_flattened.sol\":1802:1803  1 */\n  0x01\n    /* \"contract/VestingLiquidityHedgey_flattened.sol\":1907:1914  _status */\n  dup1\n    /* \"contract/VestingLiquidityHedgey_flattened.sol\":1907:1929  _status = _NOT_ENTERED */\n  dup2\n  swap1\n  sstore\n  pop\n    /* \"contract/VestingLiquidityHedgey_flattened.sol\":10186:10187  0 */\n  0x00\n    /* \"contract/VestingLiquidityHedgey_flattened.sol\":10162:10188  _poolAddress != address(0) */\n  0xffffffffffffffffffffffffffffffffffffffff\n  and\n    /* \"contract/VestingLiquidityHedgey_flattened.sol\":10162:10174  _poolAddress */\n  dup3\n    /* \"contract/VestingLiquidityHedgey_flattened.sol\":10162:10188  _poolAddress != address(0) */\n  0xffffffffffffffffffffffffffffffffffffffff\n  and\n  eq\n  iszero\n    /* \"contract/VestingLiquidityHedgey_flattened.sol\":10154:10213  require(_poolAddress != address(0), \"Invalid pool address\") */\n  tag_14\n  jumpi\n  mload(0x40)\n  0x08c379a000000000000000000000000000000000000000000000000000000000\n  dup2\n  mstore\n  0x04\n  add\n  tag_15\n  swap1\n  tag_16\n  jump\t// in\ntag_15:\n  mload(0x40)\n  dup1\n  swap2\n  sub\n  swap1\n  revert\ntag_14:\n    /* \"contract/VestingLiquidityHedgey_flattened.sol\":10248:10249  0 */\n  0x00\n    /* \"contract/VestingLiquidityHedgey_flattened.sol\":10231:10250  _wETH != address(0) */\n  0xffffffffffffffffffffffffffffffffffffffff\n  and\n    /* \"contract/VestingLiquidityHedgey_flattened.sol\":10231:10236  _wETH */\n  dup2\n    /* \"contract/VestingLiquidityHedgey_flattened.sol\":10231:10250  _wETH != address(0) */\n  0xffffffffffffffffffffffffffffffffffffffff\n  and\n  eq\n  iszero\n    /* \"contract/VestingLiquidityHedgey_flattened.sol\":10223:10284  require(_wETH != address(0), \"Invalid wrapped token address\") */\n  tag_17\n  jumpi\n  mload(0x40)\n  0x08c379a000000000000000000000000000000000000000000000000000000000\n  dup2\n  mstore\n  0x04\n  add\n  tag_18\n  swap1\n  tag_19\n  jump\t// in\ntag_18:\n  mload(0x40)\n  dup1\n  swap2\n  sub\n  swap1\n  revert\ntag_17:\n    /* \"contract/VestingLiquidityHedgey_flattened.sol\":10309:10321  _poolAddress */\n  dup2\n    /* \"contract/VestingLiquidityHedgey_flattened.sol\":10295:10306  poolAddress */\n  0x02\n  0x00\n    /* \"contract/VestingLiquidityHedgey_flattened.sol\":10295:10321  poolAddress = _poolAddress */\n  0x0100\n  exp\n  dup2\n  sload\n  dup2\n  0xffffffffffffffffffffffffffffffffffffffff\n  mul\n  not\n  and\n  swap1\n  dup4\n  0xffffffffffffffffffffffffffffffffffffffff\n  and\n  mul\n  or\n  swap1\n  sstore\n  pop\n    /* \"contract/VestingLiquidityHedgey_flattened.sol\":10353:10358  _wETH */\n  dup1\n    /* \"contract/VestingLiquidityHedgey_flattened.sol\":10331:10343  wrappedToken */\n  0x03\n  0x00\n    /* \"contract/VestingLiquidityHedgey_flattened.sol\":10331:10359  wrappedToken = IERC20(_wETH) */\n  0x0100\n  exp\n  dup2\n  sload\n  dup2\n  0xffffffffffffffffffffffffffffffffffffffff\n  mul\n  not\n  and\n  swap1\n  dup4\n  0xffffffffffffffffffffffffffffffffffffffff\n  and\n  mul\n  or\n  swap1\n  sstore\n  pop\n    /* \"contract/VestingLiquidityHedgey_flattened.sol\":10433:10445  block.number */\n  number\n    /* \"contract/VestingLiquidityHedgey_flattened.sol\":10418:10430  blockCounter */\n  0x04\n    /* \"contract/VestingLiquidityHedgey_flattened.sol\":10418:10445  blockCounter = block.number */\n  dup2\n  swap1\n  sstore\n  pop\n    /* \"contract/VestingLiquidityHedgey_flattened.sol\":10095:10452  constructor(address _poolAddress, address _wETH) {... */\n  pop\n  pop\n    /* \"contract/VestingLiquidityHedgey_flattened.sol\":9686:12904  contract VestingLiquidityHedgey is Ownable, ReentrancyGuard {... */\n  jump(tag_20)\n    /* \"contract/VestingLiquidityHedgey_flattened.sol\":3928:4024  function _msgSender() internal view virtual returns (address) {... */\ntag_10:\n    /* \"contract/VestingLiquidityHedgey_flattened.sol\":3981:3988  address */\n  0x00\n    /* \"contract/VestingLiquidityHedgey_flattened.sol\":4007:4017  msg.sender */\n  caller\n    /* \"contract/VestingLiquidityHedgey_flattened.sol\":4000:4017  return msg.sender */\n  swap1\n  pop\n    /* \"contract/VestingLiquidityHedgey_flattened.sol\":3928:4024  function _msgSender() internal view virtual returns (address) {... */\n  swap1\n  jump\t// out\n    /* \"contract/VestingLiquidityHedgey_flattened.sol\":6603:6790  function _transferOwnership(address newOwner) internal virtual {... */\ntag_11:\n    /* \"contract/VestingLiquidityHedgey_flattened.sol\":6676:6692  address oldOwner */\n  0x00\n    /* \"contract/VestingLiquidityHedgey_flattened.sol\":6695:6701  _owner */\n  dup1\n  0x00\n  swap1\n  sload\n  swap1\n  0x0100\n  exp\n  swap1\n  div\n  0xffffffffffffffffffffffffffffffffffffffff\n  and\n    /* \"contract/VestingLiquidityHedgey_flattened.sol\":6676:6701  address oldOwner = _owner */\n  swap1\n  pop\n    /* \"contract/VestingLiquidityHedgey_flattened.sol\":6720:6728  newOwner */\n  dup2\n    /* \"contract/VestingLiquidityHedgey_flattened.sol\":6711:6717  _owner */\n  0x00\n  dup1\n    /* \"contract/VestingLiquidityHedgey_flattened.sol\":6711:6728  _owner = newOwner */\n  0x0100\n  exp\n  dup2\n  sload\n  dup2\n  0xffffffffffffffffffffffffffffffffffffffff\n  mul\n  not\n  and\n  swap1\n  dup4\n  0xffffffffffffffffffffffffffffffffffffffff\n  and\n  mul\n  or\n  swap1\n  sstore\n  pop\n    /* \"contract/VestingLiquidityHedgey_flattened.sol\":6774:6782  newOwner */\n  dup2\n    /* \"contract/VestingLiquidityHedgey_flattened.sol\":6743:6783  OwnershipTransferred(oldOwner, newOwner) */\n  0xffffffffffffffffffffffffffffffffffffffff\n  and\n    /* \"contract/VestingLiquidityHedgey_flattened.sol\":6764:6772  oldOwner */\n  dup2\n    /* \"contract/VestingLiquidityHedgey_flattened.sol\":6743:6783  OwnershipTransferred(oldOwner, newOwner) */\n  0xffffffffffffffffffffffffffffffffffffffff\n  and\n  0x8be0079c531659141344cd1fd0a4f28419497f9722a3daafe3b4186f6b6457e0\n  mload(0x40)\n  mload(0x40)\n  dup1\n  swap2\n  sub\n  swap1\n  log3\n    /* \"contract/VestingLiquidityHedgey_flattened.sol\":6603:6790  function _transferOwnership(address newOwner) internal virtual {... */\n  pop\n  pop\n  jump\t// out\n    /* \"#utility.yul\":7:150   */\ntag_24:\n  0x00\n    /* \"#utility.yul\":95:101   */\n  dup2\n    /* \"#utility.yul\":89:102   */\n  mload\n    /* \"#utility.yul\":80:102   */\n  swap1\n  pop\n    /* \"#utility.yul\":111:144   */\n  tag_26\n    /* \"#utility.yul\":138:143   */\n  dup2\n    /* \"#utility.yul\":111:144   */\n  tag_27\n  jump\t// in\ntag_26:\n    /* \"#utility.yul\":70:150   */\n  swap3\n  swap2\n  pop\n  pop\n  jump\t// out\n    /* \"#utility.yul\":156:596   */\ntag_3:\n  0x00\n  dup1\n    /* \"#utility.yul\":292:294   */\n  0x40\n    /* \"#utility.yul\":280:289   */\n  dup4\n    /* \"#utility.yul\":271:278   */\n  dup6\n    /* \"#utility.yul\":267:290   */\n  sub\n    /* \"#utility.yul\":263:295   */\n  slt\n    /* \"#utility.yul\":260:262   */\n  iszero\n  tag_29\n  jumpi\n    /* \"#utility.yul\":308:309   */\n  0x00\n    /* \"#utility.yul\":305:306   */\n  dup1\n    /* \"#utility.yul\":298:310   */\n  revert\n    /* \"#utility.yul\":260:262   */\ntag_29:\n    /* \"#utility.yul\":351:352   */\n  0x00\n    /* \"#utility.yul\":376:440   */\n  tag_30\n    /* \"#utility.yul\":432:439   */\n  dup6\n    /* \"#utility.yul\":423:429   */\n  dup3\n    /* \"#utility.yul\":412:421   */\n  dup7\n    /* \"#utility.yul\":408:430   */\n  add\n    /* \"#utility.yul\":376:440   */\n  tag_24\n  jump\t// in\ntag_30:\n    /* \"#utility.yul\":366:440   */\n  swap3\n  pop\n    /* \"#utility.yul\":322:450   */\n  pop\n    /* \"#utility.yul\":489:491   */\n  0x20\n    /* \"#utility.yul\":515:579   */\n  tag_31\n    /* \"#utility.yul\":571:578   */\n  dup6\n    /* \"#utility.yul\":562:568   */\n  dup3\n    /* \"#utility.yul\":551:560   */\n  dup7\n    /* \"#utility.yul\":547:569   */\n  add\n    /* \"#utility.yul\":515:579   */\n  tag_24\n  jump\t// in\ntag_31:\n    /* \"#utility.yul\":505:579   */\n  swap2\n  pop\n    /* \"#utility.yul\":460:589   */\n  pop\n    /* \"#utility.yul\":250:596   */\n  swap3\n  pop\n  swap3\n  swap1\n  pop\n  jump\t// out\n    /* \"#utility.yul\":602:929   */\ntag_32:\n  0x00\n    /* \"#utility.yul\":765:832   */\n  tag_34\n    /* \"#utility.yul\":829:831   */\n  0x1d\n    /* \"#utility.yul\":824:827   */\n  dup4\n    /* \"#utility.yul\":765:832   */\n  tag_35\n  jump\t// in\ntag_34:\n    /* \"#utility.yul\":758:832   */\n  swap2\n  pop\n    /* \"#utility.yul\":862:893   */\n  0x496e76616c6964207772617070656420746f6b656e2061646472657373000000\n    /* \"#utility.yul\":858:859   */\n  0x00\n    /* \"#utility.yul\":853:856   */\n  dup4\n    /* \"#utility.yul\":849:860   */\n  add\n    /* \"#utility.yul\":842:894   */\n  mstore\n    /* \"#utility.yul\":920:922   */\n  0x20\n    /* \"#utility.yul\":915:918   */\n  dup3\n    /* \"#utility.yul\":911:923   */\n  add\n    /* \"#utility.yul\":904:923   */\n  swap1\n  pop\n    /* \"#utility.yul\":748:929   */\n  swap2\n  swap1\n  pop\n  jump\t// out\n    /* \"#utility.yul\":935:1253   */\ntag_36:\n  0x00\n    /* \"#utility.yul\":1098:1165   */\n  tag_38\n    /* \"#utility.yul\":1162:1164   */\n  0x14\n    /* \"#utility.yul\":1157:1160   */\n  dup4\n    /* \"#utility.yul\":1098:1165   */\n  tag_35\n  jump\t// in\ntag_38:\n    /* \"#utility.yul\":1091:1165   */\n  swap2\n  pop\n    /* \"#utility.yul\":1195:1217   */\n  0x496e76616c696420706f6f6c2061646472657373000000000000000000000000\n    /* \"#utility.yul\":1191:1192   */\n  0x00\n    /* \"#utility.yul\":1186:1189   */\n  dup4\n    /* \"#utility.yul\":1182:1193   */\n  add\n    /* \"#utility.yul\":1175:1218   */\n  mstore\n    /* \"#utility.yul\":1244:1246   */\n  0x20\n    /* \"#utility.yul\":1239:1242   */\n  dup3\n    /* \"#utility.yul\":1235:1247   */\n  add\n    /* \"#utility.yul\":1228:1247   */\n  swap1\n  pop\n    /* \"#utility.yul\":1081:1253   */\n  swap2\n  swap1\n  pop\n  jump\t// out\n    /* \"#utility.yul\":1259:1678   */\ntag_19:\n  0x00\n    /* \"#utility.yul\":1463:1465   */\n  0x20\n    /* \"#utility.yul\":1452:1461   */\n  dup3\n    /* \"#utility.yul\":1448:1466   */\n  add\n    /* \"#utility.yul\":1440:1466   */\n  swap1\n  pop\n    /* \"#utility.yul\":1512:1521   */\n  dup2\n    /* \"#utility.yul\":1506:1510   */\n  dup2\n    /* \"#utility.yul\":1502:1522   */\n  sub\n    /* \"#utility.yul\":1498:1499   */\n  0x00\n    /* \"#utility.yul\":1487:1496   */\n  dup4\n    /* \"#utility.yul\":1483:1500   */\n  add\n    /* \"#utility.yul\":1476:1523   */\n  mstore\n    /* \"#utility.yul\":1540:1671   */\n  tag_40\n    /* \"#utility.yul\":1666:1670   */\n  dup2\n    /* \"#utility.yul\":1540:1671   */\n  tag_32\n  jump\t// in\ntag_40:\n    /* \"#utility.yul\":1532:1671   */\n  swap1\n  pop\n    /* \"#utility.yul\":1430:1678   */\n  swap2\n  swap1\n  pop\n  jump\t// out\n    /* \"#utility.yul\":1684:2103   */\ntag_16:\n  0x00\n    /* \"#utility.yul\":1888:1890   */\n  0x20\n    /* \"#utility.yul\":1877:1886   */\n  dup3\n    /* \"#utility.yul\":1873:1891   */\n  add\n    /* \"#utility.yul\":1865:1891   */\n  swap1\n  pop\n    /* \"#utility.yul\":1937:1946   */\n  dup2\n    /* \"#utility.yul\":1931:1935   */\n  dup2\n    /* \"#utility.yul\":1927:1947   */\n  sub\n    /* \"#utility.yul\":1923:1924   */\n  0x00\n    /* \"#utility.yul\":1912:1921   */\n  dup4\n    /* \"#utility.yul\":1908:1925   */\n  add\n    /* \"#utility.yul\":1901:1948   */\n  mstore\n    /* \"#utility.yul\":1965:2096   */\n  tag_42\n    /* \"#utility.yul\":2091:2095   */\n  dup2\n    /* \"#utility.yul\":1965:2096   */\n  tag_36\n  jump\t// in\ntag_42:\n    /* \"#utility.yul\":1957:2096   */\n  swap1\n  pop\n    /* \"#utility.yul\":1855:2103   */\n  swap2\n  swap1\n  pop\n  jump\t// out\n    /* \"#utility.yul\":2109:2278   */\ntag_35:\n  0x00\n    /* \"#utility.yul\":2227:2233   */\n  dup3\n    /* \"#utility.yul\":2222:2225   */\n  dup3\n    /* \"#utility.yul\":2215:2234   */\n  mstore\n    /* \"#utility.yul\":2267:2271   */\n  0x20\n    /* \"#utility.yul\":2262:2265   */\n  dup3\n    /* \"#utility.yul\":2258:2272   */\n  add\n    /* \"#utility.yul\":2243:2272   */\n  swap1\n  pop\n    /* \"#utility.yul\":2205:2278   */\n  swap3\n  swap2\n  pop\n  pop\n  jump\t// out\n    /* \"#utility.yul\":2284:2380   */\ntag_44:\n  0x00\n    /* \"#utility.yul\":2350:2374   */\n  tag_46\n    /* \"#utility.yul\":2368:2373   */\n  dup3\n    /* \"#utility.yul\":2350:2374   */\n  tag_47\n  jump\t// in\ntag_46:\n    /* \"#utility.yul\":2339:2374   */\n  swap1\n  pop\n    /* \"#utility.yul\":2329:2380   */\n  swap2\n  swap1\n  pop\n  jump\t// out\n    /* \"#utility.yul\":2386:2512   */\ntag_47:\n  0x00\n    /* \"#utility.yul\":2463:2505   */\n  0xffffffffffffffffffffffffffffffffffffffff\n    /* \"#utility.yul\":2456:2461   */\n  dup3\n    /* \"#utility.yul\":2452:2506   */\n  and\n    /* \"#utility.yul\":2441:2506   */\n  swap1\n  pop\n    /* \"#utility.yul\":2431:2512   */\n  swap2\n  swap1\n  pop\n  jump\t// out\n    /* \"#utility.yul\":2518:2640   */\ntag_27:\n    /* \"#utility.yul\":2591:2615   */\n  tag_50\n    /* \"#utility.yul\":2609:2614   */\n  dup2\n    /* \"#utility.yul\":2591:2615   */\n  tag_44\n  jump\t// in\ntag_50:\n    /* \"#utility.yul\":2584:2589   */\n  dup2\n    /* \"#utility.yul\":2581:2616   */\n  eq\n    /* \"#utility.yul\":2571:2573   */\n  tag_51\n  jumpi\n    /* \"#utility.yul\":2630:2631   */\n  0x00\n    /* \"#utility.yul\":2627:2628   */\n  dup1\n    /* \"#utility.yul\":2620:2632   */\n  revert\n    /* \"#utility.yul\":2571:2573   */\ntag_51:\n    /* \"#utility.yul\":2561:2640   */\n  pop\n  jump\t// out\n    /* \"contract/VestingLiquidityHedgey_flattened.sol\":9686:12904  contract VestingLiquidityHedgey is Ownable, ReentrancyGuard {... */\ntag_20:\n  dataSize(sub_0)\n  dup1\n  dataOffset(sub_0)\n  0x00\n  codecopy\n  0x00\n  return\nstop\n\nsub_0: assembly {\n        /* \"contract/VestingLiquidityHedgey_flattened.sol\":9686:12904  contract VestingLiquidityHedgey is Ownable, ReentrancyGuard {... */\n      mstore(0x40, 0x80)\n      callvalue\n      dup1\n      iszero\n      tag_1\n      jumpi\n      0x00\n      dup1\n      revert\n    tag_1:\n      pop\n      jumpi(tag_2, lt(calldatasize, 0x04))\n      shr(0xe0, calldataload(0x00))\n      dup1\n      0x8da5cb5b\n      gt\n      tag_13\n      jumpi\n      dup1\n      0x8da5cb5b\n      eq\n      tag_8\n      jumpi\n      dup1\n      0x996c6cc3\n      eq\n      tag_9\n      jumpi\n      dup1\n      0xbb413c8d\n      eq\n      tag_10\n      jumpi\n      dup1\n      0xc4da9247\n      eq\n      tag_11\n      jumpi\n      dup1\n      0xf2fde38b\n      eq\n      tag_12\n      jumpi\n      jump(tag_2)\n    tag_13:\n      dup1\n      0x1755ff21\n      eq\n      tag_3\n      jumpi\n      dup1\n      0x4abb3fac\n      eq\n      tag_4\n      jumpi\n      dup1\n      0x5a6b26ba\n      eq\n      tag_5\n      jumpi\n      dup1\n      0x62c35c01\n      eq\n      tag_6\n      jumpi\n      dup1\n      0x715018a6\n      eq\n      tag_7\n      jumpi\n    tag_2:\n      0x00\n      dup1\n      revert\n        /* \"contract/VestingLiquidityHedgey_flattened.sol\":9752:9778  address public poolAddress */\n    tag_3:\n      tag_14\n      tag_15\n      jump\t// in\n    tag_14:\n      mload(0x40)\n      tag_16\n      swap2\n      swap1\n      tag_17\n      jump\t// in\n    tag_16:\n      mload(0x40)\n      dup1\n      swap2\n      sub\n      swap1\n      return\n        /* \"contract/VestingLiquidityHedgey_flattened.sol\":9854:9891  uint256 public transferInterval = 100 */\n    tag_4:\n      tag_18\n      tag_19\n      jump\t// in\n    tag_18:\n      mload(0x40)\n      tag_20\n      swap2\n      swap1\n      tag_21\n      jump\t// in\n    tag_20:\n      mload(0x40)\n      dup1\n      swap2\n      sub\n      swap1\n      return\n        /* \"contract/VestingLiquidityHedgey_flattened.sol\":11663:12163  function withdrawal(address to, uint256 amount) external onlyOwner nonReentrant {... */\n    tag_5:\n      tag_22\n      0x04\n      dup1\n      calldatasize\n      sub\n      dup2\n      add\n      swap1\n      tag_23\n      swap2\n      swap1\n      tag_24\n      jump\t// in\n    tag_23:\n      tag_25\n      jump\t// in\n    tag_22:\n      stop\n        /* \"contract/VestingLiquidityHedgey_flattened.sol\":11334:11579  function approveContract(uint256 amount) external onlyOwner {... */\n    tag_6:\n      tag_26\n      0x04\n      dup1\n      calldatasize\n      sub\n      dup2\n      add\n      swap1\n      tag_27\n      swap2\n      swap1\n      tag_28\n      jump\t// in\n    tag_27:\n      tag_29\n      jump\t// in\n    tag_26:\n      stop\n        /* \"contract/VestingLiquidityHedgey_flattened.sol\":6001:6102  function renounceOwnership() public virtual onlyOwner {... */\n    tag_7:\n      tag_30\n      tag_31\n      jump\t// in\n    tag_30:\n      stop\n        /* \"contract/VestingLiquidityHedgey_flattened.sol\":5378:5463  function owner() public view virtual returns (address) {... */\n    tag_8:\n      tag_32\n      tag_33\n      jump\t// in\n    tag_32:\n      mload(0x40)\n      tag_34\n      swap2\n      swap1\n      tag_17\n      jump\t// in\n    tag_34:\n      mload(0x40)\n      dup1\n      swap2\n      sub\n      swap1\n      return\n        /* \"contract/VestingLiquidityHedgey_flattened.sol\":9784:9810  IERC20 public wrappedToken */\n    tag_9:\n      tag_35\n      tag_36\n      jump\t// in\n    tag_35:\n      mload(0x40)\n      tag_37\n      swap2\n      swap1\n      tag_38\n      jump\t// in\n    tag_37:\n      mload(0x40)\n      dup1\n      swap2\n      sub\n      swap1\n      return\n        /* \"contract/VestingLiquidityHedgey_flattened.sol\":9821:9848  uint256 public blockCounter */\n    tag_10:\n      tag_39\n      tag_40\n      jump\t// in\n    tag_39:\n      mload(0x40)\n      tag_41\n      swap2\n      swap1\n      tag_21\n      jump\t// in\n    tag_41:\n      mload(0x40)\n      dup1\n      swap2\n      sub\n      swap1\n      return\n        /* \"contract/VestingLiquidityHedgey_flattened.sol\":10525:11256  function depositAndTransfer(uint256 amount) external {... */\n    tag_11:\n      tag_42\n      0x04\n      dup1\n      calldatasize\n      sub\n      dup2\n      add\n      swap1\n      tag_43\n      swap2\n      swap1\n      tag_28\n      jump\t// in\n    tag_43:\n      tag_44\n      jump\t// in\n    tag_42:\n      stop\n        /* \"contract/VestingLiquidityHedgey_flattened.sol\":12247:12491  function transferOwnership(address newOwner) public onlyOwner override {... */\n    tag_12:\n      tag_45\n      0x04\n      dup1\n      calldatasize\n      sub\n      dup2\n      add\n      swap1\n      tag_46\n      swap2\n      swap1\n      tag_47\n      jump\t// in\n    tag_46:\n      tag_48\n      jump\t// in\n    tag_45:\n      stop\n        /* \"contract/VestingLiquidityHedgey_flattened.sol\":9752:9778  address public poolAddress */\n    tag_15:\n      0x02\n      0x00\n      swap1\n      sload\n      swap1\n      0x0100\n      exp\n      swap1\n      div\n      0xffffffffffffffffffffffffffffffffffffffff\n      and\n      dup2\n      jump\t// out\n        /* \"contract/VestingLiquidityHedgey_flattened.sol\":9854:9891  uint256 public transferInterval = 100 */\n    tag_19:\n      sload(0x05)\n      dup2\n      jump\t// out\n        /* \"contract/VestingLiquidityHedgey_flattened.sol\":11663:12163  function withdrawal(address to, uint256 amount) external onlyOwner nonReentrant {... */\n    tag_25:\n        /* \"contract/VestingLiquidityHedgey_flattened.sol\":5271:5284  _checkOwner() */\n      tag_50\n        /* \"contract/VestingLiquidityHedgey_flattened.sol\":5271:5282  _checkOwner */\n      tag_51\n        /* \"contract/VestingLiquidityHedgey_flattened.sol\":5271:5284  _checkOwner() */\n      jump\t// in\n    tag_50:\n        /* \"contract/VestingLiquidityHedgey_flattened.sol\":2347:2368  _nonReentrantBefore() */\n      tag_53\n        /* \"contract/VestingLiquidityHedgey_flattened.sol\":2347:2366  _nonReentrantBefore */\n      tag_54\n        /* \"contract/VestingLiquidityHedgey_flattened.sol\":2347:2368  _nonReentrantBefore() */\n      jump\t// in\n    tag_53:\n        /* \"contract/VestingLiquidityHedgey_flattened.sol\":11775:11776  0 */\n      0x00\n        /* \"contract/VestingLiquidityHedgey_flattened.sol\":11761:11777  to != address(0) */\n      0xffffffffffffffffffffffffffffffffffffffff\n      and\n        /* \"contract/VestingLiquidityHedgey_flattened.sol\":11761:11763  to */\n      dup3\n        /* \"contract/VestingLiquidityHedgey_flattened.sol\":11761:11777  to != address(0) */\n      0xffffffffffffffffffffffffffffffffffffffff\n      and\n      eq\n      iszero\n        /* \"contract/VestingLiquidityHedgey_flattened.sol\":11753:11808  require(to != address(0), \"Invalid withdrawal address\") */\n      tag_56\n      jumpi\n      mload(0x40)\n      0x08c379a000000000000000000000000000000000000000000000000000000000\n      dup2\n      mstore\n      0x04\n      add\n      tag_57\n      swap1\n      tag_58\n      jump\t// in\n    tag_57:\n      mload(0x40)\n      dup1\n      swap2\n      sub\n      swap1\n      revert\n    tag_56:\n        /* \"contract/VestingLiquidityHedgey_flattened.sol\":11835:11836  0 */\n      0x00\n        /* \"contract/VestingLiquidityHedgey_flattened.sol\":11826:11832  amount */\n      dup2\n        /* \"contract/VestingLiquidityHedgey_flattened.sol\":11826:11836  amount > 0 */\n      gt\n        /* \"contract/VestingLiquidityHedgey_flattened.sol\":11818:11881  require(amount > 0, \"Withdrawal amount must be greater than 0\") */\n      tag_59\n      jumpi\n      mload(0x40)\n      0x08c379a000000000000000000000000000000000000000000000000000000000\n      dup2\n      mstore\n      0x04\n      add\n      tag_60\n      swap1\n      tag_61\n      jump\t// in\n    tag_60:\n      mload(0x40)\n      dup1\n      swap2\n      sub\n      swap1\n      revert\n    tag_59:\n        /* \"contract/VestingLiquidityHedgey_flattened.sol\":11940:11946  amount */\n      dup1\n        /* \"contract/VestingLiquidityHedgey_flattened.sol\":11899:11911  wrappedToken */\n      0x03\n      0x00\n      swap1\n      sload\n      swap1\n      0x0100\n      exp\n      swap1\n      div\n      0xffffffffffffffffffffffffffffffffffffffff\n      and\n        /* \"contract/VestingLiquidityHedgey_flattened.sol\":11899:11921  wrappedToken.balanceOf */\n      0xffffffffffffffffffffffffffffffffffffffff\n      and\n      0x70a08231\n        /* \"contract/VestingLiquidityHedgey_flattened.sol\":11930:11934  this */\n      address\n        /* \"contract/VestingLiquidityHedgey_flattened.sol\":11899:11936  wrappedToken.balanceOf(address(this)) */\n      mload(0x40)\n      dup3\n      0xffffffff\n      and\n      0xe0\n      shl\n      dup2\n      mstore\n      0x04\n      add\n      tag_62\n      swap2\n      swap1\n      tag_17\n      jump\t// in\n    tag_62:\n      0x20\n      mload(0x40)\n      dup1\n      dup4\n      sub\n      dup2\n      dup7\n      dup1\n      extcodesize\n      iszero\n      dup1\n      iszero\n      tag_63\n      jumpi\n      0x00\n      dup1\n      revert\n    tag_63:\n      pop\n      gas\n      staticcall\n      iszero\n      dup1\n      iszero\n      tag_65\n      jumpi\n      returndatasize\n      0x00\n      dup1\n      returndatacopy\n      revert(0x00, returndatasize)\n    tag_65:\n      pop\n      pop\n      pop\n      pop\n      mload(0x40)\n      returndatasize\n      not(0x1f)\n      0x1f\n      dup3\n      add\n      and\n      dup3\n      add\n      dup1\n      0x40\n      mstore\n      pop\n      dup2\n      add\n      swap1\n      tag_66\n      swap2\n      swap1\n      tag_67\n      jump\t// in\n    tag_66:\n        /* \"contract/VestingLiquidityHedgey_flattened.sol\":11899:11946  wrappedToken.balanceOf(address(this)) >= amount */\n      lt\n      iszero\n        /* \"contract/VestingLiquidityHedgey_flattened.sol\":11891:11971  require(wrappedToken.balanceOf(address(this)) >= amount, \"Insufficient balance\") */\n      tag_68\n      jumpi\n      mload(0x40)\n      0x08c379a000000000000000000000000000000000000000000000000000000000\n      dup2\n      mstore\n      0x04\n      add\n      tag_69\n      swap1\n      tag_70\n      jump\t// in\n    tag_69:\n      mload(0x40)\n      dup1\n      swap2\n      sub\n      swap1\n      revert\n    tag_68:\n        /* \"contract/VestingLiquidityHedgey_flattened.sol\":12060:12072  wrappedToken */\n      0x03\n      0x00\n      swap1\n      sload\n      swap1\n      0x0100\n      exp\n      swap1\n      div\n      0xffffffffffffffffffffffffffffffffffffffff\n      and\n        /* \"contract/VestingLiquidityHedgey_flattened.sol\":12060:12081  wrappedToken.transfer */\n      0xffffffffffffffffffffffffffffffffffffffff\n      and\n      0xa9059cbb\n        /* \"contract/VestingLiquidityHedgey_flattened.sol\":12082:12084  to */\n      dup4\n        /* \"contract/VestingLiquidityHedgey_flattened.sol\":12086:12092  amount */\n      dup4\n        /* \"contract/VestingLiquidityHedgey_flattened.sol\":12060:12093  wrappedToken.transfer(to, amount) */\n      mload(0x40)\n      dup4\n      0xffffffff\n      and\n      0xe0\n      shl\n      dup2\n      mstore\n      0x04\n      add\n      tag_71\n      swap3\n      swap2\n      swap1\n      tag_72\n      jump\t// in\n    tag_71:\n      0x20\n      mload(0x40)\n      dup1\n      dup4\n      sub\n      dup2\n      0x00\n      dup8\n      dup1\n      extcodesize\n      iszero\n      dup1\n      iszero\n      tag_73\n      jumpi\n      0x00\n      dup1\n      revert\n    tag_73:\n      pop\n      gas\n      call\n      iszero\n      dup1\n      iszero\n      tag_75\n      jumpi\n      returndatasize\n      0x00\n      dup1\n      returndatacopy\n      revert(0x00, returndatasize)\n    tag_75:\n      pop\n      pop\n      pop\n      pop\n      mload(0x40)\n      returndatasize\n      not(0x1f)\n      0x1f\n      dup3\n      add\n      and\n      dup3\n      add\n      dup1\n      0x40\n      mstore\n      pop\n      dup2\n      add\n      swap1\n      tag_76\n      swap2\n      swap1\n      tag_77\n      jump\t// in\n    tag_76:\n        /* \"contract/VestingLiquidityHedgey_flattened.sol\":12052:12113  require(wrappedToken.transfer(to, amount), \"Transfer failed\") */\n      tag_78\n      jumpi\n      mload(0x40)\n      0x08c379a000000000000000000000000000000000000000000000000000000000\n      dup2\n      mstore\n      0x04\n      add\n      tag_79\n      swap1\n      tag_80\n      jump\t// in\n    tag_79:\n      mload(0x40)\n      dup1\n      swap2\n      sub\n      swap1\n      revert\n    tag_78:\n        /* \"contract/VestingLiquidityHedgey_flattened.sol\":12145:12147  to */\n      dup2\n        /* \"contract/VestingLiquidityHedgey_flattened.sol\":12129:12156  TokensWithdrawn(to, amount) */\n      0xffffffffffffffffffffffffffffffffffffffff\n      and\n      0x6352c5382c4a4578e712449ca65e83cdb392d045dfcf1cad9615189db2da244b\n        /* \"contract/VestingLiquidityHedgey_flattened.sol\":12149:12155  amount */\n      dup3\n        /* \"contract/VestingLiquidityHedgey_flattened.sol\":12129:12156  TokensWithdrawn(to, amount) */\n      mload(0x40)\n      tag_81\n      swap2\n      swap1\n      tag_21\n      jump\t// in\n    tag_81:\n      mload(0x40)\n      dup1\n      swap2\n      sub\n      swap1\n      log2\n        /* \"contract/VestingLiquidityHedgey_flattened.sol\":2389:2409  _nonReentrantAfter() */\n      tag_82\n        /* \"contract/VestingLiquidityHedgey_flattened.sol\":2389:2407  _nonReentrantAfter */\n      tag_83\n        /* \"contract/VestingLiquidityHedgey_flattened.sol\":2389:2409  _nonReentrantAfter() */\n      jump\t// in\n    tag_82:\n        /* \"contract/VestingLiquidityHedgey_flattened.sol\":11663:12163  function withdrawal(address to, uint256 amount) external onlyOwner nonReentrant {... */\n      pop\n      pop\n      jump\t// out\n        /* \"contract/VestingLiquidityHedgey_flattened.sol\":11334:11579  function approveContract(uint256 amount) external onlyOwner {... */\n    tag_29:\n        /* \"contract/VestingLiquidityHedgey_flattened.sol\":5271:5284  _checkOwner() */\n      tag_85\n        /* \"contract/VestingLiquidityHedgey_flattened.sol\":5271:5282  _checkOwner */\n      tag_51\n        /* \"contract/VestingLiquidityHedgey_flattened.sol\":5271:5284  _checkOwner() */\n      jump\t// in\n    tag_85:\n        /* \"contract/VestingLiquidityHedgey_flattened.sol\":11477:11489  wrappedToken */\n      0x03\n      0x00\n      swap1\n      sload\n      swap1\n      0x0100\n      exp\n      swap1\n      div\n      0xffffffffffffffffffffffffffffffffffffffff\n      and\n        /* \"contract/VestingLiquidityHedgey_flattened.sol\":11477:11497  wrappedToken.approve */\n      0xffffffffffffffffffffffffffffffffffffffff\n      and\n      0x095ea7b3\n        /* \"contract/VestingLiquidityHedgey_flattened.sol\":11506:11510  this */\n      address\n        /* \"contract/VestingLiquidityHedgey_flattened.sol\":11513:11519  amount */\n      dup4\n        /* \"contract/VestingLiquidityHedgey_flattened.sol\":11477:11520  wrappedToken.approve(address(this), amount) */\n      mload(0x40)\n      dup4\n      0xffffffff\n      and\n      0xe0\n      shl\n      dup2\n      mstore\n      0x04\n      add\n      tag_87\n      swap3\n      swap2\n      swap1\n      tag_72\n      jump\t// in\n    tag_87:\n      0x20\n      mload(0x40)\n      dup1\n      dup4\n      sub\n      dup2\n      0x00\n      dup8\n      dup1\n      extcodesize\n      iszero\n      dup1\n      iszero\n      tag_88\n      jumpi\n      0x00\n      dup1\n      revert\n    tag_88:\n      pop\n      gas\n      call\n      iszero\n      dup1\n      iszero\n      tag_90\n      jumpi\n      returndatasize\n      0x00\n      dup1\n      returndatacopy\n      revert(0x00, returndatasize)\n    tag_90:\n      pop\n      pop\n      pop\n      pop\n      mload(0x40)\n      returndatasize\n      not(0x1f)\n      0x1f\n      dup3\n      add\n      and\n      dup3\n      add\n      dup1\n      0x40\n      mstore\n      pop\n      dup2\n      add\n      swap1\n      tag_91\n      swap2\n      swap1\n      tag_77\n      jump\t// in\n    tag_91:\n      pop\n        /* \"contract/VestingLiquidityHedgey_flattened.sol\":11553:11563  msg.sender */\n      caller\n        /* \"contract/VestingLiquidityHedgey_flattened.sol\":11536:11572  ContractApproved(msg.sender, amount) */\n      0xffffffffffffffffffffffffffffffffffffffff\n      and\n      0x5f327dfbc26b4773c8990edbc20356f43975e2a38466359fad3bd2b77dee2433\n        /* \"contract/VestingLiquidityHedgey_flattened.sol\":11565:11571  amount */\n      dup3\n        /* \"contract/VestingLiquidityHedgey_flattened.sol\":11536:11572  ContractApproved(msg.sender, amount) */\n      mload(0x40)\n      tag_92\n      swap2\n      swap1\n      tag_21\n      jump\t// in\n    tag_92:\n      mload(0x40)\n      dup1\n      swap2\n      sub\n      swap1\n      log2\n        /* \"contract/VestingLiquidityHedgey_flattened.sol\":11334:11579  function approveContract(uint256 amount) external onlyOwner {... */\n      pop\n      jump\t// out\n        /* \"contract/VestingLiquidityHedgey_flattened.sol\":6001:6102  function renounceOwnership() public virtual onlyOwner {... */\n    tag_31:\n        /* \"contract/VestingLiquidityHedgey_flattened.sol\":5271:5284  _checkOwner() */\n      tag_94\n        /* \"contract/VestingLiquidityHedgey_flattened.sol\":5271:5282  _checkOwner */\n      tag_51\n        /* \"contract/VestingLiquidityHedgey_flattened.sol\":5271:5284  _checkOwner() */\n      jump\t// in\n    tag_94:\n        /* \"contract/VestingLiquidityHedgey_flattened.sol\":6065:6095  _transferOwnership(address(0)) */\n      tag_96\n        /* \"contract/VestingLiquidityHedgey_flattened.sol\":6092:6093  0 */\n      0x00\n        /* \"contract/VestingLiquidityHedgey_flattened.sol\":6065:6083  _transferOwnership */\n      tag_97\n        /* \"contract/VestingLiquidityHedgey_flattened.sol\":6065:6095  _transferOwnership(address(0)) */\n      jump\t// in\n    tag_96:\n        /* \"contract/VestingLiquidityHedgey_flattened.sol\":6001:6102  function renounceOwnership() public virtual onlyOwner {... */\n      jump\t// out\n        /* \"contract/VestingLiquidityHedgey_flattened.sol\":5378:5463  function owner() public view virtual returns (address) {... */\n    tag_33:\n        /* \"contract/VestingLiquidityHedgey_flattened.sol\":5424:5431  address */\n      0x00\n        /* \"contract/VestingLiquidityHedgey_flattened.sol\":5450:5456  _owner */\n      dup1\n      0x00\n      swap1\n      sload\n      swap1\n      0x0100\n      exp\n      swap1\n      div\n      0xffffffffffffffffffffffffffffffffffffffff\n      and\n        /* \"contract/VestingLiquidityHedgey_flattened.sol\":5443:5456  return _owner */\n      swap1\n      pop\n        /* \"contract/VestingLiquidityHedgey_flattened.sol\":5378:5463  function owner() public view virtual returns (address) {... */\n      swap1\n      jump\t// out\n        /* \"contract/VestingLiquidityHedgey_flattened.sol\":9784:9810  IERC20 public wrappedToken */\n    tag_36:\n      0x03\n      0x00\n      swap1\n      sload\n      swap1\n      0x0100\n      exp\n      swap1\n      div\n      0xffffffffffffffffffffffffffffffffffffffff\n      and\n      dup2\n      jump\t// out\n        /* \"contract/VestingLiquidityHedgey_flattened.sol\":9821:9848  uint256 public blockCounter */\n    tag_40:\n      sload(0x04)\n      dup2\n      jump\t// out\n        /* \"contract/VestingLiquidityHedgey_flattened.sol\":10525:11256  function depositAndTransfer(uint256 amount) external {... */\n    tag_44:\n        /* \"contract/VestingLiquidityHedgey_flattened.sol\":10605:10606  0 */\n      0x00\n        /* \"contract/VestingLiquidityHedgey_flattened.sol\":10596:10602  amount */\n      dup2\n        /* \"contract/VestingLiquidityHedgey_flattened.sol\":10596:10606  amount > 0 */\n      gt\n        /* \"contract/VestingLiquidityHedgey_flattened.sol\":10588:10648  require(amount > 0, \"Deposit amount must be greater than 0\") */\n      tag_100\n      jumpi\n      mload(0x40)\n      0x08c379a000000000000000000000000000000000000000000000000000000000\n      dup2\n      mstore\n      0x04\n      add\n      tag_101\n      swap1\n      tag_102\n      jump\t// in\n    tag_101:\n      mload(0x40)\n      dup1\n      swap2\n      sub\n      swap1\n      revert\n    tag_100:\n        /* \"contract/VestingLiquidityHedgey_flattened.sol\":10806:10812  amount */\n      dup1\n        /* \"contract/VestingLiquidityHedgey_flattened.sol\":10753:10765  wrappedToken */\n      0x03\n      0x00\n      swap1\n      sload\n      swap1\n      0x0100\n      exp\n      swap1\n      div\n      0xffffffffffffffffffffffffffffffffffffffff\n      and\n        /* \"contract/VestingLiquidityHedgey_flattened.sol\":10753:10775  wrappedToken.allowance */\n      0xffffffffffffffffffffffffffffffffffffffff\n      and\n      0xdd62ed3e\n        /* \"contract/VestingLiquidityHedgey_flattened.sol\":10776:10786  msg.sender */\n      caller\n        /* \"contract/VestingLiquidityHedgey_flattened.sol\":10796:10800  this */\n      address\n        /* \"contract/VestingLiquidityHedgey_flattened.sol\":10753:10802  wrappedToken.allowance(msg.sender, address(this)) */\n      mload(0x40)\n      dup4\n      0xffffffff\n      and\n      0xe0\n      shl\n      dup2\n      mstore\n      0x04\n      add\n      tag_103\n      swap3\n      swap2\n      swap1\n      tag_104\n      jump\t// in\n    tag_103:\n      0x20\n      mload(0x40)\n      dup1\n      dup4\n      sub\n      dup2\n      dup7\n      dup1\n      extcodesize\n      iszero\n      dup1\n      iszero\n      tag_105\n      jumpi\n      0x00\n      dup1\n      revert\n    tag_105:\n      pop\n      gas\n      staticcall\n      iszero\n      dup1\n      iszero\n      tag_107\n      jumpi\n      returndatasize\n      0x00\n      dup1\n      returndatacopy\n      revert(0x00, returndatasize)\n    tag_107:\n      pop\n      pop\n      pop\n      pop\n      mload(0x40)\n      returndatasize\n      not(0x1f)\n      0x1f\n      dup3\n      add\n      and\n      dup3\n      add\n      dup1\n      0x40\n      mstore\n      pop\n      dup2\n      add\n      swap1\n      tag_108\n      swap2\n      swap1\n      tag_67\n      jump\t// in\n    tag_108:\n        /* \"contract/VestingLiquidityHedgey_flattened.sol\":10753:10812  wrappedToken.allowance(msg.sender, address(this)) >= amount */\n      lt\n      iszero\n        /* \"contract/VestingLiquidityHedgey_flattened.sol\":10745:10837  require(wrappedToken.allowance(msg.sender, address(this)) >= amount, \"Not enough allowance\") */\n      tag_109\n      jumpi\n      mload(0x40)\n      0x08c379a000000000000000000000000000000000000000000000000000000000\n      dup2\n      mstore\n      0x04\n      add\n      tag_110\n      swap1\n      tag_111\n      jump\t// in\n    tag_110:\n      mload(0x40)\n      dup1\n      swap2\n      sub\n      swap1\n      revert\n    tag_109:\n        /* \"contract/VestingLiquidityHedgey_flattened.sol\":10912:10924  wrappedToken */\n      0x03\n      0x00\n      swap1\n      sload\n      swap1\n      0x0100\n      exp\n      swap1\n      div\n      0xffffffffffffffffffffffffffffffffffffffff\n      and\n        /* \"contract/VestingLiquidityHedgey_flattened.sol\":10912:10937  wrappedToken.transferFrom */\n      0xffffffffffffffffffffffffffffffffffffffff\n      and\n      0x23b872dd\n        /* \"contract/VestingLiquidityHedgey_flattened.sol\":10938:10948  msg.sender */\n      caller\n        /* \"contract/VestingLiquidityHedgey_flattened.sol\":10958:10962  this */\n      address\n        /* \"contract/VestingLiquidityHedgey_flattened.sol\":10965:10971  amount */\n      dup5\n        /* \"contract/VestingLiquidityHedgey_flattened.sol\":10912:10972  wrappedToken.transferFrom(msg.sender, address(this), amount) */\n      mload(0x40)\n      dup5\n      0xffffffff\n      and\n      0xe0\n      shl\n      dup2\n      mstore\n      0x04\n      add\n      tag_112\n      swap4\n      swap3\n      swap2\n      swap1\n      tag_113\n      jump\t// in\n    tag_112:\n      0x20\n      mload(0x40)\n      dup1\n      dup4\n      sub\n      dup2\n      0x00\n      dup8\n      dup1\n      extcodesize\n      iszero\n      dup1\n      iszero\n      tag_114\n      jumpi\n      0x00\n      dup1\n      revert\n    tag_114:\n      pop\n      gas\n      call\n      iszero\n      dup1\n      iszero\n      tag_116\n      jumpi\n      returndatasize\n      0x00\n      dup1\n      returndatacopy\n      revert(0x00, returndatasize)\n    tag_116:\n      pop\n      pop\n      pop\n      pop\n      mload(0x40)\n      returndatasize\n      not(0x1f)\n      0x1f\n      dup3\n      add\n      and\n      dup3\n      add\n      dup1\n      0x40\n      mstore\n      pop\n      dup2\n      add\n      swap1\n      tag_117\n      swap2\n      swap1\n      tag_77\n      jump\t// in\n    tag_117:\n        /* \"contract/VestingLiquidityHedgey_flattened.sol\":10904:10992  require(wrappedToken.transferFrom(msg.sender, address(this), amount), \"Transfer failed\") */\n      tag_118\n      jumpi\n      mload(0x40)\n      0x08c379a000000000000000000000000000000000000000000000000000000000\n      dup2\n      mstore\n      0x04\n      add\n      tag_119\n      swap1\n      tag_80\n      jump\t// in\n    tag_119:\n      mload(0x40)\n      dup1\n      swap2\n      sub\n      swap1\n      revert\n    tag_118:\n        /* \"contract/VestingLiquidityHedgey_flattened.sol\":11068:11091  executeTransferToPool() */\n      tag_120\n        /* \"contract/VestingLiquidityHedgey_flattened.sol\":11068:11089  executeTransferToPool */\n      tag_121\n        /* \"contract/VestingLiquidityHedgey_flattened.sol\":11068:11091  executeTransferToPool() */\n      jump\t// in\n    tag_120:\n        /* \"contract/VestingLiquidityHedgey_flattened.sol\":11237:11249  block.number */\n      number\n        /* \"contract/VestingLiquidityHedgey_flattened.sol\":11222:11234  blockCounter */\n      0x04\n        /* \"contract/VestingLiquidityHedgey_flattened.sol\":11222:11249  blockCounter = block.number */\n      dup2\n      swap1\n      sstore\n      pop\n        /* \"contract/VestingLiquidityHedgey_flattened.sol\":10525:11256  function depositAndTransfer(uint256 amount) external {... */\n      pop\n      jump\t// out\n        /* \"contract/VestingLiquidityHedgey_flattened.sol\":12247:12491  function transferOwnership(address newOwner) public onlyOwner override {... */\n    tag_48:\n        /* \"contract/VestingLiquidityHedgey_flattened.sol\":5271:5284  _checkOwner() */\n      tag_123\n        /* \"contract/VestingLiquidityHedgey_flattened.sol\":5271:5282  _checkOwner */\n      tag_51\n        /* \"contract/VestingLiquidityHedgey_flattened.sol\":5271:5284  _checkOwner() */\n      jump\t// in\n    tag_123:\n        /* \"contract/VestingLiquidityHedgey_flattened.sol\":12356:12357  0 */\n      0x00\n        /* \"contract/VestingLiquidityHedgey_flattened.sol\":12336:12358  newOwner != address(0) */\n      0xffffffffffffffffffffffffffffffffffffffff\n      and\n        /* \"contract/VestingLiquidityHedgey_flattened.sol\":12336:12344  newOwner */\n      dup2\n        /* \"contract/VestingLiquidityHedgey_flattened.sol\":12336:12358  newOwner != address(0) */\n      0xffffffffffffffffffffffffffffffffffffffff\n      and\n      eq\n      iszero\n        /* \"contract/VestingLiquidityHedgey_flattened.sol\":12328:12392  require(newOwner != address(0), \"New owner is the zero address\") */\n      tag_125\n      jumpi\n      mload(0x40)\n      0x08c379a000000000000000000000000000000000000000000000000000000000\n      dup2\n      mstore\n      0x04\n      add\n      tag_126\n      swap1\n      tag_127\n      jump\t// in\n    tag_126:\n      mload(0x40)\n      dup1\n      swap2\n      sub\n      swap1\n      revert\n    tag_125:\n        /* \"contract/VestingLiquidityHedgey_flattened.sol\":12437:12445  newOwner */\n      dup1\n        /* \"contract/VestingLiquidityHedgey_flattened.sol\":12407:12446  OwnershipTransferred(owner(), newOwner) */\n      0xffffffffffffffffffffffffffffffffffffffff\n      and\n        /* \"contract/VestingLiquidityHedgey_flattened.sol\":12428:12435  owner() */\n      tag_128\n        /* \"contract/VestingLiquidityHedgey_flattened.sol\":12428:12433  owner */\n      tag_33\n        /* \"contract/VestingLiquidityHedgey_flattened.sol\":12428:12435  owner() */\n      jump\t// in\n    tag_128:\n        /* \"contract/VestingLiquidityHedgey_flattened.sol\":12407:12446  OwnershipTransferred(owner(), newOwner) */\n      0xffffffffffffffffffffffffffffffffffffffff\n      and\n      0x8be0079c531659141344cd1fd0a4f28419497f9722a3daafe3b4186f6b6457e0\n      mload(0x40)\n      mload(0x40)\n      dup1\n      swap2\n      sub\n      swap1\n      log3\n        /* \"contract/VestingLiquidityHedgey_flattened.sol\":12456:12484  _transferOwnership(newOwner) */\n      tag_129\n        /* \"contract/VestingLiquidityHedgey_flattened.sol\":12475:12483  newOwner */\n      dup2\n        /* \"contract/VestingLiquidityHedgey_flattened.sol\":12456:12474  _transferOwnership */\n      tag_97\n        /* \"contract/VestingLiquidityHedgey_flattened.sol\":12456:12484  _transferOwnership(newOwner) */\n      jump\t// in\n    tag_129:\n        /* \"contract/VestingLiquidityHedgey_flattened.sol\":12247:12491  function transferOwnership(address newOwner) public onlyOwner override {... */\n      pop\n      jump\t// out\n        /* \"contract/VestingLiquidityHedgey_flattened.sol\":5536:5666  function _checkOwner() internal view virtual {... */\n    tag_51:\n        /* \"contract/VestingLiquidityHedgey_flattened.sol\":5610:5622  _msgSender() */\n      tag_131\n        /* \"contract/VestingLiquidityHedgey_flattened.sol\":5610:5620  _msgSender */\n      tag_132\n        /* \"contract/VestingLiquidityHedgey_flattened.sol\":5610:5622  _msgSender() */\n      jump\t// in\n    tag_131:\n        /* \"contract/VestingLiquidityHedgey_flattened.sol\":5599:5622  owner() == _msgSender() */\n      0xffffffffffffffffffffffffffffffffffffffff\n      and\n        /* \"contract/VestingLiquidityHedgey_flattened.sol\":5599:5606  owner() */\n      tag_133\n        /* \"contract/VestingLiquidityHedgey_flattened.sol\":5599:5604  owner */\n      tag_33\n        /* \"contract/VestingLiquidityHedgey_flattened.sol\":5599:5606  owner() */\n      jump\t// in\n    tag_133:\n        /* \"contract/VestingLiquidityHedgey_flattened.sol\":5599:5622  owner() == _msgSender() */\n      0xffffffffffffffffffffffffffffffffffffffff\n      and\n      eq\n        /* \"contract/VestingLiquidityHedgey_flattened.sol\":5591:5659  require(owner() == _msgSender(), \"Ownable: caller is not the owner\") */\n      tag_134\n      jumpi\n      mload(0x40)\n      0x08c379a000000000000000000000000000000000000000000000000000000000\n      dup2\n      mstore\n      0x04\n      add\n      tag_135\n      swap1\n      tag_136\n      jump\t// in\n    tag_135:\n      mload(0x40)\n      dup1\n      swap2\n      sub\n      swap1\n      revert\n    tag_134:\n        /* \"contract/VestingLiquidityHedgey_flattened.sol\":5536:5666  function _checkOwner() internal view virtual {... */\n      jump\t// out\n        /* \"contract/VestingLiquidityHedgey_flattened.sol\":2422:2709  function _nonReentrantBefore() private {... */\n    tag_54:\n        /* \"contract/VestingLiquidityHedgey_flattened.sol\":1845:1846  2 */\n      0x02\n        /* \"contract/VestingLiquidityHedgey_flattened.sol\":2554:2561  _status */\n      sload(0x01)\n        /* \"contract/VestingLiquidityHedgey_flattened.sol\":2554:2573  _status != _ENTERED */\n      eq\n      iszero\n        /* \"contract/VestingLiquidityHedgey_flattened.sol\":2546:2609  require(_status != _ENTERED, \"ReentrancyGuard: reentrant call\") */\n      tag_138\n      jumpi\n      mload(0x40)\n      0x08c379a000000000000000000000000000000000000000000000000000000000\n      dup2\n      mstore\n      0x04\n      add\n      tag_139\n      swap1\n      tag_140\n      jump\t// in\n    tag_139:\n      mload(0x40)\n      dup1\n      swap2\n      sub\n      swap1\n      revert\n    tag_138:\n        /* \"contract/VestingLiquidityHedgey_flattened.sol\":1845:1846  2 */\n      0x02\n        /* \"contract/VestingLiquidityHedgey_flattened.sol\":2684:2691  _status */\n      0x01\n        /* \"contract/VestingLiquidityHedgey_flattened.sol\":2684:2702  _status = _ENTERED */\n      dup2\n      swap1\n      sstore\n      pop\n        /* \"contract/VestingLiquidityHedgey_flattened.sol\":2422:2709  function _nonReentrantBefore() private {... */\n      jump\t// out\n        /* \"contract/VestingLiquidityHedgey_flattened.sol\":2715:2924  function _nonReentrantAfter() private {... */\n    tag_83:\n        /* \"contract/VestingLiquidityHedgey_flattened.sol\":1802:1803  1 */\n      0x01\n        /* \"contract/VestingLiquidityHedgey_flattened.sol\":2895:2902  _status */\n      dup1\n        /* \"contract/VestingLiquidityHedgey_flattened.sol\":2895:2917  _status = _NOT_ENTERED */\n      dup2\n      swap1\n      sstore\n      pop\n        /* \"contract/VestingLiquidityHedgey_flattened.sol\":2715:2924  function _nonReentrantAfter() private {... */\n      jump\t// out\n        /* \"contract/VestingLiquidityHedgey_flattened.sol\":6603:6790  function _transferOwnership(address newOwner) internal virtual {... */\n    tag_97:\n        /* \"contract/VestingLiquidityHedgey_flattened.sol\":6676:6692  address oldOwner */\n      0x00\n        /* \"contract/VestingLiquidityHedgey_flattened.sol\":6695:6701  _owner */\n      dup1\n      0x00\n      swap1\n      sload\n      swap1\n      0x0100\n      exp\n      swap1\n      div\n      0xffffffffffffffffffffffffffffffffffffffff\n      and\n        /* \"contract/VestingLiquidityHedgey_flattened.sol\":6676:6701  address oldOwner = _owner */\n      swap1\n      pop\n        /* \"contract/VestingLiquidityHedgey_flattened.sol\":6720:6728  newOwner */\n      dup2\n        /* \"contract/VestingLiquidityHedgey_flattened.sol\":6711:6717  _owner */\n      0x00\n      dup1\n        /* \"contract/VestingLiquidityHedgey_flattened.sol\":6711:6728  _owner = newOwner */\n      0x0100\n      exp\n      dup2\n      sload\n      dup2\n      0xffffffffffffffffffffffffffffffffffffffff\n      mul\n      not\n      and\n      swap1\n      dup4\n      0xffffffffffffffffffffffffffffffffffffffff\n      and\n      mul\n      or\n      swap1\n      sstore\n      pop\n        /* \"contract/VestingLiquidityHedgey_flattened.sol\":6774:6782  newOwner */\n      dup2\n        /* \"contract/VestingLiquidityHedgey_flattened.sol\":6743:6783  OwnershipTransferred(oldOwner, newOwner) */\n      0xffffffffffffffffffffffffffffffffffffffff\n      and\n        /* \"contract/VestingLiquidityHedgey_flattened.sol\":6764:6772  oldOwner */\n      dup2\n        /* \"contract/VestingLiquidityHedgey_flattened.sol\":6743:6783  OwnershipTransferred(oldOwner, newOwner) */\n      0xffffffffffffffffffffffffffffffffffffffff\n      and\n      0x8be0079c531659141344cd1fd0a4f28419497f9722a3daafe3b4186f6b6457e0\n      mload(0x40)\n      mload(0x40)\n      dup1\n      swap2\n      sub\n      swap1\n      log3\n        /* \"contract/VestingLiquidityHedgey_flattened.sol\":6603:6790  function _transferOwnership(address newOwner) internal virtual {... */\n      pop\n      pop\n      jump\t// out\n        /* \"contract/VestingLiquidityHedgey_flattened.sol\":12562:12902  function executeTransferToPool() internal {... */\n    tag_121:\n        /* \"contract/VestingLiquidityHedgey_flattened.sol\":12686:12709  uint256 contractBalance */\n      0x00\n        /* \"contract/VestingLiquidityHedgey_flattened.sol\":12712:12724  wrappedToken */\n      0x03\n      0x00\n      swap1\n      sload\n      swap1\n      0x0100\n      exp\n      swap1\n      div\n      0xffffffffffffffffffffffffffffffffffffffff\n      and\n        /* \"contract/VestingLiquidityHedgey_flattened.sol\":12712:12734  wrappedToken.balanceOf */\n      0xffffffffffffffffffffffffffffffffffffffff\n      and\n      0x70a08231\n        /* \"contract/VestingLiquidityHedgey_flattened.sol\":12743:12747  this */\n      address\n        /* \"contract/VestingLiquidityHedgey_flattened.sol\":12712:12749  wrappedToken.balanceOf(address(this)) */\n      mload(0x40)\n      dup3\n      0xffffffff\n      and\n      0xe0\n      shl\n      dup2\n      mstore\n      0x04\n      add\n      tag_144\n      swap2\n      swap1\n      tag_17\n      jump\t// in\n    tag_144:\n      0x20\n      mload(0x40)\n      dup1\n      dup4\n      sub\n      dup2\n      dup7\n      dup1\n      extcodesize\n      iszero\n      dup1\n      iszero\n      tag_145\n      jumpi\n      0x00\n      dup1\n      revert\n    tag_145:\n      pop\n      gas\n      staticcall\n      iszero\n      dup1\n      iszero\n      tag_147\n      jumpi\n      returndatasize\n      0x00\n      dup1\n      returndatacopy\n      revert(0x00, returndatasize)\n    tag_147:\n      pop\n      pop\n      pop\n      pop\n      mload(0x40)\n      returndatasize\n      not(0x1f)\n      0x1f\n      dup3\n      add\n      and\n      dup3\n      add\n      dup1\n      0x40\n      mstore\n      pop\n      dup2\n      add\n      swap1\n      tag_148\n      swap2\n      swap1\n      tag_67\n      jump\t// in\n    tag_148:\n        /* \"contract/VestingLiquidityHedgey_flattened.sol\":12686:12749  uint256 contractBalance = wrappedToken.balanceOf(address(this)) */\n      swap1\n      pop\n        /* \"contract/VestingLiquidityHedgey_flattened.sol\":12781:12782  0 */\n      0x00\n        /* \"contract/VestingLiquidityHedgey_flattened.sol\":12763:12778  contractBalance */\n      dup2\n        /* \"contract/VestingLiquidityHedgey_flattened.sol\":12763:12782  contractBalance > 0 */\n      gt\n        /* \"contract/VestingLiquidityHedgey_flattened.sol\":12759:12896  if (contractBalance > 0) {... */\n      iszero\n      tag_149\n      jumpi\n        /* \"contract/VestingLiquidityHedgey_flattened.sol\":12806:12818  wrappedToken */\n      0x03\n      0x00\n      swap1\n      sload\n      swap1\n      0x0100\n      exp\n      swap1\n      div\n      0xffffffffffffffffffffffffffffffffffffffff\n      and\n        /* \"contract/VestingLiquidityHedgey_flattened.sol\":12806:12827  wrappedToken.transfer */\n      0xffffffffffffffffffffffffffffffffffffffff\n      and\n      0xa9059cbb\n        /* \"contract/VestingLiquidityHedgey_flattened.sol\":12828:12839  poolAddress */\n      0x02\n      0x00\n      swap1\n      sload\n      swap1\n      0x0100\n      exp\n      swap1\n      div\n      0xffffffffffffffffffffffffffffffffffffffff\n      and\n        /* \"contract/VestingLiquidityHedgey_flattened.sol\":12841:12856  contractBalance */\n      dup4\n        /* \"contract/VestingLiquidityHedgey_flattened.sol\":12806:12857  wrappedToken.transfer(poolAddress, contractBalance) */\n      mload(0x40)\n      dup4\n      0xffffffff\n      and\n      0xe0\n      shl\n      dup2\n      mstore\n      0x04\n      add\n      tag_150\n      swap3\n      swap2\n      swap1\n      tag_72\n      jump\t// in\n    tag_150:\n      0x20\n      mload(0x40)\n      dup1\n      dup4\n      sub\n      dup2\n      0x00\n      dup8\n      dup1\n      extcodesize\n      iszero\n      dup1\n      iszero\n      tag_151\n      jumpi\n      0x00\n      dup1\n      revert\n    tag_151:\n      pop\n      gas\n      call\n      iszero\n      dup1\n      iszero\n      tag_153\n      jumpi\n      returndatasize\n      0x00\n      dup1\n      returndatacopy\n      revert(0x00, returndatasize)\n    tag_153:\n      pop\n      pop\n      pop\n      pop\n      mload(0x40)\n      returndatasize\n      not(0x1f)\n      0x1f\n      dup3\n      add\n      and\n      dup3\n      add\n      dup1\n      0x40\n      mstore\n      pop\n      dup2\n      add\n      swap1\n      tag_154\n      swap2\n      swap1\n      tag_77\n      jump\t// in\n    tag_154:\n        /* \"contract/VestingLiquidityHedgey_flattened.sol\":12798:12885  require(wrappedToken.transfer(poolAddress, contractBalance), \"Transfer to pool failed\") */\n      tag_155\n      jumpi\n      mload(0x40)\n      0x08c379a000000000000000000000000000000000000000000000000000000000\n      dup2\n      mstore\n      0x04\n      add\n      tag_156\n      swap1\n      tag_157\n      jump\t// in\n    tag_156:\n      mload(0x40)\n      dup1\n      swap2\n      sub\n      swap1\n      revert\n    tag_155:\n        /* \"contract/VestingLiquidityHedgey_flattened.sol\":12759:12896  if (contractBalance > 0) {... */\n    tag_149:\n        /* \"contract/VestingLiquidityHedgey_flattened.sol\":12562:12902  function executeTransferToPool() internal {... */\n      pop\n      jump\t// out\n        /* \"contract/VestingLiquidityHedgey_flattened.sol\":3928:4024  function _msgSender() internal view virtual returns (address) {... */\n    tag_132:\n        /* \"contract/VestingLiquidityHedgey_flattened.sol\":3981:3988  address */\n      0x00\n        /* \"contract/VestingLiquidityHedgey_flattened.sol\":4007:4017  msg.sender */\n      caller\n        /* \"contract/VestingLiquidityHedgey_flattened.sol\":4000:4017  return msg.sender */\n      swap1\n      pop\n        /* \"contract/VestingLiquidityHedgey_flattened.sol\":3928:4024  function _msgSender() internal view virtual returns (address) {... */\n      swap1\n      jump\t// out\n        /* \"#utility.yul\":7:146   */\n    tag_160:\n      0x00\n        /* \"#utility.yul\":91:97   */\n      dup2\n        /* \"#utility.yul\":78:98   */\n      calldataload\n        /* \"#utility.yul\":69:98   */\n      swap1\n      pop\n        /* \"#utility.yul\":107:140   */\n      tag_162\n        /* \"#utility.yul\":134:139   */\n      dup2\n        /* \"#utility.yul\":107:140   */\n      tag_163\n      jump\t// in\n    tag_162:\n        /* \"#utility.yul\":59:146   */\n      swap3\n      swap2\n      pop\n      pop\n      jump\t// out\n        /* \"#utility.yul\":152:289   */\n    tag_164:\n      0x00\n        /* \"#utility.yul\":237:243   */\n      dup2\n        /* \"#utility.yul\":231:244   */\n      mload\n        /* \"#utility.yul\":222:244   */\n      swap1\n      pop\n        /* \"#utility.yul\":253:283   */\n      tag_166\n        /* \"#utility.yul\":277:282   */\n      dup2\n        /* \"#utility.yul\":253:283   */\n      tag_167\n      jump\t// in\n    tag_166:\n        /* \"#utility.yul\":212:289   */\n      swap3\n      swap2\n      pop\n      pop\n      jump\t// out\n        /* \"#utility.yul\":295:434   */\n    tag_168:\n      0x00\n        /* \"#utility.yul\":379:385   */\n      dup2\n        /* \"#utility.yul\":366:386   */\n      calldataload\n        /* \"#utility.yul\":357:386   */\n      swap1\n      pop\n        /* \"#utility.yul\":395:428   */\n      tag_170\n        /* \"#utility.yul\":422:427   */\n      dup2\n        /* \"#utility.yul\":395:428   */\n      tag_171\n      jump\t// in\n    tag_170:\n        /* \"#utility.yul\":347:434   */\n      swap3\n      swap2\n      pop\n      pop\n      jump\t// out\n        /* \"#utility.yul\":440:583   */\n    tag_172:\n      0x00\n        /* \"#utility.yul\":528:534   */\n      dup2\n        /* \"#utility.yul\":522:535   */\n      mload\n        /* \"#utility.yul\":513:535   */\n      swap1\n      pop\n        /* \"#utility.yul\":544:577   */\n      tag_174\n        /* \"#utility.yul\":571:576   */\n      dup2\n        /* \"#utility.yul\":544:577   */\n      tag_171\n      jump\t// in\n    tag_174:\n        /* \"#utility.yul\":503:583   */\n      swap3\n      swap2\n      pop\n      pop\n      jump\t// out\n        /* \"#utility.yul\":589:851   */\n    tag_47:\n      0x00\n        /* \"#utility.yul\":697:699   */\n      0x20\n        /* \"#utility.yul\":685:694   */\n      dup3\n        /* \"#utility.yul\":676:683   */\n      dup5\n        /* \"#utility.yul\":672:695   */\n      sub\n        /* \"#utility.yul\":668:700   */\n      slt\n        /* \"#utility.yul\":665:667   */\n      iszero\n      tag_176\n      jumpi\n        /* \"#utility.yul\":713:714   */\n      0x00\n        /* \"#utility.yul\":710:711   */\n      dup1\n        /* \"#utility.yul\":703:715   */\n      revert\n        /* \"#utility.yul\":665:667   */\n    tag_176:\n        /* \"#utility.yul\":756:757   */\n      0x00\n        /* \"#utility.yul\":781:834   */\n      tag_177\n        /* \"#utility.yul\":826:833   */\n      dup5\n        /* \"#utility.yul\":817:823   */\n      dup3\n        /* \"#utility.yul\":806:815   */\n      dup6\n        /* \"#utility.yul\":802:824   */\n      add\n        /* \"#utility.yul\":781:834   */\n      tag_160\n      jump\t// in\n    tag_177:\n        /* \"#utility.yul\":771:834   */\n      swap2\n      pop\n        /* \"#utility.yul\":727:844   */\n      pop\n        /* \"#utility.yul\":655:851   */\n      swap3\n      swap2\n      pop\n      pop\n      jump\t// out\n        /* \"#utility.yul\":857:1264   */\n    tag_24:\n      0x00\n      dup1\n        /* \"#utility.yul\":982:984   */\n      0x40\n        /* \"#utility.yul\":970:979   */\n      dup4\n        /* \"#utility.yul\":961:968   */\n      dup6\n        /* \"#utility.yul\":957:980   */\n      sub\n        /* \"#utility.yul\":953:985   */\n      slt\n        /* \"#utility.yul\":950:952   */\n      iszero\n      tag_179\n      jumpi\n        /* \"#utility.yul\":998:999   */\n      0x00\n        /* \"#utility.yul\":995:996   */\n      dup1\n        /* \"#utility.yul\":988:1000   */\n      revert\n        /* \"#utility.yul\":950:952   */\n    tag_179:\n        /* \"#utility.yul\":1041:1042   */\n      0x00\n        /* \"#utility.yul\":1066:1119   */\n      tag_180\n        /* \"#utility.yul\":1111:1118   */\n      dup6\n        /* \"#utility.yul\":1102:1108   */\n      dup3\n        /* \"#utility.yul\":1091:1100   */\n      dup7\n        /* \"#utility.yul\":1087:1109   */\n      add\n        /* \"#utility.yul\":1066:1119   */\n      tag_160\n      jump\t// in\n    tag_180:\n        /* \"#utility.yul\":1056:1119   */\n      swap3\n      pop\n        /* \"#utility.yul\":1012:1129   */\n      pop\n        /* \"#utility.yul\":1168:1170   */\n      0x20\n        /* \"#utility.yul\":1194:1247   */\n      tag_181\n        /* \"#utility.yul\":1239:1246   */\n      dup6\n        /* \"#utility.yul\":1230:1236   */\n      dup3\n        /* \"#utility.yul\":1219:1228   */\n      dup7\n        /* \"#utility.yul\":1215:1237   */\n      add\n        /* \"#utility.yul\":1194:1247   */\n      tag_168\n      jump\t// in\n    tag_181:\n        /* \"#utility.yul\":1184:1247   */\n      swap2\n      pop\n        /* \"#utility.yul\":1139:1257   */\n      pop\n        /* \"#utility.yul\":940:1264   */\n      swap3\n      pop\n      swap3\n      swap1\n      pop\n      jump\t// out\n        /* \"#utility.yul\":1270:1548   */\n    tag_77:\n      0x00\n        /* \"#utility.yul\":1386:1388   */\n      0x20\n        /* \"#utility.yul\":1374:1383   */\n      dup3\n        /* \"#utility.yul\":1365:1372   */\n      dup5\n        /* \"#utility.yul\":1361:1384   */\n      sub\n        /* \"#utility.yul\":1357:1389   */\n      slt\n        /* \"#utility.yul\":1354:1356   */\n      iszero\n      tag_183\n      jumpi\n        /* \"#utility.yul\":1402:1403   */\n      0x00\n        /* \"#utility.yul\":1399:1400   */\n      dup1\n        /* \"#utility.yul\":1392:1404   */\n      revert\n        /* \"#utility.yul\":1354:1356   */\n    tag_183:\n        /* \"#utility.yul\":1445:1446   */\n      0x00\n        /* \"#utility.yul\":1470:1531   */\n      tag_184\n        /* \"#utility.yul\":1523:1530   */\n      dup5\n        /* \"#utility.yul\":1514:1520   */\n      dup3\n        /* \"#utility.yul\":1503:1512   */\n      dup6\n        /* \"#utility.yul\":1499:1521   */\n      add\n        /* \"#utility.yul\":1470:1531   */\n      tag_164\n      jump\t// in\n    tag_184:\n        /* \"#utility.yul\":1460:1531   */\n      swap2\n      pop\n        /* \"#utility.yul\":1416:1541   */\n      pop\n        /* \"#utility.yul\":1344:1548   */\n      swap3\n      swap2\n      pop\n      pop\n      jump\t// out\n        /* \"#utility.yul\":1554:1816   */\n    tag_28:\n      0x00\n        /* \"#utility.yul\":1662:1664   */\n      0x20\n        /* \"#utility.yul\":1650:1659   */\n      dup3\n        /* \"#utility.yul\":1641:1648   */\n      dup5\n        /* \"#utility.yul\":1637:1660   */\n      sub\n        /* \"#utility.yul\":1633:1665   */\n      slt\n        /* \"#utility.yul\":1630:1632   */\n      iszero\n      tag_186\n      jumpi\n        /* \"#utility.yul\":1678:1679   */\n      0x00\n        /* \"#utility.yul\":1675:1676   */\n      dup1\n        /* \"#utility.yul\":1668:1680   */\n      revert\n        /* \"#utility.yul\":1630:1632   */\n    tag_186:\n        /* \"#utility.yul\":1721:1722   */\n      0x00\n        /* \"#utility.yul\":1746:1799   */\n      tag_187\n        /* \"#utility.yul\":1791:1798   */\n      dup5\n        /* \"#utility.yul\":1782:1788   */\n      dup3\n        /* \"#utility.yul\":1771:1780   */\n      dup6\n        /* \"#utility.yul\":1767:1789   */\n      add\n        /* \"#utility.yul\":1746:1799   */\n      tag_168\n      jump\t// in\n    tag_187:\n        /* \"#utility.yul\":1736:1799   */\n      swap2\n      pop\n        /* \"#utility.yul\":1692:1809   */\n      pop\n        /* \"#utility.yul\":1620:1816   */\n      swap3\n      swap2\n      pop\n      pop\n      jump\t// out\n        /* \"#utility.yul\":1822:2106   */\n    tag_67:\n      0x00\n        /* \"#utility.yul\":1941:1943   */\n      0x20\n        /* \"#utility.yul\":1929:1938   */\n      dup3\n        /* \"#utility.yul\":1920:1927   */\n      dup5\n        /* \"#utility.yul\":1916:1939   */\n      sub\n        /* \"#utility.yul\":1912:1944   */\n      slt\n        /* \"#utility.yul\":1909:1911   */\n      iszero\n      tag_189\n      jumpi\n        /* \"#utility.yul\":1957:1958   */\n      0x00\n        /* \"#utility.yul\":1954:1955   */\n      dup1\n        /* \"#utility.yul\":1947:1959   */\n      revert\n        /* \"#utility.yul\":1909:1911   */\n    tag_189:\n        /* \"#utility.yul\":2000:2001   */\n      0x00\n        /* \"#utility.yul\":2025:2089   */\n      tag_190\n        /* \"#utility.yul\":2081:2088   */\n      dup5\n        /* \"#utility.yul\":2072:2078   */\n      dup3\n        /* \"#utility.yul\":2061:2070   */\n      dup6\n        /* \"#utility.yul\":2057:2079   */\n      add\n        /* \"#utility.yul\":2025:2089   */\n      tag_172\n      jump\t// in\n    tag_190:\n        /* \"#utility.yul\":2015:2089   */\n      swap2\n      pop\n        /* \"#utility.yul\":1971:2099   */\n      pop\n        /* \"#utility.yul\":1899:2106   */\n      swap3\n      swap2\n      pop\n      pop\n      jump\t// out\n        /* \"#utility.yul\":2112:2230   */\n    tag_191:\n        /* \"#utility.yul\":2199:2223   */\n      tag_193\n        /* \"#utility.yul\":2217:2222   */\n      dup2\n        /* \"#utility.yul\":2199:2223   */\n      tag_194\n      jump\t// in\n    tag_193:\n        /* \"#utility.yul\":2194:2197   */\n      dup3\n        /* \"#utility.yul\":2187:2224   */\n      mstore\n        /* \"#utility.yul\":2177:2230   */\n      pop\n      pop\n      jump\t// out\n        /* \"#utility.yul\":2236:2395   */\n    tag_195:\n        /* \"#utility.yul\":2337:2388   */\n      tag_197\n        /* \"#utility.yul\":2382:2387   */\n      dup2\n        /* \"#utility.yul\":2337:2388   */\n      tag_198\n      jump\t// in\n    tag_197:\n        /* \"#utility.yul\":2332:2335   */\n      dup3\n        /* \"#utility.yul\":2325:2389   */\n      mstore\n        /* \"#utility.yul\":2315:2395   */\n      pop\n      pop\n      jump\t// out\n        /* \"#utility.yul\":2401:2770   */\n    tag_199:\n      0x00\n        /* \"#utility.yul\":2564:2631   */\n      tag_201\n        /* \"#utility.yul\":2628:2630   */\n      0x25\n        /* \"#utility.yul\":2623:2626   */\n      dup4\n        /* \"#utility.yul\":2564:2631   */\n      tag_202\n      jump\t// in\n    tag_201:\n        /* \"#utility.yul\":2557:2631   */\n      swap2\n      pop\n        /* \"#utility.yul\":2661:2695   */\n      0x4465706f73697420616d6f756e74206d75737420626520677265617465722074\n        /* \"#utility.yul\":2657:2658   */\n      0x00\n        /* \"#utility.yul\":2652:2655   */\n      dup4\n        /* \"#utility.yul\":2648:2659   */\n      add\n        /* \"#utility.yul\":2641:2696   */\n      mstore\n        /* \"#utility.yul\":2727:2734   */\n      0x68616e2030000000000000000000000000000000000000000000000000000000\n        /* \"#utility.yul\":2722:2724   */\n      0x20\n        /* \"#utility.yul\":2717:2720   */\n      dup4\n        /* \"#utility.yul\":2713:2725   */\n      add\n        /* \"#utility.yul\":2706:2735   */\n      mstore\n        /* \"#utility.yul\":2761:2763   */\n      0x40\n        /* \"#utility.yul\":2756:2759   */\n      dup3\n        /* \"#utility.yul\":2752:2764   */\n      add\n        /* \"#utility.yul\":2745:2764   */\n      swap1\n      pop\n        /* \"#utility.yul\":2547:2770   */\n      swap2\n      swap1\n      pop\n      jump\t// out\n        /* \"#utility.yul\":2776:3089   */\n    tag_203:\n      0x00\n        /* \"#utility.yul\":2939:3006   */\n      tag_205\n        /* \"#utility.yul\":3003:3005   */\n      0x0f\n        /* \"#utility.yul\":2998:3001   */\n      dup4\n        /* \"#utility.yul\":2939:3006   */\n      tag_202\n      jump\t// in\n    tag_205:\n        /* \"#utility.yul\":2932:3006   */\n      swap2\n      pop\n        /* \"#utility.yul\":3036:3053   */\n      0x5472616e73666572206661696c65640000000000000000000000000000000000\n        /* \"#utility.yul\":3032:3033   */\n      0x00\n        /* \"#utility.yul\":3027:3030   */\n      dup4\n        /* \"#utility.yul\":3023:3034   */\n      add\n        /* \"#utility.yul\":3016:3054   */\n      mstore\n        /* \"#utility.yul\":3080:3082   */\n      0x20\n        /* \"#utility.yul\":3075:3078   */\n      dup3\n        /* \"#utility.yul\":3071:3083   */\n      add\n        /* \"#utility.yul\":3064:3083   */\n      swap1\n      pop\n        /* \"#utility.yul\":2922:3089   */\n      swap2\n      swap1\n      pop\n      jump\t// out\n        /* \"#utility.yul\":3095:3413   */\n    tag_206:\n      0x00\n        /* \"#utility.yul\":3258:3325   */\n      tag_208\n        /* \"#utility.yul\":3322:3324   */\n      0x14\n        /* \"#utility.yul\":3317:3320   */\n      dup4\n        /* \"#utility.yul\":3258:3325   */\n      tag_202\n      jump\t// in\n    tag_208:\n        /* \"#utility.yul\":3251:3325   */\n      swap2\n      pop\n        /* \"#utility.yul\":3355:3377   */\n      0x496e73756666696369656e742062616c616e6365000000000000000000000000\n        /* \"#utility.yul\":3351:3352   */\n      0x00\n        /* \"#utility.yul\":3346:3349   */\n      dup4\n        /* \"#utility.yul\":3342:3353   */\n      add\n        /* \"#utility.yul\":3335:3378   */\n      mstore\n        /* \"#utility.yul\":3404:3406   */\n      0x20\n        /* \"#utility.yul\":3399:3402   */\n      dup3\n        /* \"#utility.yul\":3395:3407   */\n      add\n        /* \"#utility.yul\":3388:3407   */\n      swap1\n      pop\n        /* \"#utility.yul\":3241:3413   */\n      swap2\n      swap1\n      pop\n      jump\t// out\n        /* \"#utility.yul\":3419:3749   */\n    tag_209:\n      0x00\n        /* \"#utility.yul\":3582:3649   */\n      tag_211\n        /* \"#utility.yul\":3646:3648   */\n      0x20\n        /* \"#utility.yul\":3641:3644   */\n      dup4\n        /* \"#utility.yul\":3582:3649   */\n      tag_202\n      jump\t// in\n    tag_211:\n        /* \"#utility.yul\":3575:3649   */\n      swap2\n      pop\n        /* \"#utility.yul\":3679:3713   */\n      0x4f776e61626c653a2063616c6c6572206973206e6f7420746865206f776e6572\n        /* \"#utility.yul\":3675:3676   */\n      0x00\n        /* \"#utility.yul\":3670:3673   */\n      dup4\n        /* \"#utility.yul\":3666:3677   */\n      add\n        /* \"#utility.yul\":3659:3714   */\n      mstore\n        /* \"#utility.yul\":3740:3742   */\n      0x20\n        /* \"#utility.yul\":3735:3738   */\n      dup3\n        /* \"#utility.yul\":3731:3743   */\n      add\n        /* \"#utility.yul\":3724:3743   */\n      swap1\n      pop\n        /* \"#utility.yul\":3565:3749   */\n      swap2\n      swap1\n      pop\n      jump\t// out\n        /* \"#utility.yul\":3755:4082   */\n    tag_212:\n      0x00\n        /* \"#utility.yul\":3918:3985   */\n      tag_214\n        /* \"#utility.yul\":3982:3984   */\n      0x1d\n        /* \"#utility.yul\":3977:3980   */\n      dup4\n        /* \"#utility.yul\":3918:3985   */\n      tag_202\n      jump\t// in\n    tag_214:\n        /* \"#utility.yul\":3911:3985   */\n      swap2\n      pop\n        /* \"#utility.yul\":4015:4046   */\n      0x4e6577206f776e657220697320746865207a65726f2061646472657373000000\n        /* \"#utility.yul\":4011:4012   */\n      0x00\n        /* \"#utility.yul\":4006:4009   */\n      dup4\n        /* \"#utility.yul\":4002:4013   */\n      add\n        /* \"#utility.yul\":3995:4047   */\n      mstore\n        /* \"#utility.yul\":4073:4075   */\n      0x20\n        /* \"#utility.yul\":4068:4071   */\n      dup3\n        /* \"#utility.yul\":4064:4076   */\n      add\n        /* \"#utility.yul\":4057:4076   */\n      swap1\n      pop\n        /* \"#utility.yul\":3901:4082   */\n      swap2\n      swap1\n      pop\n      jump\t// out\n        /* \"#utility.yul\":4088:4460   */\n    tag_215:\n      0x00\n        /* \"#utility.yul\":4251:4318   */\n      tag_217\n        /* \"#utility.yul\":4315:4317   */\n      0x28\n        /* \"#utility.yul\":4310:4313   */\n      dup4\n        /* \"#utility.yul\":4251:4318   */\n      tag_202\n      jump\t// in\n    tag_217:\n        /* \"#utility.yul\":4244:4318   */\n      swap2\n      pop\n        /* \"#utility.yul\":4348:4382   */\n      0x5769746864726177616c20616d6f756e74206d75737420626520677265617465\n        /* \"#utility.yul\":4344:4345   */\n      0x00\n        /* \"#utility.yul\":4339:4342   */\n      dup4\n        /* \"#utility.yul\":4335:4346   */\n      add\n        /* \"#utility.yul\":4328:4383   */\n      mstore\n        /* \"#utility.yul\":4414:4424   */\n      0x72207468616e2030000000000000000000000000000000000000000000000000\n        /* \"#utility.yul\":4409:4411   */\n      0x20\n        /* \"#utility.yul\":4404:4407   */\n      dup4\n        /* \"#utility.yul\":4400:4412   */\n      add\n        /* \"#utility.yul\":4393:4425   */\n      mstore\n        /* \"#utility.yul\":4451:4453   */\n      0x40\n        /* \"#utility.yul\":4446:4449   */\n      dup3\n        /* \"#utility.yul\":4442:4454   */\n      add\n        /* \"#utility.yul\":4435:4454   */\n      swap1\n      pop\n        /* \"#utility.yul\":4234:4460   */\n      swap2\n      swap1\n      pop\n      jump\t// out\n        /* \"#utility.yul\":4466:4784   */\n    tag_218:\n      0x00\n        /* \"#utility.yul\":4629:4696   */\n      tag_220\n        /* \"#utility.yul\":4693:4695   */\n      0x14\n        /* \"#utility.yul\":4688:4691   */\n      dup4\n        /* \"#utility.yul\":4629:4696   */\n      tag_202\n      jump\t// in\n    tag_220:\n        /* \"#utility.yul\":4622:4696   */\n      swap2\n      pop\n        /* \"#utility.yul\":4726:4748   */\n      0x4e6f7420656e6f75676820616c6c6f77616e6365000000000000000000000000\n        /* \"#utility.yul\":4722:4723   */\n      0x00\n        /* \"#utility.yul\":4717:4720   */\n      dup4\n        /* \"#utility.yul\":4713:4724   */\n      add\n        /* \"#utility.yul\":4706:4749   */\n      mstore\n        /* \"#utility.yul\":4775:4777   */\n      0x20\n        /* \"#utility.yul\":4770:4773   */\n      dup3\n        /* \"#utility.yul\":4766:4778   */\n      add\n        /* \"#utility.yul\":4759:4778   */\n      swap1\n      pop\n        /* \"#utility.yul\":4612:4784   */\n      swap2\n      swap1\n      pop\n      jump\t// out\n        /* \"#utility.yul\":4790:5114   */\n    tag_221:\n      0x00\n        /* \"#utility.yul\":4953:5020   */\n      tag_223\n        /* \"#utility.yul\":5017:5019   */\n      0x1a\n        /* \"#utility.yul\":5012:5015   */\n      dup4\n        /* \"#utility.yul\":4953:5020   */\n      tag_202\n      jump\t// in\n    tag_223:\n        /* \"#utility.yul\":4946:5020   */\n      swap2\n      pop\n        /* \"#utility.yul\":5050:5078   */\n      0x496e76616c6964207769746864726177616c2061646472657373000000000000\n        /* \"#utility.yul\":5046:5047   */\n      0x00\n        /* \"#utility.yul\":5041:5044   */\n      dup4\n        /* \"#utility.yul\":5037:5048   */\n      add\n        /* \"#utility.yul\":5030:5079   */\n      mstore\n        /* \"#utility.yul\":5105:5107   */\n      0x20\n        /* \"#utility.yul\":5100:5103   */\n      dup3\n        /* \"#utility.yul\":5096:5108   */\n      add\n        /* \"#utility.yul\":5089:5108   */\n      swap1\n      pop\n        /* \"#utility.yul\":4936:5114   */\n      swap2\n      swap1\n      pop\n      jump\t// out\n        /* \"#utility.yul\":5120:5441   */\n    tag_224:\n      0x00\n        /* \"#utility.yul\":5283:5350   */\n      tag_226\n        /* \"#utility.yul\":5347:5349   */\n      0x17\n        /* \"#utility.yul\":5342:5345   */\n      dup4\n        /* \"#utility.yul\":5283:5350   */\n      tag_202\n      jump\t// in\n    tag_226:\n        /* \"#utility.yul\":5276:5350   */\n      swap2\n      pop\n        /* \"#utility.yul\":5380:5405   */\n      0x5472616e7366657220746f20706f6f6c206661696c6564000000000000000000\n        /* \"#utility.yul\":5376:5377   */\n      0x00\n        /* \"#utility.yul\":5371:5374   */\n      dup4\n        /* \"#utility.yul\":5367:5378   */\n      add\n        /* \"#utility.yul\":5360:5406   */\n      mstore\n        /* \"#utility.yul\":5432:5434   */\n      0x20\n        /* \"#utility.yul\":5427:5430   */\n      dup3\n        /* \"#utility.yul\":5423:5435   */\n      add\n        /* \"#utility.yul\":5416:5435   */\n      swap1\n      pop\n        /* \"#utility.yul\":5266:5441   */\n      swap2\n      swap1\n      pop\n      jump\t// out\n        /* \"#utility.yul\":5447:5776   */\n    tag_227:\n      0x00\n        /* \"#utility.yul\":5610:5677   */\n      tag_229\n        /* \"#utility.yul\":5674:5676   */\n      0x1f\n        /* \"#utility.yul\":5669:5672   */\n      dup4\n        /* \"#utility.yul\":5610:5677   */\n      tag_202\n      jump\t// in\n    tag_229:\n        /* \"#utility.yul\":5603:5677   */\n      swap2\n      pop\n        /* \"#utility.yul\":5707:5740   */\n      0x5265656e7472616e637947756172643a207265656e7472616e742063616c6c00\n        /* \"#utility.yul\":5703:5704   */\n      0x00\n        /* \"#utility.yul\":5698:5701   */\n      dup4\n        /* \"#utility.yul\":5694:5705   */\n      add\n        /* \"#utility.yul\":5687:5741   */\n      mstore\n        /* \"#utility.yul\":5767:5769   */\n      0x20\n        /* \"#utility.yul\":5762:5765   */\n      dup3\n        /* \"#utility.yul\":5758:5770   */\n      add\n        /* \"#utility.yul\":5751:5770   */\n      swap1\n      pop\n        /* \"#utility.yul\":5593:5776   */\n      swap2\n      swap1\n      pop\n      jump\t// out\n        /* \"#utility.yul\":5782:5900   */\n    tag_230:\n        /* \"#utility.yul\":5869:5893   */\n      tag_232\n        /* \"#utility.yul\":5887:5892   */\n      dup2\n        /* \"#utility.yul\":5869:5893   */\n      tag_233\n      jump\t// in\n    tag_232:\n        /* \"#utility.yul\":5864:5867   */\n      dup3\n        /* \"#utility.yul\":5857:5894   */\n      mstore\n        /* \"#utility.yul\":5847:5900   */\n      pop\n      pop\n      jump\t// out\n        /* \"#utility.yul\":5906:6128   */\n    tag_17:\n      0x00\n        /* \"#utility.yul\":6037:6039   */\n      0x20\n        /* \"#utility.yul\":6026:6035   */\n      dup3\n        /* \"#utility.yul\":6022:6040   */\n      add\n        /* \"#utility.yul\":6014:6040   */\n      swap1\n      pop\n        /* \"#utility.yul\":6050:6121   */\n      tag_235\n        /* \"#utility.yul\":6118:6119   */\n      0x00\n        /* \"#utility.yul\":6107:6116   */\n      dup4\n        /* \"#utility.yul\":6103:6120   */\n      add\n        /* \"#utility.yul\":6094:6100   */\n      dup5\n        /* \"#utility.yul\":6050:6121   */\n      tag_191\n      jump\t// in\n    tag_235:\n        /* \"#utility.yul\":6004:6128   */\n      swap3\n      swap2\n      pop\n      pop\n      jump\t// out\n        /* \"#utility.yul\":6134:6466   */\n    tag_104:\n      0x00\n        /* \"#utility.yul\":6293:6295   */\n      0x40\n        /* \"#utility.yul\":6282:6291   */\n      dup3\n        /* \"#utility.yul\":6278:6296   */\n      add\n        /* \"#utility.yul\":6270:6296   */\n      swap1\n      pop\n        /* \"#utility.yul\":6306:6377   */\n      tag_237\n        /* \"#utility.yul\":6374:6375   */\n      0x00\n        /* \"#utility.yul\":6363:6372   */\n      dup4\n        /* \"#utility.yul\":6359:6376   */\n      add\n        /* \"#utility.yul\":6350:6356   */\n      dup6\n        /* \"#utility.yul\":6306:6377   */\n      tag_191\n      jump\t// in\n    tag_237:\n        /* \"#utility.yul\":6387:6459   */\n      tag_238\n        /* \"#utility.yul\":6455:6457   */\n      0x20\n        /* \"#utility.yul\":6444:6453   */\n      dup4\n        /* \"#utility.yul\":6440:6458   */\n      add\n        /* \"#utility.yul\":6431:6437   */\n      dup5\n        /* \"#utility.yul\":6387:6459   */\n      tag_191\n      jump\t// in\n    tag_238:\n        /* \"#utility.yul\":6260:6466   */\n      swap4\n      swap3\n      pop\n      pop\n      pop\n      jump\t// out\n        /* \"#utility.yul\":6472:6914   */\n    tag_113:\n      0x00\n        /* \"#utility.yul\":6659:6661   */\n      0x60\n        /* \"#utility.yul\":6648:6657   */\n      dup3\n        /* \"#utility.yul\":6644:6662   */\n      add\n        /* \"#utility.yul\":6636:6662   */\n      swap1\n      pop\n        /* \"#utility.yul\":6672:6743   */\n      tag_240\n        /* \"#utility.yul\":6740:6741   */\n      0x00\n        /* \"#utility.yul\":6729:6738   */\n      dup4\n        /* \"#utility.yul\":6725:6742   */\n      add\n        /* \"#utility.yul\":6716:6722   */\n      dup7\n        /* \"#utility.yul\":6672:6743   */\n      tag_191\n      jump\t// in\n    tag_240:\n        /* \"#utility.yul\":6753:6825   */\n      tag_241\n        /* \"#utility.yul\":6821:6823   */\n      0x20\n        /* \"#utility.yul\":6810:6819   */\n      dup4\n        /* \"#utility.yul\":6806:6824   */\n      add\n        /* \"#utility.yul\":6797:6803   */\n      dup6\n        /* \"#utility.yul\":6753:6825   */\n      tag_191\n      jump\t// in\n    tag_241:\n        /* \"#utility.yul\":6835:6907   */\n      tag_242\n        /* \"#utility.yul\":6903:6905   */\n      0x40\n        /* \"#utility.yul\":6892:6901   */\n      dup4\n        /* \"#utility.yul\":6888:6906   */\n      add\n        /* \"#utility.yul\":6879:6885   */\n      dup5\n        /* \"#utility.yul\":6835:6907   */\n      tag_230\n      jump\t// in\n    tag_242:\n        /* \"#utility.yul\":6626:6914   */\n      swap5\n      swap4\n      pop\n      pop\n      pop\n      pop\n      jump\t// out\n        /* \"#utility.yul\":6920:7252   */\n    tag_72:\n      0x00\n        /* \"#utility.yul\":7079:7081   */\n      0x40\n        /* \"#utility.yul\":7068:7077   */\n      dup3\n        /* \"#utility.yul\":7064:7082   */\n      add\n        /* \"#utility.yul\":7056:7082   */\n      swap1\n      pop\n        /* \"#utility.yul\":7092:7163   */\n      tag_244\n        /* \"#utility.yul\":7160:7161   */\n      0x00\n        /* \"#utility.yul\":7149:7158   */\n      dup4\n        /* \"#utility.yul\":7145:7162   */\n      add\n        /* \"#utility.yul\":7136:7142   */\n      dup6\n        /* \"#utility.yul\":7092:7163   */\n      tag_191\n      jump\t// in\n    tag_244:\n        /* \"#utility.yul\":7173:7245   */\n      tag_245\n        /* \"#utility.yul\":7241:7243   */\n      0x20\n        /* \"#utility.yul\":7230:7239   */\n      dup4\n        /* \"#utility.yul\":7226:7244   */\n      add\n        /* \"#utility.yul\":7217:7223   */\n      dup5\n        /* \"#utility.yul\":7173:7245   */\n      tag_230\n      jump\t// in\n    tag_245:\n        /* \"#utility.yul\":7046:7252   */\n      swap4\n      swap3\n      pop\n      pop\n      pop\n      jump\t// out\n        /* \"#utility.yul\":7258:7508   */\n    tag_38:\n      0x00\n        /* \"#utility.yul\":7403:7405   */\n      0x20\n        /* \"#utility.yul\":7392:7401   */\n      dup3\n        /* \"#utility.yul\":7388:7406   */\n      add\n        /* \"#utility.yul\":7380:7406   */\n      swap1\n      pop\n        /* \"#utility.yul\":7416:7501   */\n      tag_247\n        /* \"#utility.yul\":7498:7499   */\n      0x00\n        /* \"#utility.yul\":7487:7496   */\n      dup4\n        /* \"#utility.yul\":7483:7500   */\n      add\n        /* \"#utility.yul\":7474:7480   */\n      dup5\n        /* \"#utility.yul\":7416:7501   */\n      tag_195\n      jump\t// in\n    tag_247:\n        /* \"#utility.yul\":7370:7508   */\n      swap3\n      swap2\n      pop\n      pop\n      jump\t// out\n        /* \"#utility.yul\":7514:7933   */\n    tag_102:\n      0x00\n        /* \"#utility.yul\":7718:7720   */\n      0x20\n        /* \"#utility.yul\":7707:7716   */\n      dup3\n        /* \"#utility.yul\":7703:7721   */\n      add\n        /* \"#utility.yul\":7695:7721   */\n      swap1\n      pop\n        /* \"#utility.yul\":7767:7776   */\n      dup2\n        /* \"#utility.yul\":7761:7765   */\n      dup2\n        /* \"#utility.yul\":7757:7777   */\n      sub\n        /* \"#utility.yul\":7753:7754   */\n      0x00\n        /* \"#utility.yul\":7742:7751   */\n      dup4\n        /* \"#utility.yul\":7738:7755   */\n      add\n        /* \"#utility.yul\":7731:7778   */\n      mstore\n        /* \"#utility.yul\":7795:7926   */\n      tag_249\n        /* \"#utility.yul\":7921:7925   */\n      dup2\n        /* \"#utility.yul\":7795:7926   */\n      tag_199\n      jump\t// in\n    tag_249:\n        /* \"#utility.yul\":7787:7926   */\n      swap1\n      pop\n        /* \"#utility.yul\":7685:7933   */\n      swap2\n      swap1\n      pop\n      jump\t// out\n        /* \"#utility.yul\":7939:8358   */\n    tag_80:\n      0x00\n        /* \"#utility.yul\":8143:8145   */\n      0x20\n        /* \"#utility.yul\":8132:8141   */\n      dup3\n        /* \"#utility.yul\":8128:8146   */\n      add\n        /* \"#utility.yul\":8120:8146   */\n      swap1\n      pop\n        /* \"#utility.yul\":8192:8201   */\n      dup2\n        /* \"#utility.yul\":8186:8190   */\n      dup2\n        /* \"#utility.yul\":8182:8202   */\n      sub\n        /* \"#utility.yul\":8178:8179   */\n      0x00\n        /* \"#utility.yul\":8167:8176   */\n      dup4\n        /* \"#utility.yul\":8163:8180   */\n      add\n        /* \"#utility.yul\":8156:8203   */\n      mstore\n        /* \"#utility.yul\":8220:8351   */\n      tag_251\n        /* \"#utility.yul\":8346:8350   */\n      dup2\n        /* \"#utility.yul\":8220:8351   */\n      tag_203\n      jump\t// in\n    tag_251:\n        /* \"#utility.yul\":8212:8351   */\n      swap1\n      pop\n        /* \"#utility.yul\":8110:8358   */\n      swap2\n      swap1\n      pop\n      jump\t// out\n        /* \"#utility.yul\":8364:8783   */\n    tag_70:\n      0x00\n        /* \"#utility.yul\":8568:8570   */\n      0x20\n        /* \"#utility.yul\":8557:8566   */\n      dup3\n        /* \"#utility.yul\":8553:8571   */\n      add\n        /* \"#utility.yul\":8545:8571   */\n      swap1\n      pop\n        /* \"#utility.yul\":8617:8626   */\n      dup2\n        /* \"#utility.yul\":8611:8615   */\n      dup2\n        /* \"#utility.yul\":8607:8627   */\n      sub\n        /* \"#utility.yul\":8603:8604   */\n      0x00\n        /* \"#utility.yul\":8592:8601   */\n      dup4\n        /* \"#utility.yul\":8588:8605   */\n      add\n        /* \"#utility.yul\":8581:8628   */\n      mstore\n        /* \"#utility.yul\":8645:8776   */\n      tag_253\n        /* \"#utility.yul\":8771:8775   */\n      dup2\n        /* \"#utility.yul\":8645:8776   */\n      tag_206\n      jump\t// in\n    tag_253:\n        /* \"#utility.yul\":8637:8776   */\n      swap1\n      pop\n        /* \"#utility.yul\":8535:8783   */\n      swap2\n      swap1\n      pop\n      jump\t// out\n        /* \"#utility.yul\":8789:9208   */\n    tag_136:\n      0x00\n        /* \"#utility.yul\":8993:8995   */\n      0x20\n        /* \"#utility.yul\":8982:8991   */\n      dup3\n        /* \"#utility.yul\":8978:8996   */\n      add\n        /* \"#utility.yul\":8970:8996   */\n      swap1\n      pop\n        /* \"#utility.yul\":9042:9051   */\n      dup2\n        /* \"#utility.yul\":9036:9040   */\n      dup2\n        /* \"#utility.yul\":9032:9052   */\n      sub\n        /* \"#utility.yul\":9028:9029   */\n      0x00\n        /* \"#utility.yul\":9017:9026   */\n      dup4\n        /* \"#utility.yul\":9013:9030   */\n      add\n        /* \"#utility.yul\":9006:9053   */\n      mstore\n        /* \"#utility.yul\":9070:9201   */\n      tag_255\n        /* \"#utility.yul\":9196:9200   */\n      dup2\n        /* \"#utility.yul\":9070:9201   */\n      tag_209\n      jump\t// in\n    tag_255:\n        /* \"#utility.yul\":9062:9201   */\n      swap1\n      pop\n        /* \"#utility.yul\":8960:9208   */\n      swap2\n      swap1\n      pop\n      jump\t// out\n        /* \"#utility.yul\":9214:9633   */\n    tag_127:\n      0x00\n        /* \"#utility.yul\":9418:9420   */\n      0x20\n        /* \"#utility.yul\":9407:9416   */\n      dup3\n        /* \"#utility.yul\":9403:9421   */\n      add\n        /* \"#utility.yul\":9395:9421   */\n      swap1\n      pop\n        /* \"#utility.yul\":9467:9476   */\n      dup2\n        /* \"#utility.yul\":9461:9465   */\n      dup2\n        /* \"#utility.yul\":9457:9477   */\n      sub\n        /* \"#utility.yul\":9453:9454   */\n      0x00\n        /* \"#utility.yul\":9442:9451   */\n      dup4\n        /* \"#utility.yul\":9438:9455   */\n      add\n        /* \"#utility.yul\":9431:9478   */\n      mstore\n        /* \"#utility.yul\":9495:9626   */\n      tag_257\n        /* \"#utility.yul\":9621:9625   */\n      dup2\n        /* \"#utility.yul\":9495:9626   */\n      tag_212\n      jump\t// in\n    tag_257:\n        /* \"#utility.yul\":9487:9626   */\n      swap1\n      pop\n        /* \"#utility.yul\":9385:9633   */\n      swap2\n      swap1\n      pop\n      jump\t// out\n        /* \"#utility.yul\":9639:10058   */\n    tag_61:\n      0x00\n        /* \"#utility.yul\":9843:9845   */\n      0x20\n        /* \"#utility.yul\":9832:9841   */\n      dup3\n        /* \"#utility.yul\":9828:9846   */\n      add\n        /* \"#utility.yul\":9820:9846   */\n      swap1\n      pop\n        /* \"#utility.yul\":9892:9901   */\n      dup2\n        /* \"#utility.yul\":9886:9890   */\n      dup2\n        /* \"#utility.yul\":9882:9902   */\n      sub\n        /* \"#utility.yul\":9878:9879   */\n      0x00\n        /* \"#utility.yul\":9867:9876   */\n      dup4\n        /* \"#utility.yul\":9863:9880   */\n      add\n        /* \"#utility.yul\":9856:9903   */\n      mstore\n        /* \"#utility.yul\":9920:10051   */\n      tag_259\n        /* \"#utility.yul\":10046:10050   */\n      dup2\n        /* \"#utility.yul\":9920:10051   */\n      tag_215\n      jump\t// in\n    tag_259:\n        /* \"#utility.yul\":9912:10051   */\n      swap1\n      pop\n        /* \"#utility.yul\":9810:10058   */\n      swap2\n      swap1\n      pop\n      jump\t// out\n        /* \"#utility.yul\":10064:10483   */\n    tag_111:\n      0x00\n        /* \"#utility.yul\":10268:10270   */\n      0x20\n        /* \"#utility.yul\":10257:10266   */\n      dup3\n        /* \"#utility.yul\":10253:10271   */\n      add\n        /* \"#utility.yul\":10245:10271   */\n      swap1\n      pop\n        /* \"#utility.yul\":10317:10326   */\n      dup2\n        /* \"#utility.yul\":10311:10315   */\n      dup2\n        /* \"#utility.yul\":10307:10327   */\n      sub\n        /* \"#utility.yul\":10303:10304   */\n      0x00\n        /* \"#utility.yul\":10292:10301   */\n      dup4\n        /* \"#utility.yul\":10288:10305   */\n      add\n        /* \"#utility.yul\":10281:10328   */\n      mstore\n        /* \"#utility.yul\":10345:10476   */\n      tag_261\n        /* \"#utility.yul\":10471:10475   */\n      dup2\n        /* \"#utility.yul\":10345:10476   */\n      tag_218\n      jump\t// in\n    tag_261:\n        /* \"#utility.yul\":10337:10476   */\n      swap1\n      pop\n        /* \"#utility.yul\":10235:10483   */\n      swap2\n      swap1\n      pop\n      jump\t// out\n        /* \"#utility.yul\":10489:10908   */\n    tag_58:\n      0x00\n        /* \"#utility.yul\":10693:10695   */\n      0x20\n        /* \"#utility.yul\":10682:10691   */\n      dup3\n        /* \"#utility.yul\":10678:10696   */\n      add\n        /* \"#utility.yul\":10670:10696   */\n      swap1\n      pop\n        /* \"#utility.yul\":10742:10751   */\n      dup2\n        /* \"#utility.yul\":10736:10740   */\n      dup2\n        /* \"#utility.yul\":10732:10752   */\n      sub\n        /* \"#utility.yul\":10728:10729   */\n      0x00\n        /* \"#utility.yul\":10717:10726   */\n      dup4\n        /* \"#utility.yul\":10713:10730   */\n      add\n        /* \"#utility.yul\":10706:10753   */\n      mstore\n        /* \"#utility.yul\":10770:10901   */\n      tag_263\n        /* \"#utility.yul\":10896:10900   */\n      dup2\n        /* \"#utility.yul\":10770:10901   */\n      tag_221\n      jump\t// in\n    tag_263:\n        /* \"#utility.yul\":10762:10901   */\n      swap1\n      pop\n        /* \"#utility.yul\":10660:10908   */\n      swap2\n      swap1\n      pop\n      jump\t// out\n        /* \"#utility.yul\":10914:11333   */\n    tag_157:\n      0x00\n        /* \"#utility.yul\":11118:11120   */\n      0x20\n        /* \"#utility.yul\":11107:11116   */\n      dup3\n        /* \"#utility.yul\":11103:11121   */\n      add\n        /* \"#utility.yul\":11095:11121   */\n      swap1\n      pop\n        /* \"#utility.yul\":11167:11176   */\n      dup2\n        /* \"#utility.yul\":11161:11165   */\n      dup2\n        /* \"#utility.yul\":11157:11177   */\n      sub\n        /* \"#utility.yul\":11153:11154   */\n      0x00\n        /* \"#utility.yul\":11142:11151   */\n      dup4\n        /* \"#utility.yul\":11138:11155   */\n      add\n        /* \"#utility.yul\":11131:11178   */\n      mstore\n        /* \"#utility.yul\":11195:11326   */\n      tag_265\n        /* \"#utility.yul\":11321:11325   */\n      dup2\n        /* \"#utility.yul\":11195:11326   */\n      tag_224\n      jump\t// in\n    tag_265:\n        /* \"#utility.yul\":11187:11326   */\n      swap1\n      pop\n        /* \"#utility.yul\":11085:11333   */\n      swap2\n      swap1\n      pop\n      jump\t// out\n        /* \"#utility.yul\":11339:11758   */\n    tag_140:\n      0x00\n        /* \"#utility.yul\":11543:11545   */\n      0x20\n        /* \"#utility.yul\":11532:11541   */\n      dup3\n        /* \"#utility.yul\":11528:11546   */\n      add\n        /* \"#utility.yul\":11520:11546   */\n      swap1\n      pop\n        /* \"#utility.yul\":11592:11601   */\n      dup2\n        /* \"#utility.yul\":11586:11590   */\n      dup2\n        /* \"#utility.yul\":11582:11602   */\n      sub\n        /* \"#utility.yul\":11578:11579   */\n      0x00\n        /* \"#utility.yul\":11567:11576   */\n      dup4\n        /* \"#utility.yul\":11563:11580   */\n      add\n        /* \"#utility.yul\":11556:11603   */\n      mstore\n        /* \"#utility.yul\":11620:11751   */\n      tag_267\n        /* \"#utility.yul\":11746:11750   */\n      dup2\n        /* \"#utility.yul\":11620:11751   */\n      tag_227\n      jump\t// in\n    tag_267:\n        /* \"#utility.yul\":11612:11751   */\n      swap1\n      pop\n        /* \"#utility.yul\":11510:11758   */\n      swap2\n      swap1\n      pop\n      jump\t// out\n        /* \"#utility.yul\":11764:11986   */\n    tag_21:\n      0x00\n        /* \"#utility.yul\":11895:11897   */\n      0x20\n        /* \"#utility.yul\":11884:11893   */\n      dup3\n        /* \"#utility.yul\":11880:11898   */\n      add\n        /* \"#utility.yul\":11872:11898   */\n      swap1\n      pop\n        /* \"#utility.yul\":11908:11979   */\n      tag_269\n        /* \"#utility.yul\":11976:11977   */\n      0x00\n        /* \"#utility.yul\":11965:11974   */\n      dup4\n        /* \"#utility.yul\":11961:11978   */\n      add\n        /* \"#utility.yul\":11952:11958   */\n      dup5\n        /* \"#utility.yul\":11908:11979   */\n      tag_230\n      jump\t// in\n    tag_269:\n        /* \"#utility.yul\":11862:11986   */\n      swap3\n      swap2\n      pop\n      pop\n      jump\t// out\n        /* \"#utility.yul\":11992:12161   */\n    tag_202:\n      0x00\n        /* \"#utility.yul\":12110:12116   */\n      dup3\n        /* \"#utility.yul\":12105:12108   */\n      dup3\n        /* \"#utility.yul\":12098:12117   */\n      mstore\n        /* \"#utility.yul\":12150:12154   */\n      0x20\n        /* \"#utility.yul\":12145:12148   */\n      dup3\n        /* \"#utility.yul\":12141:12155   */\n      add\n        /* \"#utility.yul\":12126:12155   */\n      swap1\n      pop\n        /* \"#utility.yul\":12088:12161   */\n      swap3\n      swap2\n      pop\n      pop\n      jump\t// out\n        /* \"#utility.yul\":12167:12263   */\n    tag_194:\n      0x00\n        /* \"#utility.yul\":12233:12257   */\n      tag_272\n        /* \"#utility.yul\":12251:12256   */\n      dup3\n        /* \"#utility.yul\":12233:12257   */\n      tag_273\n      jump\t// in\n    tag_272:\n        /* \"#utility.yul\":12222:12257   */\n      swap1\n      pop\n        /* \"#utility.yul\":12212:12263   */\n      swap2\n      swap1\n      pop\n      jump\t// out\n        /* \"#utility.yul\":12269:12359   */\n    tag_274:\n      0x00\n        /* \"#utility.yul\":12346:12351   */\n      dup2\n        /* \"#utility.yul\":12339:12352   */\n      iszero\n        /* \"#utility.yul\":12332:12353   */\n      iszero\n        /* \"#utility.yul\":12321:12353   */\n      swap1\n      pop\n        /* \"#utility.yul\":12311:12359   */\n      swap2\n      swap1\n      pop\n      jump\t// out\n        /* \"#utility.yul\":12365:12491   */\n    tag_273:\n      0x00\n        /* \"#utility.yul\":12442:12484   */\n      0xffffffffffffffffffffffffffffffffffffffff\n        /* \"#utility.yul\":12435:12440   */\n      dup3\n        /* \"#utility.yul\":12431:12485   */\n      and\n        /* \"#utility.yul\":12420:12485   */\n      swap1\n      pop\n        /* \"#utility.yul\":12410:12491   */\n      swap2\n      swap1\n      pop\n      jump\t// out\n        /* \"#utility.yul\":12497:12574   */\n    tag_233:\n      0x00\n        /* \"#utility.yul\":12563:12568   */\n      dup2\n        /* \"#utility.yul\":12552:12568   */\n      swap1\n      pop\n        /* \"#utility.yul\":12542:12574   */\n      swap2\n      swap1\n      pop\n      jump\t// out\n        /* \"#utility.yul\":12580:12734   */\n    tag_198:\n      0x00\n        /* \"#utility.yul\":12677:12728   */\n      tag_279\n        /* \"#utility.yul\":12722:12727   */\n      dup3\n        /* \"#utility.yul\":12677:12728   */\n      tag_280\n      jump\t// in\n    tag_279:\n        /* \"#utility.yul\":12664:12728   */\n      swap1\n      pop\n        /* \"#utility.yul\":12654:12734   */\n      swap2\n      swap1\n      pop\n      jump\t// out\n        /* \"#utility.yul\":12740:12867   */\n    tag_280:\n      0x00\n        /* \"#utility.yul\":12837:12861   */\n      tag_282\n        /* \"#utility.yul\":12855:12860   */\n      dup3\n        /* \"#utility.yul\":12837:12861   */\n      tag_273\n      jump\t// in\n    tag_282:\n        /* \"#utility.yul\":12824:12861   */\n      swap1\n      pop\n        /* \"#utility.yul\":12814:12867   */\n      swap2\n      swap1\n      pop\n      jump\t// out\n        /* \"#utility.yul\":12873:12995   */\n    tag_163:\n        /* \"#utility.yul\":12946:12970   */\n      tag_284\n        /* \"#utility.yul\":12964:12969   */\n      dup2\n        /* \"#utility.yul\":12946:12970   */\n      tag_194\n      jump\t// in\n    tag_284:\n        /* \"#utility.yul\":12939:12944   */\n      dup2\n        /* \"#utility.yul\":12936:12971   */\n      eq\n        /* \"#utility.yul\":12926:12928   */\n      tag_285\n      jumpi\n        /* \"#utility.yul\":12985:12986   */\n      0x00\n        /* \"#utility.yul\":12982:12983   */\n      dup1\n        /* \"#utility.yul\":12975:12987   */\n      revert\n        /* \"#utility.yul\":12926:12928   */\n    tag_285:\n        /* \"#utility.yul\":12916:12995   */\n      pop\n      jump\t// out\n        /* \"#utility.yul\":13001:13117   */\n    tag_167:\n        /* \"#utility.yul\":13071:13092   */\n      tag_287\n        /* \"#utility.yul\":13086:13091   */\n      dup2\n        /* \"#utility.yul\":13071:13092   */\n      tag_274\n      jump\t// in\n    tag_287:\n        /* \"#utility.yul\":13064:13069   */\n      dup2\n        /* \"#utility.yul\":13061:13093   */\n      eq\n        /* \"#utility.yul\":13051:13053   */\n      tag_288\n      jumpi\n        /* \"#utility.yul\":13107:13108   */\n      0x00\n        /* \"#utility.yul\":13104:13105   */\n      dup1\n        /* \"#utility.yul\":13097:13109   */\n      revert\n        /* \"#utility.yul\":13051:13053   */\n    tag_288:\n        /* \"#utility.yul\":13041:13117   */\n      pop\n      jump\t// out\n        /* \"#utility.yul\":13123:13245   */\n    tag_171:\n        /* \"#utility.yul\":13196:13220   */\n      tag_290\n        /* \"#utility.yul\":13214:13219   */\n      dup2\n        /* \"#utility.yul\":13196:13220   */\n      tag_233\n      jump\t// in\n    tag_290:\n        /* \"#utility.yul\":13189:13194   */\n      dup2\n        /* \"#utility.yul\":13186:13221   */\n      eq\n        /* \"#utility.yul\":13176:13178   */\n      tag_291\n      jumpi\n        /* \"#utility.yul\":13235:13236   */\n      0x00\n        /* \"#utility.yul\":13232:13233   */\n      dup1\n        /* \"#utility.yul\":13225:13237   */\n      revert\n        /* \"#utility.yul\":13176:13178   */\n    tag_291:\n        /* \"#utility.yul\":13166:13245   */\n      pop\n      jump\t// out\n\n    auxdata: 0xa264697066735822122075435aeeb6c44af81e4c7d6fd42046ad26bbcf42dc8a0c03d1365bce595ba2f864736f6c63430008000033\n}\n",
				"bytecode": {
					"linkReferences": {},
					"object": "608060405260646005553480156200001657600080fd5b50604051620018453803806200184583398181016040528101906200003c9190620002bd565b6200005c62000050620001da60201b60201c565b620001e260201b60201c565b60018081905550600073ffffffffffffffffffffffffffffffffffffffff168273ffffffffffffffffffffffffffffffffffffffff161415620000d6576040517f08c379a0000000000000000000000000000000000000000000000000000000008152600401620000cd90620003a4565b60405180910390fd5b600073ffffffffffffffffffffffffffffffffffffffff168173ffffffffffffffffffffffffffffffffffffffff16141562000149576040517f08c379a0000000000000000000000000000000000000000000000000000000008152600401620001409062000382565b60405180910390fd5b81600260006101000a81548173ffffffffffffffffffffffffffffffffffffffff021916908373ffffffffffffffffffffffffffffffffffffffff16021790555080600360006101000a81548173ffffffffffffffffffffffffffffffffffffffff021916908373ffffffffffffffffffffffffffffffffffffffff16021790555043600481905550505062000425565b600033905090565b60008060009054906101000a900473ffffffffffffffffffffffffffffffffffffffff169050816000806101000a81548173ffffffffffffffffffffffffffffffffffffffff021916908373ffffffffffffffffffffffffffffffffffffffff1602179055508173ffffffffffffffffffffffffffffffffffffffff168173ffffffffffffffffffffffffffffffffffffffff167f8be0079c531659141344cd1fd0a4f28419497f9722a3daafe3b4186f6b6457e060405160405180910390a35050565b600081519050620002b7816200040b565b92915050565b60008060408385031215620002d157600080fd5b6000620002e185828601620002a6565b9250506020620002f485828601620002a6565b9150509250929050565b60006200030d601d83620003c6565b91507f496e76616c6964207772617070656420746f6b656e20616464726573730000006000830152602082019050919050565b60006200034f601483620003c6565b91507f496e76616c696420706f6f6c20616464726573730000000000000000000000006000830152602082019050919050565b600060208201905081810360008301526200039d81620002fe565b9050919050565b60006020820190508181036000830152620003bf8162000340565b9050919050565b600082825260208201905092915050565b6000620003e482620003eb565b9050919050565b600073ffffffffffffffffffffffffffffffffffffffff82169050919050565b6200041681620003d7565b81146200042257600080fd5b50565b61141080620004356000396000f3fe608060405234801561001057600080fd5b506004361061009e5760003560e01c80638da5cb5b116100665780638da5cb5b14610121578063996c6cc31461013f578063bb413c8d1461015d578063c4da92471461017b578063f2fde38b146101975761009e565b80631755ff21146100a35780634abb3fac146100c15780635a6b26ba146100df57806362c35c01146100fb578063715018a614610117575b600080fd5b6100ab6101b3565b6040516100b891906110fe565b60405180910390f35b6100c96101d9565b6040516100d691906112fd565b60405180910390f35b6100f960048036038101906100f49190610d4e565b6101df565b005b61011560048036038101906101109190610db3565b6104d7565b005b61011f6105e0565b005b6101296105f4565b60405161013691906110fe565b60405180910390f35b61014761061d565b60405161015491906111a2565b60405180910390f35b610165610643565b60405161017291906112fd565b60405180910390f35b61019560048036038101906101909190610db3565b610649565b005b6101b160048036038101906101ac9190610d25565b61087d565b005b600260009054906101000a900473ffffffffffffffffffffffffffffffffffffffff1681565b60055481565b6101e7610962565b6101ef6109e0565b600073ffffffffffffffffffffffffffffffffffffffff168273ffffffffffffffffffffffffffffffffffffffff16141561025f576040517f08c379a00000000000000000000000000000000000000000000000000000000081526004016102569061129d565b60405180910390fd5b600081116102a2576040517f08c379a00000000000000000000000000000000000000000000000000000000081526004016102999061125d565b60405180910390fd5b80600360009054906101000a900473ffffffffffffffffffffffffffffffffffffffff1673ffffffffffffffffffffffffffffffffffffffff166370a08231306040518263ffffffff1660e01b81526004016102fe91906110fe565b60206040518083038186803b15801561031657600080fd5b505afa15801561032a573d6000803e3d6000fd5b505050506040513d601f19601f8201168201806040525081019061034e9190610ddc565b101561038f576040517f08c379a0000000000000000000000000000000000000000000000000000000008152600401610386906111fd565b60405180910390fd5b600360009054906101000a900473ffffffffffffffffffffffffffffffffffffffff1673ffffffffffffffffffffffffffffffffffffffff1663a9059cbb83836040518363ffffffff1660e01b81526004016103ec929190611179565b602060405180830381600087803b15801561040657600080fd5b505af115801561041a573d6000803e3d6000fd5b505050506040513d601f19601f8201168201806040525081019061043e9190610d8a565b61047d576040517f08c379a0000000000000000000000000000000000000000000000000000000008152600401610474906111dd565b60405180910390fd5b8173ffffffffffffffffffffffffffffffffffffffff167f6352c5382c4a4578e712449ca65e83cdb392d045dfcf1cad9615189db2da244b826040516104c391906112fd565b60405180910390a26104d3610a30565b5050565b6104df610962565b600360009054906101000a900473ffffffffffffffffffffffffffffffffffffffff1673ffffffffffffffffffffffffffffffffffffffff1663095ea7b330836040518363ffffffff1660e01b815260040161053c929190611179565b602060405180830381600087803b15801561055657600080fd5b505af115801561056a573d6000803e3d6000fd5b505050506040513d601f19601f8201168201806040525081019061058e9190610d8a565b503373ffffffffffffffffffffffffffffffffffffffff167f5f327dfbc26b4773c8990edbc20356f43975e2a38466359fad3bd2b77dee2433826040516105d591906112fd565b60405180910390a250565b6105e8610962565b6105f26000610a39565b565b60008060009054906101000a900473ffffffffffffffffffffffffffffffffffffffff16905090565b600360009054906101000a900473ffffffffffffffffffffffffffffffffffffffff1681565b60045481565b6000811161068c576040517f08c379a0000000000000000000000000000000000000000000000000000000008152600401610683906111bd565b60405180910390fd5b80600360009054906101000a900473ffffffffffffffffffffffffffffffffffffffff1673ffffffffffffffffffffffffffffffffffffffff1663dd62ed3e33306040518363ffffffff1660e01b81526004016106ea929190611119565b60206040518083038186803b15801561070257600080fd5b505afa158015610716573d6000803e3d6000fd5b505050506040513d601f19601f8201168201806040525081019061073a9190610ddc565b101561077b576040517f08c379a00000000000000000000000000000000000000000000000000000000081526004016107729061127d565b60405180910390fd5b600360009054906101000a900473ffffffffffffffffffffffffffffffffffffffff1673ffffffffffffffffffffffffffffffffffffffff166323b872dd3330846040518463ffffffff1660e01b81526004016107da93929190611142565b602060405180830381600087803b1580156107f457600080fd5b505af1158015610808573d6000803e3d6000fd5b505050506040513d601f19601f8201168201806040525081019061082c9190610d8a565b61086b576040517f08c379a0000000000000000000000000000000000000000000000000000000008152600401610862906111dd565b60405180910390fd5b610873610afd565b4360048190555050565b610885610962565b600073ffffffffffffffffffffffffffffffffffffffff168173ffffffffffffffffffffffffffffffffffffffff1614156108f5576040517f08c379a00000000000000000000000000000000000000000000000000000000081526004016108ec9061123d565b60405180910390fd5b8073ffffffffffffffffffffffffffffffffffffffff166109146105f4565b73ffffffffffffffffffffffffffffffffffffffff167f8be0079c531659141344cd1fd0a4f28419497f9722a3daafe3b4186f6b6457e060405160405180910390a361095f81610a39565b50565b61096a610cc9565b73ffffffffffffffffffffffffffffffffffffffff166109886105f4565b73ffffffffffffffffffffffffffffffffffffffff16146109de576040517f08c379a00000000000000000000000000000000000000000000000000000000081526004016109d59061121d565b60405180910390fd5b565b60026001541415610a26576040517f08c379a0000000000000000000000000000000000000000000000000000000008152600401610a1d906112dd565b60405180910390fd5b6002600181905550565b60018081905550565b60008060009054906101000a900473ffffffffffffffffffffffffffffffffffffffff169050816000806101000a81548173ffffffffffffffffffffffffffffffffffffffff021916908373ffffffffffffffffffffffffffffffffffffffff1602179055508173ffffffffffffffffffffffffffffffffffffffff168173ffffffffffffffffffffffffffffffffffffffff167f8be0079c531659141344cd1fd0a4f28419497f9722a3daafe3b4186f6b6457e060405160405180910390a35050565b6000600360009054906101000a900473ffffffffffffffffffffffffffffffffffffffff1673ffffffffffffffffffffffffffffffffffffffff166370a08231306040518263ffffffff1660e01b8152600401610b5a91906110fe565b60206040518083038186803b158015610b7257600080fd5b505afa158015610b86573d6000803e3d6000fd5b505050506040513d601f19601f82011682018060405250810190610baa9190610ddc565b90506000811115610cc657600360009054906101000a900473ffffffffffffffffffffffffffffffffffffffff1673ffffffffffffffffffffffffffffffffffffffff1663a9059cbb600260009054906101000a900473ffffffffffffffffffffffffffffffffffffffff16836040518363ffffffff1660e01b8152600401610c34929190611179565b602060405180830381600087803b158015610c4e57600080fd5b505af1158015610c62573d6000803e3d6000fd5b505050506040513d601f19601f82011682018060405250810190610c869190610d8a565b610cc5576040517f08c379a0000000000000000000000000000000000000000000000000000000008152600401610cbc906112bd565b60405180910390fd5b5b50565b600033905090565b600081359050610ce081611395565b92915050565b600081519050610cf5816113ac565b92915050565b600081359050610d0a816113c3565b92915050565b600081519050610d1f816113c3565b92915050565b600060208284031215610d3757600080fd5b6000610d4584828501610cd1565b91505092915050565b60008060408385031215610d6157600080fd5b6000610d6f85828601610cd1565b9250506020610d8085828601610cfb565b9150509250929050565b600060208284031215610d9c57600080fd5b6000610daa84828501610ce6565b91505092915050565b600060208284031215610dc557600080fd5b6000610dd384828501610cfb565b91505092915050565b600060208284031215610dee57600080fd5b6000610dfc84828501610d10565b91505092915050565b610e0e81611329565b82525050565b610e1d81611371565b82525050565b6000610e30602583611318565b91507f4465706f73697420616d6f756e74206d7573742062652067726561746572207460008301527f68616e20300000000000000000000000000000000000000000000000000000006020830152604082019050919050565b6000610e96600f83611318565b91507f5472616e73666572206661696c656400000000000000000000000000000000006000830152602082019050919050565b6000610ed6601483611318565b91507f496e73756666696369656e742062616c616e63650000000000000000000000006000830152602082019050919050565b6000610f16602083611318565b91507f4f776e61626c653a2063616c6c6572206973206e6f7420746865206f776e65726000830152602082019050919050565b6000610f56601d83611318565b91507f4e6577206f776e657220697320746865207a65726f20616464726573730000006000830152602082019050919050565b6000610f96602883611318565b91507f5769746864726177616c20616d6f756e74206d7573742062652067726561746560008301527f72207468616e20300000000000000000000000000000000000000000000000006020830152604082019050919050565b6000610ffc601483611318565b91507f4e6f7420656e6f75676820616c6c6f77616e63650000000000000000000000006000830152602082019050919050565b600061103c601a83611318565b91507f496e76616c6964207769746864726177616c20616464726573730000000000006000830152602082019050919050565b600061107c601783611318565b91507f5472616e7366657220746f20706f6f6c206661696c65640000000000000000006000830152602082019050919050565b60006110bc601f83611318565b91507f5265656e7472616e637947756172643a207265656e7472616e742063616c6c006000830152602082019050919050565b6110f881611367565b82525050565b60006020820190506111136000830184610e05565b92915050565b600060408201905061112e6000830185610e05565b61113b6020830184610e05565b9392505050565b60006060820190506111576000830186610e05565b6111646020830185610e05565b61117160408301846110ef565b949350505050565b600060408201905061118e6000830185610e05565b61119b60208301846110ef565b9392505050565b60006020820190506111b76000830184610e14565b92915050565b600060208201905081810360008301526111d681610e23565b9050919050565b600060208201905081810360008301526111f681610e89565b9050919050565b6000602082019050818103600083015261121681610ec9565b9050919050565b6000602082019050818103600083015261123681610f09565b9050919050565b6000602082019050818103600083015261125681610f49565b9050919050565b6000602082019050818103600083015261127681610f89565b9050919050565b6000602082019050818103600083015261129681610fef565b9050919050565b600060208201905081810360008301526112b68161102f565b9050919050565b600060208201905081810360008301526112d68161106f565b9050919050565b600060208201905081810360008301526112f6816110af565b9050919050565b600060208201905061131260008301846110ef565b92915050565b600082825260208201905092915050565b600061133482611347565b9050919050565b60008115159050919050565b600073ffffffffffffffffffffffffffffffffffffffff82169050919050565b6000819050919050565b600061137c82611383565b9050919050565b600061138e82611347565b9050919050565b61139e81611329565b81146113a957600080fd5b50565b6113b58161133b565b81146113c057600080fd5b50565b6113cc81611367565b81146113d757600080fd5b5056fea264697066735822122075435aeeb6c44af81e4c7d6fd42046ad26bbcf42dc8a0c03d1365bce595ba2f864736f6c63430008000033",
					"opcodes": "PUSH1 0x80 PUSH1 0x40 MSTORE PUSH1 0x64 PUSH1 0x5 SSTORE CALLVALUE DUP1 ISZERO PUSH3 0x16 JUMPI PUSH1 0x0 DUP1 REVERT JUMPDEST POP PUSH1 0x40 MLOAD PUSH3 0x1845 CODESIZE SUB DUP1 PUSH3 0x1845 DUP4 CODECOPY DUP2 DUP2 ADD PUSH1 0x40 MSTORE DUP2 ADD SWAP1 PUSH3 0x3C SWAP2 SWAP1 PUSH3 0x2BD JUMP JUMPDEST PUSH3 0x5C PUSH3 0x50 PUSH3 0x1DA PUSH1 0x20 SHL PUSH1 0x20 SHR JUMP JUMPDEST PUSH3 0x1E2 PUSH1 0x20 SHL PUSH1 0x20 SHR JUMP JUMPDEST PUSH1 0x1 DUP1 DUP2 SWAP1 SSTORE POP PUSH1 0x0 PUSH20 0xFFFFFFFFFFFFFFFFFFFFFFFFFFFFFFFFFFFFFFFF AND DUP3 PUSH20 0xFFFFFFFFFFFFFFFFFFFFFFFFFFFFFFFFFFFFFFFF AND EQ ISZERO PUSH3 0xD6 JUMPI PUSH1 0x40 MLOAD PUSH32 0x8C379A000000000000000000000000000000000000000000000000000000000 DUP2 MSTORE PUSH1 0x4 ADD PUSH3 0xCD SWAP1 PUSH3 0x3A4 JUMP JUMPDEST PUSH1 0x40 MLOAD DUP1 SWAP2 SUB SWAP1 REVERT JUMPDEST PUSH1 0x0 PUSH20 0xFFFFFFFFFFFFFFFFFFFFFFFFFFFFFFFFFFFFFFFF AND DUP2 PUSH20 0xFFFFFFFFFFFFFFFFFFFFFFFFFFFFFFFFFFFFFFFF AND EQ ISZERO PUSH3 0x149 JUMPI PUSH1 0x40 MLOAD PUSH32 0x8C379A000000000000000000000000000000000000000000000000000000000 DUP2 MSTORE PUSH1 0x4 ADD PUSH3 0x140 SWAP1 PUSH3 0x382 JUMP JUMPDEST PUSH1 0x40 MLOAD DUP1 SWAP2 SUB SWAP1 REVERT JUMPDEST DUP2 PUSH1 0x2 PUSH1 0x0 PUSH2 0x100 EXP DUP2 SLOAD DUP2 PUSH20 0xFFFFFFFFFFFFFFFFFFFFFFFFFFFFFFFFFFFFFFFF MUL NOT AND SWAP1 DUP4 PUSH20 0xFFFFFFFFFFFFFFFFFFFFFFFFFFFFFFFFFFFFFFFF AND MUL OR SWAP1 SSTORE POP DUP1 PUSH1 0x3 PUSH1 0x0 PUSH2 0x100 EXP DUP2 SLOAD DUP2 PUSH20 0xFFFFFFFFFFFFFFFFFFFFFFFFFFFFFFFFFFFFFFFF MUL NOT AND SWAP1 DUP4 PUSH20 0xFFFFFFFFFFFFFFFFFFFFFFFFFFFFFFFFFFFFFFFF AND MUL OR SWAP1 SSTORE POP NUMBER PUSH1 0x4 DUP2 SWAP1 SSTORE POP POP POP PUSH3 0x425 JUMP JUMPDEST PUSH1 0x0 CALLER SWAP1 POP SWAP1 JUMP JUMPDEST PUSH1 0x0 DUP1 PUSH1 0x0 SWAP1 SLOAD SWAP1 PUSH2 0x100 EXP SWAP1 DIV PUSH20 0xFFFFFFFFFFFFFFFFFFFFFFFFFFFFFFFFFFFFFFFF AND SWAP1 POP DUP2 PUSH1 0x0 DUP1 PUSH2 0x100 EXP DUP2 SLOAD DUP2 PUSH20 0xFFFFFFFFFFFFFFFFFFFFFFFFFFFFFFFFFFFFFFFF MUL NOT AND SWAP1 DUP4 PUSH20 0xFFFFFFFFFFFFFFFFFFFFFFFFFFFFFFFFFFFFFFFF AND MUL OR SWAP1 SSTORE POP DUP2 PUSH20 0xFFFFFFFFFFFFFFFFFFFFFFFFFFFFFFFFFFFFFFFF AND DUP2 PUSH20 0xFFFFFFFFFFFFFFFFFFFFFFFFFFFFFFFFFFFFFFFF AND PUSH32 0x8BE0079C531659141344CD1FD0A4F28419497F9722A3DAAFE3B4186F6B6457E0 PUSH1 0x40 MLOAD PUSH1 0x40 MLOAD DUP1 SWAP2 SUB SWAP1 LOG3 POP POP JUMP JUMPDEST PUSH1 0x0 DUP2 MLOAD SWAP1 POP PUSH3 0x2B7 DUP2 PUSH3 0x40B JUMP JUMPDEST SWAP3 SWAP2 POP POP JUMP JUMPDEST PUSH1 0x0 DUP1 PUSH1 0x40 DUP4 DUP6 SUB SLT ISZERO PUSH3 0x2D1 JUMPI PUSH1 0x0 DUP1 REVERT JUMPDEST PUSH1 0x0 PUSH3 0x2E1 DUP6 DUP3 DUP7 ADD PUSH3 0x2A6 JUMP JUMPDEST SWAP3 POP POP PUSH1 0x20 PUSH3 0x2F4 DUP6 DUP3 DUP7 ADD PUSH3 0x2A6 JUMP JUMPDEST SWAP2 POP POP SWAP3 POP SWAP3 SWAP1 POP JUMP JUMPDEST PUSH1 0x0 PUSH3 0x30D PUSH1 0x1D DUP4 PUSH3 0x3C6 JUMP JUMPDEST SWAP2 POP PUSH32 0x496E76616C6964207772617070656420746F6B656E2061646472657373000000 PUSH1 0x0 DUP4 ADD MSTORE PUSH1 0x20 DUP3 ADD SWAP1 POP SWAP2 SWAP1 POP JUMP JUMPDEST PUSH1 0x0 PUSH3 0x34F PUSH1 0x14 DUP4 PUSH3 0x3C6 JUMP JUMPDEST SWAP2 POP PUSH32 0x496E76616C696420706F6F6C2061646472657373000000000000000000000000 PUSH1 0x0 DUP4 ADD MSTORE PUSH1 0x20 DUP3 ADD SWAP1 POP SWAP2 SWAP1 POP JUMP JUMPDEST PUSH1 0x0 PUSH1 0x20 DUP3 ADD SWAP1 POP DUP2 DUP2 SUB PUSH1 0x0 DUP4 ADD MSTORE PUSH3 0x39D DUP2 PUSH3 0x2FE JUMP JUMPDEST SWAP1 POP SWAP2 SWAP1 POP JUMP JUMPDEST PUSH1 0x0 PUSH1 0x20 DUP3 ADD SWAP1 POP DUP2 DUP2 SUB PUSH1 0x0 DUP4 ADD MSTORE PUSH3 0x3BF DUP2 PUSH3 0x340 JUMP JUMPDEST SWAP1 POP SWAP2 SWAP1 POP JUMP JUMPDEST PUSH1 0x0 DUP3 DUP3 MSTORE PUSH1 0x20 DUP3 ADD SWAP1 POP SWAP3 SWAP2 POP POP JUMP JUMPDEST PUSH1 0x0 PUSH3 0x3E4 DUP3 PUSH3 0x3EB JUMP JUMPDEST SWAP1 POP SWAP2 SWAP1 POP JUMP JUMPDEST PUSH1 0x0 PUSH20 0xFFFFFFFFFFFFFFFFFFFFFFFFFFFFFFFFFFFFFFFF DUP3 AND SWAP1 POP SWAP2 SWAP1 POP JUMP JUMPDEST PUSH3 0x416 DUP2 PUSH3 0x3D7 JUMP JUMPDEST DUP2 EQ PUSH3 0x422 JUMPI PUSH1 0x0 DUP1 REVERT JUMPDEST POP JUMP JUMPDEST PUSH2 0x1410 DUP1 PUSH3 0x435 PUSH1 0x0 CODECOPY PUSH1 0x0 RETURN INVALID PUSH1 0x80 PUSH1 0x40 MSTORE CALLVALUE DUP1 ISZERO PUSH2 0x10 JUMPI PUSH1 0x0 DUP1 REVERT JUMPDEST POP PUSH1 0x4 CALLDATASIZE LT PUSH2 0x9E JUMPI PUSH1 0x0 CALLDATALOAD PUSH1 0xE0 SHR DUP1 PUSH4 0x8DA5CB5B GT PUSH2 0x66 JUMPI DUP1 PUSH4 0x8DA5CB5B EQ PUSH2 0x121 JUMPI DUP1 PUSH4 0x996C6CC3 EQ PUSH2 0x13F JUMPI DUP1 PUSH4 0xBB413C8D EQ PUSH2 0x15D JUMPI DUP1 PUSH4 0xC4DA9247 EQ PUSH2 0x17B JUMPI DUP1 PUSH4 0xF2FDE38B EQ PUSH2 0x197 JUMPI PUSH2 0x9E JUMP JUMPDEST DUP1 PUSH4 0x1755FF21 EQ PUSH2 0xA3 JUMPI DUP1 PUSH4 0x4ABB3FAC EQ PUSH2 0xC1 JUMPI DUP1 PUSH4 0x5A6B26BA EQ PUSH2 0xDF JUMPI DUP1 PUSH4 0x62C35C01 EQ PUSH2 0xFB JUMPI DUP1 PUSH4 0x715018A6 EQ PUSH2 0x117 JUMPI JUMPDEST PUSH1 0x0 DUP1 REVERT JUMPDEST PUSH2 0xAB PUSH2 0x1B3 JUMP JUMPDEST PUSH1 0x40 MLOAD PUSH2 0xB8 SWAP2 SWAP1 PUSH2 0x10FE JUMP JUMPDEST PUSH1 0x40 MLOAD DUP1 SWAP2 SUB SWAP1 RETURN JUMPDEST PUSH2 0xC9 PUSH2 0x1D9 JUMP JUMPDEST PUSH1 0x40 MLOAD PUSH2 0xD6 SWAP2 SWAP1 PUSH2 0x12FD JUMP JUMPDEST PUSH1 0x40 MLOAD DUP1 SWAP2 SUB SWAP1 RETURN JUMPDEST PUSH2 0xF9 PUSH1 0x4 DUP1 CALLDATASIZE SUB DUP2 ADD SWAP1 PUSH2 0xF4 SWAP2 SWAP1 PUSH2 0xD4E JUMP JUMPDEST PUSH2 0x1DF JUMP JUMPDEST STOP JUMPDEST PUSH2 0x115 PUSH1 0x4 DUP1 CALLDATASIZE SUB DUP2 ADD SWAP1 PUSH2 0x110 SWAP2 SWAP1 PUSH2 0xDB3 JUMP JUMPDEST PUSH2 0x4D7 JUMP JUMPDEST STOP JUMPDEST PUSH2 0x11F PUSH2 0x5E0 JUMP JUMPDEST STOP JUMPDEST PUSH2 0x129 PUSH2 0x5F4 JUMP JUMPDEST PUSH1 0x40 MLOAD PUSH2 0x136 SWAP2 SWAP1 PUSH2 0x10FE JUMP JUMPDEST PUSH1 0x40 MLOAD DUP1 SWAP2 SUB SWAP1 RETURN JUMPDEST PUSH2 0x147 PUSH2 0x61D JUMP JUMPDEST PUSH1 0x40 MLOAD PUSH2 0x154 SWAP2 SWAP1 PUSH2 0x11A2 JUMP JUMPDEST PUSH1 0x40 MLOAD DUP1 SWAP2 SUB SWAP1 RETURN JUMPDEST PUSH2 0x165 PUSH2 0x643 JUMP JUMPDEST PUSH1 0x40 MLOAD PUSH2 0x172 SWAP2 SWAP1 PUSH2 0x12FD JUMP JUMPDEST PUSH1 0x40 MLOAD DUP1 SWAP2 SUB SWAP1 RETURN JUMPDEST PUSH2 0x195 PUSH1 0x4 DUP1 CALLDATASIZE SUB DUP2 ADD SWAP1 PUSH2 0x190 SWAP2 SWAP1 PUSH2 0xDB3 JUMP JUMPDEST PUSH2 0x649 JUMP JUMPDEST STOP JUMPDEST PUSH2 0x1B1 PUSH1 0x4 DUP1 CALLDATASIZE SUB DUP2 ADD SWAP1 PUSH2 0x1AC SWAP2 SWAP1 PUSH2 0xD25 JUMP JUMPDEST PUSH2 0x87D JUMP JUMPDEST STOP JUMPDEST PUSH1 0x2 PUSH1 0x0 SWAP1 SLOAD SWAP1 PUSH2 0x100 EXP SWAP1 DIV PUSH20 0xFFFFFFFFFFFFFFFFFFFFFFFFFFFFFFFFFFFFFFFF AND DUP2 JUMP JUMPDEST PUSH1 0x5 SLOAD DUP2 JUMP JUMPDEST PUSH2 0x1E7 PUSH2 0x962 JUMP JUMPDEST PUSH2 0x1EF PUSH2 0x9E0 JUMP JUMPDEST PUSH1 0x0 PUSH20 0xFFFFFFFFFFFFFFFFFFFFFFFFFFFFFFFFFFFFFFFF AND DUP3 PUSH20 0xFFFFFFFFFFFFFFFFFFFFFFFFFFFFFFFFFFFFFFFF AND EQ ISZERO PUSH2 0x25F JUMPI PUSH1 0x40 MLOAD PUSH32 0x8C379A000000000000000000000000000000000000000000000000000000000 DUP2 MSTORE PUSH1 0x4 ADD PUSH2 0x256 SWAP1 PUSH2 0x129D JUMP JUMPDEST PUSH1 0x40 MLOAD DUP1 SWAP2 SUB SWAP1 REVERT JUMPDEST PUSH1 0x0 DUP2 GT PUSH2 0x2A2 JUMPI PUSH1 0x40 MLOAD PUSH32 0x8C379A000000000000000000000000000000000000000000000000000000000 DUP2 MSTORE PUSH1 0x4 ADD PUSH2 0x299 SWAP1 PUSH2 0x125D JUMP JUMPDEST PUSH1 0x40 MLOAD DUP1 SWAP2 SUB SWAP1 REVERT JUMPDEST DUP1 PUSH1 0x3 PUSH1 0x0 SWAP1 SLOAD SWAP1 PUSH2 0x100 EXP SWAP1 DIV PUSH20 0xFFFFFFFFFFFFFFFFFFFFFFFFFFFFFFFFFFFFFFFF AND PUSH20 0xFFFFFFFFFFFFFFFFFFFFFFFFFFFFFFFFFFFFFFFF AND PUSH4 0x70A08231 ADDRESS PUSH1 0x40 MLOAD DUP3 PUSH4 0xFFFFFFFF AND PUSH1 0xE0 SHL DUP2 MSTORE PUSH1 0x4 ADD PUSH2 0x2FE SWAP2 SWAP1 PUSH2 0x10FE JUMP JUMPDEST PUSH1 0x20 PUSH1 0x40 MLOAD DUP1 DUP4 SUB DUP2 DUP7 DUP1 EXTCODESIZE ISZERO DUP1 ISZERO PUSH2 0x316 JUMPI PUSH1 0x0 DUP1 REVERT JUMPDEST POP GAS STATICCALL ISZERO DUP1 ISZERO PUSH2 0x32A JUMPI RETURNDATASIZE PUSH1 0x0 DUP1 RETURNDATACOPY RETURNDATASIZE PUSH1 0x0 REVERT JUMPDEST POP POP POP POP PUSH1 0x40 MLOAD RETURNDATASIZE PUSH1 0x1F NOT PUSH1 0x1F DUP3 ADD AND DUP3 ADD DUP1 PUSH1 0x40 MSTORE POP DUP2 ADD SWAP1 PUSH2 0x34E SWAP2 SWAP1 PUSH2 0xDDC JUMP JUMPDEST LT ISZERO PUSH2 0x38F JUMPI PUSH1 0x40 MLOAD PUSH32 0x8C379A000000000000000000000000000000000000000000000000000000000 DUP2 MSTORE PUSH1 0x4 ADD PUSH2 0x386 SWAP1 PUSH2 0x11FD JUMP JUMPDEST PUSH1 0x40 MLOAD DUP1 SWAP2 SUB SWAP1 REVERT JUMPDEST PUSH1 0x3 PUSH1 0x0 SWAP1 SLOAD SWAP1 PUSH2 0x100 EXP SWAP1 DIV PUSH20 0xFFFFFFFFFFFFFFFFFFFFFFFFFFFFFFFFFFFFFFFF AND PUSH20 0xFFFFFFFFFFFFFFFFFFFFFFFFFFFFFFFFFFFFFFFF AND PUSH4 0xA9059CBB DUP4 DUP4 PUSH1 0x40 MLOAD DUP4 PUSH4 0xFFFFFFFF AND PUSH1 0xE0 SHL DUP2 MSTORE PUSH1 0x4 ADD PUSH2 0x3EC SWAP3 SWAP2 SWAP1 PUSH2 0x1179 JUMP JUMPDEST PUSH1 0x20 PUSH1 0x40 MLOAD DUP1 DUP4 SUB DUP2 PUSH1 0x0 DUP8 DUP1 EXTCODESIZE ISZERO DUP1 ISZERO PUSH2 0x406 JUMPI PUSH1 0x0 DUP1 REVERT JUMPDEST POP GAS CALL ISZERO DUP1 ISZERO PUSH2 0x41A JUMPI RETURNDATASIZE PUSH1 0x0 DUP1 RETURNDATACOPY RETURNDATASIZE PUSH1 0x0 REVERT JUMPDEST POP POP POP POP PUSH1 0x40 MLOAD RETURNDATASIZE PUSH1 0x1F NOT PUSH1 0x1F DUP3 ADD AND DUP3 ADD DUP1 PUSH1 0x40 MSTORE POP DUP2 ADD SWAP1 PUSH2 0x43E SWAP2 SWAP1 PUSH2 0xD8A JUMP JUMPDEST PUSH2 0x47D JUMPI PUSH1 0x40 MLOAD PUSH32 0x8C379A000000000000000000000000000000000000000000000000000000000 DUP2 MSTORE PUSH1 0x4 ADD PUSH2 0x474 SWAP1 PUSH2 0x11DD JUMP JUMPDEST PUSH1 0x40 MLOAD DUP1 SWAP2 SUB SWAP1 REVERT JUMPDEST DUP2 PUSH20 0xFFFFFFFFFFFFFFFFFFFFFFFFFFFFFFFFFFFFFFFF AND PUSH32 0x6352C5382C4A4578E712449CA65E83CDB392D045DFCF1CAD9615189DB2DA244B DUP3 PUSH1 0x40 MLOAD PUSH2 0x4C3 SWAP2 SWAP1 PUSH2 0x12FD JUMP JUMPDEST PUSH1 0x40 MLOAD DUP1 SWAP2 SUB SWAP1 LOG2 PUSH2 0x4D3 PUSH2 0xA30 JUMP JUMPDEST POP POP JUMP JUMPDEST PUSH2 0x4DF PUSH2 0x962 JUMP JUMPDEST PUSH1 0x3 PUSH1 0x0 SWAP1 SLOAD SWAP1 PUSH2 0x100 EXP SWAP1 DIV PUSH20 0xFFFFFFFFFFFFFFFFFFFFFFFFFFFFFFFFFFFFFFFF AND PUSH20 0xFFFFFFFFFFFFFFFFFFFFFFFFFFFFFFFFFFFFFFFF AND PUSH4 0x95EA7B3 ADDRESS DUP4 PUSH1 0x40 MLOAD DUP4 PUSH4 0xFFFFFFFF AND PUSH1 0xE0 SHL DUP2 MSTORE PUSH1 0x4 ADD PUSH2 0x53C SWAP3 SWAP2 SWAP1 PUSH2 0x1179 JUMP JUMPDEST PUSH1 0x20 PUSH1 0x40 MLOAD DUP1 DUP4 SUB DUP2 PUSH1 0x0 DUP8 DUP1 EXTCODESIZE ISZERO DUP1 ISZERO PUSH2 0x556 JUMPI PUSH1 0x0 DUP1 REVERT JUMPDEST POP GAS CALL ISZERO DUP1 ISZERO PUSH2 0x56A JUMPI RETURNDATASIZE PUSH1 0x0 DUP1 RETURNDATACOPY RETURNDATASIZE PUSH1 0x0 REVERT JUMPDEST POP POP POP POP PUSH1 0x40 MLOAD RETURNDATASIZE PUSH1 0x1F NOT PUSH1 0x1F DUP3 ADD AND DUP3 ADD DUP1 PUSH1 0x40 MSTORE POP DUP2 ADD SWAP1 PUSH2 0x58E SWAP2 SWAP1 PUSH2 0xD8A JUMP JUMPDEST POP CALLER PUSH20 0xFFFFFFFFFFFFFFFFFFFFFFFFFFFFFFFFFFFFFFFF AND PUSH32 0x5F327DFBC26B4773C8990EDBC20356F43975E2A38466359FAD3BD2B77DEE2433 DUP3 PUSH1 0x40 MLOAD PUSH2 0x5D5 SWAP2 SWAP1 PUSH2 0x12FD JUMP JUMPDEST PUSH1 0x40 MLOAD DUP1 SWAP2 SUB SWAP1 LOG2 POP JUMP JUMPDEST PUSH2 0x5E8 PUSH2 0x962 JUMP JUMPDEST PUSH2 0x5F2 PUSH1 0x0 PUSH2 0xA39 JUMP JUMPDEST JUMP JUMPDEST PUSH1 0x0 DUP1 PUSH1 0x0 SWAP1 SLOAD SWAP1 PUSH2 0x100 EXP SWAP1 DIV PUSH20 0xFFFFFFFFFFFFFFFFFFFFFFFFFFFFFFFFFFFFFFFF AND SWAP1 POP SWAP1 JUMP JUMPDEST PUSH1 0x3 PUSH1 0x0 SWAP1 SLOAD SWAP1 PUSH2 0x100 EXP SWAP1 DIV PUSH20 0xFFFFFFFFFFFFFFFFFFFFFFFFFFFFFFFFFFFFFFFF AND DUP2 JUMP JUMPDEST PUSH1 0x4 SLOAD DUP2 JUMP JUMPDEST PUSH1 0x0 DUP2 GT PUSH2 0x68C JUMPI PUSH1 0x40 MLOAD PUSH32 0x8C379A000000000000000000000000000000000000000000000000000000000 DUP2 MSTORE PUSH1 0x4 ADD PUSH2 0x683 SWAP1 PUSH2 0x11BD JUMP JUMPDEST PUSH1 0x40 MLOAD DUP1 SWAP2 SUB SWAP1 REVERT JUMPDEST DUP1 PUSH1 0x3 PUSH1 0x0 SWAP1 SLOAD SWAP1 PUSH2 0x100 EXP SWAP1 DIV PUSH20 0xFFFFFFFFFFFFFFFFFFFFFFFFFFFFFFFFFFFFFFFF AND PUSH20 0xFFFFFFFFFFFFFFFFFFFFFFFFFFFFFFFFFFFFFFFF AND PUSH4 0xDD62ED3E CALLER ADDRESS PUSH1 0x40 MLOAD DUP4 PUSH4 0xFFFFFFFF AND PUSH1 0xE0 SHL DUP2 MSTORE PUSH1 0x4 ADD PUSH2 0x6EA SWAP3 SWAP2 SWAP1 PUSH2 0x1119 JUMP JUMPDEST PUSH1 0x20 PUSH1 0x40 MLOAD DUP1 DUP4 SUB DUP2 DUP7 DUP1 EXTCODESIZE ISZERO DUP1 ISZERO PUSH2 0x702 JUMPI PUSH1 0x0 DUP1 REVERT JUMPDEST POP GAS STATICCALL ISZERO DUP1 ISZERO PUSH2 0x716 JUMPI RETURNDATASIZE PUSH1 0x0 DUP1 RETURNDATACOPY RETURNDATASIZE PUSH1 0x0 REVERT JUMPDEST POP POP POP POP PUSH1 0x40 MLOAD RETURNDATASIZE PUSH1 0x1F NOT PUSH1 0x1F DUP3 ADD AND DUP3 ADD DUP1 PUSH1 0x40 MSTORE POP DUP2 ADD SWAP1 PUSH2 0x73A SWAP2 SWAP1 PUSH2 0xDDC JUMP JUMPDEST LT ISZERO PUSH2 0x77B JUMPI PUSH1 0x40 MLOAD PUSH32 0x8C379A000000000000000000000000000000000000000000000000000000000 DUP2 MSTORE PUSH1 0x4 ADD PUSH2 0x772 SWAP1 PUSH2 0x127D JUMP JUMPDEST PUSH1 0x40 MLOAD DUP1 SWAP2 SUB SWAP1 REVERT JUMPDEST PUSH1 0x3 PUSH1 0x0 SWAP1 SLOAD SWAP1 PUSH2 0x100 EXP SWAP1 DIV PUSH20 0xFFFFFFFFFFFFFFFFFFFFFFFFFFFFFFFFFFFFFFFF AND PUSH20 0xFFFFFFFFFFFFFFFFFFFFFFFFFFFFFFFFFFFFFFFF AND PUSH4 0x23B872DD CALLER ADDRESS DUP5 PUSH1 0x40 MLOAD DUP5 PUSH4 0xFFFFFFFF AND PUSH1 0xE0 SHL DUP2 MSTORE PUSH1 0x4 ADD PUSH2 0x7DA SWAP4 SWAP3 SWAP2 SWAP1 PUSH2 0x1142 JUMP JUMPDEST PUSH1 0x20 PUSH1 0x40 MLOAD DUP1 DUP4 SUB DUP2 PUSH1 0x0 DUP8 DUP1 EXTCODESIZE ISZERO DUP1 ISZERO PUSH2 0x7F4 JUMPI PUSH1 0x0 DUP1 REVERT JUMPDEST POP GAS CALL ISZERO DUP1 ISZERO PUSH2 0x808 JUMPI RETURNDATASIZE PUSH1 0x0 DUP1 RETURNDATACOPY RETURNDATASIZE PUSH1 0x0 REVERT JUMPDEST POP POP POP POP PUSH1 0x40 MLOAD RETURNDATASIZE PUSH1 0x1F NOT PUSH1 0x1F DUP3 ADD AND DUP3 ADD DUP1 PUSH1 0x40 MSTORE POP DUP2 ADD SWAP1 PUSH2 0x82C SWAP2 SWAP1 PUSH2 0xD8A JUMP JUMPDEST PUSH2 0x86B JUMPI PUSH1 0x40 MLOAD PUSH32 0x8C379A000000000000000000000000000000000000000000000000000000000 DUP2 MSTORE PUSH1 0x4 ADD PUSH2 0x862 SWAP1 PUSH2 0x11DD JUMP JUMPDEST PUSH1 0x40 MLOAD DUP1 SWAP2 SUB SWAP1 REVERT JUMPDEST PUSH2 0x873 PUSH2 0xAFD JUMP JUMPDEST NUMBER PUSH1 0x4 DUP2 SWAP1 SSTORE POP POP JUMP JUMPDEST PUSH2 0x885 PUSH2 0x962 JUMP JUMPDEST PUSH1 0x0 PUSH20 0xFFFFFFFFFFFFFFFFFFFFFFFFFFFFFFFFFFFFFFFF AND DUP2 PUSH20 0xFFFFFFFFFFFFFFFFFFFFFFFFFFFFFFFFFFFFFFFF AND EQ ISZERO PUSH2 0x8F5 JUMPI PUSH1 0x40 MLOAD PUSH32 0x8C379A000000000000000000000000000000000000000000000000000000000 DUP2 MSTORE PUSH1 0x4 ADD PUSH2 0x8EC SWAP1 PUSH2 0x123D JUMP JUMPDEST PUSH1 0x40 MLOAD DUP1 SWAP2 SUB SWAP1 REVERT JUMPDEST DUP1 PUSH20 0xFFFFFFFFFFFFFFFFFFFFFFFFFFFFFFFFFFFFFFFF AND PUSH2 0x914 PUSH2 0x5F4 JUMP JUMPDEST PUSH20 0xFFFFFFFFFFFFFFFFFFFFFFFFFFFFFFFFFFFFFFFF AND PUSH32 0x8BE0079C531659141344CD1FD0A4F28419497F9722A3DAAFE3B4186F6B6457E0 PUSH1 0x40 MLOAD PUSH1 0x40 MLOAD DUP1 SWAP2 SUB SWAP1 LOG3 PUSH2 0x95F DUP2 PUSH2 0xA39 JUMP JUMPDEST POP JUMP JUMPDEST PUSH2 0x96A PUSH2 0xCC9 JUMP JUMPDEST PUSH20 0xFFFFFFFFFFFFFFFFFFFFFFFFFFFFFFFFFFFFFFFF AND PUSH2 0x988 PUSH2 0x5F4 JUMP JUMPDEST PUSH20 0xFFFFFFFFFFFFFFFFFFFFFFFFFFFFFFFFFFFFFFFF AND EQ PUSH2 0x9DE JUMPI PUSH1 0x40 MLOAD PUSH32 0x8C379A000000000000000000000000000000000000000000000000000000000 DUP2 MSTORE PUSH1 0x4 ADD PUSH2 0x9D5 SWAP1 PUSH2 0x121D JUMP JUMPDEST PUSH1 0x40 MLOAD DUP1 SWAP2 SUB SWAP1 REVERT JUMPDEST JUMP JUMPDEST PUSH1 0x2 PUSH1 0x1 SLOAD EQ ISZERO PUSH2 0xA26 JUMPI PUSH1 0x40 MLOAD PUSH32 0x8C379A000000000000000000000000000000000000000000000000000000000 DUP2 MSTORE PUSH1 0x4 ADD PUSH2 0xA1D SWAP1 PUSH2 0x12DD JUMP JUMPDEST PUSH1 0x40 MLOAD DUP1 SWAP2 SUB SWAP1 REVERT JUMPDEST PUSH1 0x2 PUSH1 0x1 DUP2 SWAP1 SSTORE POP JUMP JUMPDEST PUSH1 0x1 DUP1 DUP2 SWAP1 SSTORE POP JUMP JUMPDEST PUSH1 0x0 DUP1 PUSH1 0x0 SWAP1 SLOAD SWAP1 PUSH2 0x100 EXP SWAP1 DIV PUSH20 0xFFFFFFFFFFFFFFFFFFFFFFFFFFFFFFFFFFFFFFFF AND SWAP1 POP DUP2 PUSH1 0x0 DUP1 PUSH2 0x100 EXP DUP2 SLOAD DUP2 PUSH20 0xFFFFFFFFFFFFFFFFFFFFFFFFFFFFFFFFFFFFFFFF MUL NOT AND SWAP1 DUP4 PUSH20 0xFFFFFFFFFFFFFFFFFFFFFFFFFFFFFFFFFFFFFFFF AND MUL OR SWAP1 SSTORE POP DUP2 PUSH20 0xFFFFFFFFFFFFFFFFFFFFFFFFFFFFFFFFFFFFFFFF AND DUP2 PUSH20 0xFFFFFFFFFFFFFFFFFFFFFFFFFFFFFFFFFFFFFFFF AND PUSH32 0x8BE0079C531659141344CD1FD0A4F28419497F9722A3DAAFE3B4186F6B6457E0 PUSH1 0x40 MLOAD PUSH1 0x40 MLOAD DUP1 SWAP2 SUB SWAP1 LOG3 POP POP JUMP JUMPDEST PUSH1 0x0 PUSH1 0x3 PUSH1 0x0 SWAP1 SLOAD SWAP1 PUSH2 0x100 EXP SWAP1 DIV PUSH20 0xFFFFFFFFFFFFFFFFFFFFFFFFFFFFFFFFFFFFFFFF AND PUSH20 0xFFFFFFFFFFFFFFFFFFFFFFFFFFFFFFFFFFFFFFFF AND PUSH4 0x70A08231 ADDRESS PUSH1 0x40 MLOAD DUP3 PUSH4 0xFFFFFFFF AND PUSH1 0xE0 SHL DUP2 MSTORE PUSH1 0x4 ADD PUSH2 0xB5A SWAP2 SWAP1 PUSH2 0x10FE JUMP JUMPDEST PUSH1 0x20 PUSH1 0x40 MLOAD DUP1 DUP4 SUB DUP2 DUP7 DUP1 EXTCODESIZE ISZERO DUP1 ISZERO PUSH2 0xB72 JUMPI PUSH1 0x0 DUP1 REVERT JUMPDEST POP GAS STATICCALL ISZERO DUP1 ISZERO PUSH2 0xB86 JUMPI RETURNDATASIZE PUSH1 0x0 DUP1 RETURNDATACOPY RETURNDATASIZE PUSH1 0x0 REVERT JUMPDEST POP POP POP POP PUSH1 0x40 MLOAD RETURNDATASIZE PUSH1 0x1F NOT PUSH1 0x1F DUP3 ADD AND DUP3 ADD DUP1 PUSH1 0x40 MSTORE POP DUP2 ADD SWAP1 PUSH2 0xBAA SWAP2 SWAP1 PUSH2 0xDDC JUMP JUMPDEST SWAP1 POP PUSH1 0x0 DUP2 GT ISZERO PUSH2 0xCC6 JUMPI PUSH1 0x3 PUSH1 0x0 SWAP1 SLOAD SWAP1 PUSH2 0x100 EXP SWAP1 DIV PUSH20 0xFFFFFFFFFFFFFFFFFFFFFFFFFFFFFFFFFFFFFFFF AND PUSH20 0xFFFFFFFFFFFFFFFFFFFFFFFFFFFFFFFFFFFFFFFF AND PUSH4 0xA9059CBB PUSH1 0x2 PUSH1 0x0 SWAP1 SLOAD SWAP1 PUSH2 0x100 EXP SWAP1 DIV PUSH20 0xFFFFFFFFFFFFFFFFFFFFFFFFFFFFFFFFFFFFFFFF AND DUP4 PUSH1 0x40 MLOAD DUP4 PUSH4 0xFFFFFFFF AND PUSH1 0xE0 SHL DUP2 MSTORE PUSH1 0x4 ADD PUSH2 0xC34 SWAP3 SWAP2 SWAP1 PUSH2 0x1179 JUMP JUMPDEST PUSH1 0x20 PUSH1 0x40 MLOAD DUP1 DUP4 SUB DUP2 PUSH1 0x0 DUP8 DUP1 EXTCODESIZE ISZERO DUP1 ISZERO PUSH2 0xC4E JUMPI PUSH1 0x0 DUP1 REVERT JUMPDEST POP GAS CALL ISZERO DUP1 ISZERO PUSH2 0xC62 JUMPI RETURNDATASIZE PUSH1 0x0 DUP1 RETURNDATACOPY RETURNDATASIZE PUSH1 0x0 REVERT JUMPDEST POP POP POP POP PUSH1 0x40 MLOAD RETURNDATASIZE PUSH1 0x1F NOT PUSH1 0x1F DUP3 ADD AND DUP3 ADD DUP1 PUSH1 0x40 MSTORE POP DUP2 ADD SWAP1 PUSH2 0xC86 SWAP2 SWAP1 PUSH2 0xD8A JUMP JUMPDEST PUSH2 0xCC5 JUMPI PUSH1 0x40 MLOAD PUSH32 0x8C379A000000000000000000000000000000000000000000000000000000000 DUP2 MSTORE PUSH1 0x4 ADD PUSH2 0xCBC SWAP1 PUSH2 0x12BD JUMP JUMPDEST PUSH1 0x40 MLOAD DUP1 SWAP2 SUB SWAP1 REVERT JUMPDEST JUMPDEST POP JUMP JUMPDEST PUSH1 0x0 CALLER SWAP1 POP SWAP1 JUMP JUMPDEST PUSH1 0x0 DUP2 CALLDATALOAD SWAP1 POP PUSH2 0xCE0 DUP2 PUSH2 0x1395 JUMP JUMPDEST SWAP3 SWAP2 POP POP JUMP JUMPDEST PUSH1 0x0 DUP2 MLOAD SWAP1 POP PUSH2 0xCF5 DUP2 PUSH2 0x13AC JUMP JUMPDEST SWAP3 SWAP2 POP POP JUMP JUMPDEST PUSH1 0x0 DUP2 CALLDATALOAD SWAP1 POP PUSH2 0xD0A DUP2 PUSH2 0x13C3 JUMP JUMPDEST SWAP3 SWAP2 POP POP JUMP JUMPDEST PUSH1 0x0 DUP2 MLOAD SWAP1 POP PUSH2 0xD1F DUP2 PUSH2 0x13C3 JUMP JUMPDEST SWAP3 SWAP2 POP POP JUMP JUMPDEST PUSH1 0x0 PUSH1 0x20 DUP3 DUP5 SUB SLT ISZERO PUSH2 0xD37 JUMPI PUSH1 0x0 DUP1 REVERT JUMPDEST PUSH1 0x0 PUSH2 0xD45 DUP5 DUP3 DUP6 ADD PUSH2 0xCD1 JUMP JUMPDEST SWAP2 POP POP SWAP3 SWAP2 POP POP JUMP JUMPDEST PUSH1 0x0 DUP1 PUSH1 0x40 DUP4 DUP6 SUB SLT ISZERO PUSH2 0xD61 JUMPI PUSH1 0x0 DUP1 REVERT JUMPDEST PUSH1 0x0 PUSH2 0xD6F DUP6 DUP3 DUP7 ADD PUSH2 0xCD1 JUMP JUMPDEST SWAP3 POP POP PUSH1 0x20 PUSH2 0xD80 DUP6 DUP3 DUP7 ADD PUSH2 0xCFB JUMP JUMPDEST SWAP2 POP POP SWAP3 POP SWAP3 SWAP1 POP JUMP JUMPDEST PUSH1 0x0 PUSH1 0x20 DUP3 DUP5 SUB SLT ISZERO PUSH2 0xD9C JUMPI PUSH1 0x0 DUP1 REVERT JUMPDEST PUSH1 0x0 PUSH2 0xDAA DUP5 DUP3 DUP6 ADD PUSH2 0xCE6 JUMP JUMPDEST SWAP2 POP POP SWAP3 SWAP2 POP POP JUMP JUMPDEST PUSH1 0x0 PUSH1 0x20 DUP3 DUP5 SUB SLT ISZERO PUSH2 0xDC5 JUMPI PUSH1 0x0 DUP1 REVERT JUMPDEST PUSH1 0x0 PUSH2 0xDD3 DUP5 DUP3 DUP6 ADD PUSH2 0xCFB JUMP JUMPDEST SWAP2 POP POP SWAP3 SWAP2 POP POP JUMP JUMPDEST PUSH1 0x0 PUSH1 0x20 DUP3 DUP5 SUB SLT ISZERO PUSH2 0xDEE JUMPI PUSH1 0x0 DUP1 REVERT JUMPDEST PUSH1 0x0 PUSH2 0xDFC DUP5 DUP3 DUP6 ADD PUSH2 0xD10 JUMP JUMPDEST SWAP2 POP POP SWAP3 SWAP2 POP POP JUMP JUMPDEST PUSH2 0xE0E DUP2 PUSH2 0x1329 JUMP JUMPDEST DUP3 MSTORE POP POP JUMP JUMPDEST PUSH2 0xE1D DUP2 PUSH2 0x1371 JUMP JUMPDEST DUP3 MSTORE POP POP JUMP JUMPDEST PUSH1 0x0 PUSH2 0xE30 PUSH1 0x25 DUP4 PUSH2 0x1318 JUMP JUMPDEST SWAP2 POP PUSH32 0x4465706F73697420616D6F756E74206D75737420626520677265617465722074 PUSH1 0x0 DUP4 ADD MSTORE PUSH32 0x68616E2030000000000000000000000000000000000000000000000000000000 PUSH1 0x20 DUP4 ADD MSTORE PUSH1 0x40 DUP3 ADD SWAP1 POP SWAP2 SWAP1 POP JUMP JUMPDEST PUSH1 0x0 PUSH2 0xE96 PUSH1 0xF DUP4 PUSH2 0x1318 JUMP JUMPDEST SWAP2 POP PUSH32 0x5472616E73666572206661696C65640000000000000000000000000000000000 PUSH1 0x0 DUP4 ADD MSTORE PUSH1 0x20 DUP3 ADD SWAP1 POP SWAP2 SWAP1 POP JUMP JUMPDEST PUSH1 0x0 PUSH2 0xED6 PUSH1 0x14 DUP4 PUSH2 0x1318 JUMP JUMPDEST SWAP2 POP PUSH32 0x496E73756666696369656E742062616C616E6365000000000000000000000000 PUSH1 0x0 DUP4 ADD MSTORE PUSH1 0x20 DUP3 ADD SWAP1 POP SWAP2 SWAP1 POP JUMP JUMPDEST PUSH1 0x0 PUSH2 0xF16 PUSH1 0x20 DUP4 PUSH2 0x1318 JUMP JUMPDEST SWAP2 POP PUSH32 0x4F776E61626C653A2063616C6C6572206973206E6F7420746865206F776E6572 PUSH1 0x0 DUP4 ADD MSTORE PUSH1 0x20 DUP3 ADD SWAP1 POP SWAP2 SWAP1 POP JUMP JUMPDEST PUSH1 0x0 PUSH2 0xF56 PUSH1 0x1D DUP4 PUSH2 0x1318 JUMP JUMPDEST SWAP2 POP PUSH32 0x4E6577206F776E657220697320746865207A65726F2061646472657373000000 PUSH1 0x0 DUP4 ADD MSTORE PUSH1 0x20 DUP3 ADD SWAP1 POP SWAP2 SWAP1 POP JUMP JUMPDEST PUSH1 0x0 PUSH2 0xF96 PUSH1 0x28 DUP4 PUSH2 0x1318 JUMP JUMPDEST SWAP2 POP PUSH32 0x5769746864726177616C20616D6F756E74206D75737420626520677265617465 PUSH1 0x0 DUP4 ADD MSTORE PUSH32 0x72207468616E2030000000000000000000000000000000000000000000000000 PUSH1 0x20 DUP4 ADD MSTORE PUSH1 0x40 DUP3 ADD SWAP1 POP SWAP2 SWAP1 POP JUMP JUMPDEST PUSH1 0x0 PUSH2 0xFFC PUSH1 0x14 DUP4 PUSH2 0x1318 JUMP JUMPDEST SWAP2 POP PUSH32 0x4E6F7420656E6F75676820616C6C6F77616E6365000000000000000000000000 PUSH1 0x0 DUP4 ADD MSTORE PUSH1 0x20 DUP3 ADD SWAP1 POP SWAP2 SWAP1 POP JUMP JUMPDEST PUSH1 0x0 PUSH2 0x103C PUSH1 0x1A DUP4 PUSH2 0x1318 JUMP JUMPDEST SWAP2 POP PUSH32 0x496E76616C6964207769746864726177616C2061646472657373000000000000 PUSH1 0x0 DUP4 ADD MSTORE PUSH1 0x20 DUP3 ADD SWAP1 POP SWAP2 SWAP1 POP JUMP JUMPDEST PUSH1 0x0 PUSH2 0x107C PUSH1 0x17 DUP4 PUSH2 0x1318 JUMP JUMPDEST SWAP2 POP PUSH32 0x5472616E7366657220746F20706F6F6C206661696C6564000000000000000000 PUSH1 0x0 DUP4 ADD MSTORE PUSH1 0x20 DUP3 ADD SWAP1 POP SWAP2 SWAP1 POP JUMP JUMPDEST PUSH1 0x0 PUSH2 0x10BC PUSH1 0x1F DUP4 PUSH2 0x1318 JUMP JUMPDEST SWAP2 POP PUSH32 0x5265656E7472616E637947756172643A207265656E7472616E742063616C6C00 PUSH1 0x0 DUP4 ADD MSTORE PUSH1 0x20 DUP3 ADD SWAP1 POP SWAP2 SWAP1 POP JUMP JUMPDEST PUSH2 0x10F8 DUP2 PUSH2 0x1367 JUMP JUMPDEST DUP3 MSTORE POP POP JUMP JUMPDEST PUSH1 0x0 PUSH1 0x20 DUP3 ADD SWAP1 POP PUSH2 0x1113 PUSH1 0x0 DUP4 ADD DUP5 PUSH2 0xE05 JUMP JUMPDEST SWAP3 SWAP2 POP POP JUMP JUMPDEST PUSH1 0x0 PUSH1 0x40 DUP3 ADD SWAP1 POP PUSH2 0x112E PUSH1 0x0 DUP4 ADD DUP6 PUSH2 0xE05 JUMP JUMPDEST PUSH2 0x113B PUSH1 0x20 DUP4 ADD DUP5 PUSH2 0xE05 JUMP JUMPDEST SWAP4 SWAP3 POP POP POP JUMP JUMPDEST PUSH1 0x0 PUSH1 0x60 DUP3 ADD SWAP1 POP PUSH2 0x1157 PUSH1 0x0 DUP4 ADD DUP7 PUSH2 0xE05 JUMP JUMPDEST PUSH2 0x1164 PUSH1 0x20 DUP4 ADD DUP6 PUSH2 0xE05 JUMP JUMPDEST PUSH2 0x1171 PUSH1 0x40 DUP4 ADD DUP5 PUSH2 0x10EF JUMP JUMPDEST SWAP5 SWAP4 POP POP POP POP JUMP JUMPDEST PUSH1 0x0 PUSH1 0x40 DUP3 ADD SWAP1 POP PUSH2 0x118E PUSH1 0x0 DUP4 ADD DUP6 PUSH2 0xE05 JUMP JUMPDEST PUSH2 0x119B PUSH1 0x20 DUP4 ADD DUP5 PUSH2 0x10EF JUMP JUMPDEST SWAP4 SWAP3 POP POP POP JUMP JUMPDEST PUSH1 0x0 PUSH1 0x20 DUP3 ADD SWAP1 POP PUSH2 0x11B7 PUSH1 0x0 DUP4 ADD DUP5 PUSH2 0xE14 JUMP JUMPDEST SWAP3 SWAP2 POP POP JUMP JUMPDEST PUSH1 0x0 PUSH1 0x20 DUP3 ADD SWAP1 POP DUP2 DUP2 SUB PUSH1 0x0 DUP4 ADD MSTORE PUSH2 0x11D6 DUP2 PUSH2 0xE23 JUMP JUMPDEST SWAP1 POP SWAP2 SWAP1 POP JUMP JUMPDEST PUSH1 0x0 PUSH1 0x20 DUP3 ADD SWAP1 POP DUP2 DUP2 SUB PUSH1 0x0 DUP4 ADD MSTORE PUSH2 0x11F6 DUP2 PUSH2 0xE89 JUMP JUMPDEST SWAP1 POP SWAP2 SWAP1 POP JUMP JUMPDEST PUSH1 0x0 PUSH1 0x20 DUP3 ADD SWAP1 POP DUP2 DUP2 SUB PUSH1 0x0 DUP4 ADD MSTORE PUSH2 0x1216 DUP2 PUSH2 0xEC9 JUMP JUMPDEST SWAP1 POP SWAP2 SWAP1 POP JUMP JUMPDEST PUSH1 0x0 PUSH1 0x20 DUP3 ADD SWAP1 POP DUP2 DUP2 SUB PUSH1 0x0 DUP4 ADD MSTORE PUSH2 0x1236 DUP2 PUSH2 0xF09 JUMP JUMPDEST SWAP1 POP SWAP2 SWAP1 POP JUMP JUMPDEST PUSH1 0x0 PUSH1 0x20 DUP3 ADD SWAP1 POP DUP2 DUP2 SUB PUSH1 0x0 DUP4 ADD MSTORE PUSH2 0x1256 DUP2 PUSH2 0xF49 JUMP JUMPDEST SWAP1 POP SWAP2 SWAP1 POP JUMP JUMPDEST PUSH1 0x0 PUSH1 0x20 DUP3 ADD SWAP1 POP DUP2 DUP2 SUB PUSH1 0x0 DUP4 ADD MSTORE PUSH2 0x1276 DUP2 PUSH2 0xF89 JUMP JUMPDEST SWAP1 POP SWAP2 SWAP1 POP JUMP JUMPDEST PUSH1 0x0 PUSH1 0x20 DUP3 ADD SWAP1 POP DUP2 DUP2 SUB PUSH1 0x0 DUP4 ADD MSTORE PUSH2 0x1296 DUP2 PUSH2 0xFEF JUMP JUMPDEST SWAP1 POP SWAP2 SWAP1 POP JUMP JUMPDEST PUSH1 0x0 PUSH1 0x20 DUP3 ADD SWAP1 POP DUP2 DUP2 SUB PUSH1 0x0 DUP4 ADD MSTORE PUSH2 0x12B6 DUP2 PUSH2 0x102F JUMP JUMPDEST SWAP1 POP SWAP2 SWAP1 POP JUMP JUMPDEST PUSH1 0x0 PUSH1 0x20 DUP3 ADD SWAP1 POP DUP2 DUP2 SUB PUSH1 0x0 DUP4 ADD MSTORE PUSH2 0x12D6 DUP2 PUSH2 0x106F JUMP JUMPDEST SWAP1 POP SWAP2 SWAP1 POP JUMP JUMPDEST PUSH1 0x0 PUSH1 0x20 DUP3 ADD SWAP1 POP DUP2 DUP2 SUB PUSH1 0x0 DUP4 ADD MSTORE PUSH2 0x12F6 DUP2 PUSH2 0x10AF JUMP JUMPDEST SWAP1 POP SWAP2 SWAP1 POP JUMP JUMPDEST PUSH1 0x0 PUSH1 0x20 DUP3 ADD SWAP1 POP PUSH2 0x1312 PUSH1 0x0 DUP4 ADD DUP5 PUSH2 0x10EF JUMP JUMPDEST SWAP3 SWAP2 POP POP JUMP JUMPDEST PUSH1 0x0 DUP3 DUP3 MSTORE PUSH1 0x20 DUP3 ADD SWAP1 POP SWAP3 SWAP2 POP POP JUMP JUMPDEST PUSH1 0x0 PUSH2 0x1334 DUP3 PUSH2 0x1347 JUMP JUMPDEST SWAP1 POP SWAP2 SWAP1 POP JUMP JUMPDEST PUSH1 0x0 DUP2 ISZERO ISZERO SWAP1 POP SWAP2 SWAP1 POP JUMP JUMPDEST PUSH1 0x0 PUSH20 0xFFFFFFFFFFFFFFFFFFFFFFFFFFFFFFFFFFFFFFFF DUP3 AND SWAP1 POP SWAP2 SWAP1 POP JUMP JUMPDEST PUSH1 0x0 DUP2 SWAP1 POP SWAP2 SWAP1 POP JUMP JUMPDEST PUSH1 0x0 PUSH2 0x137C DUP3 PUSH2 0x1383 JUMP JUMPDEST SWAP1 POP SWAP2 SWAP1 POP JUMP JUMPDEST PUSH1 0x0 PUSH2 0x138E DUP3 PUSH2 0x1347 JUMP JUMPDEST SWAP1 POP SWAP2 SWAP1 POP JUMP JUMPDEST PUSH2 0x139E DUP2 PUSH2 0x1329 JUMP JUMPDEST DUP2 EQ PUSH2 0x13A9 JUMPI PUSH1 0x0 DUP1 REVERT JUMPDEST POP JUMP JUMPDEST PUSH2 0x13B5 DUP2 PUSH2 0x133B JUMP JUMPDEST DUP2 EQ PUSH2 0x13C0 JUMPI PUSH1 0x0 DUP1 REVERT JUMPDEST POP JUMP JUMPDEST PUSH2 0x13CC DUP2 PUSH2 0x1367 JUMP JUMPDEST DUP2 EQ PUSH2 0x13D7 JUMPI PUSH1 0x0 DUP1 REVERT JUMPDEST POP JUMP INVALID LOG2 PUSH5 0x6970667358 0x22 SLT KECCAK256 PUSH22 0x435AEEB6C44AF81E4C7D6FD42046AD26BBCF42DC8A0C SUB 0xD1 CALLDATASIZE JUMPDEST 0xCE MSIZE JUMPDEST LOG2 0xF8 PUSH5 0x736F6C6343 STOP ADDMOD STOP STOP CALLER "
				},
				"gasEstimates": {
					"creation": {
						"codeDepositCost": "1027200",
						"executionCost": "infinite",
						"totalCost": "infinite"
					},
					"external": {
						"approveContract(uint256)": "infinite",
						"blockCounter()": "1173",
						"depositAndTransfer(uint256)": "infinite",
						"owner()": "1222",
						"poolAddress()": "1215",
						"renounceOwnership()": "24487",
						"transferInterval()": "1152",
						"transferOwnership(address)": "infinite",
						"withdrawal(address,uint256)": "infinite",
						"wrappedToken()": "1279"
					},
					"internal": {
						"executeTransferToPool()": "infinite"
					}
				},
				"methodIdentifiers": {
					"approveContract(uint256)": "62c35c01",
					"blockCounter()": "bb413c8d",
					"depositAndTransfer(uint256)": "c4da9247",
					"owner()": "8da5cb5b",
					"poolAddress()": "1755ff21",
					"renounceOwnership()": "715018a6",
					"transferInterval()": "4abb3fac",
					"transferOwnership(address)": "f2fde38b",
					"withdrawal(address,uint256)": "5a6b26ba",
					"wrappedToken()": "996c6cc3"
				}
			},
			"storageLayout": {
				"storage": [
					{
						"astId": 91,
						"contract": "contract/VestingLiquidityHedgey_flattened.sol:VestingLiquidityHedgey",
						"label": "_owner",
						"offset": 0,
						"slot": "0",
						"type": "t_address"
					},
					{
						"astId": 10,
						"contract": "contract/VestingLiquidityHedgey_flattened.sol:VestingLiquidityHedgey",
						"label": "_status",
						"offset": 0,
						"slot": "1",
						"type": "t_uint256"
					},
					{
						"astId": 280,
						"contract": "contract/VestingLiquidityHedgey_flattened.sol:VestingLiquidityHedgey",
						"label": "poolAddress",
						"offset": 0,
						"slot": "2",
						"type": "t_address"
					},
					{
						"astId": 283,
						"contract": "contract/VestingLiquidityHedgey_flattened.sol:VestingLiquidityHedgey",
						"label": "wrappedToken",
						"offset": 0,
						"slot": "3",
						"type": "t_contract(IERC20)273"
					},
					{
						"astId": 285,
						"contract": "contract/VestingLiquidityHedgey_flattened.sol:VestingLiquidityHedgey",
						"label": "blockCounter",
						"offset": 0,
						"slot": "4",
						"type": "t_uint256"
					},
					{
						"astId": 288,
						"contract": "contract/VestingLiquidityHedgey_flattened.sol:VestingLiquidityHedgey",
						"label": "transferInterval",
						"offset": 0,
						"slot": "5",
						"type": "t_uint256"
					}
				],
				"types": {
					"t_address": {
						"encoding": "inplace",
						"label": "address",
						"numberOfBytes": "20"
					},
					"t_contract(IERC20)273": {
						"encoding": "inplace",
						"label": "contract IERC20",
						"numberOfBytes": "20"
					},
					"t_uint256": {
						"encoding": "inplace",
						"label": "uint256",
						"numberOfBytes": "32"
					}
				}
			},
			"userdoc": {
				"kind": "user",
				"methods": {},
				"version": 1
			}
		}
	}
}